{
	"Event.sol": {
		"Event": {
			"abi": [
				{
					"anonymous": false,
					"inputs": [
						{
							"indexed": true,
							"internalType": "address",
							"name": "sender",
							"type": "address"
						},
						{
							"indexed": false,
							"internalType": "uint256",
							"name": "val",
							"type": "uint256"
						}
					],
					"name": "IndexedLog",
					"type": "event"
				},
				{
					"anonymous": false,
					"inputs": [
						{
							"indexed": false,
							"internalType": "string",
							"name": "message",
							"type": "string"
						},
						{
							"indexed": false,
							"internalType": "uint256",
							"name": "val",
							"type": "uint256"
						}
					],
					"name": "Log",
					"type": "event"
				},
				{
					"inputs": [],
					"name": "example",
					"outputs": [],
					"stateMutability": "nonpayable",
					"type": "function"
				}
			],
			"devdoc": {
				"kind": "dev",
				"methods": {},
				"version": 1
			},
			"evm": {
				"assembly": "    /* \"Event.sol\":70:316  contract Event {... */\n  mstore(0x40, 0x80)\n  callvalue\n  dup1\n  iszero\n  tag_1\n  jumpi\n  0x00\n  dup1\n  revert\ntag_1:\n  pop\n  dataSize(sub_0)\n  dup1\n  dataOffset(sub_0)\n  0x00\n  codecopy\n  0x00\n  return\nstop\n\nsub_0: assembly {\n        /* \"Event.sol\":70:316  contract Event {... */\n      mstore(0x40, 0x80)\n      callvalue\n      dup1\n      iszero\n      tag_1\n      jumpi\n      0x00\n      dup1\n      revert\n    tag_1:\n      pop\n      jumpi(tag_2, lt(calldatasize, 0x04))\n      shr(0xe0, calldataload(0x00))\n      dup1\n      0x54353f2f\n      eq\n      tag_3\n      jumpi\n    tag_2:\n      0x00\n      dup1\n      revert\n        /* \"Event.sol\":197:307  function example() external {... */\n    tag_3:\n      tag_4\n      tag_5\n      jump\t// in\n    tag_4:\n      stop\n    tag_5:\n        /* \"Event.sol\":241:256  Log(\"foo\",1234) */\n      0xdd970dd9b5bfe707922155b058a407655cb18288b807e2216442bca8ad83d6b5\n        /* \"Event.sol\":251:255  1234 */\n      0x04d2\n        /* \"Event.sol\":241:256  Log(\"foo\",1234) */\n      mload(0x40)\n      tag_7\n      swap2\n      swap1\n      tag_8\n      jump\t// in\n    tag_7:\n      mload(0x40)\n      dup1\n      swap2\n      sub\n      swap1\n      log1\n        /* \"Event.sol\":283:293  msg.sender */\n      caller\n        /* \"Event.sol\":272:299  IndexedLog(msg.sender, 789) */\n      0xffffffffffffffffffffffffffffffffffffffff\n      and\n      0x919a4e0615aef45fd56105241973bd25f287f1040399e7c9f97fa2ca1c2b5174\n        /* \"Event.sol\":295:298  789 */\n      0x0315\n        /* \"Event.sol\":272:299  IndexedLog(msg.sender, 789) */\n      mload(0x40)\n      tag_9\n      swap2\n      swap1\n      tag_10\n      jump\t// in\n    tag_9:\n      mload(0x40)\n      dup1\n      swap2\n      sub\n      swap1\n      log2\n        /* \"Event.sol\":197:307  function example() external {... */\n      jump\t// out\n        /* \"#utility.yul\":7:176   */\n    tag_11:\n        /* \"#utility.yul\":91:102   */\n      0x00\n        /* \"#utility.yul\":125:131   */\n      dup3\n        /* \"#utility.yul\":120:123   */\n      dup3\n        /* \"#utility.yul\":113:132   */\n      mstore\n        /* \"#utility.yul\":165:169   */\n      0x20\n        /* \"#utility.yul\":160:163   */\n      dup3\n        /* \"#utility.yul\":156:170   */\n      add\n        /* \"#utility.yul\":141:170   */\n      swap1\n      pop\n        /* \"#utility.yul\":7:176   */\n      swap3\n      swap2\n      pop\n      pop\n      jump\t// out\n        /* \"#utility.yul\":182:335   */\n    tag_12:\n        /* \"#utility.yul\":322:327   */\n      0x666f6f0000000000000000000000000000000000000000000000000000000000\n        /* \"#utility.yul\":318:319   */\n      0x00\n        /* \"#utility.yul\":310:316   */\n      dup3\n        /* \"#utility.yul\":306:320   */\n      add\n        /* \"#utility.yul\":299:328   */\n      mstore\n        /* \"#utility.yul\":182:335   */\n      pop\n      jump\t// out\n        /* \"#utility.yul\":341:706   */\n    tag_13:\n        /* \"#utility.yul\":483:486   */\n      0x00\n        /* \"#utility.yul\":504:570   */\n      tag_26\n        /* \"#utility.yul\":568:569   */\n      0x03\n        /* \"#utility.yul\":563:566   */\n      dup4\n        /* \"#utility.yul\":504:570   */\n      tag_11\n      jump\t// in\n    tag_26:\n        /* \"#utility.yul\":497:570   */\n      swap2\n      pop\n        /* \"#utility.yul\":579:672   */\n      tag_27\n        /* \"#utility.yul\":668:671   */\n      dup3\n        /* \"#utility.yul\":579:672   */\n      tag_12\n      jump\t// in\n    tag_27:\n        /* \"#utility.yul\":697:699   */\n      0x20\n        /* \"#utility.yul\":692:695   */\n      dup3\n        /* \"#utility.yul\":688:700   */\n      add\n        /* \"#utility.yul\":681:700   */\n      swap1\n      pop\n        /* \"#utility.yul\":341:706   */\n      swap2\n      swap1\n      pop\n      jump\t// out\n        /* \"#utility.yul\":712:800   */\n    tag_14:\n        /* \"#utility.yul\":760:767   */\n      0x00\n        /* \"#utility.yul\":789:794   */\n      dup2\n        /* \"#utility.yul\":778:794   */\n      swap1\n      pop\n        /* \"#utility.yul\":712:800   */\n      swap2\n      swap1\n      pop\n      jump\t// out\n        /* \"#utility.yul\":806:883   */\n    tag_15:\n        /* \"#utility.yul\":843:850   */\n      0x00\n        /* \"#utility.yul\":872:877   */\n      dup2\n        /* \"#utility.yul\":861:877   */\n      swap1\n      pop\n        /* \"#utility.yul\":806:883   */\n      swap2\n      swap1\n      pop\n      jump\t// out\n        /* \"#utility.yul\":889:949   */\n    tag_16:\n        /* \"#utility.yul\":917:920   */\n      0x00\n        /* \"#utility.yul\":938:943   */\n      dup2\n        /* \"#utility.yul\":931:943   */\n      swap1\n      pop\n        /* \"#utility.yul\":889:949   */\n      swap2\n      swap1\n      pop\n      jump\t// out\n        /* \"#utility.yul\":955:1119   */\n    tag_17:\n        /* \"#utility.yul\":1016:1025   */\n      0x00\n        /* \"#utility.yul\":1049:1113   */\n      tag_32\n        /* \"#utility.yul\":1067:1112   */\n      tag_33\n        /* \"#utility.yul\":1076:1111   */\n      tag_34\n        /* \"#utility.yul\":1105:1110   */\n      dup5\n        /* \"#utility.yul\":1076:1111   */\n      tag_14\n      jump\t// in\n    tag_34:\n        /* \"#utility.yul\":1067:1112   */\n      tag_16\n      jump\t// in\n    tag_33:\n        /* \"#utility.yul\":1049:1113   */\n      tag_15\n      jump\t// in\n    tag_32:\n        /* \"#utility.yul\":1036:1113   */\n      swap1\n      pop\n        /* \"#utility.yul\":955:1119   */\n      swap2\n      swap1\n      pop\n      jump\t// out\n        /* \"#utility.yul\":1125:1278   */\n    tag_18:\n        /* \"#utility.yul\":1223:1271   */\n      tag_36\n        /* \"#utility.yul\":1265:1270   */\n      dup2\n        /* \"#utility.yul\":1223:1271   */\n      tag_17\n      jump\t// in\n    tag_36:\n        /* \"#utility.yul\":1218:1221   */\n      dup3\n        /* \"#utility.yul\":1211:1272   */\n      mstore\n        /* \"#utility.yul\":1125:1278   */\n      pop\n      pop\n      jump\t// out\n        /* \"#utility.yul\":1284:1835   */\n    tag_8:\n        /* \"#utility.yul\":1489:1493   */\n      0x00\n        /* \"#utility.yul\":1527:1529   */\n      0x40\n        /* \"#utility.yul\":1516:1525   */\n      dup3\n        /* \"#utility.yul\":1512:1530   */\n      add\n        /* \"#utility.yul\":1504:1530   */\n      swap1\n      pop\n        /* \"#utility.yul\":1576:1585   */\n      dup2\n        /* \"#utility.yul\":1570:1574   */\n      dup2\n        /* \"#utility.yul\":1566:1586   */\n      sub\n        /* \"#utility.yul\":1562:1563   */\n      0x00\n        /* \"#utility.yul\":1551:1560   */\n      dup4\n        /* \"#utility.yul\":1547:1564   */\n      add\n        /* \"#utility.yul\":1540:1587   */\n      mstore\n        /* \"#utility.yul\":1604:1735   */\n      tag_38\n        /* \"#utility.yul\":1730:1734   */\n      dup2\n        /* \"#utility.yul\":1604:1735   */\n      tag_13\n      jump\t// in\n    tag_38:\n        /* \"#utility.yul\":1596:1735   */\n      swap1\n      pop\n        /* \"#utility.yul\":1745:1828   */\n      tag_39\n        /* \"#utility.yul\":1824:1826   */\n      0x20\n        /* \"#utility.yul\":1813:1822   */\n      dup4\n        /* \"#utility.yul\":1809:1827   */\n      add\n        /* \"#utility.yul\":1800:1806   */\n      dup5\n        /* \"#utility.yul\":1745:1828   */\n      tag_18\n      jump\t// in\n    tag_39:\n        /* \"#utility.yul\":1284:1835   */\n      swap3\n      swap2\n      pop\n      pop\n      jump\t// out\n        /* \"#utility.yul\":1841:1928   */\n    tag_19:\n        /* \"#utility.yul\":1888:1895   */\n      0x00\n        /* \"#utility.yul\":1917:1922   */\n      dup2\n        /* \"#utility.yul\":1906:1922   */\n      swap1\n      pop\n        /* \"#utility.yul\":1841:1928   */\n      swap2\n      swap1\n      pop\n      jump\t// out\n        /* \"#utility.yul\":1934:2096   */\n    tag_20:\n        /* \"#utility.yul\":1994:2003   */\n      0x00\n        /* \"#utility.yul\":2027:2090   */\n      tag_42\n        /* \"#utility.yul\":2045:2089   */\n      tag_43\n        /* \"#utility.yul\":2054:2088   */\n      tag_44\n        /* \"#utility.yul\":2082:2087   */\n      dup5\n        /* \"#utility.yul\":2054:2088   */\n      tag_19\n      jump\t// in\n    tag_44:\n        /* \"#utility.yul\":2045:2089   */\n      tag_16\n      jump\t// in\n    tag_43:\n        /* \"#utility.yul\":2027:2090   */\n      tag_15\n      jump\t// in\n    tag_42:\n        /* \"#utility.yul\":2014:2090   */\n      swap1\n      pop\n        /* \"#utility.yul\":1934:2096   */\n      swap2\n      swap1\n      pop\n      jump\t// out\n        /* \"#utility.yul\":2102:2253   */\n    tag_21:\n        /* \"#utility.yul\":2199:2246   */\n      tag_46\n        /* \"#utility.yul\":2240:2245   */\n      dup2\n        /* \"#utility.yul\":2199:2246   */\n      tag_20\n      jump\t// in\n    tag_46:\n        /* \"#utility.yul\":2194:2197   */\n      dup3\n        /* \"#utility.yul\":2187:2247   */\n      mstore\n        /* \"#utility.yul\":2102:2253   */\n      pop\n      pop\n      jump\t// out\n        /* \"#utility.yul\":2259:2501   */\n    tag_10:\n        /* \"#utility.yul\":2362:2366   */\n      0x00\n        /* \"#utility.yul\":2400:2402   */\n      0x20\n        /* \"#utility.yul\":2389:2398   */\n      dup3\n        /* \"#utility.yul\":2385:2403   */\n      add\n        /* \"#utility.yul\":2377:2403   */\n      swap1\n      pop\n        /* \"#utility.yul\":2413:2494   */\n      tag_48\n        /* \"#utility.yul\":2491:2492   */\n      0x00\n        /* \"#utility.yul\":2480:2489   */\n      dup4\n        /* \"#utility.yul\":2476:2493   */\n      add\n        /* \"#utility.yul\":2467:2473   */\n      dup5\n        /* \"#utility.yul\":2413:2494   */\n      tag_21\n      jump\t// in\n    tag_48:\n        /* \"#utility.yul\":2259:2501   */\n      swap3\n      swap2\n      pop\n      pop\n      jump\t// out\n\n    auxdata: 0xa2646970667358221220a82dd232c8c36b65f2f76f9814bff006bd6712837f9dd56ee3776ea53e7ee58464736f6c63430008180033\n}\n",
				"bytecode": {
					"linkReferences": {},
					"object": "608060405234801561000f575f80fd5b5061021b8061001d5f395ff3fe608060405234801561000f575f80fd5b5060043610610029575f3560e01c806354353f2f1461002d575b5f80fd5b610035610037565b005b7fdd970dd9b5bfe707922155b058a407655cb18288b807e2216442bca8ad83d6b56104d26040516100689190610167565b60405180910390a13373ffffffffffffffffffffffffffffffffffffffff167f919a4e0615aef45fd56105241973bd25f287f1040399e7c9f97fa2ca1c2b51746103156040516100b891906101cc565b60405180910390a2565b5f82825260208201905092915050565b7f666f6f00000000000000000000000000000000000000000000000000000000005f82015250565b5f6101066003836100c2565b9150610111826100d2565b602082019050919050565b5f819050919050565b5f819050919050565b5f819050919050565b5f61015161014c6101478461011c565b61012e565b610125565b9050919050565b61016181610137565b82525050565b5f6040820190508181035f83015261017e816100fa565b905061018d6020830184610158565b92915050565b5f819050919050565b5f6101b66101b16101ac84610193565b61012e565b610125565b9050919050565b6101c68161019c565b82525050565b5f6020820190506101df5f8301846101bd565b9291505056fea2646970667358221220a82dd232c8c36b65f2f76f9814bff006bd6712837f9dd56ee3776ea53e7ee58464736f6c63430008180033",
					"opcodes": "PUSH1 0x80 PUSH1 0x40 MSTORE CALLVALUE DUP1 ISZERO PUSH2 0xF JUMPI PUSH0 DUP1 REVERT JUMPDEST POP PUSH2 0x21B DUP1 PUSH2 0x1D PUSH0 CODECOPY PUSH0 RETURN INVALID PUSH1 0x80 PUSH1 0x40 MSTORE CALLVALUE DUP1 ISZERO PUSH2 0xF JUMPI PUSH0 DUP1 REVERT JUMPDEST POP PUSH1 0x4 CALLDATASIZE LT PUSH2 0x29 JUMPI PUSH0 CALLDATALOAD PUSH1 0xE0 SHR DUP1 PUSH4 0x54353F2F EQ PUSH2 0x2D JUMPI JUMPDEST PUSH0 DUP1 REVERT JUMPDEST PUSH2 0x35 PUSH2 0x37 JUMP JUMPDEST STOP JUMPDEST PUSH32 0xDD970DD9B5BFE707922155B058A407655CB18288B807E2216442BCA8AD83D6B5 PUSH2 0x4D2 PUSH1 0x40 MLOAD PUSH2 0x68 SWAP2 SWAP1 PUSH2 0x167 JUMP JUMPDEST PUSH1 0x40 MLOAD DUP1 SWAP2 SUB SWAP1 LOG1 CALLER PUSH20 0xFFFFFFFFFFFFFFFFFFFFFFFFFFFFFFFFFFFFFFFF AND PUSH32 0x919A4E0615AEF45FD56105241973BD25F287F1040399E7C9F97FA2CA1C2B5174 PUSH2 0x315 PUSH1 0x40 MLOAD PUSH2 0xB8 SWAP2 SWAP1 PUSH2 0x1CC JUMP JUMPDEST PUSH1 0x40 MLOAD DUP1 SWAP2 SUB SWAP1 LOG2 JUMP JUMPDEST PUSH0 DUP3 DUP3 MSTORE PUSH1 0x20 DUP3 ADD SWAP1 POP SWAP3 SWAP2 POP POP JUMP JUMPDEST PUSH32 0x666F6F0000000000000000000000000000000000000000000000000000000000 PUSH0 DUP3 ADD MSTORE POP JUMP JUMPDEST PUSH0 PUSH2 0x106 PUSH1 0x3 DUP4 PUSH2 0xC2 JUMP JUMPDEST SWAP2 POP PUSH2 0x111 DUP3 PUSH2 0xD2 JUMP JUMPDEST PUSH1 0x20 DUP3 ADD SWAP1 POP SWAP2 SWAP1 POP JUMP JUMPDEST PUSH0 DUP2 SWAP1 POP SWAP2 SWAP1 POP JUMP JUMPDEST PUSH0 DUP2 SWAP1 POP SWAP2 SWAP1 POP JUMP JUMPDEST PUSH0 DUP2 SWAP1 POP SWAP2 SWAP1 POP JUMP JUMPDEST PUSH0 PUSH2 0x151 PUSH2 0x14C PUSH2 0x147 DUP5 PUSH2 0x11C JUMP JUMPDEST PUSH2 0x12E JUMP JUMPDEST PUSH2 0x125 JUMP JUMPDEST SWAP1 POP SWAP2 SWAP1 POP JUMP JUMPDEST PUSH2 0x161 DUP2 PUSH2 0x137 JUMP JUMPDEST DUP3 MSTORE POP POP JUMP JUMPDEST PUSH0 PUSH1 0x40 DUP3 ADD SWAP1 POP DUP2 DUP2 SUB PUSH0 DUP4 ADD MSTORE PUSH2 0x17E DUP2 PUSH2 0xFA JUMP JUMPDEST SWAP1 POP PUSH2 0x18D PUSH1 0x20 DUP4 ADD DUP5 PUSH2 0x158 JUMP JUMPDEST SWAP3 SWAP2 POP POP JUMP JUMPDEST PUSH0 DUP2 SWAP1 POP SWAP2 SWAP1 POP JUMP JUMPDEST PUSH0 PUSH2 0x1B6 PUSH2 0x1B1 PUSH2 0x1AC DUP5 PUSH2 0x193 JUMP JUMPDEST PUSH2 0x12E JUMP JUMPDEST PUSH2 0x125 JUMP JUMPDEST SWAP1 POP SWAP2 SWAP1 POP JUMP JUMPDEST PUSH2 0x1C6 DUP2 PUSH2 0x19C JUMP JUMPDEST DUP3 MSTORE POP POP JUMP JUMPDEST PUSH0 PUSH1 0x20 DUP3 ADD SWAP1 POP PUSH2 0x1DF PUSH0 DUP4 ADD DUP5 PUSH2 0x1BD JUMP JUMPDEST SWAP3 SWAP2 POP POP JUMP INVALID LOG2 PUSH5 0x6970667358 0x22 SLT KECCAK256 0xA8 0x2D 0xD2 ORIGIN 0xC8 0xC3 PUSH12 0x65F2F76F9814BFF006BD6712 DUP4 PUSH32 0x9DD56EE3776EA53E7EE58464736F6C6343000818003300000000000000000000 "
				},
				"gasEstimates": {
					"creation": {
						"codeDepositCost": "107800",
						"executionCost": "151",
						"totalCost": "107951"
					},
					"external": {
						"example()": "infinite"
					}
				},
				"methodIdentifiers": {
					"example()": "54353f2f"
				}
			},
			"storageLayout": {
				"storage": [],
				"types": null
			},
			"userdoc": {
				"kind": "user",
				"methods": {},
				"version": 1
			}
		}
	}
}