{
	"Proxy.sol": {
		"Proxy": {
			"abi": [
				{
					"anonymous": false,
					"inputs": [
						{
							"indexed": false,
							"internalType": "address",
							"name": "",
							"type": "address"
						}
					],
					"name": "Deploy",
					"type": "event"
				},
				{
					"stateMutability": "payable",
					"type": "fallback"
				},
				{
					"inputs": [
						{
							"internalType": "bytes",
							"name": "_code",
							"type": "bytes"
						}
					],
					"name": "delpoy",
					"outputs": [
						{
							"internalType": "address",
							"name": "addr",
							"type": "address"
						}
					],
					"stateMutability": "payable",
					"type": "function"
				},
				{
					"inputs": [
						{
							"internalType": "address",
							"name": "_target",
							"type": "address"
						},
						{
							"internalType": "bytes",
							"name": "_data",
							"type": "bytes"
						}
					],
					"name": "execute",
					"outputs": [],
					"stateMutability": "payable",
					"type": "function"
				}
			],
			"devdoc": {
				"kind": "dev",
				"methods": {},
				"version": 1
			},
			"evm": {
				"assembly": "    /* \"Proxy.sol\":494:1049  contract Proxy {... */\n  mstore(0x40, 0x80)\n  callvalue\n  dup1\n  iszero\n  tag_1\n  jumpi\n  0x00\n  dup1\n  revert\ntag_1:\n  pop\n  dataSize(sub_0)\n  dup1\n  dataOffset(sub_0)\n  0x00\n  codecopy\n  0x00\n  return\nstop\n\nsub_0: assembly {\n        /* \"Proxy.sol\":494:1049  contract Proxy {... */\n      mstore(0x40, 0x80)\n      jumpi(tag_1, lt(calldatasize, 0x04))\n      shr(0xe0, calldataload(0x00))\n      dup1\n      0x1cff79cd\n      eq\n      tag_3\n      jumpi\n      dup1\n      0x6b1f3154\n      eq\n      tag_4\n      jumpi\n      jump(tag_2)\n    tag_1:\n    tag_2:\n      stop\n        /* \"Proxy.sol\":864:1046  function execute(address _target,bytes memory _data) external payable  {... */\n    tag_3:\n      tag_7\n      0x04\n      dup1\n      calldatasize\n      sub\n      dup2\n      add\n      swap1\n      tag_8\n      swap2\n      swap1\n      tag_9\n      jump\t// in\n    tag_8:\n      tag_10\n      jump\t// in\n    tag_7:\n      stop\n        /* \"Proxy.sol\":585:856  function delpoy(bytes memory _code) external  payable returns(address addr) {... */\n    tag_4:\n      tag_11\n      0x04\n      dup1\n      calldatasize\n      sub\n      dup2\n      add\n      swap1\n      tag_12\n      swap2\n      swap1\n      tag_13\n      jump\t// in\n    tag_12:\n      tag_14\n      jump\t// in\n    tag_11:\n      mload(0x40)\n      tag_15\n      swap2\n      swap1\n      tag_16\n      jump\t// in\n    tag_15:\n      mload(0x40)\n      dup1\n      swap2\n      sub\n      swap1\n      return\n        /* \"Proxy.sol\":864:1046  function execute(address _target,bytes memory _data) external payable  {... */\n    tag_10:\n        /* \"Proxy.sol\":947:959  bool success */\n      0x00\n        /* \"Proxy.sol\":964:971  _target */\n      dup3\n        /* \"Proxy.sol\":964:976  _target.call */\n      0xffffffffffffffffffffffffffffffffffffffff\n      and\n        /* \"Proxy.sol\":985:994  msg.value */\n      callvalue\n        /* \"Proxy.sol\":996:1001  _data */\n      dup4\n        /* \"Proxy.sol\":964:1002  _target.call{value : msg.value}(_data) */\n      mload(0x40)\n      tag_18\n      swap2\n      swap1\n      tag_19\n      jump\t// in\n    tag_18:\n      0x00\n      mload(0x40)\n      dup1\n      dup4\n      sub\n      dup2\n      dup6\n      dup8\n      gas\n      call\n      swap3\n      pop\n      pop\n      pop\n      returndatasize\n      dup1\n      0x00\n      dup2\n      eq\n      tag_22\n      jumpi\n      mload(0x40)\n      swap2\n      pop\n      and(add(returndatasize, 0x3f), not(0x1f))\n      dup3\n      add\n      0x40\n      mstore\n      returndatasize\n      dup3\n      mstore\n      returndatasize\n      0x00\n      0x20\n      dup5\n      add\n      returndatacopy\n      jump(tag_21)\n    tag_22:\n      0x60\n      swap2\n      pop\n    tag_21:\n      pop\n        /* \"Proxy.sol\":946:1002  (bool success,) = _target.call{value : msg.value}(_data) */\n      pop\n      swap1\n      pop\n        /* \"Proxy.sol\":1021:1028  success */\n      dup1\n        /* \"Proxy.sol\":1013:1038  require(success,\"failed\") */\n      tag_23\n      jumpi\n      mload(0x40)\n      0x08c379a000000000000000000000000000000000000000000000000000000000\n      dup2\n      mstore\n      0x04\n      add\n      tag_24\n      swap1\n      tag_25\n      jump\t// in\n    tag_24:\n      mload(0x40)\n      dup1\n      swap2\n      sub\n      swap1\n      revert\n    tag_23:\n        /* \"Proxy.sol\":935:1046  {... */\n      pop\n        /* \"Proxy.sol\":864:1046  function execute(address _target,bytes memory _data) external payable  {... */\n      pop\n      pop\n      jump\t// out\n        /* \"Proxy.sol\":585:856  function delpoy(bytes memory _code) external  payable returns(address addr) {... */\n    tag_14:\n        /* \"Proxy.sol\":647:659  address addr */\n      0x00\n        /* \"Proxy.sol\":745:750  _code */\n      dup2\n        /* \"Proxy.sol\":739:751  mload(_code) */\n      mload\n        /* \"Proxy.sol\":733:737  0x20 */\n      0x20\n        /* \"Proxy.sol\":727:732  _code */\n      dup4\n        /* \"Proxy.sol\":723:738  add(_code,0x20) */\n      add\n        /* \"Proxy.sol\":711:722  callvalue() */\n      callvalue\n        /* \"Proxy.sol\":704:752  create(callvalue(),add(_code,0x20),mload(_code)) */\n      create\n        /* \"Proxy.sol\":696:752  addr := create(callvalue(),add(_code,0x20),mload(_code)) */\n      swap1\n      pop\n        /* \"Proxy.sol\":799:800  0 */\n      0x00\n        /* \"Proxy.sol\":783:801  addr != address(0) */\n      0xffffffffffffffffffffffffffffffffffffffff\n      and\n        /* \"Proxy.sol\":783:787  addr */\n      dup2\n        /* \"Proxy.sol\":783:801  addr != address(0) */\n      0xffffffffffffffffffffffffffffffffffffffff\n      and\n      sub\n        /* \"Proxy.sol\":775:818  require(addr != address(0),\"deploy failed\") */\n      tag_27\n      jumpi\n      mload(0x40)\n      0x08c379a000000000000000000000000000000000000000000000000000000000\n      dup2\n      mstore\n      0x04\n      add\n      tag_28\n      swap1\n      tag_29\n      jump\t// in\n    tag_28:\n      mload(0x40)\n      dup1\n      swap2\n      sub\n      swap1\n      revert\n    tag_27:\n        /* \"Proxy.sol\":836:848  Deploy(addr) */\n      0x55ea6c6b31543d8e2ec6a72f71a79c0f4b72ed0d4757172b043d8f4f4cd84848\n        /* \"Proxy.sol\":843:847  addr */\n      dup2\n        /* \"Proxy.sol\":836:848  Deploy(addr) */\n      mload(0x40)\n      tag_30\n      swap2\n      swap1\n      tag_16\n      jump\t// in\n    tag_30:\n      mload(0x40)\n      dup1\n      swap2\n      sub\n      swap1\n      log1\n        /* \"Proxy.sol\":585:856  function delpoy(bytes memory _code) external  payable returns(address addr) {... */\n      swap2\n      swap1\n      pop\n      jump\t// out\n        /* \"#utility.yul\":7:82   */\n    tag_31:\n        /* \"#utility.yul\":40:46   */\n      0x00\n        /* \"#utility.yul\":73:75   */\n      0x40\n        /* \"#utility.yul\":67:76   */\n      mload\n        /* \"#utility.yul\":57:76   */\n      swap1\n      pop\n        /* \"#utility.yul\":7:82   */\n      swap1\n      jump\t// out\n        /* \"#utility.yul\":88:205   */\n    tag_32:\n        /* \"#utility.yul\":197:198   */\n      0x00\n        /* \"#utility.yul\":194:195   */\n      dup1\n        /* \"#utility.yul\":187:199   */\n      revert\n        /* \"#utility.yul\":211:328   */\n    tag_33:\n        /* \"#utility.yul\":320:321   */\n      0x00\n        /* \"#utility.yul\":317:318   */\n      dup1\n        /* \"#utility.yul\":310:322   */\n      revert\n        /* \"#utility.yul\":334:460   */\n    tag_34:\n        /* \"#utility.yul\":371:378   */\n      0x00\n        /* \"#utility.yul\":411:453   */\n      0xffffffffffffffffffffffffffffffffffffffff\n        /* \"#utility.yul\":404:409   */\n      dup3\n        /* \"#utility.yul\":400:454   */\n      and\n        /* \"#utility.yul\":389:454   */\n      swap1\n      pop\n        /* \"#utility.yul\":334:460   */\n      swap2\n      swap1\n      pop\n      jump\t// out\n        /* \"#utility.yul\":466:562   */\n    tag_35:\n        /* \"#utility.yul\":503:510   */\n      0x00\n        /* \"#utility.yul\":532:556   */\n      tag_64\n        /* \"#utility.yul\":550:555   */\n      dup3\n        /* \"#utility.yul\":532:556   */\n      tag_34\n      jump\t// in\n    tag_64:\n        /* \"#utility.yul\":521:556   */\n      swap1\n      pop\n        /* \"#utility.yul\":466:562   */\n      swap2\n      swap1\n      pop\n      jump\t// out\n        /* \"#utility.yul\":568:690   */\n    tag_36:\n        /* \"#utility.yul\":641:665   */\n      tag_66\n        /* \"#utility.yul\":659:664   */\n      dup2\n        /* \"#utility.yul\":641:665   */\n      tag_35\n      jump\t// in\n    tag_66:\n        /* \"#utility.yul\":634:639   */\n      dup2\n        /* \"#utility.yul\":631:666   */\n      eq\n        /* \"#utility.yul\":621:684   */\n      tag_67\n      jumpi\n        /* \"#utility.yul\":680:681   */\n      0x00\n        /* \"#utility.yul\":677:678   */\n      dup1\n        /* \"#utility.yul\":670:682   */\n      revert\n        /* \"#utility.yul\":621:684   */\n    tag_67:\n        /* \"#utility.yul\":568:690   */\n      pop\n      jump\t// out\n        /* \"#utility.yul\":696:835   */\n    tag_37:\n        /* \"#utility.yul\":742:747   */\n      0x00\n        /* \"#utility.yul\":780:786   */\n      dup2\n        /* \"#utility.yul\":767:787   */\n      calldataload\n        /* \"#utility.yul\":758:787   */\n      swap1\n      pop\n        /* \"#utility.yul\":796:829   */\n      tag_69\n        /* \"#utility.yul\":823:828   */\n      dup2\n        /* \"#utility.yul\":796:829   */\n      tag_36\n      jump\t// in\n    tag_69:\n        /* \"#utility.yul\":696:835   */\n      swap3\n      swap2\n      pop\n      pop\n      jump\t// out\n        /* \"#utility.yul\":841:958   */\n    tag_38:\n        /* \"#utility.yul\":950:951   */\n      0x00\n        /* \"#utility.yul\":947:948   */\n      dup1\n        /* \"#utility.yul\":940:952   */\n      revert\n        /* \"#utility.yul\":964:1081   */\n    tag_39:\n        /* \"#utility.yul\":1073:1074   */\n      0x00\n        /* \"#utility.yul\":1070:1071   */\n      dup1\n        /* \"#utility.yul\":1063:1075   */\n      revert\n        /* \"#utility.yul\":1087:1189   */\n    tag_40:\n        /* \"#utility.yul\":1128:1134   */\n      0x00\n        /* \"#utility.yul\":1179:1181   */\n      0x1f\n        /* \"#utility.yul\":1175:1182   */\n      not\n        /* \"#utility.yul\":1170:1172   */\n      0x1f\n        /* \"#utility.yul\":1163:1168   */\n      dup4\n        /* \"#utility.yul\":1159:1173   */\n      add\n        /* \"#utility.yul\":1155:1183   */\n      and\n        /* \"#utility.yul\":1145:1183   */\n      swap1\n      pop\n        /* \"#utility.yul\":1087:1189   */\n      swap2\n      swap1\n      pop\n      jump\t// out\n        /* \"#utility.yul\":1195:1375   */\n    tag_41:\n        /* \"#utility.yul\":1243:1320   */\n      0x4e487b7100000000000000000000000000000000000000000000000000000000\n        /* \"#utility.yul\":1240:1241   */\n      0x00\n        /* \"#utility.yul\":1233:1321   */\n      mstore\n        /* \"#utility.yul\":1340:1344   */\n      0x41\n        /* \"#utility.yul\":1337:1338   */\n      0x04\n        /* \"#utility.yul\":1330:1345   */\n      mstore\n        /* \"#utility.yul\":1364:1368   */\n      0x24\n        /* \"#utility.yul\":1361:1362   */\n      0x00\n        /* \"#utility.yul\":1354:1369   */\n      revert\n        /* \"#utility.yul\":1381:1662   */\n    tag_42:\n        /* \"#utility.yul\":1464:1491   */\n      tag_75\n        /* \"#utility.yul\":1486:1490   */\n      dup3\n        /* \"#utility.yul\":1464:1491   */\n      tag_40\n      jump\t// in\n    tag_75:\n        /* \"#utility.yul\":1456:1462   */\n      dup2\n        /* \"#utility.yul\":1452:1492   */\n      add\n        /* \"#utility.yul\":1594:1600   */\n      dup2\n        /* \"#utility.yul\":1582:1592   */\n      dup2\n        /* \"#utility.yul\":1579:1601   */\n      lt\n        /* \"#utility.yul\":1558:1576   */\n      0xffffffffffffffff\n        /* \"#utility.yul\":1546:1556   */\n      dup3\n        /* \"#utility.yul\":1543:1577   */\n      gt\n        /* \"#utility.yul\":1540:1602   */\n      or\n        /* \"#utility.yul\":1537:1625   */\n      iszero\n      tag_76\n      jumpi\n        /* \"#utility.yul\":1605:1623   */\n      tag_77\n      tag_41\n      jump\t// in\n    tag_77:\n        /* \"#utility.yul\":1537:1625   */\n    tag_76:\n        /* \"#utility.yul\":1645:1655   */\n      dup1\n        /* \"#utility.yul\":1641:1643   */\n      0x40\n        /* \"#utility.yul\":1634:1656   */\n      mstore\n        /* \"#utility.yul\":1424:1662   */\n      pop\n        /* \"#utility.yul\":1381:1662   */\n      pop\n      pop\n      jump\t// out\n        /* \"#utility.yul\":1668:1797   */\n    tag_43:\n        /* \"#utility.yul\":1702:1708   */\n      0x00\n        /* \"#utility.yul\":1729:1749   */\n      tag_79\n      tag_31\n      jump\t// in\n    tag_79:\n        /* \"#utility.yul\":1719:1749   */\n      swap1\n      pop\n        /* \"#utility.yul\":1758:1791   */\n      tag_80\n        /* \"#utility.yul\":1786:1790   */\n      dup3\n        /* \"#utility.yul\":1778:1784   */\n      dup3\n        /* \"#utility.yul\":1758:1791   */\n      tag_42\n      jump\t// in\n    tag_80:\n        /* \"#utility.yul\":1668:1797   */\n      swap2\n      swap1\n      pop\n      jump\t// out\n        /* \"#utility.yul\":1803:2110   */\n    tag_44:\n        /* \"#utility.yul\":1864:1868   */\n      0x00\n        /* \"#utility.yul\":1954:1972   */\n      0xffffffffffffffff\n        /* \"#utility.yul\":1946:1952   */\n      dup3\n        /* \"#utility.yul\":1943:1973   */\n      gt\n        /* \"#utility.yul\":1940:1996   */\n      iszero\n      tag_82\n      jumpi\n        /* \"#utility.yul\":1976:1994   */\n      tag_83\n      tag_41\n      jump\t// in\n    tag_83:\n        /* \"#utility.yul\":1940:1996   */\n    tag_82:\n        /* \"#utility.yul\":2014:2043   */\n      tag_84\n        /* \"#utility.yul\":2036:2042   */\n      dup3\n        /* \"#utility.yul\":2014:2043   */\n      tag_40\n      jump\t// in\n    tag_84:\n        /* \"#utility.yul\":2006:2043   */\n      swap1\n      pop\n        /* \"#utility.yul\":2098:2102   */\n      0x20\n        /* \"#utility.yul\":2092:2096   */\n      dup2\n        /* \"#utility.yul\":2088:2103   */\n      add\n        /* \"#utility.yul\":2080:2103   */\n      swap1\n      pop\n        /* \"#utility.yul\":1803:2110   */\n      swap2\n      swap1\n      pop\n      jump\t// out\n        /* \"#utility.yul\":2116:2262   */\n    tag_45:\n        /* \"#utility.yul\":2213:2219   */\n      dup3\n        /* \"#utility.yul\":2208:2211   */\n      dup2\n        /* \"#utility.yul\":2203:2206   */\n      dup4\n        /* \"#utility.yul\":2190:2220   */\n      calldatacopy\n        /* \"#utility.yul\":2254:2255   */\n      0x00\n        /* \"#utility.yul\":2245:2251   */\n      dup4\n        /* \"#utility.yul\":2240:2243   */\n      dup4\n        /* \"#utility.yul\":2236:2252   */\n      add\n        /* \"#utility.yul\":2229:2256   */\n      mstore\n        /* \"#utility.yul\":2116:2262   */\n      pop\n      pop\n      pop\n      jump\t// out\n        /* \"#utility.yul\":2268:2691   */\n    tag_46:\n        /* \"#utility.yul\":2345:2350   */\n      0x00\n        /* \"#utility.yul\":2370:2435   */\n      tag_87\n        /* \"#utility.yul\":2386:2434   */\n      tag_88\n        /* \"#utility.yul\":2427:2433   */\n      dup5\n        /* \"#utility.yul\":2386:2434   */\n      tag_44\n      jump\t// in\n    tag_88:\n        /* \"#utility.yul\":2370:2435   */\n      tag_43\n      jump\t// in\n    tag_87:\n        /* \"#utility.yul\":2361:2435   */\n      swap1\n      pop\n        /* \"#utility.yul\":2458:2464   */\n      dup3\n        /* \"#utility.yul\":2451:2456   */\n      dup2\n        /* \"#utility.yul\":2444:2465   */\n      mstore\n        /* \"#utility.yul\":2496:2500   */\n      0x20\n        /* \"#utility.yul\":2489:2494   */\n      dup2\n        /* \"#utility.yul\":2485:2501   */\n      add\n        /* \"#utility.yul\":2534:2537   */\n      dup5\n        /* \"#utility.yul\":2525:2531   */\n      dup5\n        /* \"#utility.yul\":2520:2523   */\n      dup5\n        /* \"#utility.yul\":2516:2532   */\n      add\n        /* \"#utility.yul\":2513:2538   */\n      gt\n        /* \"#utility.yul\":2510:2622   */\n      iszero\n      tag_89\n      jumpi\n        /* \"#utility.yul\":2541:2620   */\n      tag_90\n      tag_39\n      jump\t// in\n    tag_90:\n        /* \"#utility.yul\":2510:2622   */\n    tag_89:\n        /* \"#utility.yul\":2631:2685   */\n      tag_91\n        /* \"#utility.yul\":2678:2684   */\n      dup5\n        /* \"#utility.yul\":2673:2676   */\n      dup3\n        /* \"#utility.yul\":2668:2671   */\n      dup6\n        /* \"#utility.yul\":2631:2685   */\n      tag_45\n      jump\t// in\n    tag_91:\n        /* \"#utility.yul\":2351:2691   */\n      pop\n        /* \"#utility.yul\":2268:2691   */\n      swap4\n      swap3\n      pop\n      pop\n      pop\n      jump\t// out\n        /* \"#utility.yul\":2710:3048   */\n    tag_47:\n        /* \"#utility.yul\":2765:2770   */\n      0x00\n        /* \"#utility.yul\":2814:2817   */\n      dup3\n        /* \"#utility.yul\":2807:2811   */\n      0x1f\n        /* \"#utility.yul\":2799:2805   */\n      dup4\n        /* \"#utility.yul\":2795:2812   */\n      add\n        /* \"#utility.yul\":2791:2818   */\n      slt\n        /* \"#utility.yul\":2781:2903   */\n      tag_93\n      jumpi\n        /* \"#utility.yul\":2822:2901   */\n      tag_94\n      tag_38\n      jump\t// in\n    tag_94:\n        /* \"#utility.yul\":2781:2903   */\n    tag_93:\n        /* \"#utility.yul\":2939:2945   */\n      dup2\n        /* \"#utility.yul\":2926:2946   */\n      calldataload\n        /* \"#utility.yul\":2964:3042   */\n      tag_95\n        /* \"#utility.yul\":3038:3041   */\n      dup5\n        /* \"#utility.yul\":3030:3036   */\n      dup3\n        /* \"#utility.yul\":3023:3027   */\n      0x20\n        /* \"#utility.yul\":3015:3021   */\n      dup7\n        /* \"#utility.yul\":3011:3028   */\n      add\n        /* \"#utility.yul\":2964:3042   */\n      tag_46\n      jump\t// in\n    tag_95:\n        /* \"#utility.yul\":2955:3042   */\n      swap2\n      pop\n        /* \"#utility.yul\":2771:3048   */\n      pop\n        /* \"#utility.yul\":2710:3048   */\n      swap3\n      swap2\n      pop\n      pop\n      jump\t// out\n        /* \"#utility.yul\":3054:3706   */\n    tag_9:\n        /* \"#utility.yul\":3131:3137   */\n      0x00\n        /* \"#utility.yul\":3139:3145   */\n      dup1\n        /* \"#utility.yul\":3188:3190   */\n      0x40\n        /* \"#utility.yul\":3176:3185   */\n      dup4\n        /* \"#utility.yul\":3167:3174   */\n      dup6\n        /* \"#utility.yul\":3163:3186   */\n      sub\n        /* \"#utility.yul\":3159:3191   */\n      slt\n        /* \"#utility.yul\":3156:3275   */\n      iszero\n      tag_97\n      jumpi\n        /* \"#utility.yul\":3194:3273   */\n      tag_98\n      tag_32\n      jump\t// in\n    tag_98:\n        /* \"#utility.yul\":3156:3275   */\n    tag_97:\n        /* \"#utility.yul\":3314:3315   */\n      0x00\n        /* \"#utility.yul\":3339:3392   */\n      tag_99\n        /* \"#utility.yul\":3384:3391   */\n      dup6\n        /* \"#utility.yul\":3375:3381   */\n      dup3\n        /* \"#utility.yul\":3364:3373   */\n      dup7\n        /* \"#utility.yul\":3360:3382   */\n      add\n        /* \"#utility.yul\":3339:3392   */\n      tag_37\n      jump\t// in\n    tag_99:\n        /* \"#utility.yul\":3329:3392   */\n      swap3\n      pop\n        /* \"#utility.yul\":3285:3402   */\n      pop\n        /* \"#utility.yul\":3469:3471   */\n      0x20\n        /* \"#utility.yul\":3458:3467   */\n      dup4\n        /* \"#utility.yul\":3454:3472   */\n      add\n        /* \"#utility.yul\":3441:3473   */\n      calldataload\n        /* \"#utility.yul\":3500:3518   */\n      0xffffffffffffffff\n        /* \"#utility.yul\":3492:3498   */\n      dup2\n        /* \"#utility.yul\":3489:3519   */\n      gt\n        /* \"#utility.yul\":3486:3603   */\n      iszero\n      tag_100\n      jumpi\n        /* \"#utility.yul\":3522:3601   */\n      tag_101\n      tag_33\n      jump\t// in\n    tag_101:\n        /* \"#utility.yul\":3486:3603   */\n    tag_100:\n        /* \"#utility.yul\":3627:3689   */\n      tag_102\n        /* \"#utility.yul\":3681:3688   */\n      dup6\n        /* \"#utility.yul\":3672:3678   */\n      dup3\n        /* \"#utility.yul\":3661:3670   */\n      dup7\n        /* \"#utility.yul\":3657:3679   */\n      add\n        /* \"#utility.yul\":3627:3689   */\n      tag_47\n      jump\t// in\n    tag_102:\n        /* \"#utility.yul\":3617:3689   */\n      swap2\n      pop\n        /* \"#utility.yul\":3412:3699   */\n      pop\n        /* \"#utility.yul\":3054:3706   */\n      swap3\n      pop\n      swap3\n      swap1\n      pop\n      jump\t// out\n        /* \"#utility.yul\":3712:4219   */\n    tag_13:\n        /* \"#utility.yul\":3780:3786   */\n      0x00\n        /* \"#utility.yul\":3829:3831   */\n      0x20\n        /* \"#utility.yul\":3817:3826   */\n      dup3\n        /* \"#utility.yul\":3808:3815   */\n      dup5\n        /* \"#utility.yul\":3804:3827   */\n      sub\n        /* \"#utility.yul\":3800:3832   */\n      slt\n        /* \"#utility.yul\":3797:3916   */\n      iszero\n      tag_104\n      jumpi\n        /* \"#utility.yul\":3835:3914   */\n      tag_105\n      tag_32\n      jump\t// in\n    tag_105:\n        /* \"#utility.yul\":3797:3916   */\n    tag_104:\n        /* \"#utility.yul\":3983:3984   */\n      0x00\n        /* \"#utility.yul\":3972:3981   */\n      dup3\n        /* \"#utility.yul\":3968:3985   */\n      add\n        /* \"#utility.yul\":3955:3986   */\n      calldataload\n        /* \"#utility.yul\":4013:4031   */\n      0xffffffffffffffff\n        /* \"#utility.yul\":4005:4011   */\n      dup2\n        /* \"#utility.yul\":4002:4032   */\n      gt\n        /* \"#utility.yul\":3999:4116   */\n      iszero\n      tag_106\n      jumpi\n        /* \"#utility.yul\":4035:4114   */\n      tag_107\n      tag_33\n      jump\t// in\n    tag_107:\n        /* \"#utility.yul\":3999:4116   */\n    tag_106:\n        /* \"#utility.yul\":4140:4202   */\n      tag_108\n        /* \"#utility.yul\":4194:4201   */\n      dup5\n        /* \"#utility.yul\":4185:4191   */\n      dup3\n        /* \"#utility.yul\":4174:4183   */\n      dup6\n        /* \"#utility.yul\":4170:4192   */\n      add\n        /* \"#utility.yul\":4140:4202   */\n      tag_47\n      jump\t// in\n    tag_108:\n        /* \"#utility.yul\":4130:4202   */\n      swap2\n      pop\n        /* \"#utility.yul\":3926:4212   */\n      pop\n        /* \"#utility.yul\":3712:4219   */\n      swap3\n      swap2\n      pop\n      pop\n      jump\t// out\n        /* \"#utility.yul\":4225:4343   */\n    tag_48:\n        /* \"#utility.yul\":4312:4336   */\n      tag_110\n        /* \"#utility.yul\":4330:4335   */\n      dup2\n        /* \"#utility.yul\":4312:4336   */\n      tag_35\n      jump\t// in\n    tag_110:\n        /* \"#utility.yul\":4307:4310   */\n      dup3\n        /* \"#utility.yul\":4300:4337   */\n      mstore\n        /* \"#utility.yul\":4225:4343   */\n      pop\n      pop\n      jump\t// out\n        /* \"#utility.yul\":4349:4571   */\n    tag_16:\n        /* \"#utility.yul\":4442:4446   */\n      0x00\n        /* \"#utility.yul\":4480:4482   */\n      0x20\n        /* \"#utility.yul\":4469:4478   */\n      dup3\n        /* \"#utility.yul\":4465:4483   */\n      add\n        /* \"#utility.yul\":4457:4483   */\n      swap1\n      pop\n        /* \"#utility.yul\":4493:4564   */\n      tag_112\n        /* \"#utility.yul\":4561:4562   */\n      0x00\n        /* \"#utility.yul\":4550:4559   */\n      dup4\n        /* \"#utility.yul\":4546:4563   */\n      add\n        /* \"#utility.yul\":4537:4543   */\n      dup5\n        /* \"#utility.yul\":4493:4564   */\n      tag_48\n      jump\t// in\n    tag_112:\n        /* \"#utility.yul\":4349:4571   */\n      swap3\n      swap2\n      pop\n      pop\n      jump\t// out\n        /* \"#utility.yul\":4577:4675   */\n    tag_49:\n        /* \"#utility.yul\":4628:4634   */\n      0x00\n        /* \"#utility.yul\":4662:4667   */\n      dup2\n        /* \"#utility.yul\":4656:4668   */\n      mload\n        /* \"#utility.yul\":4646:4668   */\n      swap1\n      pop\n        /* \"#utility.yul\":4577:4675   */\n      swap2\n      swap1\n      pop\n      jump\t// out\n        /* \"#utility.yul\":4681:4828   */\n    tag_50:\n        /* \"#utility.yul\":4782:4793   */\n      0x00\n        /* \"#utility.yul\":4819:4822   */\n      dup2\n        /* \"#utility.yul\":4804:4822   */\n      swap1\n      pop\n        /* \"#utility.yul\":4681:4828   */\n      swap3\n      swap2\n      pop\n      pop\n      jump\t// out\n        /* \"#utility.yul\":4834:5080   */\n    tag_51:\n        /* \"#utility.yul\":4915:4916   */\n      0x00\n        /* \"#utility.yul\":4925:5038   */\n    tag_116:\n        /* \"#utility.yul\":4939:4945   */\n      dup4\n        /* \"#utility.yul\":4936:4937   */\n      dup2\n        /* \"#utility.yul\":4933:4946   */\n      lt\n        /* \"#utility.yul\":4925:5038   */\n      iszero\n      tag_118\n      jumpi\n        /* \"#utility.yul\":5024:5025   */\n      dup1\n        /* \"#utility.yul\":5019:5022   */\n      dup3\n        /* \"#utility.yul\":5015:5026   */\n      add\n        /* \"#utility.yul\":5009:5027   */\n      mload\n        /* \"#utility.yul\":5005:5006   */\n      dup2\n        /* \"#utility.yul\":5000:5003   */\n      dup5\n        /* \"#utility.yul\":4996:5007   */\n      add\n        /* \"#utility.yul\":4989:5028   */\n      mstore\n        /* \"#utility.yul\":4961:4963   */\n      0x20\n        /* \"#utility.yul\":4958:4959   */\n      dup2\n        /* \"#utility.yul\":4954:4964   */\n      add\n        /* \"#utility.yul\":4949:4964   */\n      swap1\n      pop\n        /* \"#utility.yul\":4925:5038   */\n      jump(tag_116)\n    tag_118:\n        /* \"#utility.yul\":5072:5073   */\n      0x00\n        /* \"#utility.yul\":5063:5069   */\n      dup5\n        /* \"#utility.yul\":5058:5061   */\n      dup5\n        /* \"#utility.yul\":5054:5070   */\n      add\n        /* \"#utility.yul\":5047:5074   */\n      mstore\n        /* \"#utility.yul\":4896:5080   */\n      pop\n        /* \"#utility.yul\":4834:5080   */\n      pop\n      pop\n      pop\n      jump\t// out\n        /* \"#utility.yul\":5086:5472   */\n    tag_52:\n        /* \"#utility.yul\":5190:5193   */\n      0x00\n        /* \"#utility.yul\":5218:5256   */\n      tag_120\n        /* \"#utility.yul\":5250:5255   */\n      dup3\n        /* \"#utility.yul\":5218:5256   */\n      tag_49\n      jump\t// in\n    tag_120:\n        /* \"#utility.yul\":5272:5360   */\n      tag_121\n        /* \"#utility.yul\":5353:5359   */\n      dup2\n        /* \"#utility.yul\":5348:5351   */\n      dup6\n        /* \"#utility.yul\":5272:5360   */\n      tag_50\n      jump\t// in\n    tag_121:\n        /* \"#utility.yul\":5265:5360   */\n      swap4\n      pop\n        /* \"#utility.yul\":5369:5434   */\n      tag_122\n        /* \"#utility.yul\":5427:5433   */\n      dup2\n        /* \"#utility.yul\":5422:5425   */\n      dup6\n        /* \"#utility.yul\":5415:5419   */\n      0x20\n        /* \"#utility.yul\":5408:5413   */\n      dup7\n        /* \"#utility.yul\":5404:5420   */\n      add\n        /* \"#utility.yul\":5369:5434   */\n      tag_51\n      jump\t// in\n    tag_122:\n        /* \"#utility.yul\":5459:5465   */\n      dup1\n        /* \"#utility.yul\":5454:5457   */\n      dup5\n        /* \"#utility.yul\":5450:5466   */\n      add\n        /* \"#utility.yul\":5443:5466   */\n      swap2\n      pop\n        /* \"#utility.yul\":5194:5472   */\n      pop\n        /* \"#utility.yul\":5086:5472   */\n      swap3\n      swap2\n      pop\n      pop\n      jump\t// out\n        /* \"#utility.yul\":5478:5749   */\n    tag_19:\n        /* \"#utility.yul\":5608:5611   */\n      0x00\n        /* \"#utility.yul\":5630:5723   */\n      tag_124\n        /* \"#utility.yul\":5719:5722   */\n      dup3\n        /* \"#utility.yul\":5710:5716   */\n      dup5\n        /* \"#utility.yul\":5630:5723   */\n      tag_52\n      jump\t// in\n    tag_124:\n        /* \"#utility.yul\":5623:5723   */\n      swap2\n      pop\n        /* \"#utility.yul\":5740:5743   */\n      dup2\n        /* \"#utility.yul\":5733:5743   */\n      swap1\n      pop\n        /* \"#utility.yul\":5478:5749   */\n      swap3\n      swap2\n      pop\n      pop\n      jump\t// out\n        /* \"#utility.yul\":5755:5924   */\n    tag_53:\n        /* \"#utility.yul\":5839:5850   */\n      0x00\n        /* \"#utility.yul\":5873:5879   */\n      dup3\n        /* \"#utility.yul\":5868:5871   */\n      dup3\n        /* \"#utility.yul\":5861:5880   */\n      mstore\n        /* \"#utility.yul\":5913:5917   */\n      0x20\n        /* \"#utility.yul\":5908:5911   */\n      dup3\n        /* \"#utility.yul\":5904:5918   */\n      add\n        /* \"#utility.yul\":5889:5918   */\n      swap1\n      pop\n        /* \"#utility.yul\":5755:5924   */\n      swap3\n      swap2\n      pop\n      pop\n      jump\t// out\n        /* \"#utility.yul\":5930:6086   */\n    tag_54:\n        /* \"#utility.yul\":6070:6078   */\n      0x6661696c65640000000000000000000000000000000000000000000000000000\n        /* \"#utility.yul\":6066:6067   */\n      0x00\n        /* \"#utility.yul\":6058:6064   */\n      dup3\n        /* \"#utility.yul\":6054:6068   */\n      add\n        /* \"#utility.yul\":6047:6079   */\n      mstore\n        /* \"#utility.yul\":5930:6086   */\n      pop\n      jump\t// out\n        /* \"#utility.yul\":6092:6457   */\n    tag_55:\n        /* \"#utility.yul\":6234:6237   */\n      0x00\n        /* \"#utility.yul\":6255:6321   */\n      tag_128\n        /* \"#utility.yul\":6319:6320   */\n      0x06\n        /* \"#utility.yul\":6314:6317   */\n      dup4\n        /* \"#utility.yul\":6255:6321   */\n      tag_53\n      jump\t// in\n    tag_128:\n        /* \"#utility.yul\":6248:6321   */\n      swap2\n      pop\n        /* \"#utility.yul\":6330:6423   */\n      tag_129\n        /* \"#utility.yul\":6419:6422   */\n      dup3\n        /* \"#utility.yul\":6330:6423   */\n      tag_54\n      jump\t// in\n    tag_129:\n        /* \"#utility.yul\":6448:6450   */\n      0x20\n        /* \"#utility.yul\":6443:6446   */\n      dup3\n        /* \"#utility.yul\":6439:6451   */\n      add\n        /* \"#utility.yul\":6432:6451   */\n      swap1\n      pop\n        /* \"#utility.yul\":6092:6457   */\n      swap2\n      swap1\n      pop\n      jump\t// out\n        /* \"#utility.yul\":6463:6882   */\n    tag_25:\n        /* \"#utility.yul\":6629:6633   */\n      0x00\n        /* \"#utility.yul\":6667:6669   */\n      0x20\n        /* \"#utility.yul\":6656:6665   */\n      dup3\n        /* \"#utility.yul\":6652:6670   */\n      add\n        /* \"#utility.yul\":6644:6670   */\n      swap1\n      pop\n        /* \"#utility.yul\":6716:6725   */\n      dup2\n        /* \"#utility.yul\":6710:6714   */\n      dup2\n        /* \"#utility.yul\":6706:6726   */\n      sub\n        /* \"#utility.yul\":6702:6703   */\n      0x00\n        /* \"#utility.yul\":6691:6700   */\n      dup4\n        /* \"#utility.yul\":6687:6704   */\n      add\n        /* \"#utility.yul\":6680:6727   */\n      mstore\n        /* \"#utility.yul\":6744:6875   */\n      tag_131\n        /* \"#utility.yul\":6870:6874   */\n      dup2\n        /* \"#utility.yul\":6744:6875   */\n      tag_55\n      jump\t// in\n    tag_131:\n        /* \"#utility.yul\":6736:6875   */\n      swap1\n      pop\n        /* \"#utility.yul\":6463:6882   */\n      swap2\n      swap1\n      pop\n      jump\t// out\n        /* \"#utility.yul\":6888:7051   */\n    tag_56:\n        /* \"#utility.yul\":7028:7043   */\n      0x6465706c6f79206661696c656400000000000000000000000000000000000000\n        /* \"#utility.yul\":7024:7025   */\n      0x00\n        /* \"#utility.yul\":7016:7022   */\n      dup3\n        /* \"#utility.yul\":7012:7026   */\n      add\n        /* \"#utility.yul\":7005:7044   */\n      mstore\n        /* \"#utility.yul\":6888:7051   */\n      pop\n      jump\t// out\n        /* \"#utility.yul\":7057:7423   */\n    tag_57:\n        /* \"#utility.yul\":7199:7202   */\n      0x00\n        /* \"#utility.yul\":7220:7287   */\n      tag_134\n        /* \"#utility.yul\":7284:7286   */\n      0x0d\n        /* \"#utility.yul\":7279:7282   */\n      dup4\n        /* \"#utility.yul\":7220:7287   */\n      tag_53\n      jump\t// in\n    tag_134:\n        /* \"#utility.yul\":7213:7287   */\n      swap2\n      pop\n        /* \"#utility.yul\":7296:7389   */\n      tag_135\n        /* \"#utility.yul\":7385:7388   */\n      dup3\n        /* \"#utility.yul\":7296:7389   */\n      tag_56\n      jump\t// in\n    tag_135:\n        /* \"#utility.yul\":7414:7416   */\n      0x20\n        /* \"#utility.yul\":7409:7412   */\n      dup3\n        /* \"#utility.yul\":7405:7417   */\n      add\n        /* \"#utility.yul\":7398:7417   */\n      swap1\n      pop\n        /* \"#utility.yul\":7057:7423   */\n      swap2\n      swap1\n      pop\n      jump\t// out\n        /* \"#utility.yul\":7429:7848   */\n    tag_29:\n        /* \"#utility.yul\":7595:7599   */\n      0x00\n        /* \"#utility.yul\":7633:7635   */\n      0x20\n        /* \"#utility.yul\":7622:7631   */\n      dup3\n        /* \"#utility.yul\":7618:7636   */\n      add\n        /* \"#utility.yul\":7610:7636   */\n      swap1\n      pop\n        /* \"#utility.yul\":7682:7691   */\n      dup2\n        /* \"#utility.yul\":7676:7680   */\n      dup2\n        /* \"#utility.yul\":7672:7692   */\n      sub\n        /* \"#utility.yul\":7668:7669   */\n      0x00\n        /* \"#utility.yul\":7657:7666   */\n      dup4\n        /* \"#utility.yul\":7653:7670   */\n      add\n        /* \"#utility.yul\":7646:7693   */\n      mstore\n        /* \"#utility.yul\":7710:7841   */\n      tag_137\n        /* \"#utility.yul\":7836:7840   */\n      dup2\n        /* \"#utility.yul\":7710:7841   */\n      tag_57\n      jump\t// in\n    tag_137:\n        /* \"#utility.yul\":7702:7841   */\n      swap1\n      pop\n        /* \"#utility.yul\":7429:7848   */\n      swap2\n      swap1\n      pop\n      jump\t// out\n\n    auxdata: 0xa26469706673582212203232657730e446cefdf387100a21dccf5cb453e17d3ab0bf43c74f3e29fdc8f964736f6c63430008180033\n}\n",
				"bytecode": {
					"linkReferences": {},
					"object": "608060405234801561000f575f80fd5b506105e78061001d5f395ff3fe60806040526004361061002c575f3560e01c80631cff79cd1461002f5780636b1f31541461004b5761002d565b5b005b61004960048036038101906100449190610386565b61007b565b005b610065600480360381019061006091906103e0565b61012a565b6040516100729190610436565b60405180910390f35b5f8273ffffffffffffffffffffffffffffffffffffffff1634836040516100a291906104bb565b5f6040518083038185875af1925050503d805f81146100dc576040519150601f19603f3d011682016040523d82523d5f602084013e6100e1565b606091505b5050905080610125576040517f08c379a000000000000000000000000000000000000000000000000000000000815260040161011c9061052b565b60405180910390fd5b505050565b5f81516020830134f090505f73ffffffffffffffffffffffffffffffffffffffff168173ffffffffffffffffffffffffffffffffffffffff16036101a3576040517f08c379a000000000000000000000000000000000000000000000000000000000815260040161019a90610593565b60405180910390fd5b7f55ea6c6b31543d8e2ec6a72f71a79c0f4b72ed0d4757172b043d8f4f4cd84848816040516101d29190610436565b60405180910390a1919050565b5f604051905090565b5f80fd5b5f80fd5b5f73ffffffffffffffffffffffffffffffffffffffff82169050919050565b5f610219826101f0565b9050919050565b6102298161020f565b8114610233575f80fd5b50565b5f8135905061024481610220565b92915050565b5f80fd5b5f80fd5b5f601f19601f8301169050919050565b7f4e487b71000000000000000000000000000000000000000000000000000000005f52604160045260245ffd5b61029882610252565b810181811067ffffffffffffffff821117156102b7576102b6610262565b5b80604052505050565b5f6102c96101df565b90506102d5828261028f565b919050565b5f67ffffffffffffffff8211156102f4576102f3610262565b5b6102fd82610252565b9050602081019050919050565b828183375f83830152505050565b5f61032a610325846102da565b6102c0565b9050828152602081018484840111156103465761034561024e565b5b61035184828561030a565b509392505050565b5f82601f83011261036d5761036c61024a565b5b813561037d848260208601610318565b91505092915050565b5f806040838503121561039c5761039b6101e8565b5b5f6103a985828601610236565b925050602083013567ffffffffffffffff8111156103ca576103c96101ec565b5b6103d685828601610359565b9150509250929050565b5f602082840312156103f5576103f46101e8565b5b5f82013567ffffffffffffffff811115610412576104116101ec565b5b61041e84828501610359565b91505092915050565b6104308161020f565b82525050565b5f6020820190506104495f830184610427565b92915050565b5f81519050919050565b5f81905092915050565b5f5b83811015610480578082015181840152602081019050610465565b5f8484015250505050565b5f6104958261044f565b61049f8185610459565b93506104af818560208601610463565b80840191505092915050565b5f6104c6828461048b565b915081905092915050565b5f82825260208201905092915050565b7f6661696c656400000000000000000000000000000000000000000000000000005f82015250565b5f6105156006836104d1565b9150610520826104e1565b602082019050919050565b5f6020820190508181035f83015261054281610509565b9050919050565b7f6465706c6f79206661696c6564000000000000000000000000000000000000005f82015250565b5f61057d600d836104d1565b915061058882610549565b602082019050919050565b5f6020820190508181035f8301526105aa81610571565b905091905056fea26469706673582212203232657730e446cefdf387100a21dccf5cb453e17d3ab0bf43c74f3e29fdc8f964736f6c63430008180033",
					"opcodes": "PUSH1 0x80 PUSH1 0x40 MSTORE CALLVALUE DUP1 ISZERO PUSH2 0xF JUMPI PUSH0 DUP1 REVERT JUMPDEST POP PUSH2 0x5E7 DUP1 PUSH2 0x1D PUSH0 CODECOPY PUSH0 RETURN INVALID PUSH1 0x80 PUSH1 0x40 MSTORE PUSH1 0x4 CALLDATASIZE LT PUSH2 0x2C JUMPI PUSH0 CALLDATALOAD PUSH1 0xE0 SHR DUP1 PUSH4 0x1CFF79CD EQ PUSH2 0x2F JUMPI DUP1 PUSH4 0x6B1F3154 EQ PUSH2 0x4B JUMPI PUSH2 0x2D JUMP JUMPDEST JUMPDEST STOP JUMPDEST PUSH2 0x49 PUSH1 0x4 DUP1 CALLDATASIZE SUB DUP2 ADD SWAP1 PUSH2 0x44 SWAP2 SWAP1 PUSH2 0x386 JUMP JUMPDEST PUSH2 0x7B JUMP JUMPDEST STOP JUMPDEST PUSH2 0x65 PUSH1 0x4 DUP1 CALLDATASIZE SUB DUP2 ADD SWAP1 PUSH2 0x60 SWAP2 SWAP1 PUSH2 0x3E0 JUMP JUMPDEST PUSH2 0x12A JUMP JUMPDEST PUSH1 0x40 MLOAD PUSH2 0x72 SWAP2 SWAP1 PUSH2 0x436 JUMP JUMPDEST PUSH1 0x40 MLOAD DUP1 SWAP2 SUB SWAP1 RETURN JUMPDEST PUSH0 DUP3 PUSH20 0xFFFFFFFFFFFFFFFFFFFFFFFFFFFFFFFFFFFFFFFF AND CALLVALUE DUP4 PUSH1 0x40 MLOAD PUSH2 0xA2 SWAP2 SWAP1 PUSH2 0x4BB JUMP JUMPDEST PUSH0 PUSH1 0x40 MLOAD DUP1 DUP4 SUB DUP2 DUP6 DUP8 GAS CALL SWAP3 POP POP POP RETURNDATASIZE DUP1 PUSH0 DUP2 EQ PUSH2 0xDC JUMPI PUSH1 0x40 MLOAD SWAP2 POP PUSH1 0x1F NOT PUSH1 0x3F RETURNDATASIZE ADD AND DUP3 ADD PUSH1 0x40 MSTORE RETURNDATASIZE DUP3 MSTORE RETURNDATASIZE PUSH0 PUSH1 0x20 DUP5 ADD RETURNDATACOPY PUSH2 0xE1 JUMP JUMPDEST PUSH1 0x60 SWAP2 POP JUMPDEST POP POP SWAP1 POP DUP1 PUSH2 0x125 JUMPI PUSH1 0x40 MLOAD PUSH32 0x8C379A000000000000000000000000000000000000000000000000000000000 DUP2 MSTORE PUSH1 0x4 ADD PUSH2 0x11C SWAP1 PUSH2 0x52B JUMP JUMPDEST PUSH1 0x40 MLOAD DUP1 SWAP2 SUB SWAP1 REVERT JUMPDEST POP POP POP JUMP JUMPDEST PUSH0 DUP2 MLOAD PUSH1 0x20 DUP4 ADD CALLVALUE CREATE SWAP1 POP PUSH0 PUSH20 0xFFFFFFFFFFFFFFFFFFFFFFFFFFFFFFFFFFFFFFFF AND DUP2 PUSH20 0xFFFFFFFFFFFFFFFFFFFFFFFFFFFFFFFFFFFFFFFF AND SUB PUSH2 0x1A3 JUMPI PUSH1 0x40 MLOAD PUSH32 0x8C379A000000000000000000000000000000000000000000000000000000000 DUP2 MSTORE PUSH1 0x4 ADD PUSH2 0x19A SWAP1 PUSH2 0x593 JUMP JUMPDEST PUSH1 0x40 MLOAD DUP1 SWAP2 SUB SWAP1 REVERT JUMPDEST PUSH32 0x55EA6C6B31543D8E2EC6A72F71A79C0F4B72ED0D4757172B043D8F4F4CD84848 DUP2 PUSH1 0x40 MLOAD PUSH2 0x1D2 SWAP2 SWAP1 PUSH2 0x436 JUMP JUMPDEST PUSH1 0x40 MLOAD DUP1 SWAP2 SUB SWAP1 LOG1 SWAP2 SWAP1 POP JUMP JUMPDEST PUSH0 PUSH1 0x40 MLOAD SWAP1 POP SWAP1 JUMP JUMPDEST PUSH0 DUP1 REVERT JUMPDEST PUSH0 DUP1 REVERT JUMPDEST PUSH0 PUSH20 0xFFFFFFFFFFFFFFFFFFFFFFFFFFFFFFFFFFFFFFFF DUP3 AND SWAP1 POP SWAP2 SWAP1 POP JUMP JUMPDEST PUSH0 PUSH2 0x219 DUP3 PUSH2 0x1F0 JUMP JUMPDEST SWAP1 POP SWAP2 SWAP1 POP JUMP JUMPDEST PUSH2 0x229 DUP2 PUSH2 0x20F JUMP JUMPDEST DUP2 EQ PUSH2 0x233 JUMPI PUSH0 DUP1 REVERT JUMPDEST POP JUMP JUMPDEST PUSH0 DUP2 CALLDATALOAD SWAP1 POP PUSH2 0x244 DUP2 PUSH2 0x220 JUMP JUMPDEST SWAP3 SWAP2 POP POP JUMP JUMPDEST PUSH0 DUP1 REVERT JUMPDEST PUSH0 DUP1 REVERT JUMPDEST PUSH0 PUSH1 0x1F NOT PUSH1 0x1F DUP4 ADD AND SWAP1 POP SWAP2 SWAP1 POP JUMP JUMPDEST PUSH32 0x4E487B7100000000000000000000000000000000000000000000000000000000 PUSH0 MSTORE PUSH1 0x41 PUSH1 0x4 MSTORE PUSH1 0x24 PUSH0 REVERT JUMPDEST PUSH2 0x298 DUP3 PUSH2 0x252 JUMP JUMPDEST DUP2 ADD DUP2 DUP2 LT PUSH8 0xFFFFFFFFFFFFFFFF DUP3 GT OR ISZERO PUSH2 0x2B7 JUMPI PUSH2 0x2B6 PUSH2 0x262 JUMP JUMPDEST JUMPDEST DUP1 PUSH1 0x40 MSTORE POP POP POP JUMP JUMPDEST PUSH0 PUSH2 0x2C9 PUSH2 0x1DF JUMP JUMPDEST SWAP1 POP PUSH2 0x2D5 DUP3 DUP3 PUSH2 0x28F JUMP JUMPDEST SWAP2 SWAP1 POP JUMP JUMPDEST PUSH0 PUSH8 0xFFFFFFFFFFFFFFFF DUP3 GT ISZERO PUSH2 0x2F4 JUMPI PUSH2 0x2F3 PUSH2 0x262 JUMP JUMPDEST JUMPDEST PUSH2 0x2FD DUP3 PUSH2 0x252 JUMP JUMPDEST SWAP1 POP PUSH1 0x20 DUP2 ADD SWAP1 POP SWAP2 SWAP1 POP JUMP JUMPDEST DUP3 DUP2 DUP4 CALLDATACOPY PUSH0 DUP4 DUP4 ADD MSTORE POP POP POP JUMP JUMPDEST PUSH0 PUSH2 0x32A PUSH2 0x325 DUP5 PUSH2 0x2DA JUMP JUMPDEST PUSH2 0x2C0 JUMP JUMPDEST SWAP1 POP DUP3 DUP2 MSTORE PUSH1 0x20 DUP2 ADD DUP5 DUP5 DUP5 ADD GT ISZERO PUSH2 0x346 JUMPI PUSH2 0x345 PUSH2 0x24E JUMP JUMPDEST JUMPDEST PUSH2 0x351 DUP5 DUP3 DUP6 PUSH2 0x30A JUMP JUMPDEST POP SWAP4 SWAP3 POP POP POP JUMP JUMPDEST PUSH0 DUP3 PUSH1 0x1F DUP4 ADD SLT PUSH2 0x36D JUMPI PUSH2 0x36C PUSH2 0x24A JUMP JUMPDEST JUMPDEST DUP2 CALLDATALOAD PUSH2 0x37D DUP5 DUP3 PUSH1 0x20 DUP7 ADD PUSH2 0x318 JUMP JUMPDEST SWAP2 POP POP SWAP3 SWAP2 POP POP JUMP JUMPDEST PUSH0 DUP1 PUSH1 0x40 DUP4 DUP6 SUB SLT ISZERO PUSH2 0x39C JUMPI PUSH2 0x39B PUSH2 0x1E8 JUMP JUMPDEST JUMPDEST PUSH0 PUSH2 0x3A9 DUP6 DUP3 DUP7 ADD PUSH2 0x236 JUMP JUMPDEST SWAP3 POP POP PUSH1 0x20 DUP4 ADD CALLDATALOAD PUSH8 0xFFFFFFFFFFFFFFFF DUP2 GT ISZERO PUSH2 0x3CA JUMPI PUSH2 0x3C9 PUSH2 0x1EC JUMP JUMPDEST JUMPDEST PUSH2 0x3D6 DUP6 DUP3 DUP7 ADD PUSH2 0x359 JUMP JUMPDEST SWAP2 POP POP SWAP3 POP SWAP3 SWAP1 POP JUMP JUMPDEST PUSH0 PUSH1 0x20 DUP3 DUP5 SUB SLT ISZERO PUSH2 0x3F5 JUMPI PUSH2 0x3F4 PUSH2 0x1E8 JUMP JUMPDEST JUMPDEST PUSH0 DUP3 ADD CALLDATALOAD PUSH8 0xFFFFFFFFFFFFFFFF DUP2 GT ISZERO PUSH2 0x412 JUMPI PUSH2 0x411 PUSH2 0x1EC JUMP JUMPDEST JUMPDEST PUSH2 0x41E DUP5 DUP3 DUP6 ADD PUSH2 0x359 JUMP JUMPDEST SWAP2 POP POP SWAP3 SWAP2 POP POP JUMP JUMPDEST PUSH2 0x430 DUP2 PUSH2 0x20F JUMP JUMPDEST DUP3 MSTORE POP POP JUMP JUMPDEST PUSH0 PUSH1 0x20 DUP3 ADD SWAP1 POP PUSH2 0x449 PUSH0 DUP4 ADD DUP5 PUSH2 0x427 JUMP JUMPDEST SWAP3 SWAP2 POP POP JUMP JUMPDEST PUSH0 DUP2 MLOAD SWAP1 POP SWAP2 SWAP1 POP JUMP JUMPDEST PUSH0 DUP2 SWAP1 POP SWAP3 SWAP2 POP POP JUMP JUMPDEST PUSH0 JUMPDEST DUP4 DUP2 LT ISZERO PUSH2 0x480 JUMPI DUP1 DUP3 ADD MLOAD DUP2 DUP5 ADD MSTORE PUSH1 0x20 DUP2 ADD SWAP1 POP PUSH2 0x465 JUMP JUMPDEST PUSH0 DUP5 DUP5 ADD MSTORE POP POP POP POP JUMP JUMPDEST PUSH0 PUSH2 0x495 DUP3 PUSH2 0x44F JUMP JUMPDEST PUSH2 0x49F DUP2 DUP6 PUSH2 0x459 JUMP JUMPDEST SWAP4 POP PUSH2 0x4AF DUP2 DUP6 PUSH1 0x20 DUP7 ADD PUSH2 0x463 JUMP JUMPDEST DUP1 DUP5 ADD SWAP2 POP POP SWAP3 SWAP2 POP POP JUMP JUMPDEST PUSH0 PUSH2 0x4C6 DUP3 DUP5 PUSH2 0x48B JUMP JUMPDEST SWAP2 POP DUP2 SWAP1 POP SWAP3 SWAP2 POP POP JUMP JUMPDEST PUSH0 DUP3 DUP3 MSTORE PUSH1 0x20 DUP3 ADD SWAP1 POP SWAP3 SWAP2 POP POP JUMP JUMPDEST PUSH32 0x6661696C65640000000000000000000000000000000000000000000000000000 PUSH0 DUP3 ADD MSTORE POP JUMP JUMPDEST PUSH0 PUSH2 0x515 PUSH1 0x6 DUP4 PUSH2 0x4D1 JUMP JUMPDEST SWAP2 POP PUSH2 0x520 DUP3 PUSH2 0x4E1 JUMP JUMPDEST PUSH1 0x20 DUP3 ADD SWAP1 POP SWAP2 SWAP1 POP JUMP JUMPDEST PUSH0 PUSH1 0x20 DUP3 ADD SWAP1 POP DUP2 DUP2 SUB PUSH0 DUP4 ADD MSTORE PUSH2 0x542 DUP2 PUSH2 0x509 JUMP JUMPDEST SWAP1 POP SWAP2 SWAP1 POP JUMP JUMPDEST PUSH32 0x6465706C6F79206661696C656400000000000000000000000000000000000000 PUSH0 DUP3 ADD MSTORE POP JUMP JUMPDEST PUSH0 PUSH2 0x57D PUSH1 0xD DUP4 PUSH2 0x4D1 JUMP JUMPDEST SWAP2 POP PUSH2 0x588 DUP3 PUSH2 0x549 JUMP JUMPDEST PUSH1 0x20 DUP3 ADD SWAP1 POP SWAP2 SWAP1 POP JUMP JUMPDEST PUSH0 PUSH1 0x20 DUP3 ADD SWAP1 POP DUP2 DUP2 SUB PUSH0 DUP4 ADD MSTORE PUSH2 0x5AA DUP2 PUSH2 0x571 JUMP JUMPDEST SWAP1 POP SWAP2 SWAP1 POP JUMP INVALID LOG2 PUSH5 0x6970667358 0x22 SLT KECCAK256 ORIGIN ORIGIN PUSH6 0x7730E446CEFD RETURN DUP8 LT EXP 0x21 0xDC 0xCF TLOAD 0xB4 MSTORE8 0xE1 PUSH30 0x3AB0BF43C74F3E29FDC8F964736F6C634300081800330000000000000000 "
				},
				"gasEstimates": {
					"creation": {
						"codeDepositCost": "302200",
						"executionCost": "341",
						"totalCost": "302541"
					},
					"external": {
						"": "106",
						"delpoy(bytes)": "infinite",
						"execute(address,bytes)": "infinite"
					}
				},
				"methodIdentifiers": {
					"delpoy(bytes)": "6b1f3154",
					"execute(address,bytes)": "1cff79cd"
				}
			},
			"storageLayout": {
				"storage": [],
				"types": null
			},
			"userdoc": {
				"kind": "user",
				"methods": {},
				"version": 1
			}
		}
	}
}