{
	"ERC1155.sol": {
		"MyMultiToken": {
			"abi": [
				{
					"anonymous": false,
					"inputs": [
						{
							"indexed": true,
							"internalType": "address",
							"name": "owner",
							"type": "address"
						},
						{
							"indexed": true,
							"internalType": "address",
							"name": "operator",
							"type": "address"
						},
						{
							"indexed": false,
							"internalType": "bool",
							"name": "approved",
							"type": "bool"
						}
					],
					"name": "ApprovalForAll",
					"type": "event"
				},
				{
					"anonymous": false,
					"inputs": [
						{
							"indexed": true,
							"internalType": "address",
							"name": "operator",
							"type": "address"
						},
						{
							"indexed": true,
							"internalType": "address",
							"name": "from",
							"type": "address"
						},
						{
							"indexed": true,
							"internalType": "address",
							"name": "to",
							"type": "address"
						},
						{
							"indexed": false,
							"internalType": "uint256[]",
							"name": "ids",
							"type": "uint256[]"
						},
						{
							"indexed": false,
							"internalType": "uint256[]",
							"name": "values",
							"type": "uint256[]"
						}
					],
					"name": "TransferBatch",
					"type": "event"
				},
				{
					"anonymous": false,
					"inputs": [
						{
							"indexed": true,
							"internalType": "address",
							"name": "operator",
							"type": "address"
						},
						{
							"indexed": true,
							"internalType": "address",
							"name": "from",
							"type": "address"
						},
						{
							"indexed": true,
							"internalType": "address",
							"name": "to",
							"type": "address"
						},
						{
							"indexed": false,
							"internalType": "uint256",
							"name": "id",
							"type": "uint256"
						},
						{
							"indexed": false,
							"internalType": "uint256",
							"name": "value",
							"type": "uint256"
						}
					],
					"name": "TransferSingle",
					"type": "event"
				},
				{
					"anonymous": false,
					"inputs": [
						{
							"indexed": false,
							"internalType": "string",
							"name": "value",
							"type": "string"
						},
						{
							"indexed": true,
							"internalType": "uint256",
							"name": "id",
							"type": "uint256"
						}
					],
					"name": "URI",
					"type": "event"
				},
				{
					"inputs": [
						{
							"internalType": "address",
							"name": "",
							"type": "address"
						},
						{
							"internalType": "uint256",
							"name": "",
							"type": "uint256"
						}
					],
					"name": "balanceOf",
					"outputs": [
						{
							"internalType": "uint256",
							"name": "",
							"type": "uint256"
						}
					],
					"stateMutability": "view",
					"type": "function"
				},
				{
					"inputs": [
						{
							"internalType": "address[]",
							"name": "owners",
							"type": "address[]"
						},
						{
							"internalType": "uint256[]",
							"name": "ids",
							"type": "uint256[]"
						}
					],
					"name": "balanceOfBatch",
					"outputs": [
						{
							"internalType": "uint256[]",
							"name": "balances",
							"type": "uint256[]"
						}
					],
					"stateMutability": "view",
					"type": "function"
				},
				{
					"inputs": [
						{
							"internalType": "uint256[]",
							"name": "ids",
							"type": "uint256[]"
						},
						{
							"internalType": "uint256[]",
							"name": "values",
							"type": "uint256[]"
						}
					],
					"name": "batchBurn",
					"outputs": [],
					"stateMutability": "nonpayable",
					"type": "function"
				},
				{
					"inputs": [
						{
							"internalType": "uint256[]",
							"name": "ids",
							"type": "uint256[]"
						},
						{
							"internalType": "uint256[]",
							"name": "values",
							"type": "uint256[]"
						},
						{
							"internalType": "bytes",
							"name": "data",
							"type": "bytes"
						}
					],
					"name": "batchMint",
					"outputs": [],
					"stateMutability": "nonpayable",
					"type": "function"
				},
				{
					"inputs": [
						{
							"internalType": "uint256",
							"name": "id",
							"type": "uint256"
						},
						{
							"internalType": "uint256",
							"name": "value",
							"type": "uint256"
						}
					],
					"name": "burn",
					"outputs": [],
					"stateMutability": "nonpayable",
					"type": "function"
				},
				{
					"inputs": [
						{
							"internalType": "address",
							"name": "",
							"type": "address"
						},
						{
							"internalType": "address",
							"name": "",
							"type": "address"
						}
					],
					"name": "isApprovedForAll",
					"outputs": [
						{
							"internalType": "bool",
							"name": "",
							"type": "bool"
						}
					],
					"stateMutability": "view",
					"type": "function"
				},
				{
					"inputs": [
						{
							"internalType": "uint256",
							"name": "id",
							"type": "uint256"
						},
						{
							"internalType": "uint256",
							"name": "value",
							"type": "uint256"
						},
						{
							"internalType": "bytes",
							"name": "data",
							"type": "bytes"
						}
					],
					"name": "mint",
					"outputs": [],
					"stateMutability": "nonpayable",
					"type": "function"
				},
				{
					"inputs": [
						{
							"internalType": "address",
							"name": "from",
							"type": "address"
						},
						{
							"internalType": "address",
							"name": "to",
							"type": "address"
						},
						{
							"internalType": "uint256[]",
							"name": "ids",
							"type": "uint256[]"
						},
						{
							"internalType": "uint256[]",
							"name": "values",
							"type": "uint256[]"
						},
						{
							"internalType": "bytes",
							"name": "data",
							"type": "bytes"
						}
					],
					"name": "safeBatchTransferFrom",
					"outputs": [],
					"stateMutability": "nonpayable",
					"type": "function"
				},
				{
					"inputs": [
						{
							"internalType": "address",
							"name": "from",
							"type": "address"
						},
						{
							"internalType": "address",
							"name": "to",
							"type": "address"
						},
						{
							"internalType": "uint256",
							"name": "id",
							"type": "uint256"
						},
						{
							"internalType": "uint256",
							"name": "value",
							"type": "uint256"
						},
						{
							"internalType": "bytes",
							"name": "data",
							"type": "bytes"
						}
					],
					"name": "safeTransferFrom",
					"outputs": [],
					"stateMutability": "nonpayable",
					"type": "function"
				},
				{
					"inputs": [
						{
							"internalType": "address",
							"name": "operator",
							"type": "address"
						},
						{
							"internalType": "bool",
							"name": "approved",
							"type": "bool"
						}
					],
					"name": "setApprovalForAll",
					"outputs": [],
					"stateMutability": "nonpayable",
					"type": "function"
				},
				{
					"inputs": [
						{
							"internalType": "bytes4",
							"name": "interfaceId",
							"type": "bytes4"
						}
					],
					"name": "supportsInterface",
					"outputs": [
						{
							"internalType": "bool",
							"name": "",
							"type": "bool"
						}
					],
					"stateMutability": "pure",
					"type": "function"
				},
				{
					"inputs": [
						{
							"internalType": "uint256",
							"name": "id",
							"type": "uint256"
						}
					],
					"name": "uri",
					"outputs": [
						{
							"internalType": "string",
							"name": "",
							"type": "string"
						}
					],
					"stateMutability": "view",
					"type": "function"
				}
			],
			"devdoc": {
				"kind": "dev",
				"methods": {},
				"version": 1
			},
			"evm": {
				"assembly": "    /* \"ERC1155.sol\":7288:7915  contract MyMultiToken is ERC1155 {... */\n  mstore(0x40, 0x80)\n  callvalue\n  dup1\n  iszero\n  tag_1\n  jumpi\n  0x00\n  dup1\n  revert\ntag_1:\n  pop\n  dataSize(sub_0)\n  dup1\n  dataOffset(sub_0)\n  0x00\n  codecopy\n  0x00\n  return\nstop\n\nsub_0: assembly {\n        /* \"ERC1155.sol\":7288:7915  contract MyMultiToken is ERC1155 {... */\n      mstore(0x40, 0x80)\n      callvalue\n      dup1\n      iszero\n      tag_1\n      jumpi\n      0x00\n      dup1\n      revert\n    tag_1:\n      pop\n      jumpi(tag_2, lt(calldatasize, 0x04))\n      shr(0xe0, calldataload(0x00))\n      dup1\n      0x4e1273f4\n      gt\n      tag_15\n      jumpi\n      dup1\n      0x4e1273f4\n      eq\n      tag_9\n      jumpi\n      dup1\n      0xa22cb465\n      eq\n      tag_10\n      jumpi\n      dup1\n      0xb390c0ab\n      eq\n      tag_11\n      jumpi\n      dup1\n      0xcf04192e\n      eq\n      tag_12\n      jumpi\n      dup1\n      0xe985e9c5\n      eq\n      tag_13\n      jumpi\n      dup1\n      0xf242432a\n      eq\n      tag_14\n      jumpi\n      jump(tag_2)\n    tag_15:\n      dup1\n      0xfdd58e\n      eq\n      tag_3\n      jumpi\n      dup1\n      0x01ffc9a7\n      eq\n      tag_4\n      jumpi\n      dup1\n      0x08dc9f42\n      eq\n      tag_5\n      jumpi\n      dup1\n      0x0e89341c\n      eq\n      tag_6\n      jumpi\n      dup1\n      0x20ec271b\n      eq\n      tag_7\n      jumpi\n      dup1\n      0x2eb2c2d6\n      eq\n      tag_8\n      jumpi\n    tag_2:\n      0x00\n      dup1\n      revert\n        /* \"ERC1155.sol\":1946:2010  mapping(address => mapping(uint256 => uint256)) public balanceOf */\n    tag_3:\n      tag_16\n      0x04\n      dup1\n      calldatasize\n      sub\n      dup2\n      add\n      swap1\n      tag_17\n      swap2\n      swap1\n      tag_18\n      jump\t// in\n    tag_17:\n      tag_19\n      jump\t// in\n    tag_16:\n      mload(0x40)\n      tag_20\n      swap2\n      swap1\n      tag_21\n      jump\t// in\n    tag_20:\n      mload(0x40)\n      dup1\n      swap2\n      sub\n      swap1\n      return\n        /* \"ERC1155.sol\":4659:5017  function supportsInterface(bytes4 interfaceId)... */\n    tag_4:\n      tag_22\n      0x04\n      dup1\n      calldatasize\n      sub\n      dup2\n      add\n      swap1\n      tag_23\n      swap2\n      swap1\n      tag_24\n      jump\t// in\n    tag_23:\n      tag_25\n      jump\t// in\n    tag_22:\n      mload(0x40)\n      tag_26\n      swap2\n      swap1\n      tag_27\n      jump\t// in\n    tag_26:\n      mload(0x40)\n      dup1\n      swap2\n      sub\n      swap1\n      return\n        /* \"ERC1155.sol\":7328:7450  function mint(uint256 id, uint256 value, bytes memory data) external {... */\n    tag_5:\n      tag_28\n      0x04\n      dup1\n      calldatasize\n      sub\n      dup2\n      add\n      swap1\n      tag_29\n      swap2\n      swap1\n      tag_30\n      jump\t// in\n    tag_29:\n      tag_31\n      jump\t// in\n    tag_28:\n      stop\n        /* \"ERC1155.sol\":5054:5125  function uri(uint256 id) public view virtual returns (string memory) {} */\n    tag_6:\n      tag_32\n      0x04\n      dup1\n      calldatasize\n      sub\n      dup2\n      add\n      swap1\n      tag_33\n      swap2\n      swap1\n      tag_34\n      jump\t// in\n    tag_33:\n      tag_35\n      jump\t// in\n    tag_32:\n      mload(0x40)\n      tag_36\n      swap2\n      swap1\n      tag_37\n      jump\t// in\n    tag_36:\n      mload(0x40)\n      dup1\n      swap2\n      sub\n      swap1\n      return\n        /* \"ERC1155.sol\":7765:7912  function batchBurn(uint256[] calldata ids, uint256[] calldata values)... */\n    tag_7:\n      tag_38\n      0x04\n      dup1\n      calldatasize\n      sub\n      dup2\n      add\n      swap1\n      tag_39\n      swap2\n      swap1\n      tag_40\n      jump\t// in\n    tag_39:\n      tag_41\n      jump\t// in\n    tag_38:\n      stop\n        /* \"ERC1155.sol\":3624:4636  function safeBatchTransferFrom(... */\n    tag_8:\n      tag_42\n      0x04\n      dup1\n      calldatasize\n      sub\n      dup2\n      add\n      swap1\n      tag_43\n      swap2\n      swap1\n      tag_44\n      jump\t// in\n    tag_43:\n      tag_45\n      jump\t// in\n    tag_42:\n      stop\n        /* \"ERC1155.sol\":2132:2596  function balanceOfBatch(address[] calldata owners, uint256[] calldata ids)... */\n    tag_9:\n      tag_46\n      0x04\n      dup1\n      calldatasize\n      sub\n      dup2\n      add\n      swap1\n      tag_47\n      swap2\n      swap1\n      tag_48\n      jump\t// in\n    tag_47:\n      tag_49\n      jump\t// in\n    tag_46:\n      mload(0x40)\n      tag_50\n      swap2\n      swap1\n      tag_51\n      jump\t// in\n    tag_50:\n      mload(0x40)\n      dup1\n      swap2\n      sub\n      swap1\n      return\n        /* \"ERC1155.sol\":2604:2803  function setApprovalForAll(address operator, bool approved) external {... */\n    tag_10:\n      tag_52\n      0x04\n      dup1\n      calldatasize\n      sub\n      dup2\n      add\n      swap1\n      tag_53\n      swap2\n      swap1\n      tag_54\n      jump\t// in\n    tag_53:\n      tag_55\n      jump\t// in\n    tag_52:\n      stop\n        /* \"ERC1155.sol\":7660:7757  function burn(uint256 id, uint256 value) external {... */\n    tag_11:\n      tag_56\n      0x04\n      dup1\n      calldatasize\n      sub\n      dup2\n      add\n      swap1\n      tag_57\n      swap2\n      swap1\n      tag_58\n      jump\t// in\n    tag_57:\n      tag_59\n      jump\t// in\n    tag_56:\n      stop\n        /* \"ERC1155.sol\":7458:7652  function batchMint(... */\n    tag_12:\n      tag_60\n      0x04\n      dup1\n      calldatasize\n      sub\n      dup2\n      add\n      swap1\n      tag_61\n      swap2\n      swap1\n      tag_62\n      jump\t// in\n    tag_61:\n      tag_63\n      jump\t// in\n    tag_60:\n      stop\n        /* \"ERC1155.sol\":2055:2123  mapping(address => mapping(address => bool)) public isApprovedForAll */\n    tag_13:\n      tag_64\n      0x04\n      dup1\n      calldatasize\n      sub\n      dup2\n      add\n      swap1\n      tag_65\n      swap2\n      swap1\n      tag_66\n      jump\t// in\n    tag_65:\n      tag_67\n      jump\t// in\n    tag_64:\n      mload(0x40)\n      tag_68\n      swap2\n      swap1\n      tag_27\n      jump\t// in\n    tag_68:\n      mload(0x40)\n      dup1\n      swap2\n      sub\n      swap1\n      return\n        /* \"ERC1155.sol\":2811:3616  function safeTransferFrom(... */\n    tag_14:\n      tag_69\n      0x04\n      dup1\n      calldatasize\n      sub\n      dup2\n      add\n      swap1\n      tag_70\n      swap2\n      swap1\n      tag_71\n      jump\t// in\n    tag_70:\n      tag_72\n      jump\t// in\n    tag_69:\n      stop\n        /* \"ERC1155.sol\":1946:2010  mapping(address => mapping(uint256 => uint256)) public balanceOf */\n    tag_19:\n      mstore(0x20, 0x00)\n      dup2\n      0x00\n      mstore\n      mstore(0x20, keccak256(0x00, 0x40))\n      dup1\n      0x00\n      mstore\n      keccak256(0x00, 0x40)\n      0x00\n      swap2\n      pop\n      swap2\n      pop\n      pop\n      sload\n      dup2\n      jump\t// out\n        /* \"ERC1155.sol\":4659:5017  function supportsInterface(bytes4 interfaceId)... */\n    tag_25:\n        /* \"ERC1155.sol\":4756:4760  bool */\n      0x00\n        /* \"ERC1155.sol\":4800:4810  0x01ffc9a7 */\n      0x01ffc9a7\n        /* \"ERC1155.sol\":4785:4810  interfaceId == 0x01ffc9a7 */\n      0xe0\n      shl\n        /* \"ERC1155.sol\":4785:4796  interfaceId */\n      dup3\n        /* \"ERC1155.sol\":4785:4810  interfaceId == 0x01ffc9a7 */\n      not(0xffffffffffffffffffffffffffffffffffffffffffffffffffffffff)\n      and\n      eq\n        /* \"ERC1155.sol\":4785:4886  interfaceId == 0x01ffc9a7 // ERC165 Interface ID for ERC165... */\n      dup1\n      tag_74\n      jumpi\n      pop\n        /* \"ERC1155.sol\":4876:4886  0xd9b67a26 */\n      0xd9b67a26\n        /* \"ERC1155.sol\":4861:4886  interfaceId == 0xd9b67a26 */\n      0xe0\n      shl\n        /* \"ERC1155.sol\":4861:4872  interfaceId */\n      dup3\n        /* \"ERC1155.sol\":4861:4886  interfaceId == 0xd9b67a26 */\n      not(0xffffffffffffffffffffffffffffffffffffffffffffffffffffffff)\n      and\n      eq\n        /* \"ERC1155.sol\":4785:4886  interfaceId == 0x01ffc9a7 // ERC165 Interface ID for ERC165... */\n    tag_74:\n        /* \"ERC1155.sol\":4785:4963  interfaceId == 0x01ffc9a7 // ERC165 Interface ID for ERC165... */\n      dup1\n      tag_75\n      jumpi\n      pop\n        /* \"ERC1155.sol\":4953:4963  0x0e89341c */\n      0x0e89341c\n        /* \"ERC1155.sol\":4938:4963  interfaceId == 0x0e89341c */\n      0xe0\n      shl\n        /* \"ERC1155.sol\":4938:4949  interfaceId */\n      dup3\n        /* \"ERC1155.sol\":4938:4963  interfaceId == 0x0e89341c */\n      not(0xffffffffffffffffffffffffffffffffffffffffffffffffffffffff)\n      and\n      eq\n        /* \"ERC1155.sol\":4785:4963  interfaceId == 0x01ffc9a7 // ERC165 Interface ID for ERC165... */\n    tag_75:\n        /* \"ERC1155.sol\":4778:4963  return interfaceId == 0x01ffc9a7 // ERC165 Interface ID for ERC165... */\n      swap1\n      pop\n        /* \"ERC1155.sol\":4659:5017  function supportsInterface(bytes4 interfaceId)... */\n      swap2\n      swap1\n      pop\n      jump\t// out\n        /* \"ERC1155.sol\":7328:7450  function mint(uint256 id, uint256 value, bytes memory data) external {... */\n    tag_31:\n        /* \"ERC1155.sol\":7408:7442  _mint(msg.sender, id, value, data) */\n      tag_77\n        /* \"ERC1155.sol\":7414:7424  msg.sender */\n      caller\n        /* \"ERC1155.sol\":7426:7428  id */\n      dup5\n        /* \"ERC1155.sol\":7430:7435  value */\n      dup5\n        /* \"ERC1155.sol\":7437:7441  data */\n      dup5\n        /* \"ERC1155.sol\":7408:7413  _mint */\n      tag_78\n        /* \"ERC1155.sol\":7408:7442  _mint(msg.sender, id, value, data) */\n      jump\t// in\n    tag_77:\n        /* \"ERC1155.sol\":7328:7450  function mint(uint256 id, uint256 value, bytes memory data) external {... */\n      pop\n      pop\n      pop\n      jump\t// out\n        /* \"ERC1155.sol\":5054:5125  function uri(uint256 id) public view virtual returns (string memory) {} */\n    tag_35:\n        /* \"ERC1155.sol\":5108:5121  string memory */\n      0x60\n        /* \"ERC1155.sol\":5054:5125  function uri(uint256 id) public view virtual returns (string memory) {} */\n      swap2\n      swap1\n      pop\n      jump\t// out\n        /* \"ERC1155.sol\":7765:7912  function batchBurn(uint256[] calldata ids, uint256[] calldata values)... */\n    tag_41:\n        /* \"ERC1155.sol\":7869:7904  _batchBurn(msg.sender, ids, values) */\n      tag_81\n        /* \"ERC1155.sol\":7880:7890  msg.sender */\n      caller\n        /* \"ERC1155.sol\":7892:7895  ids */\n      dup6\n      dup6\n        /* \"ERC1155.sol\":7897:7903  values */\n      dup6\n      dup6\n        /* \"ERC1155.sol\":7869:7879  _batchBurn */\n      tag_82\n        /* \"ERC1155.sol\":7869:7904  _batchBurn(msg.sender, ids, values) */\n      jump\t// in\n    tag_81:\n        /* \"ERC1155.sol\":7765:7912  function batchBurn(uint256[] calldata ids, uint256[] calldata values)... */\n      pop\n      pop\n      pop\n      pop\n      jump\t// out\n        /* \"ERC1155.sol\":3624:4636  function safeBatchTransferFrom(... */\n    tag_45:\n        /* \"ERC1155.sol\":3861:3865  from */\n      dup8\n        /* \"ERC1155.sol\":3847:3865  msg.sender == from */\n      0xffffffffffffffffffffffffffffffffffffffff\n      and\n        /* \"ERC1155.sol\":3847:3857  msg.sender */\n      caller\n        /* \"ERC1155.sol\":3847:3865  msg.sender == from */\n      0xffffffffffffffffffffffffffffffffffffffff\n      and\n      eq\n        /* \"ERC1155.sol\":3847:3903  msg.sender == from || isApprovedForAll[from][msg.sender] */\n      dup1\n      tag_84\n      jumpi\n      pop\n        /* \"ERC1155.sol\":3869:3885  isApprovedForAll */\n      0x01\n        /* \"ERC1155.sol\":3869:3891  isApprovedForAll[from] */\n      0x00\n        /* \"ERC1155.sol\":3886:3890  from */\n      dup10\n        /* \"ERC1155.sol\":3869:3891  isApprovedForAll[from] */\n      0xffffffffffffffffffffffffffffffffffffffff\n      and\n      0xffffffffffffffffffffffffffffffffffffffff\n      and\n      dup2\n      mstore\n      0x20\n      add\n      swap1\n      dup2\n      mstore\n      0x20\n      add\n      0x00\n      keccak256\n        /* \"ERC1155.sol\":3869:3903  isApprovedForAll[from][msg.sender] */\n      0x00\n        /* \"ERC1155.sol\":3892:3902  msg.sender */\n      caller\n        /* \"ERC1155.sol\":3869:3903  isApprovedForAll[from][msg.sender] */\n      0xffffffffffffffffffffffffffffffffffffffff\n      and\n      0xffffffffffffffffffffffffffffffffffffffff\n      and\n      dup2\n      mstore\n      0x20\n      add\n      swap1\n      dup2\n      mstore\n      0x20\n      add\n      0x00\n      keccak256\n      0x00\n      swap1\n      sload\n      swap1\n      0x0100\n      exp\n      swap1\n      div\n      0xff\n      and\n        /* \"ERC1155.sol\":3847:3903  msg.sender == from || isApprovedForAll[from][msg.sender] */\n    tag_84:\n        /* \"ERC1155.sol\":3825:3943  require(... */\n      tag_85\n      jumpi\n      mload(0x40)\n      0x08c379a000000000000000000000000000000000000000000000000000000000\n      dup2\n      mstore\n      0x04\n      add\n      tag_86\n      swap1\n      tag_87\n      jump\t// in\n    tag_86:\n      mload(0x40)\n      dup1\n      swap2\n      sub\n      swap1\n      revert\n    tag_85:\n        /* \"ERC1155.sol\":3976:3977  0 */\n      0x00\n        /* \"ERC1155.sol\":3962:3978  to != address(0) */\n      0xffffffffffffffffffffffffffffffffffffffff\n      and\n        /* \"ERC1155.sol\":3962:3964  to */\n      dup8\n        /* \"ERC1155.sol\":3962:3978  to != address(0) */\n      0xffffffffffffffffffffffffffffffffffffffff\n      and\n      sub\n        /* \"ERC1155.sol\":3954:3997  require(to != address(0), \"to = 0 address\") */\n      tag_88\n      jumpi\n      mload(0x40)\n      0x08c379a000000000000000000000000000000000000000000000000000000000\n      dup2\n      mstore\n      0x04\n      add\n      tag_89\n      swap1\n      tag_90\n      jump\t// in\n    tag_89:\n      mload(0x40)\n      dup1\n      swap2\n      sub\n      swap1\n      revert\n    tag_88:\n        /* \"ERC1155.sol\":4030:4036  values */\n      dup4\n      dup4\n        /* \"ERC1155.sol\":4030:4043  values.length */\n      swap1\n      pop\n        /* \"ERC1155.sol\":4016:4019  ids */\n      dup7\n      dup7\n        /* \"ERC1155.sol\":4016:4026  ids.length */\n      swap1\n      pop\n        /* \"ERC1155.sol\":4016:4043  ids.length == values.length */\n      eq\n        /* \"ERC1155.sol\":4008:4075  require(ids.length == values.length, \"ids length != values length\") */\n      tag_91\n      jumpi\n      mload(0x40)\n      0x08c379a000000000000000000000000000000000000000000000000000000000\n      dup2\n      mstore\n      0x04\n      add\n      tag_92\n      swap1\n      tag_93\n      jump\t// in\n    tag_92:\n      mload(0x40)\n      dup1\n      swap2\n      sub\n      swap1\n      revert\n    tag_91:\n        /* \"ERC1155.sol\":4093:4102  uint256 i */\n      0x00\n        /* \"ERC1155.sol\":4088:4241  for (uint256 i = 0; i < ids.length; i++) {... */\n    tag_94:\n        /* \"ERC1155.sol\":4112:4115  ids */\n      dup7\n      dup7\n        /* \"ERC1155.sol\":4112:4122  ids.length */\n      swap1\n      pop\n        /* \"ERC1155.sol\":4108:4109  i */\n      dup2\n        /* \"ERC1155.sol\":4108:4122  i < ids.length */\n      lt\n        /* \"ERC1155.sol\":4088:4241  for (uint256 i = 0; i < ids.length; i++) {... */\n      iszero\n      tag_95\n      jumpi\n        /* \"ERC1155.sol\":4171:4177  values */\n      dup5\n      dup5\n        /* \"ERC1155.sol\":4178:4179  i */\n      dup3\n        /* \"ERC1155.sol\":4171:4180  values[i] */\n      dup2\n      dup2\n      lt\n      tag_97\n      jumpi\n      tag_98\n      tag_99\n      jump\t// in\n    tag_98:\n    tag_97:\n      swap1\n      pop\n      0x20\n      mul\n      add\n      calldataload\n        /* \"ERC1155.sol\":4144:4153  balanceOf */\n      0x00\n        /* \"ERC1155.sol\":4144:4159  balanceOf[from] */\n      dup1\n        /* \"ERC1155.sol\":4154:4158  from */\n      dup12\n        /* \"ERC1155.sol\":4144:4159  balanceOf[from] */\n      0xffffffffffffffffffffffffffffffffffffffff\n      and\n      0xffffffffffffffffffffffffffffffffffffffff\n      and\n      dup2\n      mstore\n      0x20\n      add\n      swap1\n      dup2\n      mstore\n      0x20\n      add\n      0x00\n      keccak256\n        /* \"ERC1155.sol\":4144:4167  balanceOf[from][ids[i]] */\n      0x00\n        /* \"ERC1155.sol\":4160:4163  ids */\n      dup10\n      dup10\n        /* \"ERC1155.sol\":4164:4165  i */\n      dup6\n        /* \"ERC1155.sol\":4160:4166  ids[i] */\n      dup2\n      dup2\n      lt\n      tag_100\n      jumpi\n      tag_101\n      tag_99\n      jump\t// in\n    tag_101:\n    tag_100:\n      swap1\n      pop\n      0x20\n      mul\n      add\n      calldataload\n        /* \"ERC1155.sol\":4144:4167  balanceOf[from][ids[i]] */\n      dup2\n      mstore\n      0x20\n      add\n      swap1\n      dup2\n      mstore\n      0x20\n      add\n      0x00\n      keccak256\n      0x00\n        /* \"ERC1155.sol\":4144:4180  balanceOf[from][ids[i]] -= values[i] */\n      dup3\n      dup3\n      sload\n      tag_102\n      swap2\n      swap1\n      tag_103\n      jump\t// in\n    tag_102:\n      swap3\n      pop\n      pop\n      dup2\n      swap1\n      sstore\n      pop\n        /* \"ERC1155.sol\":4220:4226  values */\n      dup5\n      dup5\n        /* \"ERC1155.sol\":4227:4228  i */\n      dup3\n        /* \"ERC1155.sol\":4220:4229  values[i] */\n      dup2\n      dup2\n      lt\n      tag_104\n      jumpi\n      tag_105\n      tag_99\n      jump\t// in\n    tag_105:\n    tag_104:\n      swap1\n      pop\n      0x20\n      mul\n      add\n      calldataload\n        /* \"ERC1155.sol\":4195:4204  balanceOf */\n      0x00\n        /* \"ERC1155.sol\":4195:4208  balanceOf[to] */\n      dup1\n        /* \"ERC1155.sol\":4205:4207  to */\n      dup11\n        /* \"ERC1155.sol\":4195:4208  balanceOf[to] */\n      0xffffffffffffffffffffffffffffffffffffffff\n      and\n      0xffffffffffffffffffffffffffffffffffffffff\n      and\n      dup2\n      mstore\n      0x20\n      add\n      swap1\n      dup2\n      mstore\n      0x20\n      add\n      0x00\n      keccak256\n        /* \"ERC1155.sol\":4195:4216  balanceOf[to][ids[i]] */\n      0x00\n        /* \"ERC1155.sol\":4209:4212  ids */\n      dup10\n      dup10\n        /* \"ERC1155.sol\":4213:4214  i */\n      dup6\n        /* \"ERC1155.sol\":4209:4215  ids[i] */\n      dup2\n      dup2\n      lt\n      tag_106\n      jumpi\n      tag_107\n      tag_99\n      jump\t// in\n    tag_107:\n    tag_106:\n      swap1\n      pop\n      0x20\n      mul\n      add\n      calldataload\n        /* \"ERC1155.sol\":4195:4216  balanceOf[to][ids[i]] */\n      dup2\n      mstore\n      0x20\n      add\n      swap1\n      dup2\n      mstore\n      0x20\n      add\n      0x00\n      keccak256\n      0x00\n        /* \"ERC1155.sol\":4195:4229  balanceOf[to][ids[i]] += values[i] */\n      dup3\n      dup3\n      sload\n      tag_108\n      swap2\n      swap1\n      tag_109\n      jump\t// in\n    tag_108:\n      swap3\n      pop\n      pop\n      dup2\n      swap1\n      sstore\n      pop\n        /* \"ERC1155.sol\":4124:4127  i++ */\n      dup1\n      dup1\n      0x01\n      add\n      swap2\n      pop\n      pop\n        /* \"ERC1155.sol\":4088:4241  for (uint256 i = 0; i < ids.length; i++) {... */\n      jump(tag_94)\n    tag_95:\n      pop\n        /* \"ERC1155.sol\":4290:4292  to */\n      dup7\n        /* \"ERC1155.sol\":4258:4306  TransferBatch(msg.sender, from, to, ids, values) */\n      0xffffffffffffffffffffffffffffffffffffffff\n      and\n        /* \"ERC1155.sol\":4284:4288  from */\n      dup9\n        /* \"ERC1155.sol\":4258:4306  TransferBatch(msg.sender, from, to, ids, values) */\n      0xffffffffffffffffffffffffffffffffffffffff\n      and\n        /* \"ERC1155.sol\":4272:4282  msg.sender */\n      caller\n        /* \"ERC1155.sol\":4258:4306  TransferBatch(msg.sender, from, to, ids, values) */\n      0xffffffffffffffffffffffffffffffffffffffff\n      and\n      0x4a39dc06d4c0dbc64b70af90fd698a233a518aa5d07e595d983b8c0526c8f7fb\n        /* \"ERC1155.sol\":4294:4297  ids */\n      dup10\n      dup10\n        /* \"ERC1155.sol\":4299:4305  values */\n      dup10\n      dup10\n        /* \"ERC1155.sol\":4258:4306  TransferBatch(msg.sender, from, to, ids, values) */\n      mload(0x40)\n      tag_110\n      swap5\n      swap4\n      swap3\n      swap2\n      swap1\n      tag_111\n      jump\t// in\n    tag_110:\n      mload(0x40)\n      dup1\n      swap2\n      sub\n      swap1\n      log4\n        /* \"ERC1155.sol\":4340:4341  0 */\n      0x00\n        /* \"ERC1155.sol\":4323:4325  to */\n      dup8\n        /* \"ERC1155.sol\":4323:4337  to.code.length */\n      0xffffffffffffffffffffffffffffffffffffffff\n      and\n      extcodesize\n        /* \"ERC1155.sol\":4323:4341  to.code.length > 0 */\n      gt\n        /* \"ERC1155.sol\":4319:4629  if (to.code.length > 0) {... */\n      iszero\n      tag_112\n      jumpi\n        /* \"ERC1155.sol\":4513:4566  IERC1155TokenReceiver.onERC1155BatchReceived.selector */\n      shl(0xe0, 0xbc197c81)\n        /* \"ERC1155.sol\":4384:4566  IERC1155TokenReceiver(to).onERC1155BatchReceived(... */\n      not(0xffffffffffffffffffffffffffffffffffffffffffffffffffffffff)\n      and\n        /* \"ERC1155.sol\":4406:4408  to */\n      dup8\n        /* \"ERC1155.sol\":4384:4432  IERC1155TokenReceiver(to).onERC1155BatchReceived */\n      0xffffffffffffffffffffffffffffffffffffffff\n      and\n      0xbc197c81\n        /* \"ERC1155.sol\":4455:4465  msg.sender */\n      caller\n        /* \"ERC1155.sol\":4467:4471  from */\n      dup12\n        /* \"ERC1155.sol\":4473:4476  ids */\n      dup11\n      dup11\n        /* \"ERC1155.sol\":4478:4484  values */\n      dup11\n      dup11\n        /* \"ERC1155.sol\":4486:4490  data */\n      dup11\n      dup11\n        /* \"ERC1155.sol\":4384:4509  IERC1155TokenReceiver(to).onERC1155BatchReceived(... */\n      mload(0x40)\n      dup10\n      0xffffffff\n      and\n      0xe0\n      shl\n      dup2\n      mstore\n      0x04\n      add\n      tag_113\n      swap9\n      swap8\n      swap7\n      swap6\n      swap5\n      swap4\n      swap3\n      swap2\n      swap1\n      tag_114\n      jump\t// in\n    tag_113:\n      0x20\n      mload(0x40)\n      dup1\n      dup4\n      sub\n      dup2\n      0x00\n      dup8\n      gas\n      call\n      iszero\n      dup1\n      iszero\n      tag_116\n      jumpi\n      returndatasize\n      0x00\n      dup1\n      returndatacopy\n      revert(0x00, returndatasize)\n    tag_116:\n      pop\n      pop\n      pop\n      pop\n      mload(0x40)\n      returndatasize\n      not(0x1f)\n      0x1f\n      dup3\n      add\n      and\n      dup3\n      add\n      dup1\n      0x40\n      mstore\n      pop\n      dup2\n      add\n      swap1\n      tag_117\n      swap2\n      swap1\n      tag_118\n      jump\t// in\n    tag_117:\n        /* \"ERC1155.sol\":4384:4566  IERC1155TokenReceiver(to).onERC1155BatchReceived(... */\n      not(0xffffffffffffffffffffffffffffffffffffffffffffffffffffffff)\n      and\n      eq\n        /* \"ERC1155.sol\":4358:4617  require(... */\n      tag_119\n      jumpi\n      mload(0x40)\n      0x08c379a000000000000000000000000000000000000000000000000000000000\n      dup2\n      mstore\n      0x04\n      add\n      tag_120\n      swap1\n      tag_121\n      jump\t// in\n    tag_120:\n      mload(0x40)\n      dup1\n      swap2\n      sub\n      swap1\n      revert\n    tag_119:\n        /* \"ERC1155.sol\":4319:4629  if (to.code.length > 0) {... */\n    tag_112:\n        /* \"ERC1155.sol\":3624:4636  function safeBatchTransferFrom(... */\n      pop\n      pop\n      pop\n      pop\n      pop\n      pop\n      pop\n      pop\n      jump\t// out\n        /* \"ERC1155.sol\":2132:2596  function balanceOfBatch(address[] calldata owners, uint256[] calldata ids)... */\n    tag_49:\n        /* \"ERC1155.sol\":2257:2282  uint256[] memory balances */\n      0x60\n        /* \"ERC1155.sol\":2325:2328  ids */\n      dup3\n      dup3\n        /* \"ERC1155.sol\":2325:2335  ids.length */\n      swap1\n      pop\n        /* \"ERC1155.sol\":2308:2314  owners */\n      dup6\n      dup6\n        /* \"ERC1155.sol\":2308:2321  owners.length */\n      swap1\n      pop\n        /* \"ERC1155.sol\":2308:2335  owners.length == ids.length */\n      eq\n        /* \"ERC1155.sol\":2300:2367  require(owners.length == ids.length, \"owners length != ids length\") */\n      tag_123\n      jumpi\n      mload(0x40)\n      0x08c379a000000000000000000000000000000000000000000000000000000000\n      dup2\n      mstore\n      0x04\n      add\n      tag_124\n      swap1\n      tag_125\n      jump\t// in\n    tag_124:\n      mload(0x40)\n      dup1\n      swap2\n      sub\n      swap1\n      revert\n    tag_123:\n        /* \"ERC1155.sol\":2405:2411  owners */\n      dup5\n      dup5\n        /* \"ERC1155.sol\":2405:2418  owners.length */\n      swap1\n      pop\n        /* \"ERC1155.sol\":2391:2419  new uint256[](owners.length) */\n      0xffffffffffffffff\n      dup2\n      gt\n      iszero\n      tag_126\n      jumpi\n      tag_127\n      tag_128\n      jump\t// in\n    tag_127:\n    tag_126:\n      mload(0x40)\n      swap1\n      dup1\n      dup3\n      mstore\n      dup1\n      0x20\n      mul\n      0x20\n      add\n      dup3\n      add\n      0x40\n      mstore\n      dup1\n      iszero\n      tag_129\n      jumpi\n      dup2\n      0x20\n      add\n      0x20\n      dup3\n      mul\n      dup1\n      calldatasize\n      dup4\n      calldatacopy\n      dup1\n      dup3\n      add\n      swap2\n      pop\n      pop\n      swap1\n      pop\n    tag_129:\n      pop\n        /* \"ERC1155.sol\":2380:2419  balances = new uint256[](owners.length) */\n      swap1\n      pop\n        /* \"ERC1155.sol\":2462:2471  uint256 i */\n      0x00\n        /* \"ERC1155.sol\":2457:2578  for (uint256 i = 0; i < owners.length; i++) {... */\n    tag_130:\n        /* \"ERC1155.sol\":2481:2487  owners */\n      dup6\n      dup6\n        /* \"ERC1155.sol\":2481:2494  owners.length */\n      swap1\n      pop\n        /* \"ERC1155.sol\":2477:2478  i */\n      dup2\n        /* \"ERC1155.sol\":2477:2494  i < owners.length */\n      lt\n        /* \"ERC1155.sol\":2457:2578  for (uint256 i = 0; i < owners.length; i++) {... */\n      iszero\n      tag_131\n      jumpi\n        /* \"ERC1155.sol\":2534:2543  balanceOf */\n      0x00\n        /* \"ERC1155.sol\":2534:2554  balanceOf[owners[i]] */\n      dup1\n        /* \"ERC1155.sol\":2544:2550  owners */\n      dup8\n      dup8\n        /* \"ERC1155.sol\":2551:2552  i */\n      dup5\n        /* \"ERC1155.sol\":2544:2553  owners[i] */\n      dup2\n      dup2\n      lt\n      tag_133\n      jumpi\n      tag_134\n      tag_99\n      jump\t// in\n    tag_134:\n    tag_133:\n      swap1\n      pop\n      0x20\n      mul\n      add\n      0x20\n      dup2\n      add\n      swap1\n      tag_135\n      swap2\n      swap1\n      tag_136\n      jump\t// in\n    tag_135:\n        /* \"ERC1155.sol\":2534:2554  balanceOf[owners[i]] */\n      0xffffffffffffffffffffffffffffffffffffffff\n      and\n      0xffffffffffffffffffffffffffffffffffffffff\n      and\n      dup2\n      mstore\n      0x20\n      add\n      swap1\n      dup2\n      mstore\n      0x20\n      add\n      0x00\n      keccak256\n        /* \"ERC1155.sol\":2534:2562  balanceOf[owners[i]][ids[i]] */\n      0x00\n        /* \"ERC1155.sol\":2555:2558  ids */\n      dup6\n      dup6\n        /* \"ERC1155.sol\":2559:2560  i */\n      dup5\n        /* \"ERC1155.sol\":2555:2561  ids[i] */\n      dup2\n      dup2\n      lt\n      tag_137\n      jumpi\n      tag_138\n      tag_99\n      jump\t// in\n    tag_138:\n    tag_137:\n      swap1\n      pop\n      0x20\n      mul\n      add\n      calldataload\n        /* \"ERC1155.sol\":2534:2562  balanceOf[owners[i]][ids[i]] */\n      dup2\n      mstore\n      0x20\n      add\n      swap1\n      dup2\n      mstore\n      0x20\n      add\n      0x00\n      keccak256\n      sload\n        /* \"ERC1155.sol\":2520:2528  balances */\n      dup3\n        /* \"ERC1155.sol\":2529:2530  i */\n      dup3\n        /* \"ERC1155.sol\":2520:2531  balances[i] */\n      dup2\n      mload\n      dup2\n      lt\n      tag_139\n      jumpi\n      tag_140\n      tag_99\n      jump\t// in\n    tag_140:\n    tag_139:\n      0x20\n      mul\n      0x20\n      add\n      add\n        /* \"ERC1155.sol\":2520:2562  balances[i] = balanceOf[owners[i]][ids[i]] */\n      dup2\n      dup2\n      mstore\n      pop\n      pop\n        /* \"ERC1155.sol\":2496:2499  i++ */\n      dup1\n      dup1\n      0x01\n      add\n      swap2\n      pop\n      pop\n        /* \"ERC1155.sol\":2457:2578  for (uint256 i = 0; i < owners.length; i++) {... */\n      jump(tag_130)\n    tag_131:\n      pop\n        /* \"ERC1155.sol\":2132:2596  function balanceOfBatch(address[] calldata owners, uint256[] calldata ids)... */\n      swap5\n      swap4\n      pop\n      pop\n      pop\n      pop\n      jump\t// out\n        /* \"ERC1155.sol\":2604:2803  function setApprovalForAll(address operator, bool approved) external {... */\n    tag_55:\n        /* \"ERC1155.sol\":2725:2733  approved */\n      dup1\n        /* \"ERC1155.sol\":2684:2700  isApprovedForAll */\n      0x01\n        /* \"ERC1155.sol\":2684:2712  isApprovedForAll[msg.sender] */\n      0x00\n        /* \"ERC1155.sol\":2701:2711  msg.sender */\n      caller\n        /* \"ERC1155.sol\":2684:2712  isApprovedForAll[msg.sender] */\n      0xffffffffffffffffffffffffffffffffffffffff\n      and\n      0xffffffffffffffffffffffffffffffffffffffff\n      and\n      dup2\n      mstore\n      0x20\n      add\n      swap1\n      dup2\n      mstore\n      0x20\n      add\n      0x00\n      keccak256\n        /* \"ERC1155.sol\":2684:2722  isApprovedForAll[msg.sender][operator] */\n      0x00\n        /* \"ERC1155.sol\":2713:2721  operator */\n      dup5\n        /* \"ERC1155.sol\":2684:2722  isApprovedForAll[msg.sender][operator] */\n      0xffffffffffffffffffffffffffffffffffffffff\n      and\n      0xffffffffffffffffffffffffffffffffffffffff\n      and\n      dup2\n      mstore\n      0x20\n      add\n      swap1\n      dup2\n      mstore\n      0x20\n      add\n      0x00\n      keccak256\n      0x00\n        /* \"ERC1155.sol\":2684:2733  isApprovedForAll[msg.sender][operator] = approved */\n      0x0100\n      exp\n      dup2\n      sload\n      dup2\n      0xff\n      mul\n      not\n      and\n      swap1\n      dup4\n      iszero\n      iszero\n      mul\n      or\n      swap1\n      sstore\n      pop\n        /* \"ERC1155.sol\":2776:2784  operator */\n      dup2\n        /* \"ERC1155.sol\":2749:2795  ApprovalForAll(msg.sender, operator, approved) */\n      0xffffffffffffffffffffffffffffffffffffffff\n      and\n        /* \"ERC1155.sol\":2764:2774  msg.sender */\n      caller\n        /* \"ERC1155.sol\":2749:2795  ApprovalForAll(msg.sender, operator, approved) */\n      0xffffffffffffffffffffffffffffffffffffffff\n      and\n      0x17307eab39ab6107e8899845ad3d59bd9653f200f220920489ca2b5937696c31\n        /* \"ERC1155.sol\":2786:2794  approved */\n      dup4\n        /* \"ERC1155.sol\":2749:2795  ApprovalForAll(msg.sender, operator, approved) */\n      mload(0x40)\n      tag_142\n      swap2\n      swap1\n      tag_27\n      jump\t// in\n    tag_142:\n      mload(0x40)\n      dup1\n      swap2\n      sub\n      swap1\n      log3\n        /* \"ERC1155.sol\":2604:2803  function setApprovalForAll(address operator, bool approved) external {... */\n      pop\n      pop\n      jump\t// out\n        /* \"ERC1155.sol\":7660:7757  function burn(uint256 id, uint256 value) external {... */\n    tag_59:\n        /* \"ERC1155.sol\":7721:7749  _burn(msg.sender, id, value) */\n      tag_144\n        /* \"ERC1155.sol\":7727:7737  msg.sender */\n      caller\n        /* \"ERC1155.sol\":7739:7741  id */\n      dup4\n        /* \"ERC1155.sol\":7743:7748  value */\n      dup4\n        /* \"ERC1155.sol\":7721:7726  _burn */\n      tag_145\n        /* \"ERC1155.sol\":7721:7749  _burn(msg.sender, id, value) */\n      jump\t// in\n    tag_144:\n        /* \"ERC1155.sol\":7660:7757  function burn(uint256 id, uint256 value) external {... */\n      pop\n      pop\n      jump\t// out\n        /* \"ERC1155.sol\":7458:7652  function batchMint(... */\n    tag_63:\n        /* \"ERC1155.sol\":7603:7644  _batchMint(msg.sender, ids, values, data) */\n      tag_147\n        /* \"ERC1155.sol\":7614:7624  msg.sender */\n      caller\n        /* \"ERC1155.sol\":7626:7629  ids */\n      dup8\n      dup8\n        /* \"ERC1155.sol\":7631:7637  values */\n      dup8\n      dup8\n        /* \"ERC1155.sol\":7639:7643  data */\n      dup8\n      dup8\n        /* \"ERC1155.sol\":7603:7613  _batchMint */\n      tag_148\n        /* \"ERC1155.sol\":7603:7644  _batchMint(msg.sender, ids, values, data) */\n      jump\t// in\n    tag_147:\n        /* \"ERC1155.sol\":7458:7652  function batchMint(... */\n      pop\n      pop\n      pop\n      pop\n      pop\n      pop\n      jump\t// out\n        /* \"ERC1155.sol\":2055:2123  mapping(address => mapping(address => bool)) public isApprovedForAll */\n    tag_67:\n      mstore(0x20, 0x01)\n      dup2\n      0x00\n      mstore\n      mstore(0x20, keccak256(0x00, 0x40))\n      dup1\n      0x00\n      mstore\n      keccak256(0x00, 0x40)\n      0x00\n      swap2\n      pop\n      swap2\n      pop\n      swap1\n      sload\n      swap1\n      0x0100\n      exp\n      swap1\n      div\n      0xff\n      and\n      dup2\n      jump\t// out\n        /* \"ERC1155.sol\":2811:3616  function safeTransferFrom(... */\n    tag_72:\n        /* \"ERC1155.sol\":3019:3023  from */\n      dup6\n        /* \"ERC1155.sol\":3005:3023  msg.sender == from */\n      0xffffffffffffffffffffffffffffffffffffffff\n      and\n        /* \"ERC1155.sol\":3005:3015  msg.sender */\n      caller\n        /* \"ERC1155.sol\":3005:3023  msg.sender == from */\n      0xffffffffffffffffffffffffffffffffffffffff\n      and\n      eq\n        /* \"ERC1155.sol\":3005:3061  msg.sender == from || isApprovedForAll[from][msg.sender] */\n      dup1\n      tag_150\n      jumpi\n      pop\n        /* \"ERC1155.sol\":3027:3043  isApprovedForAll */\n      0x01\n        /* \"ERC1155.sol\":3027:3049  isApprovedForAll[from] */\n      0x00\n        /* \"ERC1155.sol\":3044:3048  from */\n      dup8\n        /* \"ERC1155.sol\":3027:3049  isApprovedForAll[from] */\n      0xffffffffffffffffffffffffffffffffffffffff\n      and\n      0xffffffffffffffffffffffffffffffffffffffff\n      and\n      dup2\n      mstore\n      0x20\n      add\n      swap1\n      dup2\n      mstore\n      0x20\n      add\n      0x00\n      keccak256\n        /* \"ERC1155.sol\":3027:3061  isApprovedForAll[from][msg.sender] */\n      0x00\n        /* \"ERC1155.sol\":3050:3060  msg.sender */\n      caller\n        /* \"ERC1155.sol\":3027:3061  isApprovedForAll[from][msg.sender] */\n      0xffffffffffffffffffffffffffffffffffffffff\n      and\n      0xffffffffffffffffffffffffffffffffffffffff\n      and\n      dup2\n      mstore\n      0x20\n      add\n      swap1\n      dup2\n      mstore\n      0x20\n      add\n      0x00\n      keccak256\n      0x00\n      swap1\n      sload\n      swap1\n      0x0100\n      exp\n      swap1\n      div\n      0xff\n      and\n        /* \"ERC1155.sol\":3005:3061  msg.sender == from || isApprovedForAll[from][msg.sender] */\n    tag_150:\n        /* \"ERC1155.sol\":2983:3101  require(... */\n      tag_151\n      jumpi\n      mload(0x40)\n      0x08c379a000000000000000000000000000000000000000000000000000000000\n      dup2\n      mstore\n      0x04\n      add\n      tag_152\n      swap1\n      tag_87\n      jump\t// in\n    tag_152:\n      mload(0x40)\n      dup1\n      swap2\n      sub\n      swap1\n      revert\n    tag_151:\n        /* \"ERC1155.sol\":3134:3135  0 */\n      0x00\n        /* \"ERC1155.sol\":3120:3136  to != address(0) */\n      0xffffffffffffffffffffffffffffffffffffffff\n      and\n        /* \"ERC1155.sol\":3120:3122  to */\n      dup6\n        /* \"ERC1155.sol\":3120:3136  to != address(0) */\n      0xffffffffffffffffffffffffffffffffffffffff\n      and\n      sub\n        /* \"ERC1155.sol\":3112:3155  require(to != address(0), \"to = 0 address\") */\n      tag_153\n      jumpi\n      mload(0x40)\n      0x08c379a000000000000000000000000000000000000000000000000000000000\n      dup2\n      mstore\n      0x04\n      add\n      tag_154\n      swap1\n      tag_90\n      jump\t// in\n    tag_154:\n      mload(0x40)\n      dup1\n      swap2\n      sub\n      swap1\n      revert\n    tag_153:\n        /* \"ERC1155.sol\":3191:3196  value */\n      dup3\n        /* \"ERC1155.sol\":3168:3177  balanceOf */\n      0x00\n        /* \"ERC1155.sol\":3168:3183  balanceOf[from] */\n      dup1\n        /* \"ERC1155.sol\":3178:3182  from */\n      dup9\n        /* \"ERC1155.sol\":3168:3183  balanceOf[from] */\n      0xffffffffffffffffffffffffffffffffffffffff\n      and\n      0xffffffffffffffffffffffffffffffffffffffff\n      and\n      dup2\n      mstore\n      0x20\n      add\n      swap1\n      dup2\n      mstore\n      0x20\n      add\n      0x00\n      keccak256\n        /* \"ERC1155.sol\":3168:3187  balanceOf[from][id] */\n      0x00\n        /* \"ERC1155.sol\":3184:3186  id */\n      dup7\n        /* \"ERC1155.sol\":3168:3187  balanceOf[from][id] */\n      dup2\n      mstore\n      0x20\n      add\n      swap1\n      dup2\n      mstore\n      0x20\n      add\n      0x00\n      keccak256\n      0x00\n        /* \"ERC1155.sol\":3168:3196  balanceOf[from][id] -= value */\n      dup3\n      dup3\n      sload\n      tag_155\n      swap2\n      swap1\n      tag_103\n      jump\t// in\n    tag_155:\n      swap3\n      pop\n      pop\n      dup2\n      swap1\n      sstore\n      pop\n        /* \"ERC1155.sol\":3228:3233  value */\n      dup3\n        /* \"ERC1155.sol\":3207:3216  balanceOf */\n      0x00\n        /* \"ERC1155.sol\":3207:3220  balanceOf[to] */\n      dup1\n        /* \"ERC1155.sol\":3217:3219  to */\n      dup8\n        /* \"ERC1155.sol\":3207:3220  balanceOf[to] */\n      0xffffffffffffffffffffffffffffffffffffffff\n      and\n      0xffffffffffffffffffffffffffffffffffffffff\n      and\n      dup2\n      mstore\n      0x20\n      add\n      swap1\n      dup2\n      mstore\n      0x20\n      add\n      0x00\n      keccak256\n        /* \"ERC1155.sol\":3207:3224  balanceOf[to][id] */\n      0x00\n        /* \"ERC1155.sol\":3221:3223  id */\n      dup7\n        /* \"ERC1155.sol\":3207:3224  balanceOf[to][id] */\n      dup2\n      mstore\n      0x20\n      add\n      swap1\n      dup2\n      mstore\n      0x20\n      add\n      0x00\n      keccak256\n      0x00\n        /* \"ERC1155.sol\":3207:3233  balanceOf[to][id] += value */\n      dup3\n      dup3\n      sload\n      tag_156\n      swap2\n      swap1\n      tag_109\n      jump\t// in\n    tag_156:\n      swap3\n      pop\n      pop\n      dup2\n      swap1\n      sstore\n      pop\n        /* \"ERC1155.sol\":3284:3286  to */\n      dup5\n        /* \"ERC1155.sol\":3251:3298  TransferSingle(msg.sender, from, to, id, value) */\n      0xffffffffffffffffffffffffffffffffffffffff\n      and\n        /* \"ERC1155.sol\":3278:3282  from */\n      dup7\n        /* \"ERC1155.sol\":3251:3298  TransferSingle(msg.sender, from, to, id, value) */\n      0xffffffffffffffffffffffffffffffffffffffff\n      and\n        /* \"ERC1155.sol\":3266:3276  msg.sender */\n      caller\n        /* \"ERC1155.sol\":3251:3298  TransferSingle(msg.sender, from, to, id, value) */\n      0xffffffffffffffffffffffffffffffffffffffff\n      and\n      0xc3d58168c5ae7397731d063d5bbf3d657854427343f4c083240f7aacaa2d0f62\n        /* \"ERC1155.sol\":3288:3290  id */\n      dup8\n        /* \"ERC1155.sol\":3292:3297  value */\n      dup8\n        /* \"ERC1155.sol\":3251:3298  TransferSingle(msg.sender, from, to, id, value) */\n      mload(0x40)\n      tag_157\n      swap3\n      swap2\n      swap1\n      tag_158\n      jump\t// in\n    tag_157:\n      mload(0x40)\n      dup1\n      swap2\n      sub\n      swap1\n      log4\n        /* \"ERC1155.sol\":3332:3333  0 */\n      0x00\n        /* \"ERC1155.sol\":3315:3317  to */\n      dup6\n        /* \"ERC1155.sol\":3315:3329  to.code.length */\n      0xffffffffffffffffffffffffffffffffffffffff\n      and\n      extcodesize\n        /* \"ERC1155.sol\":3315:3333  to.code.length > 0 */\n      gt\n        /* \"ERC1155.sol\":3311:3609  if (to.code.length > 0) {... */\n      iszero\n      tag_159\n      jumpi\n        /* \"ERC1155.sol\":3498:3546  IERC1155TokenReceiver.onERC1155Received.selector */\n      shl(0xe0, 0xf23a6e61)\n        /* \"ERC1155.sol\":3376:3546  IERC1155TokenReceiver(to).onERC1155Received(... */\n      not(0xffffffffffffffffffffffffffffffffffffffffffffffffffffffff)\n      and\n        /* \"ERC1155.sol\":3398:3400  to */\n      dup6\n        /* \"ERC1155.sol\":3376:3419  IERC1155TokenReceiver(to).onERC1155Received */\n      0xffffffffffffffffffffffffffffffffffffffff\n      and\n      0xf23a6e61\n        /* \"ERC1155.sol\":3442:3452  msg.sender */\n      caller\n        /* \"ERC1155.sol\":3454:3458  from */\n      dup10\n        /* \"ERC1155.sol\":3460:3462  id */\n      dup9\n        /* \"ERC1155.sol\":3464:3469  value */\n      dup9\n        /* \"ERC1155.sol\":3471:3475  data */\n      dup9\n      dup9\n        /* \"ERC1155.sol\":3376:3494  IERC1155TokenReceiver(to).onERC1155Received(... */\n      mload(0x40)\n      dup8\n      0xffffffff\n      and\n      0xe0\n      shl\n      dup2\n      mstore\n      0x04\n      add\n      tag_160\n      swap7\n      swap6\n      swap5\n      swap4\n      swap3\n      swap2\n      swap1\n      tag_161\n      jump\t// in\n    tag_160:\n      0x20\n      mload(0x40)\n      dup1\n      dup4\n      sub\n      dup2\n      0x00\n      dup8\n      gas\n      call\n      iszero\n      dup1\n      iszero\n      tag_163\n      jumpi\n      returndatasize\n      0x00\n      dup1\n      returndatacopy\n      revert(0x00, returndatasize)\n    tag_163:\n      pop\n      pop\n      pop\n      pop\n      mload(0x40)\n      returndatasize\n      not(0x1f)\n      0x1f\n      dup3\n      add\n      and\n      dup3\n      add\n      dup1\n      0x40\n      mstore\n      pop\n      dup2\n      add\n      swap1\n      tag_164\n      swap2\n      swap1\n      tag_118\n      jump\t// in\n    tag_164:\n        /* \"ERC1155.sol\":3376:3546  IERC1155TokenReceiver(to).onERC1155Received(... */\n      not(0xffffffffffffffffffffffffffffffffffffffffffffffffffffffff)\n      and\n      eq\n        /* \"ERC1155.sol\":3350:3597  require(... */\n      tag_165\n      jumpi\n      mload(0x40)\n      0x08c379a000000000000000000000000000000000000000000000000000000000\n      dup2\n      mstore\n      0x04\n      add\n      tag_166\n      swap1\n      tag_121\n      jump\t// in\n    tag_166:\n      mload(0x40)\n      dup1\n      swap2\n      sub\n      swap1\n      revert\n    tag_165:\n        /* \"ERC1155.sol\":3311:3609  if (to.code.length > 0) {... */\n    tag_159:\n        /* \"ERC1155.sol\":2811:3616  function safeTransferFrom(... */\n      pop\n      pop\n      pop\n      pop\n      pop\n      pop\n      jump\t// out\n        /* \"ERC1155.sol\":5160:5744  function _mint(address to, uint256 id, uint256 value, bytes memory data)... */\n    tag_78:\n        /* \"ERC1155.sol\":5289:5290  0 */\n      0x00\n        /* \"ERC1155.sol\":5275:5291  to != address(0) */\n      0xffffffffffffffffffffffffffffffffffffffff\n      and\n        /* \"ERC1155.sol\":5275:5277  to */\n      dup5\n        /* \"ERC1155.sol\":5275:5291  to != address(0) */\n      0xffffffffffffffffffffffffffffffffffffffff\n      and\n      sub\n        /* \"ERC1155.sol\":5267:5310  require(to != address(0), \"to = 0 address\") */\n      tag_168\n      jumpi\n      mload(0x40)\n      0x08c379a000000000000000000000000000000000000000000000000000000000\n      dup2\n      mstore\n      0x04\n      add\n      tag_169\n      swap1\n      tag_90\n      jump\t// in\n    tag_169:\n      mload(0x40)\n      dup1\n      swap2\n      sub\n      swap1\n      revert\n    tag_168:\n        /* \"ERC1155.sol\":5344:5349  value */\n      dup2\n        /* \"ERC1155.sol\":5323:5332  balanceOf */\n      0x00\n        /* \"ERC1155.sol\":5323:5336  balanceOf[to] */\n      dup1\n        /* \"ERC1155.sol\":5333:5335  to */\n      dup7\n        /* \"ERC1155.sol\":5323:5336  balanceOf[to] */\n      0xffffffffffffffffffffffffffffffffffffffff\n      and\n      0xffffffffffffffffffffffffffffffffffffffff\n      and\n      dup2\n      mstore\n      0x20\n      add\n      swap1\n      dup2\n      mstore\n      0x20\n      add\n      0x00\n      keccak256\n        /* \"ERC1155.sol\":5323:5340  balanceOf[to][id] */\n      0x00\n        /* \"ERC1155.sol\":5337:5339  id */\n      dup6\n        /* \"ERC1155.sol\":5323:5340  balanceOf[to][id] */\n      dup2\n      mstore\n      0x20\n      add\n      swap1\n      dup2\n      mstore\n      0x20\n      add\n      0x00\n      keccak256\n      0x00\n        /* \"ERC1155.sol\":5323:5349  balanceOf[to][id] += value */\n      dup3\n      dup3\n      sload\n      tag_170\n      swap2\n      swap1\n      tag_109\n      jump\t// in\n    tag_170:\n      swap3\n      pop\n      pop\n      dup2\n      swap1\n      sstore\n      pop\n        /* \"ERC1155.sol\":5406:5408  to */\n      dup4\n        /* \"ERC1155.sol\":5367:5420  TransferSingle(msg.sender, address(0), to, id, value) */\n      0xffffffffffffffffffffffffffffffffffffffff\n      and\n        /* \"ERC1155.sol\":5402:5403  0 */\n      0x00\n        /* \"ERC1155.sol\":5367:5420  TransferSingle(msg.sender, address(0), to, id, value) */\n      0xffffffffffffffffffffffffffffffffffffffff\n      and\n        /* \"ERC1155.sol\":5382:5392  msg.sender */\n      caller\n        /* \"ERC1155.sol\":5367:5420  TransferSingle(msg.sender, address(0), to, id, value) */\n      0xffffffffffffffffffffffffffffffffffffffff\n      and\n      0xc3d58168c5ae7397731d063d5bbf3d657854427343f4c083240f7aacaa2d0f62\n        /* \"ERC1155.sol\":5410:5412  id */\n      dup7\n        /* \"ERC1155.sol\":5414:5419  value */\n      dup7\n        /* \"ERC1155.sol\":5367:5420  TransferSingle(msg.sender, address(0), to, id, value) */\n      mload(0x40)\n      tag_171\n      swap3\n      swap2\n      swap1\n      tag_158\n      jump\t// in\n    tag_171:\n      mload(0x40)\n      dup1\n      swap2\n      sub\n      swap1\n      log4\n        /* \"ERC1155.sol\":5454:5455  0 */\n      0x00\n        /* \"ERC1155.sol\":5437:5439  to */\n      dup5\n        /* \"ERC1155.sol\":5437:5451  to.code.length */\n      0xffffffffffffffffffffffffffffffffffffffff\n      and\n      extcodesize\n        /* \"ERC1155.sol\":5437:5455  to.code.length > 0 */\n      gt\n        /* \"ERC1155.sol\":5433:5737  if (to.code.length > 0) {... */\n      iszero\n      tag_172\n      jumpi\n        /* \"ERC1155.sol\":5626:5674  IERC1155TokenReceiver.onERC1155Received.selector */\n      shl(0xe0, 0xf23a6e61)\n        /* \"ERC1155.sol\":5498:5674  IERC1155TokenReceiver(to).onERC1155Received(... */\n      not(0xffffffffffffffffffffffffffffffffffffffffffffffffffffffff)\n      and\n        /* \"ERC1155.sol\":5520:5522  to */\n      dup5\n        /* \"ERC1155.sol\":5498:5541  IERC1155TokenReceiver(to).onERC1155Received */\n      0xffffffffffffffffffffffffffffffffffffffff\n      and\n      0xf23a6e61\n        /* \"ERC1155.sol\":5564:5574  msg.sender */\n      caller\n        /* \"ERC1155.sol\":5584:5585  0 */\n      0x00\n        /* \"ERC1155.sol\":5588:5590  id */\n      dup8\n        /* \"ERC1155.sol\":5592:5597  value */\n      dup8\n        /* \"ERC1155.sol\":5599:5603  data */\n      dup8\n        /* \"ERC1155.sol\":5498:5622  IERC1155TokenReceiver(to).onERC1155Received(... */\n      mload(0x40)\n      dup7\n      0xffffffff\n      and\n      0xe0\n      shl\n      dup2\n      mstore\n      0x04\n      add\n      tag_173\n      swap6\n      swap5\n      swap4\n      swap3\n      swap2\n      swap1\n      tag_174\n      jump\t// in\n    tag_173:\n      0x20\n      mload(0x40)\n      dup1\n      dup4\n      sub\n      dup2\n      0x00\n      dup8\n      gas\n      call\n      iszero\n      dup1\n      iszero\n      tag_176\n      jumpi\n      returndatasize\n      0x00\n      dup1\n      returndatacopy\n      revert(0x00, returndatasize)\n    tag_176:\n      pop\n      pop\n      pop\n      pop\n      mload(0x40)\n      returndatasize\n      not(0x1f)\n      0x1f\n      dup3\n      add\n      and\n      dup3\n      add\n      dup1\n      0x40\n      mstore\n      pop\n      dup2\n      add\n      swap1\n      tag_177\n      swap2\n      swap1\n      tag_118\n      jump\t// in\n    tag_177:\n        /* \"ERC1155.sol\":5498:5674  IERC1155TokenReceiver(to).onERC1155Received(... */\n      not(0xffffffffffffffffffffffffffffffffffffffffffffffffffffffff)\n      and\n      eq\n        /* \"ERC1155.sol\":5472:5725  require(... */\n      tag_178\n      jumpi\n      mload(0x40)\n      0x08c379a000000000000000000000000000000000000000000000000000000000\n      dup2\n      mstore\n      0x04\n      add\n      tag_179\n      swap1\n      tag_121\n      jump\t// in\n    tag_179:\n      mload(0x40)\n      dup1\n      swap2\n      sub\n      swap1\n      revert\n    tag_178:\n        /* \"ERC1155.sol\":5433:5737  if (to.code.length > 0) {... */\n    tag_172:\n        /* \"ERC1155.sol\":5160:5744  function _mint(address to, uint256 id, uint256 value, bytes memory data)... */\n      pop\n      pop\n      pop\n      pop\n      jump\t// out\n        /* \"ERC1155.sol\":6819:7281  function _batchBurn(... */\n    tag_82:\n        /* \"ERC1155.sol\":6982:6983  0 */\n      0x00\n        /* \"ERC1155.sol\":6966:6984  from != address(0) */\n      0xffffffffffffffffffffffffffffffffffffffff\n      and\n        /* \"ERC1155.sol\":6966:6970  from */\n      dup6\n        /* \"ERC1155.sol\":6966:6984  from != address(0) */\n      0xffffffffffffffffffffffffffffffffffffffff\n      and\n      sub\n        /* \"ERC1155.sol\":6958:7005  require(from != address(0), \"from = 0 address\") */\n      tag_181\n      jumpi\n      mload(0x40)\n      0x08c379a000000000000000000000000000000000000000000000000000000000\n      dup2\n      mstore\n      0x04\n      add\n      tag_182\n      swap1\n      tag_183\n      jump\t// in\n    tag_182:\n      mload(0x40)\n      dup1\n      swap2\n      sub\n      swap1\n      revert\n    tag_181:\n        /* \"ERC1155.sol\":7038:7044  values */\n      dup2\n      dup2\n        /* \"ERC1155.sol\":7038:7051  values.length */\n      swap1\n      pop\n        /* \"ERC1155.sol\":7024:7027  ids */\n      dup5\n      dup5\n        /* \"ERC1155.sol\":7024:7034  ids.length */\n      swap1\n      pop\n        /* \"ERC1155.sol\":7024:7051  ids.length == values.length */\n      eq\n        /* \"ERC1155.sol\":7016:7083  require(ids.length == values.length, \"ids length != values length\") */\n      tag_184\n      jumpi\n      mload(0x40)\n      0x08c379a000000000000000000000000000000000000000000000000000000000\n      dup2\n      mstore\n      0x04\n      add\n      tag_185\n      swap1\n      tag_93\n      jump\t// in\n    tag_185:\n      mload(0x40)\n      dup1\n      swap2\n      sub\n      swap1\n      revert\n    tag_184:\n        /* \"ERC1155.sol\":7101:7110  uint256 i */\n      0x00\n        /* \"ERC1155.sol\":7096:7200  for (uint256 i = 0; i < ids.length; i++) {... */\n    tag_186:\n        /* \"ERC1155.sol\":7120:7123  ids */\n      dup5\n      dup5\n        /* \"ERC1155.sol\":7120:7130  ids.length */\n      swap1\n      pop\n        /* \"ERC1155.sol\":7116:7117  i */\n      dup2\n        /* \"ERC1155.sol\":7116:7130  i < ids.length */\n      lt\n        /* \"ERC1155.sol\":7096:7200  for (uint256 i = 0; i < ids.length; i++) {... */\n      iszero\n      tag_187\n      jumpi\n        /* \"ERC1155.sol\":7179:7185  values */\n      dup3\n      dup3\n        /* \"ERC1155.sol\":7186:7187  i */\n      dup3\n        /* \"ERC1155.sol\":7179:7188  values[i] */\n      dup2\n      dup2\n      lt\n      tag_189\n      jumpi\n      tag_190\n      tag_99\n      jump\t// in\n    tag_190:\n    tag_189:\n      swap1\n      pop\n      0x20\n      mul\n      add\n      calldataload\n        /* \"ERC1155.sol\":7152:7161  balanceOf */\n      0x00\n        /* \"ERC1155.sol\":7152:7167  balanceOf[from] */\n      dup1\n        /* \"ERC1155.sol\":7162:7166  from */\n      dup9\n        /* \"ERC1155.sol\":7152:7167  balanceOf[from] */\n      0xffffffffffffffffffffffffffffffffffffffff\n      and\n      0xffffffffffffffffffffffffffffffffffffffff\n      and\n      dup2\n      mstore\n      0x20\n      add\n      swap1\n      dup2\n      mstore\n      0x20\n      add\n      0x00\n      keccak256\n        /* \"ERC1155.sol\":7152:7175  balanceOf[from][ids[i]] */\n      0x00\n        /* \"ERC1155.sol\":7168:7171  ids */\n      dup8\n      dup8\n        /* \"ERC1155.sol\":7172:7173  i */\n      dup6\n        /* \"ERC1155.sol\":7168:7174  ids[i] */\n      dup2\n      dup2\n      lt\n      tag_191\n      jumpi\n      tag_192\n      tag_99\n      jump\t// in\n    tag_192:\n    tag_191:\n      swap1\n      pop\n      0x20\n      mul\n      add\n      calldataload\n        /* \"ERC1155.sol\":7152:7175  balanceOf[from][ids[i]] */\n      dup2\n      mstore\n      0x20\n      add\n      swap1\n      dup2\n      mstore\n      0x20\n      add\n      0x00\n      keccak256\n      0x00\n        /* \"ERC1155.sol\":7152:7188  balanceOf[from][ids[i]] -= values[i] */\n      dup3\n      dup3\n      sload\n      tag_193\n      swap2\n      swap1\n      tag_103\n      jump\t// in\n    tag_193:\n      swap3\n      pop\n      pop\n      dup2\n      swap1\n      sstore\n      pop\n        /* \"ERC1155.sol\":7132:7135  i++ */\n      dup1\n      dup1\n      0x01\n      add\n      swap2\n      pop\n      pop\n        /* \"ERC1155.sol\":7096:7200  for (uint256 i = 0; i < ids.length; i++) {... */\n      jump(tag_186)\n    tag_187:\n      pop\n        /* \"ERC1155.sol\":7257:7258  0 */\n      0x00\n        /* \"ERC1155.sol\":7217:7273  TransferBatch(msg.sender, from, address(0), ids, values) */\n      0xffffffffffffffffffffffffffffffffffffffff\n      and\n        /* \"ERC1155.sol\":7243:7247  from */\n      dup6\n        /* \"ERC1155.sol\":7217:7273  TransferBatch(msg.sender, from, address(0), ids, values) */\n      0xffffffffffffffffffffffffffffffffffffffff\n      and\n        /* \"ERC1155.sol\":7231:7241  msg.sender */\n      caller\n        /* \"ERC1155.sol\":7217:7273  TransferBatch(msg.sender, from, address(0), ids, values) */\n      0xffffffffffffffffffffffffffffffffffffffff\n      and\n      0x4a39dc06d4c0dbc64b70af90fd698a233a518aa5d07e595d983b8c0526c8f7fb\n        /* \"ERC1155.sol\":7261:7264  ids */\n      dup8\n      dup8\n        /* \"ERC1155.sol\":7266:7272  values */\n      dup8\n      dup8\n        /* \"ERC1155.sol\":7217:7273  TransferBatch(msg.sender, from, address(0), ids, values) */\n      mload(0x40)\n      tag_194\n      swap5\n      swap4\n      swap3\n      swap2\n      swap1\n      tag_111\n      jump\t// in\n    tag_194:\n      mload(0x40)\n      dup1\n      swap2\n      sub\n      swap1\n      log4\n        /* \"ERC1155.sol\":6819:7281  function _batchBurn(... */\n      pop\n      pop\n      pop\n      pop\n      pop\n      jump\t// out\n        /* \"ERC1155.sol\":6570:6811  function _burn(address from, uint256 id, uint256 value) internal {... */\n    tag_145:\n        /* \"ERC1155.sol\":6670:6671  0 */\n      0x00\n        /* \"ERC1155.sol\":6654:6672  from != address(0) */\n      0xffffffffffffffffffffffffffffffffffffffff\n      and\n        /* \"ERC1155.sol\":6654:6658  from */\n      dup4\n        /* \"ERC1155.sol\":6654:6672  from != address(0) */\n      0xffffffffffffffffffffffffffffffffffffffff\n      and\n      sub\n        /* \"ERC1155.sol\":6646:6693  require(from != address(0), \"from = 0 address\") */\n      tag_196\n      jumpi\n      mload(0x40)\n      0x08c379a000000000000000000000000000000000000000000000000000000000\n      dup2\n      mstore\n      0x04\n      add\n      tag_197\n      swap1\n      tag_183\n      jump\t// in\n    tag_197:\n      mload(0x40)\n      dup1\n      swap2\n      sub\n      swap1\n      revert\n    tag_196:\n        /* \"ERC1155.sol\":6727:6732  value */\n      dup1\n        /* \"ERC1155.sol\":6704:6713  balanceOf */\n      0x00\n        /* \"ERC1155.sol\":6704:6719  balanceOf[from] */\n      dup1\n        /* \"ERC1155.sol\":6714:6718  from */\n      dup6\n        /* \"ERC1155.sol\":6704:6719  balanceOf[from] */\n      0xffffffffffffffffffffffffffffffffffffffff\n      and\n      0xffffffffffffffffffffffffffffffffffffffff\n      and\n      dup2\n      mstore\n      0x20\n      add\n      swap1\n      dup2\n      mstore\n      0x20\n      add\n      0x00\n      keccak256\n        /* \"ERC1155.sol\":6704:6723  balanceOf[from][id] */\n      0x00\n        /* \"ERC1155.sol\":6720:6722  id */\n      dup5\n        /* \"ERC1155.sol\":6704:6723  balanceOf[from][id] */\n      dup2\n      mstore\n      0x20\n      add\n      swap1\n      dup2\n      mstore\n      0x20\n      add\n      0x00\n      keccak256\n      0x00\n        /* \"ERC1155.sol\":6704:6732  balanceOf[from][id] -= value */\n      dup3\n      dup3\n      sload\n      tag_198\n      swap2\n      swap1\n      tag_103\n      jump\t// in\n    tag_198:\n      swap3\n      pop\n      pop\n      dup2\n      swap1\n      sstore\n      pop\n        /* \"ERC1155.sol\":6789:6790  0 */\n      0x00\n        /* \"ERC1155.sol\":6748:6803  TransferSingle(msg.sender, from, address(0), id, value) */\n      0xffffffffffffffffffffffffffffffffffffffff\n      and\n        /* \"ERC1155.sol\":6775:6779  from */\n      dup4\n        /* \"ERC1155.sol\":6748:6803  TransferSingle(msg.sender, from, address(0), id, value) */\n      0xffffffffffffffffffffffffffffffffffffffff\n      and\n        /* \"ERC1155.sol\":6763:6773  msg.sender */\n      caller\n        /* \"ERC1155.sol\":6748:6803  TransferSingle(msg.sender, from, address(0), id, value) */\n      0xffffffffffffffffffffffffffffffffffffffff\n      and\n      0xc3d58168c5ae7397731d063d5bbf3d657854427343f4c083240f7aacaa2d0f62\n        /* \"ERC1155.sol\":6793:6795  id */\n      dup6\n        /* \"ERC1155.sol\":6797:6802  value */\n      dup6\n        /* \"ERC1155.sol\":6748:6803  TransferSingle(msg.sender, from, address(0), id, value) */\n      mload(0x40)\n      tag_199\n      swap3\n      swap2\n      swap1\n      tag_158\n      jump\t// in\n    tag_199:\n      mload(0x40)\n      dup1\n      swap2\n      sub\n      swap1\n      log4\n        /* \"ERC1155.sol\":6570:6811  function _burn(address from, uint256 id, uint256 value) internal {... */\n      pop\n      pop\n      pop\n      jump\t// out\n        /* \"ERC1155.sol\":5752:6562  function _batchMint(... */\n    tag_148:\n        /* \"ERC1155.sol\":5941:5942  0 */\n      0x00\n        /* \"ERC1155.sol\":5927:5943  to != address(0) */\n      0xffffffffffffffffffffffffffffffffffffffff\n      and\n        /* \"ERC1155.sol\":5927:5929  to */\n      dup8\n        /* \"ERC1155.sol\":5927:5943  to != address(0) */\n      0xffffffffffffffffffffffffffffffffffffffff\n      and\n      sub\n        /* \"ERC1155.sol\":5919:5962  require(to != address(0), \"to = 0 address\") */\n      tag_201\n      jumpi\n      mload(0x40)\n      0x08c379a000000000000000000000000000000000000000000000000000000000\n      dup2\n      mstore\n      0x04\n      add\n      tag_202\n      swap1\n      tag_90\n      jump\t// in\n    tag_202:\n      mload(0x40)\n      dup1\n      swap2\n      sub\n      swap1\n      revert\n    tag_201:\n        /* \"ERC1155.sol\":5995:6001  values */\n      dup4\n      dup4\n        /* \"ERC1155.sol\":5995:6008  values.length */\n      swap1\n      pop\n        /* \"ERC1155.sol\":5981:5984  ids */\n      dup7\n      dup7\n        /* \"ERC1155.sol\":5981:5991  ids.length */\n      swap1\n      pop\n        /* \"ERC1155.sol\":5981:6008  ids.length == values.length */\n      eq\n        /* \"ERC1155.sol\":5973:6040  require(ids.length == values.length, \"ids length != values length\") */\n      tag_203\n      jumpi\n      mload(0x40)\n      0x08c379a000000000000000000000000000000000000000000000000000000000\n      dup2\n      mstore\n      0x04\n      add\n      tag_204\n      swap1\n      tag_93\n      jump\t// in\n    tag_204:\n      mload(0x40)\n      dup1\n      swap2\n      sub\n      swap1\n      revert\n    tag_203:\n        /* \"ERC1155.sol\":6058:6067  uint256 i */\n      0x00\n        /* \"ERC1155.sol\":6053:6155  for (uint256 i = 0; i < ids.length; i++) {... */\n    tag_205:\n        /* \"ERC1155.sol\":6077:6080  ids */\n      dup7\n      dup7\n        /* \"ERC1155.sol\":6077:6087  ids.length */\n      swap1\n      pop\n        /* \"ERC1155.sol\":6073:6074  i */\n      dup2\n        /* \"ERC1155.sol\":6073:6087  i < ids.length */\n      lt\n        /* \"ERC1155.sol\":6053:6155  for (uint256 i = 0; i < ids.length; i++) {... */\n      iszero\n      tag_206\n      jumpi\n        /* \"ERC1155.sol\":6134:6140  values */\n      dup5\n      dup5\n        /* \"ERC1155.sol\":6141:6142  i */\n      dup3\n        /* \"ERC1155.sol\":6134:6143  values[i] */\n      dup2\n      dup2\n      lt\n      tag_208\n      jumpi\n      tag_209\n      tag_99\n      jump\t// in\n    tag_209:\n    tag_208:\n      swap1\n      pop\n      0x20\n      mul\n      add\n      calldataload\n        /* \"ERC1155.sol\":6109:6118  balanceOf */\n      0x00\n        /* \"ERC1155.sol\":6109:6122  balanceOf[to] */\n      dup1\n        /* \"ERC1155.sol\":6119:6121  to */\n      dup11\n        /* \"ERC1155.sol\":6109:6122  balanceOf[to] */\n      0xffffffffffffffffffffffffffffffffffffffff\n      and\n      0xffffffffffffffffffffffffffffffffffffffff\n      and\n      dup2\n      mstore\n      0x20\n      add\n      swap1\n      dup2\n      mstore\n      0x20\n      add\n      0x00\n      keccak256\n        /* \"ERC1155.sol\":6109:6130  balanceOf[to][ids[i]] */\n      0x00\n        /* \"ERC1155.sol\":6123:6126  ids */\n      dup10\n      dup10\n        /* \"ERC1155.sol\":6127:6128  i */\n      dup6\n        /* \"ERC1155.sol\":6123:6129  ids[i] */\n      dup2\n      dup2\n      lt\n      tag_210\n      jumpi\n      tag_211\n      tag_99\n      jump\t// in\n    tag_211:\n    tag_210:\n      swap1\n      pop\n      0x20\n      mul\n      add\n      calldataload\n        /* \"ERC1155.sol\":6109:6130  balanceOf[to][ids[i]] */\n      dup2\n      mstore\n      0x20\n      add\n      swap1\n      dup2\n      mstore\n      0x20\n      add\n      0x00\n      keccak256\n      0x00\n        /* \"ERC1155.sol\":6109:6143  balanceOf[to][ids[i]] += values[i] */\n      dup3\n      dup3\n      sload\n      tag_212\n      swap2\n      swap1\n      tag_109\n      jump\t// in\n    tag_212:\n      swap3\n      pop\n      pop\n      dup2\n      swap1\n      sstore\n      pop\n        /* \"ERC1155.sol\":6089:6092  i++ */\n      dup1\n      dup1\n      0x01\n      add\n      swap2\n      pop\n      pop\n        /* \"ERC1155.sol\":6053:6155  for (uint256 i = 0; i < ids.length; i++) {... */\n      jump(tag_205)\n    tag_206:\n      pop\n        /* \"ERC1155.sol\":6210:6212  to */\n      dup7\n        /* \"ERC1155.sol\":6172:6226  TransferBatch(msg.sender, address(0), to, ids, values) */\n      0xffffffffffffffffffffffffffffffffffffffff\n      and\n        /* \"ERC1155.sol\":6206:6207  0 */\n      0x00\n        /* \"ERC1155.sol\":6172:6226  TransferBatch(msg.sender, address(0), to, ids, values) */\n      0xffffffffffffffffffffffffffffffffffffffff\n      and\n        /* \"ERC1155.sol\":6186:6196  msg.sender */\n      caller\n        /* \"ERC1155.sol\":6172:6226  TransferBatch(msg.sender, address(0), to, ids, values) */\n      0xffffffffffffffffffffffffffffffffffffffff\n      and\n      0x4a39dc06d4c0dbc64b70af90fd698a233a518aa5d07e595d983b8c0526c8f7fb\n        /* \"ERC1155.sol\":6214:6217  ids */\n      dup10\n      dup10\n        /* \"ERC1155.sol\":6219:6225  values */\n      dup10\n      dup10\n        /* \"ERC1155.sol\":6172:6226  TransferBatch(msg.sender, address(0), to, ids, values) */\n      mload(0x40)\n      tag_213\n      swap5\n      swap4\n      swap3\n      swap2\n      swap1\n      tag_111\n      jump\t// in\n    tag_213:\n      mload(0x40)\n      dup1\n      swap2\n      sub\n      swap1\n      log4\n        /* \"ERC1155.sol\":6260:6261  0 */\n      0x00\n        /* \"ERC1155.sol\":6243:6245  to */\n      dup8\n        /* \"ERC1155.sol\":6243:6257  to.code.length */\n      0xffffffffffffffffffffffffffffffffffffffff\n      and\n      extcodesize\n        /* \"ERC1155.sol\":6243:6261  to.code.length > 0 */\n      gt\n        /* \"ERC1155.sol\":6239:6555  if (to.code.length > 0) {... */\n      iszero\n      tag_214\n      jumpi\n        /* \"ERC1155.sol\":6439:6492  IERC1155TokenReceiver.onERC1155BatchReceived.selector */\n      shl(0xe0, 0xbc197c81)\n        /* \"ERC1155.sol\":6304:6492  IERC1155TokenReceiver(to).onERC1155BatchReceived(... */\n      not(0xffffffffffffffffffffffffffffffffffffffffffffffffffffffff)\n      and\n        /* \"ERC1155.sol\":6326:6328  to */\n      dup8\n        /* \"ERC1155.sol\":6304:6352  IERC1155TokenReceiver(to).onERC1155BatchReceived */\n      0xffffffffffffffffffffffffffffffffffffffff\n      and\n      0xbc197c81\n        /* \"ERC1155.sol\":6375:6385  msg.sender */\n      caller\n        /* \"ERC1155.sol\":6395:6396  0 */\n      0x00\n        /* \"ERC1155.sol\":6399:6402  ids */\n      dup11\n      dup11\n        /* \"ERC1155.sol\":6404:6410  values */\n      dup11\n      dup11\n        /* \"ERC1155.sol\":6412:6416  data */\n      dup11\n      dup11\n        /* \"ERC1155.sol\":6304:6435  IERC1155TokenReceiver(to).onERC1155BatchReceived(... */\n      mload(0x40)\n      dup10\n      0xffffffff\n      and\n      0xe0\n      shl\n      dup2\n      mstore\n      0x04\n      add\n      tag_215\n      swap9\n      swap8\n      swap7\n      swap6\n      swap5\n      swap4\n      swap3\n      swap2\n      swap1\n      tag_114\n      jump\t// in\n    tag_215:\n      0x20\n      mload(0x40)\n      dup1\n      dup4\n      sub\n      dup2\n      0x00\n      dup8\n      gas\n      call\n      iszero\n      dup1\n      iszero\n      tag_217\n      jumpi\n      returndatasize\n      0x00\n      dup1\n      returndatacopy\n      revert(0x00, returndatasize)\n    tag_217:\n      pop\n      pop\n      pop\n      pop\n      mload(0x40)\n      returndatasize\n      not(0x1f)\n      0x1f\n      dup3\n      add\n      and\n      dup3\n      add\n      dup1\n      0x40\n      mstore\n      pop\n      dup2\n      add\n      swap1\n      tag_218\n      swap2\n      swap1\n      tag_118\n      jump\t// in\n    tag_218:\n        /* \"ERC1155.sol\":6304:6492  IERC1155TokenReceiver(to).onERC1155BatchReceived(... */\n      not(0xffffffffffffffffffffffffffffffffffffffffffffffffffffffff)\n      and\n      eq\n        /* \"ERC1155.sol\":6278:6543  require(... */\n      tag_219\n      jumpi\n      mload(0x40)\n      0x08c379a000000000000000000000000000000000000000000000000000000000\n      dup2\n      mstore\n      0x04\n      add\n      tag_220\n      swap1\n      tag_121\n      jump\t// in\n    tag_220:\n      mload(0x40)\n      dup1\n      swap2\n      sub\n      swap1\n      revert\n    tag_219:\n        /* \"ERC1155.sol\":6239:6555  if (to.code.length > 0) {... */\n    tag_214:\n        /* \"ERC1155.sol\":5752:6562  function _batchMint(... */\n      pop\n      pop\n      pop\n      pop\n      pop\n      pop\n      pop\n      jump\t// out\n        /* \"#utility.yul\":7:82   */\n    tag_221:\n        /* \"#utility.yul\":40:46   */\n      0x00\n        /* \"#utility.yul\":73:75   */\n      0x40\n        /* \"#utility.yul\":67:76   */\n      mload\n        /* \"#utility.yul\":57:76   */\n      swap1\n      pop\n        /* \"#utility.yul\":7:82   */\n      swap1\n      jump\t// out\n        /* \"#utility.yul\":88:205   */\n    tag_222:\n        /* \"#utility.yul\":197:198   */\n      0x00\n        /* \"#utility.yul\":194:195   */\n      dup1\n        /* \"#utility.yul\":187:199   */\n      revert\n        /* \"#utility.yul\":211:328   */\n    tag_223:\n        /* \"#utility.yul\":320:321   */\n      0x00\n        /* \"#utility.yul\":317:318   */\n      dup1\n        /* \"#utility.yul\":310:322   */\n      revert\n        /* \"#utility.yul\":334:460   */\n    tag_224:\n        /* \"#utility.yul\":371:378   */\n      0x00\n        /* \"#utility.yul\":411:453   */\n      0xffffffffffffffffffffffffffffffffffffffff\n        /* \"#utility.yul\":404:409   */\n      dup3\n        /* \"#utility.yul\":400:454   */\n      and\n        /* \"#utility.yul\":389:454   */\n      swap1\n      pop\n        /* \"#utility.yul\":334:460   */\n      swap2\n      swap1\n      pop\n      jump\t// out\n        /* \"#utility.yul\":466:562   */\n    tag_225:\n        /* \"#utility.yul\":503:510   */\n      0x00\n        /* \"#utility.yul\":532:556   */\n      tag_292\n        /* \"#utility.yul\":550:555   */\n      dup3\n        /* \"#utility.yul\":532:556   */\n      tag_224\n      jump\t// in\n    tag_292:\n        /* \"#utility.yul\":521:556   */\n      swap1\n      pop\n        /* \"#utility.yul\":466:562   */\n      swap2\n      swap1\n      pop\n      jump\t// out\n        /* \"#utility.yul\":568:690   */\n    tag_226:\n        /* \"#utility.yul\":641:665   */\n      tag_294\n        /* \"#utility.yul\":659:664   */\n      dup2\n        /* \"#utility.yul\":641:665   */\n      tag_225\n      jump\t// in\n    tag_294:\n        /* \"#utility.yul\":634:639   */\n      dup2\n        /* \"#utility.yul\":631:666   */\n      eq\n        /* \"#utility.yul\":621:684   */\n      tag_295\n      jumpi\n        /* \"#utility.yul\":680:681   */\n      0x00\n        /* \"#utility.yul\":677:678   */\n      dup1\n        /* \"#utility.yul\":670:682   */\n      revert\n        /* \"#utility.yul\":621:684   */\n    tag_295:\n        /* \"#utility.yul\":568:690   */\n      pop\n      jump\t// out\n        /* \"#utility.yul\":696:835   */\n    tag_227:\n        /* \"#utility.yul\":742:747   */\n      0x00\n        /* \"#utility.yul\":780:786   */\n      dup2\n        /* \"#utility.yul\":767:787   */\n      calldataload\n        /* \"#utility.yul\":758:787   */\n      swap1\n      pop\n        /* \"#utility.yul\":796:829   */\n      tag_297\n        /* \"#utility.yul\":823:828   */\n      dup2\n        /* \"#utility.yul\":796:829   */\n      tag_226\n      jump\t// in\n    tag_297:\n        /* \"#utility.yul\":696:835   */\n      swap3\n      swap2\n      pop\n      pop\n      jump\t// out\n        /* \"#utility.yul\":841:918   */\n    tag_228:\n        /* \"#utility.yul\":878:885   */\n      0x00\n        /* \"#utility.yul\":907:912   */\n      dup2\n        /* \"#utility.yul\":896:912   */\n      swap1\n      pop\n        /* \"#utility.yul\":841:918   */\n      swap2\n      swap1\n      pop\n      jump\t// out\n        /* \"#utility.yul\":924:1046   */\n    tag_229:\n        /* \"#utility.yul\":997:1021   */\n      tag_300\n        /* \"#utility.yul\":1015:1020   */\n      dup2\n        /* \"#utility.yul\":997:1021   */\n      tag_228\n      jump\t// in\n    tag_300:\n        /* \"#utility.yul\":990:995   */\n      dup2\n        /* \"#utility.yul\":987:1022   */\n      eq\n        /* \"#utility.yul\":977:1040   */\n      tag_301\n      jumpi\n        /* \"#utility.yul\":1036:1037   */\n      0x00\n        /* \"#utility.yul\":1033:1034   */\n      dup1\n        /* \"#utility.yul\":1026:1038   */\n      revert\n        /* \"#utility.yul\":977:1040   */\n    tag_301:\n        /* \"#utility.yul\":924:1046   */\n      pop\n      jump\t// out\n        /* \"#utility.yul\":1052:1191   */\n    tag_230:\n        /* \"#utility.yul\":1098:1103   */\n      0x00\n        /* \"#utility.yul\":1136:1142   */\n      dup2\n        /* \"#utility.yul\":1123:1143   */\n      calldataload\n        /* \"#utility.yul\":1114:1143   */\n      swap1\n      pop\n        /* \"#utility.yul\":1152:1185   */\n      tag_303\n        /* \"#utility.yul\":1179:1184   */\n      dup2\n        /* \"#utility.yul\":1152:1185   */\n      tag_229\n      jump\t// in\n    tag_303:\n        /* \"#utility.yul\":1052:1191   */\n      swap3\n      swap2\n      pop\n      pop\n      jump\t// out\n        /* \"#utility.yul\":1197:1671   */\n    tag_18:\n        /* \"#utility.yul\":1265:1271   */\n      0x00\n        /* \"#utility.yul\":1273:1279   */\n      dup1\n        /* \"#utility.yul\":1322:1324   */\n      0x40\n        /* \"#utility.yul\":1310:1319   */\n      dup4\n        /* \"#utility.yul\":1301:1308   */\n      dup6\n        /* \"#utility.yul\":1297:1320   */\n      sub\n        /* \"#utility.yul\":1293:1325   */\n      slt\n        /* \"#utility.yul\":1290:1409   */\n      iszero\n      tag_305\n      jumpi\n        /* \"#utility.yul\":1328:1407   */\n      tag_306\n      tag_222\n      jump\t// in\n    tag_306:\n        /* \"#utility.yul\":1290:1409   */\n    tag_305:\n        /* \"#utility.yul\":1448:1449   */\n      0x00\n        /* \"#utility.yul\":1473:1526   */\n      tag_307\n        /* \"#utility.yul\":1518:1525   */\n      dup6\n        /* \"#utility.yul\":1509:1515   */\n      dup3\n        /* \"#utility.yul\":1498:1507   */\n      dup7\n        /* \"#utility.yul\":1494:1516   */\n      add\n        /* \"#utility.yul\":1473:1526   */\n      tag_227\n      jump\t// in\n    tag_307:\n        /* \"#utility.yul\":1463:1526   */\n      swap3\n      pop\n        /* \"#utility.yul\":1419:1536   */\n      pop\n        /* \"#utility.yul\":1575:1577   */\n      0x20\n        /* \"#utility.yul\":1601:1654   */\n      tag_308\n        /* \"#utility.yul\":1646:1653   */\n      dup6\n        /* \"#utility.yul\":1637:1643   */\n      dup3\n        /* \"#utility.yul\":1626:1635   */\n      dup7\n        /* \"#utility.yul\":1622:1644   */\n      add\n        /* \"#utility.yul\":1601:1654   */\n      tag_230\n      jump\t// in\n    tag_308:\n        /* \"#utility.yul\":1591:1654   */\n      swap2\n      pop\n        /* \"#utility.yul\":1546:1664   */\n      pop\n        /* \"#utility.yul\":1197:1671   */\n      swap3\n      pop\n      swap3\n      swap1\n      pop\n      jump\t// out\n        /* \"#utility.yul\":1677:1795   */\n    tag_231:\n        /* \"#utility.yul\":1764:1788   */\n      tag_310\n        /* \"#utility.yul\":1782:1787   */\n      dup2\n        /* \"#utility.yul\":1764:1788   */\n      tag_228\n      jump\t// in\n    tag_310:\n        /* \"#utility.yul\":1759:1762   */\n      dup3\n        /* \"#utility.yul\":1752:1789   */\n      mstore\n        /* \"#utility.yul\":1677:1795   */\n      pop\n      pop\n      jump\t// out\n        /* \"#utility.yul\":1801:2023   */\n    tag_21:\n        /* \"#utility.yul\":1894:1898   */\n      0x00\n        /* \"#utility.yul\":1932:1934   */\n      0x20\n        /* \"#utility.yul\":1921:1930   */\n      dup3\n        /* \"#utility.yul\":1917:1935   */\n      add\n        /* \"#utility.yul\":1909:1935   */\n      swap1\n      pop\n        /* \"#utility.yul\":1945:2016   */\n      tag_312\n        /* \"#utility.yul\":2013:2014   */\n      0x00\n        /* \"#utility.yul\":2002:2011   */\n      dup4\n        /* \"#utility.yul\":1998:2015   */\n      add\n        /* \"#utility.yul\":1989:1995   */\n      dup5\n        /* \"#utility.yul\":1945:2016   */\n      tag_231\n      jump\t// in\n    tag_312:\n        /* \"#utility.yul\":1801:2023   */\n      swap3\n      swap2\n      pop\n      pop\n      jump\t// out\n        /* \"#utility.yul\":2029:2178   */\n    tag_232:\n        /* \"#utility.yul\":2065:2072   */\n      0x00\n        /* \"#utility.yul\":2105:2171   */\n      0xffffffff00000000000000000000000000000000000000000000000000000000\n        /* \"#utility.yul\":2098:2103   */\n      dup3\n        /* \"#utility.yul\":2094:2172   */\n      and\n        /* \"#utility.yul\":2083:2172   */\n      swap1\n      pop\n        /* \"#utility.yul\":2029:2178   */\n      swap2\n      swap1\n      pop\n      jump\t// out\n        /* \"#utility.yul\":2184:2304   */\n    tag_233:\n        /* \"#utility.yul\":2256:2279   */\n      tag_315\n        /* \"#utility.yul\":2273:2278   */\n      dup2\n        /* \"#utility.yul\":2256:2279   */\n      tag_232\n      jump\t// in\n    tag_315:\n        /* \"#utility.yul\":2249:2254   */\n      dup2\n        /* \"#utility.yul\":2246:2280   */\n      eq\n        /* \"#utility.yul\":2236:2298   */\n      tag_316\n      jumpi\n        /* \"#utility.yul\":2294:2295   */\n      0x00\n        /* \"#utility.yul\":2291:2292   */\n      dup1\n        /* \"#utility.yul\":2284:2296   */\n      revert\n        /* \"#utility.yul\":2236:2298   */\n    tag_316:\n        /* \"#utility.yul\":2184:2304   */\n      pop\n      jump\t// out\n        /* \"#utility.yul\":2310:2447   */\n    tag_234:\n        /* \"#utility.yul\":2355:2360   */\n      0x00\n        /* \"#utility.yul\":2393:2399   */\n      dup2\n        /* \"#utility.yul\":2380:2400   */\n      calldataload\n        /* \"#utility.yul\":2371:2400   */\n      swap1\n      pop\n        /* \"#utility.yul\":2409:2441   */\n      tag_318\n        /* \"#utility.yul\":2435:2440   */\n      dup2\n        /* \"#utility.yul\":2409:2441   */\n      tag_233\n      jump\t// in\n    tag_318:\n        /* \"#utility.yul\":2310:2447   */\n      swap3\n      swap2\n      pop\n      pop\n      jump\t// out\n        /* \"#utility.yul\":2453:2780   */\n    tag_24:\n        /* \"#utility.yul\":2511:2517   */\n      0x00\n        /* \"#utility.yul\":2560:2562   */\n      0x20\n        /* \"#utility.yul\":2548:2557   */\n      dup3\n        /* \"#utility.yul\":2539:2546   */\n      dup5\n        /* \"#utility.yul\":2535:2558   */\n      sub\n        /* \"#utility.yul\":2531:2563   */\n      slt\n        /* \"#utility.yul\":2528:2647   */\n      iszero\n      tag_320\n      jumpi\n        /* \"#utility.yul\":2566:2645   */\n      tag_321\n      tag_222\n      jump\t// in\n    tag_321:\n        /* \"#utility.yul\":2528:2647   */\n    tag_320:\n        /* \"#utility.yul\":2686:2687   */\n      0x00\n        /* \"#utility.yul\":2711:2763   */\n      tag_322\n        /* \"#utility.yul\":2755:2762   */\n      dup5\n        /* \"#utility.yul\":2746:2752   */\n      dup3\n        /* \"#utility.yul\":2735:2744   */\n      dup6\n        /* \"#utility.yul\":2731:2753   */\n      add\n        /* \"#utility.yul\":2711:2763   */\n      tag_234\n      jump\t// in\n    tag_322:\n        /* \"#utility.yul\":2701:2763   */\n      swap2\n      pop\n        /* \"#utility.yul\":2657:2773   */\n      pop\n        /* \"#utility.yul\":2453:2780   */\n      swap3\n      swap2\n      pop\n      pop\n      jump\t// out\n        /* \"#utility.yul\":2786:2876   */\n    tag_235:\n        /* \"#utility.yul\":2820:2827   */\n      0x00\n        /* \"#utility.yul\":2863:2868   */\n      dup2\n        /* \"#utility.yul\":2856:2869   */\n      iszero\n        /* \"#utility.yul\":2849:2870   */\n      iszero\n        /* \"#utility.yul\":2838:2870   */\n      swap1\n      pop\n        /* \"#utility.yul\":2786:2876   */\n      swap2\n      swap1\n      pop\n      jump\t// out\n        /* \"#utility.yul\":2882:2991   */\n    tag_236:\n        /* \"#utility.yul\":2963:2984   */\n      tag_325\n        /* \"#utility.yul\":2978:2983   */\n      dup2\n        /* \"#utility.yul\":2963:2984   */\n      tag_235\n      jump\t// in\n    tag_325:\n        /* \"#utility.yul\":2958:2961   */\n      dup3\n        /* \"#utility.yul\":2951:2985   */\n      mstore\n        /* \"#utility.yul\":2882:2991   */\n      pop\n      pop\n      jump\t// out\n        /* \"#utility.yul\":2997:3207   */\n    tag_27:\n        /* \"#utility.yul\":3084:3088   */\n      0x00\n        /* \"#utility.yul\":3122:3124   */\n      0x20\n        /* \"#utility.yul\":3111:3120   */\n      dup3\n        /* \"#utility.yul\":3107:3125   */\n      add\n        /* \"#utility.yul\":3099:3125   */\n      swap1\n      pop\n        /* \"#utility.yul\":3135:3200   */\n      tag_327\n        /* \"#utility.yul\":3197:3198   */\n      0x00\n        /* \"#utility.yul\":3186:3195   */\n      dup4\n        /* \"#utility.yul\":3182:3199   */\n      add\n        /* \"#utility.yul\":3173:3179   */\n      dup5\n        /* \"#utility.yul\":3135:3200   */\n      tag_236\n      jump\t// in\n    tag_327:\n        /* \"#utility.yul\":2997:3207   */\n      swap3\n      swap2\n      pop\n      pop\n      jump\t// out\n        /* \"#utility.yul\":3213:3330   */\n    tag_237:\n        /* \"#utility.yul\":3322:3323   */\n      0x00\n        /* \"#utility.yul\":3319:3320   */\n      dup1\n        /* \"#utility.yul\":3312:3324   */\n      revert\n        /* \"#utility.yul\":3336:3453   */\n    tag_238:\n        /* \"#utility.yul\":3445:3446   */\n      0x00\n        /* \"#utility.yul\":3442:3443   */\n      dup1\n        /* \"#utility.yul\":3435:3447   */\n      revert\n        /* \"#utility.yul\":3459:3561   */\n    tag_239:\n        /* \"#utility.yul\":3500:3506   */\n      0x00\n        /* \"#utility.yul\":3551:3553   */\n      0x1f\n        /* \"#utility.yul\":3547:3554   */\n      not\n        /* \"#utility.yul\":3542:3544   */\n      0x1f\n        /* \"#utility.yul\":3535:3540   */\n      dup4\n        /* \"#utility.yul\":3531:3545   */\n      add\n        /* \"#utility.yul\":3527:3555   */\n      and\n        /* \"#utility.yul\":3517:3555   */\n      swap1\n      pop\n        /* \"#utility.yul\":3459:3561   */\n      swap2\n      swap1\n      pop\n      jump\t// out\n        /* \"#utility.yul\":3567:3747   */\n    tag_128:\n        /* \"#utility.yul\":3615:3692   */\n      0x4e487b7100000000000000000000000000000000000000000000000000000000\n        /* \"#utility.yul\":3612:3613   */\n      0x00\n        /* \"#utility.yul\":3605:3693   */\n      mstore\n        /* \"#utility.yul\":3712:3716   */\n      0x41\n        /* \"#utility.yul\":3709:3710   */\n      0x04\n        /* \"#utility.yul\":3702:3717   */\n      mstore\n        /* \"#utility.yul\":3736:3740   */\n      0x24\n        /* \"#utility.yul\":3733:3734   */\n      0x00\n        /* \"#utility.yul\":3726:3741   */\n      revert\n        /* \"#utility.yul\":3753:4034   */\n    tag_240:\n        /* \"#utility.yul\":3836:3863   */\n      tag_333\n        /* \"#utility.yul\":3858:3862   */\n      dup3\n        /* \"#utility.yul\":3836:3863   */\n      tag_239\n      jump\t// in\n    tag_333:\n        /* \"#utility.yul\":3828:3834   */\n      dup2\n        /* \"#utility.yul\":3824:3864   */\n      add\n        /* \"#utility.yul\":3966:3972   */\n      dup2\n        /* \"#utility.yul\":3954:3964   */\n      dup2\n        /* \"#utility.yul\":3951:3973   */\n      lt\n        /* \"#utility.yul\":3930:3948   */\n      0xffffffffffffffff\n        /* \"#utility.yul\":3918:3928   */\n      dup3\n        /* \"#utility.yul\":3915:3949   */\n      gt\n        /* \"#utility.yul\":3912:3974   */\n      or\n        /* \"#utility.yul\":3909:3997   */\n      iszero\n      tag_334\n      jumpi\n        /* \"#utility.yul\":3977:3995   */\n      tag_335\n      tag_128\n      jump\t// in\n    tag_335:\n        /* \"#utility.yul\":3909:3997   */\n    tag_334:\n        /* \"#utility.yul\":4017:4027   */\n      dup1\n        /* \"#utility.yul\":4013:4015   */\n      0x40\n        /* \"#utility.yul\":4006:4028   */\n      mstore\n        /* \"#utility.yul\":3796:4034   */\n      pop\n        /* \"#utility.yul\":3753:4034   */\n      pop\n      pop\n      jump\t// out\n        /* \"#utility.yul\":4040:4169   */\n    tag_241:\n        /* \"#utility.yul\":4074:4080   */\n      0x00\n        /* \"#utility.yul\":4101:4121   */\n      tag_337\n      tag_221\n      jump\t// in\n    tag_337:\n        /* \"#utility.yul\":4091:4121   */\n      swap1\n      pop\n        /* \"#utility.yul\":4130:4163   */\n      tag_338\n        /* \"#utility.yul\":4158:4162   */\n      dup3\n        /* \"#utility.yul\":4150:4156   */\n      dup3\n        /* \"#utility.yul\":4130:4163   */\n      tag_240\n      jump\t// in\n    tag_338:\n        /* \"#utility.yul\":4040:4169   */\n      swap2\n      swap1\n      pop\n      jump\t// out\n        /* \"#utility.yul\":4175:4482   */\n    tag_242:\n        /* \"#utility.yul\":4236:4240   */\n      0x00\n        /* \"#utility.yul\":4326:4344   */\n      0xffffffffffffffff\n        /* \"#utility.yul\":4318:4324   */\n      dup3\n        /* \"#utility.yul\":4315:4345   */\n      gt\n        /* \"#utility.yul\":4312:4368   */\n      iszero\n      tag_340\n      jumpi\n        /* \"#utility.yul\":4348:4366   */\n      tag_341\n      tag_128\n      jump\t// in\n    tag_341:\n        /* \"#utility.yul\":4312:4368   */\n    tag_340:\n        /* \"#utility.yul\":4386:4415   */\n      tag_342\n        /* \"#utility.yul\":4408:4414   */\n      dup3\n        /* \"#utility.yul\":4386:4415   */\n      tag_239\n      jump\t// in\n    tag_342:\n        /* \"#utility.yul\":4378:4415   */\n      swap1\n      pop\n        /* \"#utility.yul\":4470:4474   */\n      0x20\n        /* \"#utility.yul\":4464:4468   */\n      dup2\n        /* \"#utility.yul\":4460:4475   */\n      add\n        /* \"#utility.yul\":4452:4475   */\n      swap1\n      pop\n        /* \"#utility.yul\":4175:4482   */\n      swap2\n      swap1\n      pop\n      jump\t// out\n        /* \"#utility.yul\":4488:4634   */\n    tag_243:\n        /* \"#utility.yul\":4585:4591   */\n      dup3\n        /* \"#utility.yul\":4580:4583   */\n      dup2\n        /* \"#utility.yul\":4575:4578   */\n      dup4\n        /* \"#utility.yul\":4562:4592   */\n      calldatacopy\n        /* \"#utility.yul\":4626:4627   */\n      0x00\n        /* \"#utility.yul\":4617:4623   */\n      dup4\n        /* \"#utility.yul\":4612:4615   */\n      dup4\n        /* \"#utility.yul\":4608:4624   */\n      add\n        /* \"#utility.yul\":4601:4628   */\n      mstore\n        /* \"#utility.yul\":4488:4634   */\n      pop\n      pop\n      pop\n      jump\t// out\n        /* \"#utility.yul\":4640:5063   */\n    tag_244:\n        /* \"#utility.yul\":4717:4722   */\n      0x00\n        /* \"#utility.yul\":4742:4807   */\n      tag_345\n        /* \"#utility.yul\":4758:4806   */\n      tag_346\n        /* \"#utility.yul\":4799:4805   */\n      dup5\n        /* \"#utility.yul\":4758:4806   */\n      tag_242\n      jump\t// in\n    tag_346:\n        /* \"#utility.yul\":4742:4807   */\n      tag_241\n      jump\t// in\n    tag_345:\n        /* \"#utility.yul\":4733:4807   */\n      swap1\n      pop\n        /* \"#utility.yul\":4830:4836   */\n      dup3\n        /* \"#utility.yul\":4823:4828   */\n      dup2\n        /* \"#utility.yul\":4816:4837   */\n      mstore\n        /* \"#utility.yul\":4868:4872   */\n      0x20\n        /* \"#utility.yul\":4861:4866   */\n      dup2\n        /* \"#utility.yul\":4857:4873   */\n      add\n        /* \"#utility.yul\":4906:4909   */\n      dup5\n        /* \"#utility.yul\":4897:4903   */\n      dup5\n        /* \"#utility.yul\":4892:4895   */\n      dup5\n        /* \"#utility.yul\":4888:4904   */\n      add\n        /* \"#utility.yul\":4885:4910   */\n      gt\n        /* \"#utility.yul\":4882:4994   */\n      iszero\n      tag_347\n      jumpi\n        /* \"#utility.yul\":4913:4992   */\n      tag_348\n      tag_238\n      jump\t// in\n    tag_348:\n        /* \"#utility.yul\":4882:4994   */\n    tag_347:\n        /* \"#utility.yul\":5003:5057   */\n      tag_349\n        /* \"#utility.yul\":5050:5056   */\n      dup5\n        /* \"#utility.yul\":5045:5048   */\n      dup3\n        /* \"#utility.yul\":5040:5043   */\n      dup6\n        /* \"#utility.yul\":5003:5057   */\n      tag_243\n      jump\t// in\n    tag_349:\n        /* \"#utility.yul\":4723:5063   */\n      pop\n        /* \"#utility.yul\":4640:5063   */\n      swap4\n      swap3\n      pop\n      pop\n      pop\n      jump\t// out\n        /* \"#utility.yul\":5082:5420   */\n    tag_245:\n        /* \"#utility.yul\":5137:5142   */\n      0x00\n        /* \"#utility.yul\":5186:5189   */\n      dup3\n        /* \"#utility.yul\":5179:5183   */\n      0x1f\n        /* \"#utility.yul\":5171:5177   */\n      dup4\n        /* \"#utility.yul\":5167:5184   */\n      add\n        /* \"#utility.yul\":5163:5190   */\n      slt\n        /* \"#utility.yul\":5153:5275   */\n      tag_351\n      jumpi\n        /* \"#utility.yul\":5194:5273   */\n      tag_352\n      tag_237\n      jump\t// in\n    tag_352:\n        /* \"#utility.yul\":5153:5275   */\n    tag_351:\n        /* \"#utility.yul\":5311:5317   */\n      dup2\n        /* \"#utility.yul\":5298:5318   */\n      calldataload\n        /* \"#utility.yul\":5336:5414   */\n      tag_353\n        /* \"#utility.yul\":5410:5413   */\n      dup5\n        /* \"#utility.yul\":5402:5408   */\n      dup3\n        /* \"#utility.yul\":5395:5399   */\n      0x20\n        /* \"#utility.yul\":5387:5393   */\n      dup7\n        /* \"#utility.yul\":5383:5400   */\n      add\n        /* \"#utility.yul\":5336:5414   */\n      tag_244\n      jump\t// in\n    tag_353:\n        /* \"#utility.yul\":5327:5414   */\n      swap2\n      pop\n        /* \"#utility.yul\":5143:5420   */\n      pop\n        /* \"#utility.yul\":5082:5420   */\n      swap3\n      swap2\n      pop\n      pop\n      jump\t// out\n        /* \"#utility.yul\":5426:6223   */\n    tag_30:\n        /* \"#utility.yul\":5512:5518   */\n      0x00\n        /* \"#utility.yul\":5520:5526   */\n      dup1\n        /* \"#utility.yul\":5528:5534   */\n      0x00\n        /* \"#utility.yul\":5577:5579   */\n      0x60\n        /* \"#utility.yul\":5565:5574   */\n      dup5\n        /* \"#utility.yul\":5556:5563   */\n      dup7\n        /* \"#utility.yul\":5552:5575   */\n      sub\n        /* \"#utility.yul\":5548:5580   */\n      slt\n        /* \"#utility.yul\":5545:5664   */\n      iszero\n      tag_355\n      jumpi\n        /* \"#utility.yul\":5583:5662   */\n      tag_356\n      tag_222\n      jump\t// in\n    tag_356:\n        /* \"#utility.yul\":5545:5664   */\n    tag_355:\n        /* \"#utility.yul\":5703:5704   */\n      0x00\n        /* \"#utility.yul\":5728:5781   */\n      tag_357\n        /* \"#utility.yul\":5773:5780   */\n      dup7\n        /* \"#utility.yul\":5764:5770   */\n      dup3\n        /* \"#utility.yul\":5753:5762   */\n      dup8\n        /* \"#utility.yul\":5749:5771   */\n      add\n        /* \"#utility.yul\":5728:5781   */\n      tag_230\n      jump\t// in\n    tag_357:\n        /* \"#utility.yul\":5718:5781   */\n      swap4\n      pop\n        /* \"#utility.yul\":5674:5791   */\n      pop\n        /* \"#utility.yul\":5830:5832   */\n      0x20\n        /* \"#utility.yul\":5856:5909   */\n      tag_358\n        /* \"#utility.yul\":5901:5908   */\n      dup7\n        /* \"#utility.yul\":5892:5898   */\n      dup3\n        /* \"#utility.yul\":5881:5890   */\n      dup8\n        /* \"#utility.yul\":5877:5899   */\n      add\n        /* \"#utility.yul\":5856:5909   */\n      tag_230\n      jump\t// in\n    tag_358:\n        /* \"#utility.yul\":5846:5909   */\n      swap3\n      pop\n        /* \"#utility.yul\":5801:5919   */\n      pop\n        /* \"#utility.yul\":5986:5988   */\n      0x40\n        /* \"#utility.yul\":5975:5984   */\n      dup5\n        /* \"#utility.yul\":5971:5989   */\n      add\n        /* \"#utility.yul\":5958:5990   */\n      calldataload\n        /* \"#utility.yul\":6017:6035   */\n      0xffffffffffffffff\n        /* \"#utility.yul\":6009:6015   */\n      dup2\n        /* \"#utility.yul\":6006:6036   */\n      gt\n        /* \"#utility.yul\":6003:6120   */\n      iszero\n      tag_359\n      jumpi\n        /* \"#utility.yul\":6039:6118   */\n      tag_360\n      tag_223\n      jump\t// in\n    tag_360:\n        /* \"#utility.yul\":6003:6120   */\n    tag_359:\n        /* \"#utility.yul\":6144:6206   */\n      tag_361\n        /* \"#utility.yul\":6198:6205   */\n      dup7\n        /* \"#utility.yul\":6189:6195   */\n      dup3\n        /* \"#utility.yul\":6178:6187   */\n      dup8\n        /* \"#utility.yul\":6174:6196   */\n      add\n        /* \"#utility.yul\":6144:6206   */\n      tag_245\n      jump\t// in\n    tag_361:\n        /* \"#utility.yul\":6134:6206   */\n      swap2\n      pop\n        /* \"#utility.yul\":5929:6216   */\n      pop\n        /* \"#utility.yul\":5426:6223   */\n      swap3\n      pop\n      swap3\n      pop\n      swap3\n      jump\t// out\n        /* \"#utility.yul\":6229:6558   */\n    tag_34:\n        /* \"#utility.yul\":6288:6294   */\n      0x00\n        /* \"#utility.yul\":6337:6339   */\n      0x20\n        /* \"#utility.yul\":6325:6334   */\n      dup3\n        /* \"#utility.yul\":6316:6323   */\n      dup5\n        /* \"#utility.yul\":6312:6335   */\n      sub\n        /* \"#utility.yul\":6308:6340   */\n      slt\n        /* \"#utility.yul\":6305:6424   */\n      iszero\n      tag_363\n      jumpi\n        /* \"#utility.yul\":6343:6422   */\n      tag_364\n      tag_222\n      jump\t// in\n    tag_364:\n        /* \"#utility.yul\":6305:6424   */\n    tag_363:\n        /* \"#utility.yul\":6463:6464   */\n      0x00\n        /* \"#utility.yul\":6488:6541   */\n      tag_365\n        /* \"#utility.yul\":6533:6540   */\n      dup5\n        /* \"#utility.yul\":6524:6530   */\n      dup3\n        /* \"#utility.yul\":6513:6522   */\n      dup6\n        /* \"#utility.yul\":6509:6531   */\n      add\n        /* \"#utility.yul\":6488:6541   */\n      tag_230\n      jump\t// in\n    tag_365:\n        /* \"#utility.yul\":6478:6541   */\n      swap2\n      pop\n        /* \"#utility.yul\":6434:6551   */\n      pop\n        /* \"#utility.yul\":6229:6558   */\n      swap3\n      swap2\n      pop\n      pop\n      jump\t// out\n        /* \"#utility.yul\":6564:6663   */\n    tag_246:\n        /* \"#utility.yul\":6616:6622   */\n      0x00\n        /* \"#utility.yul\":6650:6655   */\n      dup2\n        /* \"#utility.yul\":6644:6656   */\n      mload\n        /* \"#utility.yul\":6634:6656   */\n      swap1\n      pop\n        /* \"#utility.yul\":6564:6663   */\n      swap2\n      swap1\n      pop\n      jump\t// out\n        /* \"#utility.yul\":6669:6838   */\n    tag_247:\n        /* \"#utility.yul\":6753:6764   */\n      0x00\n        /* \"#utility.yul\":6787:6793   */\n      dup3\n        /* \"#utility.yul\":6782:6785   */\n      dup3\n        /* \"#utility.yul\":6775:6794   */\n      mstore\n        /* \"#utility.yul\":6827:6831   */\n      0x20\n        /* \"#utility.yul\":6822:6825   */\n      dup3\n        /* \"#utility.yul\":6818:6832   */\n      add\n        /* \"#utility.yul\":6803:6832   */\n      swap1\n      pop\n        /* \"#utility.yul\":6669:6838   */\n      swap3\n      swap2\n      pop\n      pop\n      jump\t// out\n        /* \"#utility.yul\":6844:7090   */\n    tag_248:\n        /* \"#utility.yul\":6925:6926   */\n      0x00\n        /* \"#utility.yul\":6935:7048   */\n    tag_369:\n        /* \"#utility.yul\":6949:6955   */\n      dup4\n        /* \"#utility.yul\":6946:6947   */\n      dup2\n        /* \"#utility.yul\":6943:6956   */\n      lt\n        /* \"#utility.yul\":6935:7048   */\n      iszero\n      tag_371\n      jumpi\n        /* \"#utility.yul\":7034:7035   */\n      dup1\n        /* \"#utility.yul\":7029:7032   */\n      dup3\n        /* \"#utility.yul\":7025:7036   */\n      add\n        /* \"#utility.yul\":7019:7037   */\n      mload\n        /* \"#utility.yul\":7015:7016   */\n      dup2\n        /* \"#utility.yul\":7010:7013   */\n      dup5\n        /* \"#utility.yul\":7006:7017   */\n      add\n        /* \"#utility.yul\":6999:7038   */\n      mstore\n        /* \"#utility.yul\":6971:6973   */\n      0x20\n        /* \"#utility.yul\":6968:6969   */\n      dup2\n        /* \"#utility.yul\":6964:6974   */\n      add\n        /* \"#utility.yul\":6959:6974   */\n      swap1\n      pop\n        /* \"#utility.yul\":6935:7048   */\n      jump(tag_369)\n    tag_371:\n        /* \"#utility.yul\":7082:7083   */\n      0x00\n        /* \"#utility.yul\":7073:7079   */\n      dup5\n        /* \"#utility.yul\":7068:7071   */\n      dup5\n        /* \"#utility.yul\":7064:7080   */\n      add\n        /* \"#utility.yul\":7057:7084   */\n      mstore\n        /* \"#utility.yul\":6906:7090   */\n      pop\n        /* \"#utility.yul\":6844:7090   */\n      pop\n      pop\n      pop\n      jump\t// out\n        /* \"#utility.yul\":7096:7473   */\n    tag_249:\n        /* \"#utility.yul\":7184:7187   */\n      0x00\n        /* \"#utility.yul\":7212:7251   */\n      tag_373\n        /* \"#utility.yul\":7245:7250   */\n      dup3\n        /* \"#utility.yul\":7212:7251   */\n      tag_246\n      jump\t// in\n    tag_373:\n        /* \"#utility.yul\":7267:7338   */\n      tag_374\n        /* \"#utility.yul\":7331:7337   */\n      dup2\n        /* \"#utility.yul\":7326:7329   */\n      dup6\n        /* \"#utility.yul\":7267:7338   */\n      tag_247\n      jump\t// in\n    tag_374:\n        /* \"#utility.yul\":7260:7338   */\n      swap4\n      pop\n        /* \"#utility.yul\":7347:7412   */\n      tag_375\n        /* \"#utility.yul\":7405:7411   */\n      dup2\n        /* \"#utility.yul\":7400:7403   */\n      dup6\n        /* \"#utility.yul\":7393:7397   */\n      0x20\n        /* \"#utility.yul\":7386:7391   */\n      dup7\n        /* \"#utility.yul\":7382:7398   */\n      add\n        /* \"#utility.yul\":7347:7412   */\n      tag_248\n      jump\t// in\n    tag_375:\n        /* \"#utility.yul\":7437:7466   */\n      tag_376\n        /* \"#utility.yul\":7459:7465   */\n      dup2\n        /* \"#utility.yul\":7437:7466   */\n      tag_239\n      jump\t// in\n    tag_376:\n        /* \"#utility.yul\":7432:7435   */\n      dup5\n        /* \"#utility.yul\":7428:7467   */\n      add\n        /* \"#utility.yul\":7421:7467   */\n      swap2\n      pop\n        /* \"#utility.yul\":7188:7473   */\n      pop\n        /* \"#utility.yul\":7096:7473   */\n      swap3\n      swap2\n      pop\n      pop\n      jump\t// out\n        /* \"#utility.yul\":7479:7792   */\n    tag_37:\n        /* \"#utility.yul\":7592:7596   */\n      0x00\n        /* \"#utility.yul\":7630:7632   */\n      0x20\n        /* \"#utility.yul\":7619:7628   */\n      dup3\n        /* \"#utility.yul\":7615:7633   */\n      add\n        /* \"#utility.yul\":7607:7633   */\n      swap1\n      pop\n        /* \"#utility.yul\":7679:7688   */\n      dup2\n        /* \"#utility.yul\":7673:7677   */\n      dup2\n        /* \"#utility.yul\":7669:7689   */\n      sub\n        /* \"#utility.yul\":7665:7666   */\n      0x00\n        /* \"#utility.yul\":7654:7663   */\n      dup4\n        /* \"#utility.yul\":7650:7667   */\n      add\n        /* \"#utility.yul\":7643:7690   */\n      mstore\n        /* \"#utility.yul\":7707:7785   */\n      tag_378\n        /* \"#utility.yul\":7780:7784   */\n      dup2\n        /* \"#utility.yul\":7771:7777   */\n      dup5\n        /* \"#utility.yul\":7707:7785   */\n      tag_249\n      jump\t// in\n    tag_378:\n        /* \"#utility.yul\":7699:7785   */\n      swap1\n      pop\n        /* \"#utility.yul\":7479:7792   */\n      swap3\n      swap2\n      pop\n      pop\n      jump\t// out\n        /* \"#utility.yul\":7798:7915   */\n    tag_250:\n        /* \"#utility.yul\":7907:7908   */\n      0x00\n        /* \"#utility.yul\":7904:7905   */\n      dup1\n        /* \"#utility.yul\":7897:7909   */\n      revert\n        /* \"#utility.yul\":7921:8038   */\n    tag_251:\n        /* \"#utility.yul\":8030:8031   */\n      0x00\n        /* \"#utility.yul\":8027:8028   */\n      dup1\n        /* \"#utility.yul\":8020:8032   */\n      revert\n        /* \"#utility.yul\":8061:8629   */\n    tag_252:\n        /* \"#utility.yul\":8134:8142   */\n      0x00\n        /* \"#utility.yul\":8144:8150   */\n      dup1\n        /* \"#utility.yul\":8194:8197   */\n      dup4\n        /* \"#utility.yul\":8187:8191   */\n      0x1f\n        /* \"#utility.yul\":8179:8185   */\n      dup5\n        /* \"#utility.yul\":8175:8192   */\n      add\n        /* \"#utility.yul\":8171:8198   */\n      slt\n        /* \"#utility.yul\":8161:8283   */\n      tag_382\n      jumpi\n        /* \"#utility.yul\":8202:8281   */\n      tag_383\n      tag_237\n      jump\t// in\n    tag_383:\n        /* \"#utility.yul\":8161:8283   */\n    tag_382:\n        /* \"#utility.yul\":8315:8321   */\n      dup3\n        /* \"#utility.yul\":8302:8322   */\n      calldataload\n        /* \"#utility.yul\":8292:8322   */\n      swap1\n      pop\n        /* \"#utility.yul\":8345:8363   */\n      0xffffffffffffffff\n        /* \"#utility.yul\":8337:8343   */\n      dup2\n        /* \"#utility.yul\":8334:8364   */\n      gt\n        /* \"#utility.yul\":8331:8448   */\n      iszero\n      tag_384\n      jumpi\n        /* \"#utility.yul\":8367:8446   */\n      tag_385\n      tag_250\n      jump\t// in\n    tag_385:\n        /* \"#utility.yul\":8331:8448   */\n    tag_384:\n        /* \"#utility.yul\":8481:8485   */\n      0x20\n        /* \"#utility.yul\":8473:8479   */\n      dup4\n        /* \"#utility.yul\":8469:8486   */\n      add\n        /* \"#utility.yul\":8457:8486   */\n      swap2\n      pop\n        /* \"#utility.yul\":8535:8538   */\n      dup4\n        /* \"#utility.yul\":8527:8531   */\n      0x20\n        /* \"#utility.yul\":8519:8525   */\n      dup3\n        /* \"#utility.yul\":8515:8532   */\n      mul\n        /* \"#utility.yul\":8505:8513   */\n      dup4\n        /* \"#utility.yul\":8501:8533   */\n      add\n        /* \"#utility.yul\":8498:8539   */\n      gt\n        /* \"#utility.yul\":8495:8623   */\n      iszero\n      tag_386\n      jumpi\n        /* \"#utility.yul\":8542:8621   */\n      tag_387\n      tag_251\n      jump\t// in\n    tag_387:\n        /* \"#utility.yul\":8495:8623   */\n    tag_386:\n        /* \"#utility.yul\":8061:8629   */\n      swap3\n      pop\n      swap3\n      swap1\n      pop\n      jump\t// out\n        /* \"#utility.yul\":8635:9569   */\n    tag_40:\n        /* \"#utility.yul\":8757:8763   */\n      0x00\n        /* \"#utility.yul\":8765:8771   */\n      dup1\n        /* \"#utility.yul\":8773:8779   */\n      0x00\n        /* \"#utility.yul\":8781:8787   */\n      dup1\n        /* \"#utility.yul\":8830:8832   */\n      0x40\n        /* \"#utility.yul\":8818:8827   */\n      dup6\n        /* \"#utility.yul\":8809:8816   */\n      dup8\n        /* \"#utility.yul\":8805:8828   */\n      sub\n        /* \"#utility.yul\":8801:8833   */\n      slt\n        /* \"#utility.yul\":8798:8917   */\n      iszero\n      tag_389\n      jumpi\n        /* \"#utility.yul\":8836:8915   */\n      tag_390\n      tag_222\n      jump\t// in\n    tag_390:\n        /* \"#utility.yul\":8798:8917   */\n    tag_389:\n        /* \"#utility.yul\":8984:8985   */\n      0x00\n        /* \"#utility.yul\":8973:8982   */\n      dup6\n        /* \"#utility.yul\":8969:8986   */\n      add\n        /* \"#utility.yul\":8956:8987   */\n      calldataload\n        /* \"#utility.yul\":9014:9032   */\n      0xffffffffffffffff\n        /* \"#utility.yul\":9006:9012   */\n      dup2\n        /* \"#utility.yul\":9003:9033   */\n      gt\n        /* \"#utility.yul\":9000:9117   */\n      iszero\n      tag_391\n      jumpi\n        /* \"#utility.yul\":9036:9115   */\n      tag_392\n      tag_223\n      jump\t// in\n    tag_392:\n        /* \"#utility.yul\":9000:9117   */\n    tag_391:\n        /* \"#utility.yul\":9149:9229   */\n      tag_393\n        /* \"#utility.yul\":9221:9228   */\n      dup8\n        /* \"#utility.yul\":9212:9218   */\n      dup3\n        /* \"#utility.yul\":9201:9210   */\n      dup9\n        /* \"#utility.yul\":9197:9219   */\n      add\n        /* \"#utility.yul\":9149:9229   */\n      tag_252\n      jump\t// in\n    tag_393:\n        /* \"#utility.yul\":9131:9229   */\n      swap5\n      pop\n      swap5\n      pop\n        /* \"#utility.yul\":8927:9239   */\n      pop\n        /* \"#utility.yul\":9306:9308   */\n      0x20\n        /* \"#utility.yul\":9295:9304   */\n      dup6\n        /* \"#utility.yul\":9291:9309   */\n      add\n        /* \"#utility.yul\":9278:9310   */\n      calldataload\n        /* \"#utility.yul\":9337:9355   */\n      0xffffffffffffffff\n        /* \"#utility.yul\":9329:9335   */\n      dup2\n        /* \"#utility.yul\":9326:9356   */\n      gt\n        /* \"#utility.yul\":9323:9440   */\n      iszero\n      tag_394\n      jumpi\n        /* \"#utility.yul\":9359:9438   */\n      tag_395\n      tag_223\n      jump\t// in\n    tag_395:\n        /* \"#utility.yul\":9323:9440   */\n    tag_394:\n        /* \"#utility.yul\":9472:9552   */\n      tag_396\n        /* \"#utility.yul\":9544:9551   */\n      dup8\n        /* \"#utility.yul\":9535:9541   */\n      dup3\n        /* \"#utility.yul\":9524:9533   */\n      dup9\n        /* \"#utility.yul\":9520:9542   */\n      add\n        /* \"#utility.yul\":9472:9552   */\n      tag_252\n      jump\t// in\n    tag_396:\n        /* \"#utility.yul\":9454:9552   */\n      swap3\n      pop\n      swap3\n      pop\n        /* \"#utility.yul\":9249:9562   */\n      pop\n        /* \"#utility.yul\":8635:9569   */\n      swap3\n      swap6\n      swap2\n      swap5\n      pop\n      swap3\n      pop\n      jump\t// out\n        /* \"#utility.yul\":9588:10140   */\n    tag_253:\n        /* \"#utility.yul\":9645:9653   */\n      0x00\n        /* \"#utility.yul\":9655:9661   */\n      dup1\n        /* \"#utility.yul\":9705:9708   */\n      dup4\n        /* \"#utility.yul\":9698:9702   */\n      0x1f\n        /* \"#utility.yul\":9690:9696   */\n      dup5\n        /* \"#utility.yul\":9686:9703   */\n      add\n        /* \"#utility.yul\":9682:9709   */\n      slt\n        /* \"#utility.yul\":9672:9794   */\n      tag_398\n      jumpi\n        /* \"#utility.yul\":9713:9792   */\n      tag_399\n      tag_237\n      jump\t// in\n    tag_399:\n        /* \"#utility.yul\":9672:9794   */\n    tag_398:\n        /* \"#utility.yul\":9826:9832   */\n      dup3\n        /* \"#utility.yul\":9813:9833   */\n      calldataload\n        /* \"#utility.yul\":9803:9833   */\n      swap1\n      pop\n        /* \"#utility.yul\":9856:9874   */\n      0xffffffffffffffff\n        /* \"#utility.yul\":9848:9854   */\n      dup2\n        /* \"#utility.yul\":9845:9875   */\n      gt\n        /* \"#utility.yul\":9842:9959   */\n      iszero\n      tag_400\n      jumpi\n        /* \"#utility.yul\":9878:9957   */\n      tag_401\n      tag_250\n      jump\t// in\n    tag_401:\n        /* \"#utility.yul\":9842:9959   */\n    tag_400:\n        /* \"#utility.yul\":9992:9996   */\n      0x20\n        /* \"#utility.yul\":9984:9990   */\n      dup4\n        /* \"#utility.yul\":9980:9997   */\n      add\n        /* \"#utility.yul\":9968:9997   */\n      swap2\n      pop\n        /* \"#utility.yul\":10046:10049   */\n      dup4\n        /* \"#utility.yul\":10038:10042   */\n      0x01\n        /* \"#utility.yul\":10030:10036   */\n      dup3\n        /* \"#utility.yul\":10026:10043   */\n      mul\n        /* \"#utility.yul\":10016:10024   */\n      dup4\n        /* \"#utility.yul\":10012:10044   */\n      add\n        /* \"#utility.yul\":10009:10050   */\n      gt\n        /* \"#utility.yul\":10006:10134   */\n      iszero\n      tag_402\n      jumpi\n        /* \"#utility.yul\":10053:10132   */\n      tag_403\n      tag_251\n      jump\t// in\n    tag_403:\n        /* \"#utility.yul\":10006:10134   */\n    tag_402:\n        /* \"#utility.yul\":9588:10140   */\n      swap3\n      pop\n      swap3\n      swap1\n      pop\n      jump\t// out\n        /* \"#utility.yul\":10146:11715   */\n    tag_44:\n        /* \"#utility.yul\":10306:10312   */\n      0x00\n        /* \"#utility.yul\":10314:10320   */\n      dup1\n        /* \"#utility.yul\":10322:10328   */\n      0x00\n        /* \"#utility.yul\":10330:10336   */\n      dup1\n        /* \"#utility.yul\":10338:10344   */\n      0x00\n        /* \"#utility.yul\":10346:10352   */\n      dup1\n        /* \"#utility.yul\":10354:10360   */\n      0x00\n        /* \"#utility.yul\":10362:10368   */\n      dup1\n        /* \"#utility.yul\":10411:10414   */\n      0xa0\n        /* \"#utility.yul\":10399:10408   */\n      dup10\n        /* \"#utility.yul\":10390:10397   */\n      dup12\n        /* \"#utility.yul\":10386:10409   */\n      sub\n        /* \"#utility.yul\":10382:10415   */\n      slt\n        /* \"#utility.yul\":10379:10499   */\n      iszero\n      tag_405\n      jumpi\n        /* \"#utility.yul\":10418:10497   */\n      tag_406\n      tag_222\n      jump\t// in\n    tag_406:\n        /* \"#utility.yul\":10379:10499   */\n    tag_405:\n        /* \"#utility.yul\":10538:10539   */\n      0x00\n        /* \"#utility.yul\":10563:10616   */\n      tag_407\n        /* \"#utility.yul\":10608:10615   */\n      dup12\n        /* \"#utility.yul\":10599:10605   */\n      dup3\n        /* \"#utility.yul\":10588:10597   */\n      dup13\n        /* \"#utility.yul\":10584:10606   */\n      add\n        /* \"#utility.yul\":10563:10616   */\n      tag_227\n      jump\t// in\n    tag_407:\n        /* \"#utility.yul\":10553:10616   */\n      swap9\n      pop\n        /* \"#utility.yul\":10509:10626   */\n      pop\n        /* \"#utility.yul\":10665:10667   */\n      0x20\n        /* \"#utility.yul\":10691:10744   */\n      tag_408\n        /* \"#utility.yul\":10736:10743   */\n      dup12\n        /* \"#utility.yul\":10727:10733   */\n      dup3\n        /* \"#utility.yul\":10716:10725   */\n      dup13\n        /* \"#utility.yul\":10712:10734   */\n      add\n        /* \"#utility.yul\":10691:10744   */\n      tag_227\n      jump\t// in\n    tag_408:\n        /* \"#utility.yul\":10681:10744   */\n      swap8\n      pop\n        /* \"#utility.yul\":10636:10754   */\n      pop\n        /* \"#utility.yul\":10821:10823   */\n      0x40\n        /* \"#utility.yul\":10810:10819   */\n      dup10\n        /* \"#utility.yul\":10806:10824   */\n      add\n        /* \"#utility.yul\":10793:10825   */\n      calldataload\n        /* \"#utility.yul\":10852:10870   */\n      0xffffffffffffffff\n        /* \"#utility.yul\":10844:10850   */\n      dup2\n        /* \"#utility.yul\":10841:10871   */\n      gt\n        /* \"#utility.yul\":10838:10955   */\n      iszero\n      tag_409\n      jumpi\n        /* \"#utility.yul\":10874:10953   */\n      tag_410\n      tag_223\n      jump\t// in\n    tag_410:\n        /* \"#utility.yul\":10838:10955   */\n    tag_409:\n        /* \"#utility.yul\":10987:11067   */\n      tag_411\n        /* \"#utility.yul\":11059:11066   */\n      dup12\n        /* \"#utility.yul\":11050:11056   */\n      dup3\n        /* \"#utility.yul\":11039:11048   */\n      dup13\n        /* \"#utility.yul\":11035:11057   */\n      add\n        /* \"#utility.yul\":10987:11067   */\n      tag_252\n      jump\t// in\n    tag_411:\n        /* \"#utility.yul\":10969:11067   */\n      swap7\n      pop\n      swap7\n      pop\n        /* \"#utility.yul\":10764:11077   */\n      pop\n        /* \"#utility.yul\":11144:11146   */\n      0x60\n        /* \"#utility.yul\":11133:11142   */\n      dup10\n        /* \"#utility.yul\":11129:11147   */\n      add\n        /* \"#utility.yul\":11116:11148   */\n      calldataload\n        /* \"#utility.yul\":11175:11193   */\n      0xffffffffffffffff\n        /* \"#utility.yul\":11167:11173   */\n      dup2\n        /* \"#utility.yul\":11164:11194   */\n      gt\n        /* \"#utility.yul\":11161:11278   */\n      iszero\n      tag_412\n      jumpi\n        /* \"#utility.yul\":11197:11276   */\n      tag_413\n      tag_223\n      jump\t// in\n    tag_413:\n        /* \"#utility.yul\":11161:11278   */\n    tag_412:\n        /* \"#utility.yul\":11310:11390   */\n      tag_414\n        /* \"#utility.yul\":11382:11389   */\n      dup12\n        /* \"#utility.yul\":11373:11379   */\n      dup3\n        /* \"#utility.yul\":11362:11371   */\n      dup13\n        /* \"#utility.yul\":11358:11380   */\n      add\n        /* \"#utility.yul\":11310:11390   */\n      tag_252\n      jump\t// in\n    tag_414:\n        /* \"#utility.yul\":11292:11390   */\n      swap5\n      pop\n      swap5\n      pop\n        /* \"#utility.yul\":11087:11400   */\n      pop\n        /* \"#utility.yul\":11467:11470   */\n      0x80\n        /* \"#utility.yul\":11456:11465   */\n      dup10\n        /* \"#utility.yul\":11452:11471   */\n      add\n        /* \"#utility.yul\":11439:11472   */\n      calldataload\n        /* \"#utility.yul\":11499:11517   */\n      0xffffffffffffffff\n        /* \"#utility.yul\":11491:11497   */\n      dup2\n        /* \"#utility.yul\":11488:11518   */\n      gt\n        /* \"#utility.yul\":11485:11602   */\n      iszero\n      tag_415\n      jumpi\n        /* \"#utility.yul\":11521:11600   */\n      tag_416\n      tag_223\n      jump\t// in\n    tag_416:\n        /* \"#utility.yul\":11485:11602   */\n    tag_415:\n        /* \"#utility.yul\":11634:11698   */\n      tag_417\n        /* \"#utility.yul\":11690:11697   */\n      dup12\n        /* \"#utility.yul\":11681:11687   */\n      dup3\n        /* \"#utility.yul\":11670:11679   */\n      dup13\n        /* \"#utility.yul\":11666:11688   */\n      add\n        /* \"#utility.yul\":11634:11698   */\n      tag_253\n      jump\t// in\n    tag_417:\n        /* \"#utility.yul\":11616:11698   */\n      swap3\n      pop\n      swap3\n      pop\n        /* \"#utility.yul\":11410:11708   */\n      pop\n        /* \"#utility.yul\":10146:11715   */\n      swap3\n      swap6\n      swap9\n      pop\n      swap3\n      swap6\n      swap9\n      swap1\n      swap4\n      swap7\n      pop\n      jump\t// out\n        /* \"#utility.yul\":11738:12306   */\n    tag_254:\n        /* \"#utility.yul\":11811:11819   */\n      0x00\n        /* \"#utility.yul\":11821:11827   */\n      dup1\n        /* \"#utility.yul\":11871:11874   */\n      dup4\n        /* \"#utility.yul\":11864:11868   */\n      0x1f\n        /* \"#utility.yul\":11856:11862   */\n      dup5\n        /* \"#utility.yul\":11852:11869   */\n      add\n        /* \"#utility.yul\":11848:11875   */\n      slt\n        /* \"#utility.yul\":11838:11960   */\n      tag_419\n      jumpi\n        /* \"#utility.yul\":11879:11958   */\n      tag_420\n      tag_237\n      jump\t// in\n    tag_420:\n        /* \"#utility.yul\":11838:11960   */\n    tag_419:\n        /* \"#utility.yul\":11992:11998   */\n      dup3\n        /* \"#utility.yul\":11979:11999   */\n      calldataload\n        /* \"#utility.yul\":11969:11999   */\n      swap1\n      pop\n        /* \"#utility.yul\":12022:12040   */\n      0xffffffffffffffff\n        /* \"#utility.yul\":12014:12020   */\n      dup2\n        /* \"#utility.yul\":12011:12041   */\n      gt\n        /* \"#utility.yul\":12008:12125   */\n      iszero\n      tag_421\n      jumpi\n        /* \"#utility.yul\":12044:12123   */\n      tag_422\n      tag_250\n      jump\t// in\n    tag_422:\n        /* \"#utility.yul\":12008:12125   */\n    tag_421:\n        /* \"#utility.yul\":12158:12162   */\n      0x20\n        /* \"#utility.yul\":12150:12156   */\n      dup4\n        /* \"#utility.yul\":12146:12163   */\n      add\n        /* \"#utility.yul\":12134:12163   */\n      swap2\n      pop\n        /* \"#utility.yul\":12212:12215   */\n      dup4\n        /* \"#utility.yul\":12204:12208   */\n      0x20\n        /* \"#utility.yul\":12196:12202   */\n      dup3\n        /* \"#utility.yul\":12192:12209   */\n      mul\n        /* \"#utility.yul\":12182:12190   */\n      dup4\n        /* \"#utility.yul\":12178:12210   */\n      add\n        /* \"#utility.yul\":12175:12216   */\n      gt\n        /* \"#utility.yul\":12172:12300   */\n      iszero\n      tag_423\n      jumpi\n        /* \"#utility.yul\":12219:12298   */\n      tag_424\n      tag_251\n      jump\t// in\n    tag_424:\n        /* \"#utility.yul\":12172:12300   */\n    tag_423:\n        /* \"#utility.yul\":11738:12306   */\n      swap3\n      pop\n      swap3\n      swap1\n      pop\n      jump\t// out\n        /* \"#utility.yul\":12312:13246   */\n    tag_48:\n        /* \"#utility.yul\":12434:12440   */\n      0x00\n        /* \"#utility.yul\":12442:12448   */\n      dup1\n        /* \"#utility.yul\":12450:12456   */\n      0x00\n        /* \"#utility.yul\":12458:12464   */\n      dup1\n        /* \"#utility.yul\":12507:12509   */\n      0x40\n        /* \"#utility.yul\":12495:12504   */\n      dup6\n        /* \"#utility.yul\":12486:12493   */\n      dup8\n        /* \"#utility.yul\":12482:12505   */\n      sub\n        /* \"#utility.yul\":12478:12510   */\n      slt\n        /* \"#utility.yul\":12475:12594   */\n      iszero\n      tag_426\n      jumpi\n        /* \"#utility.yul\":12513:12592   */\n      tag_427\n      tag_222\n      jump\t// in\n    tag_427:\n        /* \"#utility.yul\":12475:12594   */\n    tag_426:\n        /* \"#utility.yul\":12661:12662   */\n      0x00\n        /* \"#utility.yul\":12650:12659   */\n      dup6\n        /* \"#utility.yul\":12646:12663   */\n      add\n        /* \"#utility.yul\":12633:12664   */\n      calldataload\n        /* \"#utility.yul\":12691:12709   */\n      0xffffffffffffffff\n        /* \"#utility.yul\":12683:12689   */\n      dup2\n        /* \"#utility.yul\":12680:12710   */\n      gt\n        /* \"#utility.yul\":12677:12794   */\n      iszero\n      tag_428\n      jumpi\n        /* \"#utility.yul\":12713:12792   */\n      tag_429\n      tag_223\n      jump\t// in\n    tag_429:\n        /* \"#utility.yul\":12677:12794   */\n    tag_428:\n        /* \"#utility.yul\":12826:12906   */\n      tag_430\n        /* \"#utility.yul\":12898:12905   */\n      dup8\n        /* \"#utility.yul\":12889:12895   */\n      dup3\n        /* \"#utility.yul\":12878:12887   */\n      dup9\n        /* \"#utility.yul\":12874:12896   */\n      add\n        /* \"#utility.yul\":12826:12906   */\n      tag_254\n      jump\t// in\n    tag_430:\n        /* \"#utility.yul\":12808:12906   */\n      swap5\n      pop\n      swap5\n      pop\n        /* \"#utility.yul\":12604:12916   */\n      pop\n        /* \"#utility.yul\":12983:12985   */\n      0x20\n        /* \"#utility.yul\":12972:12981   */\n      dup6\n        /* \"#utility.yul\":12968:12986   */\n      add\n        /* \"#utility.yul\":12955:12987   */\n      calldataload\n        /* \"#utility.yul\":13014:13032   */\n      0xffffffffffffffff\n        /* \"#utility.yul\":13006:13012   */\n      dup2\n        /* \"#utility.yul\":13003:13033   */\n      gt\n        /* \"#utility.yul\":13000:13117   */\n      iszero\n      tag_431\n      jumpi\n        /* \"#utility.yul\":13036:13115   */\n      tag_432\n      tag_223\n      jump\t// in\n    tag_432:\n        /* \"#utility.yul\":13000:13117   */\n    tag_431:\n        /* \"#utility.yul\":13149:13229   */\n      tag_433\n        /* \"#utility.yul\":13221:13228   */\n      dup8\n        /* \"#utility.yul\":13212:13218   */\n      dup3\n        /* \"#utility.yul\":13201:13210   */\n      dup9\n        /* \"#utility.yul\":13197:13219   */\n      add\n        /* \"#utility.yul\":13149:13229   */\n      tag_252\n      jump\t// in\n    tag_433:\n        /* \"#utility.yul\":13131:13229   */\n      swap3\n      pop\n      swap3\n      pop\n        /* \"#utility.yul\":12926:13239   */\n      pop\n        /* \"#utility.yul\":12312:13246   */\n      swap3\n      swap6\n      swap2\n      swap5\n      pop\n      swap3\n      pop\n      jump\t// out\n        /* \"#utility.yul\":13252:13366   */\n    tag_255:\n        /* \"#utility.yul\":13319:13325   */\n      0x00\n        /* \"#utility.yul\":13353:13358   */\n      dup2\n        /* \"#utility.yul\":13347:13359   */\n      mload\n        /* \"#utility.yul\":13337:13359   */\n      swap1\n      pop\n        /* \"#utility.yul\":13252:13366   */\n      swap2\n      swap1\n      pop\n      jump\t// out\n        /* \"#utility.yul\":13372:13556   */\n    tag_256:\n        /* \"#utility.yul\":13471:13482   */\n      0x00\n        /* \"#utility.yul\":13505:13511   */\n      dup3\n        /* \"#utility.yul\":13500:13503   */\n      dup3\n        /* \"#utility.yul\":13493:13512   */\n      mstore\n        /* \"#utility.yul\":13545:13549   */\n      0x20\n        /* \"#utility.yul\":13540:13543   */\n      dup3\n        /* \"#utility.yul\":13536:13550   */\n      add\n        /* \"#utility.yul\":13521:13550   */\n      swap1\n      pop\n        /* \"#utility.yul\":13372:13556   */\n      swap3\n      swap2\n      pop\n      pop\n      jump\t// out\n        /* \"#utility.yul\":13562:13694   */\n    tag_257:\n        /* \"#utility.yul\":13629:13633   */\n      0x00\n        /* \"#utility.yul\":13652:13655   */\n      dup2\n        /* \"#utility.yul\":13644:13655   */\n      swap1\n      pop\n        /* \"#utility.yul\":13682:13686   */\n      0x20\n        /* \"#utility.yul\":13677:13680   */\n      dup3\n        /* \"#utility.yul\":13673:13687   */\n      add\n        /* \"#utility.yul\":13665:13687   */\n      swap1\n      pop\n        /* \"#utility.yul\":13562:13694   */\n      swap2\n      swap1\n      pop\n      jump\t// out\n        /* \"#utility.yul\":13700:13808   */\n    tag_258:\n        /* \"#utility.yul\":13777:13801   */\n      tag_438\n        /* \"#utility.yul\":13795:13800   */\n      dup2\n        /* \"#utility.yul\":13777:13801   */\n      tag_228\n      jump\t// in\n    tag_438:\n        /* \"#utility.yul\":13772:13775   */\n      dup3\n        /* \"#utility.yul\":13765:13802   */\n      mstore\n        /* \"#utility.yul\":13700:13808   */\n      pop\n      pop\n      jump\t// out\n        /* \"#utility.yul\":13814:13993   */\n    tag_259:\n        /* \"#utility.yul\":13883:13893   */\n      0x00\n        /* \"#utility.yul\":13904:13950   */\n      tag_440\n        /* \"#utility.yul\":13946:13949   */\n      dup4\n        /* \"#utility.yul\":13938:13944   */\n      dup4\n        /* \"#utility.yul\":13904:13950   */\n      tag_258\n      jump\t// in\n    tag_440:\n        /* \"#utility.yul\":13982:13986   */\n      0x20\n        /* \"#utility.yul\":13977:13980   */\n      dup4\n        /* \"#utility.yul\":13973:13987   */\n      add\n        /* \"#utility.yul\":13959:13987   */\n      swap1\n      pop\n        /* \"#utility.yul\":13814:13993   */\n      swap3\n      swap2\n      pop\n      pop\n      jump\t// out\n        /* \"#utility.yul\":13999:14112   */\n    tag_260:\n        /* \"#utility.yul\":14069:14073   */\n      0x00\n        /* \"#utility.yul\":14101:14105   */\n      0x20\n        /* \"#utility.yul\":14096:14099   */\n      dup3\n        /* \"#utility.yul\":14092:14106   */\n      add\n        /* \"#utility.yul\":14084:14106   */\n      swap1\n      pop\n        /* \"#utility.yul\":13999:14112   */\n      swap2\n      swap1\n      pop\n      jump\t// out\n        /* \"#utility.yul\":14148:14880   */\n    tag_261:\n        /* \"#utility.yul\":14267:14270   */\n      0x00\n        /* \"#utility.yul\":14296:14350   */\n      tag_443\n        /* \"#utility.yul\":14344:14349   */\n      dup3\n        /* \"#utility.yul\":14296:14350   */\n      tag_255\n      jump\t// in\n    tag_443:\n        /* \"#utility.yul\":14366:14452   */\n      tag_444\n        /* \"#utility.yul\":14445:14451   */\n      dup2\n        /* \"#utility.yul\":14440:14443   */\n      dup6\n        /* \"#utility.yul\":14366:14452   */\n      tag_256\n      jump\t// in\n    tag_444:\n        /* \"#utility.yul\":14359:14452   */\n      swap4\n      pop\n        /* \"#utility.yul\":14476:14532   */\n      tag_445\n        /* \"#utility.yul\":14526:14531   */\n      dup4\n        /* \"#utility.yul\":14476:14532   */\n      tag_257\n      jump\t// in\n    tag_445:\n        /* \"#utility.yul\":14555:14562   */\n      dup1\n        /* \"#utility.yul\":14586:14587   */\n      0x00\n        /* \"#utility.yul\":14571:14855   */\n    tag_446:\n        /* \"#utility.yul\":14596:14602   */\n      dup4\n        /* \"#utility.yul\":14593:14594   */\n      dup2\n        /* \"#utility.yul\":14590:14603   */\n      lt\n        /* \"#utility.yul\":14571:14855   */\n      iszero\n      tag_448\n      jumpi\n        /* \"#utility.yul\":14672:14678   */\n      dup2\n        /* \"#utility.yul\":14666:14679   */\n      mload\n        /* \"#utility.yul\":14699:14762   */\n      tag_449\n        /* \"#utility.yul\":14758:14761   */\n      dup9\n        /* \"#utility.yul\":14743:14756   */\n      dup3\n        /* \"#utility.yul\":14699:14762   */\n      tag_259\n      jump\t// in\n    tag_449:\n        /* \"#utility.yul\":14692:14762   */\n      swap8\n      pop\n        /* \"#utility.yul\":14785:14845   */\n      tag_450\n        /* \"#utility.yul\":14838:14844   */\n      dup4\n        /* \"#utility.yul\":14785:14845   */\n      tag_260\n      jump\t// in\n    tag_450:\n        /* \"#utility.yul\":14775:14845   */\n      swap3\n      pop\n        /* \"#utility.yul\":14631:14855   */\n      pop\n        /* \"#utility.yul\":14618:14619   */\n      0x01\n        /* \"#utility.yul\":14615:14616   */\n      dup2\n        /* \"#utility.yul\":14611:14620   */\n      add\n        /* \"#utility.yul\":14606:14620   */\n      swap1\n      pop\n        /* \"#utility.yul\":14571:14855   */\n      jump(tag_446)\n    tag_448:\n        /* \"#utility.yul\":14575:14589   */\n      pop\n        /* \"#utility.yul\":14871:14874   */\n      dup6\n        /* \"#utility.yul\":14864:14874   */\n      swap4\n      pop\n        /* \"#utility.yul\":14272:14880   */\n      pop\n      pop\n      pop\n        /* \"#utility.yul\":14148:14880   */\n      swap3\n      swap2\n      pop\n      pop\n      jump\t// out\n        /* \"#utility.yul\":14886:15259   */\n    tag_51:\n        /* \"#utility.yul\":15029:15033   */\n      0x00\n        /* \"#utility.yul\":15067:15069   */\n      0x20\n        /* \"#utility.yul\":15056:15065   */\n      dup3\n        /* \"#utility.yul\":15052:15070   */\n      add\n        /* \"#utility.yul\":15044:15070   */\n      swap1\n      pop\n        /* \"#utility.yul\":15116:15125   */\n      dup2\n        /* \"#utility.yul\":15110:15114   */\n      dup2\n        /* \"#utility.yul\":15106:15126   */\n      sub\n        /* \"#utility.yul\":15102:15103   */\n      0x00\n        /* \"#utility.yul\":15091:15100   */\n      dup4\n        /* \"#utility.yul\":15087:15104   */\n      add\n        /* \"#utility.yul\":15080:15127   */\n      mstore\n        /* \"#utility.yul\":15144:15252   */\n      tag_452\n        /* \"#utility.yul\":15247:15251   */\n      dup2\n        /* \"#utility.yul\":15238:15244   */\n      dup5\n        /* \"#utility.yul\":15144:15252   */\n      tag_261\n      jump\t// in\n    tag_452:\n        /* \"#utility.yul\":15136:15252   */\n      swap1\n      pop\n        /* \"#utility.yul\":14886:15259   */\n      swap3\n      swap2\n      pop\n      pop\n      jump\t// out\n        /* \"#utility.yul\":15265:15381   */\n    tag_262:\n        /* \"#utility.yul\":15335:15356   */\n      tag_454\n        /* \"#utility.yul\":15350:15355   */\n      dup2\n        /* \"#utility.yul\":15335:15356   */\n      tag_235\n      jump\t// in\n    tag_454:\n        /* \"#utility.yul\":15328:15333   */\n      dup2\n        /* \"#utility.yul\":15325:15357   */\n      eq\n        /* \"#utility.yul\":15315:15375   */\n      tag_455\n      jumpi\n        /* \"#utility.yul\":15371:15372   */\n      0x00\n        /* \"#utility.yul\":15368:15369   */\n      dup1\n        /* \"#utility.yul\":15361:15373   */\n      revert\n        /* \"#utility.yul\":15315:15375   */\n    tag_455:\n        /* \"#utility.yul\":15265:15381   */\n      pop\n      jump\t// out\n        /* \"#utility.yul\":15387:15520   */\n    tag_263:\n        /* \"#utility.yul\":15430:15435   */\n      0x00\n        /* \"#utility.yul\":15468:15474   */\n      dup2\n        /* \"#utility.yul\":15455:15475   */\n      calldataload\n        /* \"#utility.yul\":15446:15475   */\n      swap1\n      pop\n        /* \"#utility.yul\":15484:15514   */\n      tag_457\n        /* \"#utility.yul\":15508:15513   */\n      dup2\n        /* \"#utility.yul\":15484:15514   */\n      tag_262\n      jump\t// in\n    tag_457:\n        /* \"#utility.yul\":15387:15520   */\n      swap3\n      swap2\n      pop\n      pop\n      jump\t// out\n        /* \"#utility.yul\":15526:15994   */\n    tag_54:\n        /* \"#utility.yul\":15591:15597   */\n      0x00\n        /* \"#utility.yul\":15599:15605   */\n      dup1\n        /* \"#utility.yul\":15648:15650   */\n      0x40\n        /* \"#utility.yul\":15636:15645   */\n      dup4\n        /* \"#utility.yul\":15627:15634   */\n      dup6\n        /* \"#utility.yul\":15623:15646   */\n      sub\n        /* \"#utility.yul\":15619:15651   */\n      slt\n        /* \"#utility.yul\":15616:15735   */\n      iszero\n      tag_459\n      jumpi\n        /* \"#utility.yul\":15654:15733   */\n      tag_460\n      tag_222\n      jump\t// in\n    tag_460:\n        /* \"#utility.yul\":15616:15735   */\n    tag_459:\n        /* \"#utility.yul\":15774:15775   */\n      0x00\n        /* \"#utility.yul\":15799:15852   */\n      tag_461\n        /* \"#utility.yul\":15844:15851   */\n      dup6\n        /* \"#utility.yul\":15835:15841   */\n      dup3\n        /* \"#utility.yul\":15824:15833   */\n      dup7\n        /* \"#utility.yul\":15820:15842   */\n      add\n        /* \"#utility.yul\":15799:15852   */\n      tag_227\n      jump\t// in\n    tag_461:\n        /* \"#utility.yul\":15789:15852   */\n      swap3\n      pop\n        /* \"#utility.yul\":15745:15862   */\n      pop\n        /* \"#utility.yul\":15901:15903   */\n      0x20\n        /* \"#utility.yul\":15927:15977   */\n      tag_462\n        /* \"#utility.yul\":15969:15976   */\n      dup6\n        /* \"#utility.yul\":15960:15966   */\n      dup3\n        /* \"#utility.yul\":15949:15958   */\n      dup7\n        /* \"#utility.yul\":15945:15967   */\n      add\n        /* \"#utility.yul\":15927:15977   */\n      tag_263\n      jump\t// in\n    tag_462:\n        /* \"#utility.yul\":15917:15977   */\n      swap2\n      pop\n        /* \"#utility.yul\":15872:15987   */\n      pop\n        /* \"#utility.yul\":15526:15994   */\n      swap3\n      pop\n      swap3\n      swap1\n      pop\n      jump\t// out\n        /* \"#utility.yul\":16000:16474   */\n    tag_58:\n        /* \"#utility.yul\":16068:16074   */\n      0x00\n        /* \"#utility.yul\":16076:16082   */\n      dup1\n        /* \"#utility.yul\":16125:16127   */\n      0x40\n        /* \"#utility.yul\":16113:16122   */\n      dup4\n        /* \"#utility.yul\":16104:16111   */\n      dup6\n        /* \"#utility.yul\":16100:16123   */\n      sub\n        /* \"#utility.yul\":16096:16128   */\n      slt\n        /* \"#utility.yul\":16093:16212   */\n      iszero\n      tag_464\n      jumpi\n        /* \"#utility.yul\":16131:16210   */\n      tag_465\n      tag_222\n      jump\t// in\n    tag_465:\n        /* \"#utility.yul\":16093:16212   */\n    tag_464:\n        /* \"#utility.yul\":16251:16252   */\n      0x00\n        /* \"#utility.yul\":16276:16329   */\n      tag_466\n        /* \"#utility.yul\":16321:16328   */\n      dup6\n        /* \"#utility.yul\":16312:16318   */\n      dup3\n        /* \"#utility.yul\":16301:16310   */\n      dup7\n        /* \"#utility.yul\":16297:16319   */\n      add\n        /* \"#utility.yul\":16276:16329   */\n      tag_230\n      jump\t// in\n    tag_466:\n        /* \"#utility.yul\":16266:16329   */\n      swap3\n      pop\n        /* \"#utility.yul\":16222:16339   */\n      pop\n        /* \"#utility.yul\":16378:16380   */\n      0x20\n        /* \"#utility.yul\":16404:16457   */\n      tag_467\n        /* \"#utility.yul\":16449:16456   */\n      dup6\n        /* \"#utility.yul\":16440:16446   */\n      dup3\n        /* \"#utility.yul\":16429:16438   */\n      dup7\n        /* \"#utility.yul\":16425:16447   */\n      add\n        /* \"#utility.yul\":16404:16457   */\n      tag_230\n      jump\t// in\n    tag_467:\n        /* \"#utility.yul\":16394:16457   */\n      swap2\n      pop\n        /* \"#utility.yul\":16349:16467   */\n      pop\n        /* \"#utility.yul\":16000:16474   */\n      swap3\n      pop\n      swap3\n      swap1\n      pop\n      jump\t// out\n        /* \"#utility.yul\":16480:17757   */\n    tag_62:\n        /* \"#utility.yul\":16622:16628   */\n      0x00\n        /* \"#utility.yul\":16630:16636   */\n      dup1\n        /* \"#utility.yul\":16638:16644   */\n      0x00\n        /* \"#utility.yul\":16646:16652   */\n      dup1\n        /* \"#utility.yul\":16654:16660   */\n      0x00\n        /* \"#utility.yul\":16662:16668   */\n      dup1\n        /* \"#utility.yul\":16711:16713   */\n      0x60\n        /* \"#utility.yul\":16699:16708   */\n      dup8\n        /* \"#utility.yul\":16690:16697   */\n      dup10\n        /* \"#utility.yul\":16686:16709   */\n      sub\n        /* \"#utility.yul\":16682:16714   */\n      slt\n        /* \"#utility.yul\":16679:16798   */\n      iszero\n      tag_469\n      jumpi\n        /* \"#utility.yul\":16717:16796   */\n      tag_470\n      tag_222\n      jump\t// in\n    tag_470:\n        /* \"#utility.yul\":16679:16798   */\n    tag_469:\n        /* \"#utility.yul\":16865:16866   */\n      0x00\n        /* \"#utility.yul\":16854:16863   */\n      dup8\n        /* \"#utility.yul\":16850:16867   */\n      add\n        /* \"#utility.yul\":16837:16868   */\n      calldataload\n        /* \"#utility.yul\":16895:16913   */\n      0xffffffffffffffff\n        /* \"#utility.yul\":16887:16893   */\n      dup2\n        /* \"#utility.yul\":16884:16914   */\n      gt\n        /* \"#utility.yul\":16881:16998   */\n      iszero\n      tag_471\n      jumpi\n        /* \"#utility.yul\":16917:16996   */\n      tag_472\n      tag_223\n      jump\t// in\n    tag_472:\n        /* \"#utility.yul\":16881:16998   */\n    tag_471:\n        /* \"#utility.yul\":17030:17110   */\n      tag_473\n        /* \"#utility.yul\":17102:17109   */\n      dup10\n        /* \"#utility.yul\":17093:17099   */\n      dup3\n        /* \"#utility.yul\":17082:17091   */\n      dup11\n        /* \"#utility.yul\":17078:17100   */\n      add\n        /* \"#utility.yul\":17030:17110   */\n      tag_252\n      jump\t// in\n    tag_473:\n        /* \"#utility.yul\":17012:17110   */\n      swap7\n      pop\n      swap7\n      pop\n        /* \"#utility.yul\":16808:17120   */\n      pop\n        /* \"#utility.yul\":17187:17189   */\n      0x20\n        /* \"#utility.yul\":17176:17185   */\n      dup8\n        /* \"#utility.yul\":17172:17190   */\n      add\n        /* \"#utility.yul\":17159:17191   */\n      calldataload\n        /* \"#utility.yul\":17218:17236   */\n      0xffffffffffffffff\n        /* \"#utility.yul\":17210:17216   */\n      dup2\n        /* \"#utility.yul\":17207:17237   */\n      gt\n        /* \"#utility.yul\":17204:17321   */\n      iszero\n      tag_474\n      jumpi\n        /* \"#utility.yul\":17240:17319   */\n      tag_475\n      tag_223\n      jump\t// in\n    tag_475:\n        /* \"#utility.yul\":17204:17321   */\n    tag_474:\n        /* \"#utility.yul\":17353:17433   */\n      tag_476\n        /* \"#utility.yul\":17425:17432   */\n      dup10\n        /* \"#utility.yul\":17416:17422   */\n      dup3\n        /* \"#utility.yul\":17405:17414   */\n      dup11\n        /* \"#utility.yul\":17401:17423   */\n      add\n        /* \"#utility.yul\":17353:17433   */\n      tag_252\n      jump\t// in\n    tag_476:\n        /* \"#utility.yul\":17335:17433   */\n      swap5\n      pop\n      swap5\n      pop\n        /* \"#utility.yul\":17130:17443   */\n      pop\n        /* \"#utility.yul\":17510:17512   */\n      0x40\n        /* \"#utility.yul\":17499:17508   */\n      dup8\n        /* \"#utility.yul\":17495:17513   */\n      add\n        /* \"#utility.yul\":17482:17514   */\n      calldataload\n        /* \"#utility.yul\":17541:17559   */\n      0xffffffffffffffff\n        /* \"#utility.yul\":17533:17539   */\n      dup2\n        /* \"#utility.yul\":17530:17560   */\n      gt\n        /* \"#utility.yul\":17527:17644   */\n      iszero\n      tag_477\n      jumpi\n        /* \"#utility.yul\":17563:17642   */\n      tag_478\n      tag_223\n      jump\t// in\n    tag_478:\n        /* \"#utility.yul\":17527:17644   */\n    tag_477:\n        /* \"#utility.yul\":17676:17740   */\n      tag_479\n        /* \"#utility.yul\":17732:17739   */\n      dup10\n        /* \"#utility.yul\":17723:17729   */\n      dup3\n        /* \"#utility.yul\":17712:17721   */\n      dup11\n        /* \"#utility.yul\":17708:17730   */\n      add\n        /* \"#utility.yul\":17676:17740   */\n      tag_253\n      jump\t// in\n    tag_479:\n        /* \"#utility.yul\":17658:17740   */\n      swap3\n      pop\n      swap3\n      pop\n        /* \"#utility.yul\":17453:17750   */\n      pop\n        /* \"#utility.yul\":16480:17757   */\n      swap3\n      swap6\n      pop\n      swap3\n      swap6\n      pop\n      swap3\n      swap6\n      jump\t// out\n        /* \"#utility.yul\":17763:18237   */\n    tag_66:\n        /* \"#utility.yul\":17831:17837   */\n      0x00\n        /* \"#utility.yul\":17839:17845   */\n      dup1\n        /* \"#utility.yul\":17888:17890   */\n      0x40\n        /* \"#utility.yul\":17876:17885   */\n      dup4\n        /* \"#utility.yul\":17867:17874   */\n      dup6\n        /* \"#utility.yul\":17863:17886   */\n      sub\n        /* \"#utility.yul\":17859:17891   */\n      slt\n        /* \"#utility.yul\":17856:17975   */\n      iszero\n      tag_481\n      jumpi\n        /* \"#utility.yul\":17894:17973   */\n      tag_482\n      tag_222\n      jump\t// in\n    tag_482:\n        /* \"#utility.yul\":17856:17975   */\n    tag_481:\n        /* \"#utility.yul\":18014:18015   */\n      0x00\n        /* \"#utility.yul\":18039:18092   */\n      tag_483\n        /* \"#utility.yul\":18084:18091   */\n      dup6\n        /* \"#utility.yul\":18075:18081   */\n      dup3\n        /* \"#utility.yul\":18064:18073   */\n      dup7\n        /* \"#utility.yul\":18060:18082   */\n      add\n        /* \"#utility.yul\":18039:18092   */\n      tag_227\n      jump\t// in\n    tag_483:\n        /* \"#utility.yul\":18029:18092   */\n      swap3\n      pop\n        /* \"#utility.yul\":17985:18102   */\n      pop\n        /* \"#utility.yul\":18141:18143   */\n      0x20\n        /* \"#utility.yul\":18167:18220   */\n      tag_484\n        /* \"#utility.yul\":18212:18219   */\n      dup6\n        /* \"#utility.yul\":18203:18209   */\n      dup3\n        /* \"#utility.yul\":18192:18201   */\n      dup7\n        /* \"#utility.yul\":18188:18210   */\n      add\n        /* \"#utility.yul\":18167:18220   */\n      tag_227\n      jump\t// in\n    tag_484:\n        /* \"#utility.yul\":18157:18220   */\n      swap2\n      pop\n        /* \"#utility.yul\":18112:18230   */\n      pop\n        /* \"#utility.yul\":17763:18237   */\n      swap3\n      pop\n      swap3\n      swap1\n      pop\n      jump\t// out\n        /* \"#utility.yul\":18243:19352   */\n    tag_71:\n        /* \"#utility.yul\":18349:18355   */\n      0x00\n        /* \"#utility.yul\":18357:18363   */\n      dup1\n        /* \"#utility.yul\":18365:18371   */\n      0x00\n        /* \"#utility.yul\":18373:18379   */\n      dup1\n        /* \"#utility.yul\":18381:18387   */\n      0x00\n        /* \"#utility.yul\":18389:18395   */\n      dup1\n        /* \"#utility.yul\":18438:18441   */\n      0xa0\n        /* \"#utility.yul\":18426:18435   */\n      dup8\n        /* \"#utility.yul\":18417:18424   */\n      dup10\n        /* \"#utility.yul\":18413:18436   */\n      sub\n        /* \"#utility.yul\":18409:18442   */\n      slt\n        /* \"#utility.yul\":18406:18526   */\n      iszero\n      tag_486\n      jumpi\n        /* \"#utility.yul\":18445:18524   */\n      tag_487\n      tag_222\n      jump\t// in\n    tag_487:\n        /* \"#utility.yul\":18406:18526   */\n    tag_486:\n        /* \"#utility.yul\":18565:18566   */\n      0x00\n        /* \"#utility.yul\":18590:18643   */\n      tag_488\n        /* \"#utility.yul\":18635:18642   */\n      dup10\n        /* \"#utility.yul\":18626:18632   */\n      dup3\n        /* \"#utility.yul\":18615:18624   */\n      dup11\n        /* \"#utility.yul\":18611:18633   */\n      add\n        /* \"#utility.yul\":18590:18643   */\n      tag_227\n      jump\t// in\n    tag_488:\n        /* \"#utility.yul\":18580:18643   */\n      swap7\n      pop\n        /* \"#utility.yul\":18536:18653   */\n      pop\n        /* \"#utility.yul\":18692:18694   */\n      0x20\n        /* \"#utility.yul\":18718:18771   */\n      tag_489\n        /* \"#utility.yul\":18763:18770   */\n      dup10\n        /* \"#utility.yul\":18754:18760   */\n      dup3\n        /* \"#utility.yul\":18743:18752   */\n      dup11\n        /* \"#utility.yul\":18739:18761   */\n      add\n        /* \"#utility.yul\":18718:18771   */\n      tag_227\n      jump\t// in\n    tag_489:\n        /* \"#utility.yul\":18708:18771   */\n      swap6\n      pop\n        /* \"#utility.yul\":18663:18781   */\n      pop\n        /* \"#utility.yul\":18820:18822   */\n      0x40\n        /* \"#utility.yul\":18846:18899   */\n      tag_490\n        /* \"#utility.yul\":18891:18898   */\n      dup10\n        /* \"#utility.yul\":18882:18888   */\n      dup3\n        /* \"#utility.yul\":18871:18880   */\n      dup11\n        /* \"#utility.yul\":18867:18889   */\n      add\n        /* \"#utility.yul\":18846:18899   */\n      tag_230\n      jump\t// in\n    tag_490:\n        /* \"#utility.yul\":18836:18899   */\n      swap5\n      pop\n        /* \"#utility.yul\":18791:18909   */\n      pop\n        /* \"#utility.yul\":18948:18950   */\n      0x60\n        /* \"#utility.yul\":18974:19027   */\n      tag_491\n        /* \"#utility.yul\":19019:19026   */\n      dup10\n        /* \"#utility.yul\":19010:19016   */\n      dup3\n        /* \"#utility.yul\":18999:19008   */\n      dup11\n        /* \"#utility.yul\":18995:19017   */\n      add\n        /* \"#utility.yul\":18974:19027   */\n      tag_230\n      jump\t// in\n    tag_491:\n        /* \"#utility.yul\":18964:19027   */\n      swap4\n      pop\n        /* \"#utility.yul\":18919:19037   */\n      pop\n        /* \"#utility.yul\":19104:19107   */\n      0x80\n        /* \"#utility.yul\":19093:19102   */\n      dup8\n        /* \"#utility.yul\":19089:19108   */\n      add\n        /* \"#utility.yul\":19076:19109   */\n      calldataload\n        /* \"#utility.yul\":19136:19154   */\n      0xffffffffffffffff\n        /* \"#utility.yul\":19128:19134   */\n      dup2\n        /* \"#utility.yul\":19125:19155   */\n      gt\n        /* \"#utility.yul\":19122:19239   */\n      iszero\n      tag_492\n      jumpi\n        /* \"#utility.yul\":19158:19237   */\n      tag_493\n      tag_223\n      jump\t// in\n    tag_493:\n        /* \"#utility.yul\":19122:19239   */\n    tag_492:\n        /* \"#utility.yul\":19271:19335   */\n      tag_494\n        /* \"#utility.yul\":19327:19334   */\n      dup10\n        /* \"#utility.yul\":19318:19324   */\n      dup3\n        /* \"#utility.yul\":19307:19316   */\n      dup11\n        /* \"#utility.yul\":19303:19325   */\n      add\n        /* \"#utility.yul\":19271:19335   */\n      tag_253\n      jump\t// in\n    tag_494:\n        /* \"#utility.yul\":19253:19335   */\n      swap3\n      pop\n      swap3\n      pop\n        /* \"#utility.yul\":19047:19345   */\n      pop\n        /* \"#utility.yul\":18243:19352   */\n      swap3\n      swap6\n      pop\n      swap3\n      swap6\n      pop\n      swap3\n      swap6\n      jump\t// out\n        /* \"#utility.yul\":19358:19520   */\n    tag_264:\n        /* \"#utility.yul\":19498:19512   */\n      0x6e6f7420617070726f7665640000000000000000000000000000000000000000\n        /* \"#utility.yul\":19494:19495   */\n      0x00\n        /* \"#utility.yul\":19486:19492   */\n      dup3\n        /* \"#utility.yul\":19482:19496   */\n      add\n        /* \"#utility.yul\":19475:19513   */\n      mstore\n        /* \"#utility.yul\":19358:19520   */\n      pop\n      jump\t// out\n        /* \"#utility.yul\":19526:19892   */\n    tag_265:\n        /* \"#utility.yul\":19668:19671   */\n      0x00\n        /* \"#utility.yul\":19689:19756   */\n      tag_497\n        /* \"#utility.yul\":19753:19755   */\n      0x0c\n        /* \"#utility.yul\":19748:19751   */\n      dup4\n        /* \"#utility.yul\":19689:19756   */\n      tag_247\n      jump\t// in\n    tag_497:\n        /* \"#utility.yul\":19682:19756   */\n      swap2\n      pop\n        /* \"#utility.yul\":19765:19858   */\n      tag_498\n        /* \"#utility.yul\":19854:19857   */\n      dup3\n        /* \"#utility.yul\":19765:19858   */\n      tag_264\n      jump\t// in\n    tag_498:\n        /* \"#utility.yul\":19883:19885   */\n      0x20\n        /* \"#utility.yul\":19878:19881   */\n      dup3\n        /* \"#utility.yul\":19874:19886   */\n      add\n        /* \"#utility.yul\":19867:19886   */\n      swap1\n      pop\n        /* \"#utility.yul\":19526:19892   */\n      swap2\n      swap1\n      pop\n      jump\t// out\n        /* \"#utility.yul\":19898:20317   */\n    tag_87:\n        /* \"#utility.yul\":20064:20068   */\n      0x00\n        /* \"#utility.yul\":20102:20104   */\n      0x20\n        /* \"#utility.yul\":20091:20100   */\n      dup3\n        /* \"#utility.yul\":20087:20105   */\n      add\n        /* \"#utility.yul\":20079:20105   */\n      swap1\n      pop\n        /* \"#utility.yul\":20151:20160   */\n      dup2\n        /* \"#utility.yul\":20145:20149   */\n      dup2\n        /* \"#utility.yul\":20141:20161   */\n      sub\n        /* \"#utility.yul\":20137:20138   */\n      0x00\n        /* \"#utility.yul\":20126:20135   */\n      dup4\n        /* \"#utility.yul\":20122:20139   */\n      add\n        /* \"#utility.yul\":20115:20162   */\n      mstore\n        /* \"#utility.yul\":20179:20310   */\n      tag_500\n        /* \"#utility.yul\":20305:20309   */\n      dup2\n        /* \"#utility.yul\":20179:20310   */\n      tag_265\n      jump\t// in\n    tag_500:\n        /* \"#utility.yul\":20171:20310   */\n      swap1\n      pop\n        /* \"#utility.yul\":19898:20317   */\n      swap2\n      swap1\n      pop\n      jump\t// out\n        /* \"#utility.yul\":20323:20487   */\n    tag_266:\n        /* \"#utility.yul\":20463:20479   */\n      0x746f203d20302061646472657373000000000000000000000000000000000000\n        /* \"#utility.yul\":20459:20460   */\n      0x00\n        /* \"#utility.yul\":20451:20457   */\n      dup3\n        /* \"#utility.yul\":20447:20461   */\n      add\n        /* \"#utility.yul\":20440:20480   */\n      mstore\n        /* \"#utility.yul\":20323:20487   */\n      pop\n      jump\t// out\n        /* \"#utility.yul\":20493:20859   */\n    tag_267:\n        /* \"#utility.yul\":20635:20638   */\n      0x00\n        /* \"#utility.yul\":20656:20723   */\n      tag_503\n        /* \"#utility.yul\":20720:20722   */\n      0x0e\n        /* \"#utility.yul\":20715:20718   */\n      dup4\n        /* \"#utility.yul\":20656:20723   */\n      tag_247\n      jump\t// in\n    tag_503:\n        /* \"#utility.yul\":20649:20723   */\n      swap2\n      pop\n        /* \"#utility.yul\":20732:20825   */\n      tag_504\n        /* \"#utility.yul\":20821:20824   */\n      dup3\n        /* \"#utility.yul\":20732:20825   */\n      tag_266\n      jump\t// in\n    tag_504:\n        /* \"#utility.yul\":20850:20852   */\n      0x20\n        /* \"#utility.yul\":20845:20848   */\n      dup3\n        /* \"#utility.yul\":20841:20853   */\n      add\n        /* \"#utility.yul\":20834:20853   */\n      swap1\n      pop\n        /* \"#utility.yul\":20493:20859   */\n      swap2\n      swap1\n      pop\n      jump\t// out\n        /* \"#utility.yul\":20865:21284   */\n    tag_90:\n        /* \"#utility.yul\":21031:21035   */\n      0x00\n        /* \"#utility.yul\":21069:21071   */\n      0x20\n        /* \"#utility.yul\":21058:21067   */\n      dup3\n        /* \"#utility.yul\":21054:21072   */\n      add\n        /* \"#utility.yul\":21046:21072   */\n      swap1\n      pop\n        /* \"#utility.yul\":21118:21127   */\n      dup2\n        /* \"#utility.yul\":21112:21116   */\n      dup2\n        /* \"#utility.yul\":21108:21128   */\n      sub\n        /* \"#utility.yul\":21104:21105   */\n      0x00\n        /* \"#utility.yul\":21093:21102   */\n      dup4\n        /* \"#utility.yul\":21089:21106   */\n      add\n        /* \"#utility.yul\":21082:21129   */\n      mstore\n        /* \"#utility.yul\":21146:21277   */\n      tag_506\n        /* \"#utility.yul\":21272:21276   */\n      dup2\n        /* \"#utility.yul\":21146:21277   */\n      tag_267\n      jump\t// in\n    tag_506:\n        /* \"#utility.yul\":21138:21277   */\n      swap1\n      pop\n        /* \"#utility.yul\":20865:21284   */\n      swap2\n      swap1\n      pop\n      jump\t// out\n        /* \"#utility.yul\":21290:21467   */\n    tag_268:\n        /* \"#utility.yul\":21430:21459   */\n      0x696473206c656e67746820213d2076616c756573206c656e6774680000000000\n        /* \"#utility.yul\":21426:21427   */\n      0x00\n        /* \"#utility.yul\":21418:21424   */\n      dup3\n        /* \"#utility.yul\":21414:21428   */\n      add\n        /* \"#utility.yul\":21407:21460   */\n      mstore\n        /* \"#utility.yul\":21290:21467   */\n      pop\n      jump\t// out\n        /* \"#utility.yul\":21473:21839   */\n    tag_269:\n        /* \"#utility.yul\":21615:21618   */\n      0x00\n        /* \"#utility.yul\":21636:21703   */\n      tag_509\n        /* \"#utility.yul\":21700:21702   */\n      0x1b\n        /* \"#utility.yul\":21695:21698   */\n      dup4\n        /* \"#utility.yul\":21636:21703   */\n      tag_247\n      jump\t// in\n    tag_509:\n        /* \"#utility.yul\":21629:21703   */\n      swap2\n      pop\n        /* \"#utility.yul\":21712:21805   */\n      tag_510\n        /* \"#utility.yul\":21801:21804   */\n      dup3\n        /* \"#utility.yul\":21712:21805   */\n      tag_268\n      jump\t// in\n    tag_510:\n        /* \"#utility.yul\":21830:21832   */\n      0x20\n        /* \"#utility.yul\":21825:21828   */\n      dup3\n        /* \"#utility.yul\":21821:21833   */\n      add\n        /* \"#utility.yul\":21814:21833   */\n      swap1\n      pop\n        /* \"#utility.yul\":21473:21839   */\n      swap2\n      swap1\n      pop\n      jump\t// out\n        /* \"#utility.yul\":21845:22264   */\n    tag_93:\n        /* \"#utility.yul\":22011:22015   */\n      0x00\n        /* \"#utility.yul\":22049:22051   */\n      0x20\n        /* \"#utility.yul\":22038:22047   */\n      dup3\n        /* \"#utility.yul\":22034:22052   */\n      add\n        /* \"#utility.yul\":22026:22052   */\n      swap1\n      pop\n        /* \"#utility.yul\":22098:22107   */\n      dup2\n        /* \"#utility.yul\":22092:22096   */\n      dup2\n        /* \"#utility.yul\":22088:22108   */\n      sub\n        /* \"#utility.yul\":22084:22085   */\n      0x00\n        /* \"#utility.yul\":22073:22082   */\n      dup4\n        /* \"#utility.yul\":22069:22086   */\n      add\n        /* \"#utility.yul\":22062:22109   */\n      mstore\n        /* \"#utility.yul\":22126:22257   */\n      tag_512\n        /* \"#utility.yul\":22252:22256   */\n      dup2\n        /* \"#utility.yul\":22126:22257   */\n      tag_269\n      jump\t// in\n    tag_512:\n        /* \"#utility.yul\":22118:22257   */\n      swap1\n      pop\n        /* \"#utility.yul\":21845:22264   */\n      swap2\n      swap1\n      pop\n      jump\t// out\n        /* \"#utility.yul\":22270:22450   */\n    tag_99:\n        /* \"#utility.yul\":22318:22395   */\n      0x4e487b7100000000000000000000000000000000000000000000000000000000\n        /* \"#utility.yul\":22315:22316   */\n      0x00\n        /* \"#utility.yul\":22308:22396   */\n      mstore\n        /* \"#utility.yul\":22415:22419   */\n      0x32\n        /* \"#utility.yul\":22412:22413   */\n      0x04\n        /* \"#utility.yul\":22405:22420   */\n      mstore\n        /* \"#utility.yul\":22439:22443   */\n      0x24\n        /* \"#utility.yul\":22436:22437   */\n      0x00\n        /* \"#utility.yul\":22429:22444   */\n      revert\n        /* \"#utility.yul\":22456:22636   */\n    tag_270:\n        /* \"#utility.yul\":22504:22581   */\n      0x4e487b7100000000000000000000000000000000000000000000000000000000\n        /* \"#utility.yul\":22501:22502   */\n      0x00\n        /* \"#utility.yul\":22494:22582   */\n      mstore\n        /* \"#utility.yul\":22601:22605   */\n      0x11\n        /* \"#utility.yul\":22598:22599   */\n      0x04\n        /* \"#utility.yul\":22591:22606   */\n      mstore\n        /* \"#utility.yul\":22625:22629   */\n      0x24\n        /* \"#utility.yul\":22622:22623   */\n      0x00\n        /* \"#utility.yul\":22615:22630   */\n      revert\n        /* \"#utility.yul\":22642:22836   */\n    tag_103:\n        /* \"#utility.yul\":22682:22686   */\n      0x00\n        /* \"#utility.yul\":22702:22722   */\n      tag_516\n        /* \"#utility.yul\":22720:22721   */\n      dup3\n        /* \"#utility.yul\":22702:22722   */\n      tag_228\n      jump\t// in\n    tag_516:\n        /* \"#utility.yul\":22697:22722   */\n      swap2\n      pop\n        /* \"#utility.yul\":22736:22756   */\n      tag_517\n        /* \"#utility.yul\":22754:22755   */\n      dup4\n        /* \"#utility.yul\":22736:22756   */\n      tag_228\n      jump\t// in\n    tag_517:\n        /* \"#utility.yul\":22731:22756   */\n      swap3\n      pop\n        /* \"#utility.yul\":22780:22781   */\n      dup3\n        /* \"#utility.yul\":22777:22778   */\n      dup3\n        /* \"#utility.yul\":22773:22782   */\n      sub\n        /* \"#utility.yul\":22765:22782   */\n      swap1\n      pop\n        /* \"#utility.yul\":22804:22805   */\n      dup2\n        /* \"#utility.yul\":22798:22802   */\n      dup2\n        /* \"#utility.yul\":22795:22806   */\n      gt\n        /* \"#utility.yul\":22792:22829   */\n      iszero\n      tag_518\n      jumpi\n        /* \"#utility.yul\":22809:22827   */\n      tag_519\n      tag_270\n      jump\t// in\n    tag_519:\n        /* \"#utility.yul\":22792:22829   */\n    tag_518:\n        /* \"#utility.yul\":22642:22836   */\n      swap3\n      swap2\n      pop\n      pop\n      jump\t// out\n        /* \"#utility.yul\":22842:23033   */\n    tag_109:\n        /* \"#utility.yul\":22882:22885   */\n      0x00\n        /* \"#utility.yul\":22901:22921   */\n      tag_521\n        /* \"#utility.yul\":22919:22920   */\n      dup3\n        /* \"#utility.yul\":22901:22921   */\n      tag_228\n      jump\t// in\n    tag_521:\n        /* \"#utility.yul\":22896:22921   */\n      swap2\n      pop\n        /* \"#utility.yul\":22935:22955   */\n      tag_522\n        /* \"#utility.yul\":22953:22954   */\n      dup4\n        /* \"#utility.yul\":22935:22955   */\n      tag_228\n      jump\t// in\n    tag_522:\n        /* \"#utility.yul\":22930:22955   */\n      swap3\n      pop\n        /* \"#utility.yul\":22978:22979   */\n      dup3\n        /* \"#utility.yul\":22975:22976   */\n      dup3\n        /* \"#utility.yul\":22971:22980   */\n      add\n        /* \"#utility.yul\":22964:22980   */\n      swap1\n      pop\n        /* \"#utility.yul\":22999:23002   */\n      dup1\n        /* \"#utility.yul\":22996:22997   */\n      dup3\n        /* \"#utility.yul\":22993:23003   */\n      gt\n        /* \"#utility.yul\":22990:23026   */\n      iszero\n      tag_523\n      jumpi\n        /* \"#utility.yul\":23006:23024   */\n      tag_524\n      tag_270\n      jump\t// in\n    tag_524:\n        /* \"#utility.yul\":22990:23026   */\n    tag_523:\n        /* \"#utility.yul\":22842:23033   */\n      swap3\n      swap2\n      pop\n      pop\n      jump\t// out\n        /* \"#utility.yul\":23039:23156   */\n    tag_271:\n        /* \"#utility.yul\":23148:23149   */\n      0x00\n        /* \"#utility.yul\":23145:23146   */\n      dup1\n        /* \"#utility.yul\":23138:23150   */\n      revert\n        /* \"#utility.yul\":23162:23260   */\n    tag_272:\n        /* \"#utility.yul\":23246:23252   */\n      dup3\n        /* \"#utility.yul\":23241:23244   */\n      dup2\n        /* \"#utility.yul\":23236:23239   */\n      dup4\n        /* \"#utility.yul\":23223:23253   */\n      calldatacopy\n        /* \"#utility.yul\":23162:23260   */\n      pop\n      pop\n      pop\n      jump\t// out\n        /* \"#utility.yul\":23296:23833   */\n    tag_273:\n        /* \"#utility.yul\":23424:23427   */\n      0x00\n        /* \"#utility.yul\":23445:23531   */\n      tag_528\n        /* \"#utility.yul\":23524:23530   */\n      dup4\n        /* \"#utility.yul\":23519:23522   */\n      dup6\n        /* \"#utility.yul\":23445:23531   */\n      tag_256\n      jump\t// in\n    tag_528:\n        /* \"#utility.yul\":23438:23531   */\n      swap4\n      pop\n        /* \"#utility.yul\":23555:23621   */\n      0x07ffffffffffffffffffffffffffffffffffffffffffffffffffffffffffffff\n        /* \"#utility.yul\":23547:23553   */\n      dup4\n        /* \"#utility.yul\":23544:23622   */\n      gt\n        /* \"#utility.yul\":23541:23706   */\n      iszero\n      tag_529\n      jumpi\n        /* \"#utility.yul\":23625:23704   */\n      tag_530\n      tag_271\n      jump\t// in\n    tag_530:\n        /* \"#utility.yul\":23541:23706   */\n    tag_529:\n        /* \"#utility.yul\":23737:23741   */\n      0x20\n        /* \"#utility.yul\":23729:23735   */\n      dup4\n        /* \"#utility.yul\":23725:23742   */\n      mul\n        /* \"#utility.yul\":23715:23742   */\n      swap3\n      pop\n        /* \"#utility.yul\":23752:23795   */\n      tag_531\n        /* \"#utility.yul\":23788:23794   */\n      dup4\n        /* \"#utility.yul\":23783:23786   */\n      dup6\n        /* \"#utility.yul\":23776:23781   */\n      dup5\n        /* \"#utility.yul\":23752:23795   */\n      tag_272\n      jump\t// in\n    tag_531:\n        /* \"#utility.yul\":23820:23826   */\n      dup3\n        /* \"#utility.yul\":23815:23818   */\n      dup5\n        /* \"#utility.yul\":23811:23827   */\n      add\n        /* \"#utility.yul\":23804:23827   */\n      swap1\n      pop\n        /* \"#utility.yul\":23296:23833   */\n      swap4\n      swap3\n      pop\n      pop\n      pop\n      jump\t// out\n        /* \"#utility.yul\":23839:24513   */\n    tag_111:\n        /* \"#utility.yul\":24080:24084   */\n      0x00\n        /* \"#utility.yul\":24118:24120   */\n      0x40\n        /* \"#utility.yul\":24107:24116   */\n      dup3\n        /* \"#utility.yul\":24103:24121   */\n      add\n        /* \"#utility.yul\":24095:24121   */\n      swap1\n      pop\n        /* \"#utility.yul\":24167:24176   */\n      dup2\n        /* \"#utility.yul\":24161:24165   */\n      dup2\n        /* \"#utility.yul\":24157:24177   */\n      sub\n        /* \"#utility.yul\":24153:24154   */\n      0x00\n        /* \"#utility.yul\":24142:24151   */\n      dup4\n        /* \"#utility.yul\":24138:24155   */\n      add\n        /* \"#utility.yul\":24131:24178   */\n      mstore\n        /* \"#utility.yul\":24195:24313   */\n      tag_533\n        /* \"#utility.yul\":24308:24312   */\n      dup2\n        /* \"#utility.yul\":24299:24305   */\n      dup7\n        /* \"#utility.yul\":24291:24297   */\n      dup9\n        /* \"#utility.yul\":24195:24313   */\n      tag_273\n      jump\t// in\n    tag_533:\n        /* \"#utility.yul\":24187:24313   */\n      swap1\n      pop\n        /* \"#utility.yul\":24360:24369   */\n      dup2\n        /* \"#utility.yul\":24354:24358   */\n      dup2\n        /* \"#utility.yul\":24350:24370   */\n      sub\n        /* \"#utility.yul\":24345:24347   */\n      0x20\n        /* \"#utility.yul\":24334:24343   */\n      dup4\n        /* \"#utility.yul\":24330:24348   */\n      add\n        /* \"#utility.yul\":24323:24371   */\n      mstore\n        /* \"#utility.yul\":24388:24506   */\n      tag_534\n        /* \"#utility.yul\":24501:24505   */\n      dup2\n        /* \"#utility.yul\":24492:24498   */\n      dup5\n        /* \"#utility.yul\":24484:24490   */\n      dup7\n        /* \"#utility.yul\":24388:24506   */\n      tag_273\n      jump\t// in\n    tag_534:\n        /* \"#utility.yul\":24380:24506   */\n      swap1\n      pop\n        /* \"#utility.yul\":23839:24513   */\n      swap6\n      swap5\n      pop\n      pop\n      pop\n      pop\n      pop\n      jump\t// out\n        /* \"#utility.yul\":24519:24637   */\n    tag_274:\n        /* \"#utility.yul\":24606:24630   */\n      tag_536\n        /* \"#utility.yul\":24624:24629   */\n      dup2\n        /* \"#utility.yul\":24606:24630   */\n      tag_225\n      jump\t// in\n    tag_536:\n        /* \"#utility.yul\":24601:24604   */\n      dup3\n        /* \"#utility.yul\":24594:24631   */\n      mstore\n        /* \"#utility.yul\":24519:24637   */\n      pop\n      pop\n      jump\t// out\n        /* \"#utility.yul\":24643:24811   */\n    tag_275:\n        /* \"#utility.yul\":24726:24737   */\n      0x00\n        /* \"#utility.yul\":24760:24766   */\n      dup3\n        /* \"#utility.yul\":24755:24758   */\n      dup3\n        /* \"#utility.yul\":24748:24767   */\n      mstore\n        /* \"#utility.yul\":24800:24804   */\n      0x20\n        /* \"#utility.yul\":24795:24798   */\n      dup3\n        /* \"#utility.yul\":24791:24805   */\n      add\n        /* \"#utility.yul\":24776:24805   */\n      swap1\n      pop\n        /* \"#utility.yul\":24643:24811   */\n      swap3\n      swap2\n      pop\n      pop\n      jump\t// out\n        /* \"#utility.yul\":24839:25153   */\n    tag_276:\n        /* \"#utility.yul\":24935:24938   */\n      0x00\n        /* \"#utility.yul\":24956:25026   */\n      tag_539\n        /* \"#utility.yul\":25019:25025   */\n      dup4\n        /* \"#utility.yul\":25014:25017   */\n      dup6\n        /* \"#utility.yul\":24956:25026   */\n      tag_275\n      jump\t// in\n    tag_539:\n        /* \"#utility.yul\":24949:25026   */\n      swap4\n      pop\n        /* \"#utility.yul\":25036:25092   */\n      tag_540\n        /* \"#utility.yul\":25085:25091   */\n      dup4\n        /* \"#utility.yul\":25080:25083   */\n      dup6\n        /* \"#utility.yul\":25073:25078   */\n      dup5\n        /* \"#utility.yul\":25036:25092   */\n      tag_243\n      jump\t// in\n    tag_540:\n        /* \"#utility.yul\":25117:25146   */\n      tag_541\n        /* \"#utility.yul\":25139:25145   */\n      dup4\n        /* \"#utility.yul\":25117:25146   */\n      tag_239\n      jump\t// in\n    tag_541:\n        /* \"#utility.yul\":25112:25115   */\n      dup5\n        /* \"#utility.yul\":25108:25147   */\n      add\n        /* \"#utility.yul\":25101:25147   */\n      swap1\n      pop\n        /* \"#utility.yul\":24839:25153   */\n      swap4\n      swap3\n      pop\n      pop\n      pop\n      jump\t// out\n        /* \"#utility.yul\":25159:26272   */\n    tag_114:\n        /* \"#utility.yul\":25512:25516   */\n      0x00\n        /* \"#utility.yul\":25550:25553   */\n      0xa0\n        /* \"#utility.yul\":25539:25548   */\n      dup3\n        /* \"#utility.yul\":25535:25554   */\n      add\n        /* \"#utility.yul\":25527:25554   */\n      swap1\n      pop\n        /* \"#utility.yul\":25564:25635   */\n      tag_543\n        /* \"#utility.yul\":25632:25633   */\n      0x00\n        /* \"#utility.yul\":25621:25630   */\n      dup4\n        /* \"#utility.yul\":25617:25634   */\n      add\n        /* \"#utility.yul\":25608:25614   */\n      dup12\n        /* \"#utility.yul\":25564:25635   */\n      tag_274\n      jump\t// in\n    tag_543:\n        /* \"#utility.yul\":25645:25717   */\n      tag_544\n        /* \"#utility.yul\":25713:25715   */\n      0x20\n        /* \"#utility.yul\":25702:25711   */\n      dup4\n        /* \"#utility.yul\":25698:25716   */\n      add\n        /* \"#utility.yul\":25689:25695   */\n      dup11\n        /* \"#utility.yul\":25645:25717   */\n      tag_274\n      jump\t// in\n    tag_544:\n        /* \"#utility.yul\":25764:25773   */\n      dup2\n        /* \"#utility.yul\":25758:25762   */\n      dup2\n        /* \"#utility.yul\":25754:25774   */\n      sub\n        /* \"#utility.yul\":25749:25751   */\n      0x40\n        /* \"#utility.yul\":25738:25747   */\n      dup4\n        /* \"#utility.yul\":25734:25752   */\n      add\n        /* \"#utility.yul\":25727:25775   */\n      mstore\n        /* \"#utility.yul\":25792:25910   */\n      tag_545\n        /* \"#utility.yul\":25905:25909   */\n      dup2\n        /* \"#utility.yul\":25896:25902   */\n      dup9\n        /* \"#utility.yul\":25888:25894   */\n      dup11\n        /* \"#utility.yul\":25792:25910   */\n      tag_273\n      jump\t// in\n    tag_545:\n        /* \"#utility.yul\":25784:25910   */\n      swap1\n      pop\n        /* \"#utility.yul\":25957:25966   */\n      dup2\n        /* \"#utility.yul\":25951:25955   */\n      dup2\n        /* \"#utility.yul\":25947:25967   */\n      sub\n        /* \"#utility.yul\":25942:25944   */\n      0x60\n        /* \"#utility.yul\":25931:25940   */\n      dup4\n        /* \"#utility.yul\":25927:25945   */\n      add\n        /* \"#utility.yul\":25920:25968   */\n      mstore\n        /* \"#utility.yul\":25985:26103   */\n      tag_546\n        /* \"#utility.yul\":26098:26102   */\n      dup2\n        /* \"#utility.yul\":26089:26095   */\n      dup7\n        /* \"#utility.yul\":26081:26087   */\n      dup9\n        /* \"#utility.yul\":25985:26103   */\n      tag_273\n      jump\t// in\n    tag_546:\n        /* \"#utility.yul\":25977:26103   */\n      swap1\n      pop\n        /* \"#utility.yul\":26151:26160   */\n      dup2\n        /* \"#utility.yul\":26145:26149   */\n      dup2\n        /* \"#utility.yul\":26141:26161   */\n      sub\n        /* \"#utility.yul\":26135:26138   */\n      0x80\n        /* \"#utility.yul\":26124:26133   */\n      dup4\n        /* \"#utility.yul\":26120:26139   */\n      add\n        /* \"#utility.yul\":26113:26162   */\n      mstore\n        /* \"#utility.yul\":26179:26265   */\n      tag_547\n        /* \"#utility.yul\":26260:26264   */\n      dup2\n        /* \"#utility.yul\":26251:26257   */\n      dup5\n        /* \"#utility.yul\":26243:26249   */\n      dup7\n        /* \"#utility.yul\":26179:26265   */\n      tag_276\n      jump\t// in\n    tag_547:\n        /* \"#utility.yul\":26171:26265   */\n      swap1\n      pop\n        /* \"#utility.yul\":25159:26272   */\n      swap10\n      swap9\n      pop\n      pop\n      pop\n      pop\n      pop\n      pop\n      pop\n      pop\n      pop\n      jump\t// out\n        /* \"#utility.yul\":26278:26419   */\n    tag_277:\n        /* \"#utility.yul\":26334:26339   */\n      0x00\n        /* \"#utility.yul\":26365:26371   */\n      dup2\n        /* \"#utility.yul\":26359:26372   */\n      mload\n        /* \"#utility.yul\":26350:26372   */\n      swap1\n      pop\n        /* \"#utility.yul\":26381:26413   */\n      tag_549\n        /* \"#utility.yul\":26407:26412   */\n      dup2\n        /* \"#utility.yul\":26381:26413   */\n      tag_233\n      jump\t// in\n    tag_549:\n        /* \"#utility.yul\":26278:26419   */\n      swap3\n      swap2\n      pop\n      pop\n      jump\t// out\n        /* \"#utility.yul\":26425:26774   */\n    tag_118:\n        /* \"#utility.yul\":26494:26500   */\n      0x00\n        /* \"#utility.yul\":26543:26545   */\n      0x20\n        /* \"#utility.yul\":26531:26540   */\n      dup3\n        /* \"#utility.yul\":26522:26529   */\n      dup5\n        /* \"#utility.yul\":26518:26541   */\n      sub\n        /* \"#utility.yul\":26514:26546   */\n      slt\n        /* \"#utility.yul\":26511:26630   */\n      iszero\n      tag_551\n      jumpi\n        /* \"#utility.yul\":26549:26628   */\n      tag_552\n      tag_222\n      jump\t// in\n    tag_552:\n        /* \"#utility.yul\":26511:26630   */\n    tag_551:\n        /* \"#utility.yul\":26669:26670   */\n      0x00\n        /* \"#utility.yul\":26694:26757   */\n      tag_553\n        /* \"#utility.yul\":26749:26756   */\n      dup5\n        /* \"#utility.yul\":26740:26746   */\n      dup3\n        /* \"#utility.yul\":26729:26738   */\n      dup6\n        /* \"#utility.yul\":26725:26747   */\n      add\n        /* \"#utility.yul\":26694:26757   */\n      tag_277\n      jump\t// in\n    tag_553:\n        /* \"#utility.yul\":26684:26757   */\n      swap2\n      pop\n        /* \"#utility.yul\":26640:26767   */\n      pop\n        /* \"#utility.yul\":26425:26774   */\n      swap3\n      swap2\n      pop\n      pop\n      jump\t// out\n        /* \"#utility.yul\":26780:26945   */\n    tag_278:\n        /* \"#utility.yul\":26920:26937   */\n      0x756e73616665207472616e736665720000000000000000000000000000000000\n        /* \"#utility.yul\":26916:26917   */\n      0x00\n        /* \"#utility.yul\":26908:26914   */\n      dup3\n        /* \"#utility.yul\":26904:26918   */\n      add\n        /* \"#utility.yul\":26897:26938   */\n      mstore\n        /* \"#utility.yul\":26780:26945   */\n      pop\n      jump\t// out\n        /* \"#utility.yul\":26951:27317   */\n    tag_279:\n        /* \"#utility.yul\":27093:27096   */\n      0x00\n        /* \"#utility.yul\":27114:27181   */\n      tag_556\n        /* \"#utility.yul\":27178:27180   */\n      0x0f\n        /* \"#utility.yul\":27173:27176   */\n      dup4\n        /* \"#utility.yul\":27114:27181   */\n      tag_247\n      jump\t// in\n    tag_556:\n        /* \"#utility.yul\":27107:27181   */\n      swap2\n      pop\n        /* \"#utility.yul\":27190:27283   */\n      tag_557\n        /* \"#utility.yul\":27279:27282   */\n      dup3\n        /* \"#utility.yul\":27190:27283   */\n      tag_278\n      jump\t// in\n    tag_557:\n        /* \"#utility.yul\":27308:27310   */\n      0x20\n        /* \"#utility.yul\":27303:27306   */\n      dup3\n        /* \"#utility.yul\":27299:27311   */\n      add\n        /* \"#utility.yul\":27292:27311   */\n      swap1\n      pop\n        /* \"#utility.yul\":26951:27317   */\n      swap2\n      swap1\n      pop\n      jump\t// out\n        /* \"#utility.yul\":27323:27742   */\n    tag_121:\n        /* \"#utility.yul\":27489:27493   */\n      0x00\n        /* \"#utility.yul\":27527:27529   */\n      0x20\n        /* \"#utility.yul\":27516:27525   */\n      dup3\n        /* \"#utility.yul\":27512:27530   */\n      add\n        /* \"#utility.yul\":27504:27530   */\n      swap1\n      pop\n        /* \"#utility.yul\":27576:27585   */\n      dup2\n        /* \"#utility.yul\":27570:27574   */\n      dup2\n        /* \"#utility.yul\":27566:27586   */\n      sub\n        /* \"#utility.yul\":27562:27563   */\n      0x00\n        /* \"#utility.yul\":27551:27560   */\n      dup4\n        /* \"#utility.yul\":27547:27564   */\n      add\n        /* \"#utility.yul\":27540:27587   */\n      mstore\n        /* \"#utility.yul\":27604:27735   */\n      tag_559\n        /* \"#utility.yul\":27730:27734   */\n      dup2\n        /* \"#utility.yul\":27604:27735   */\n      tag_279\n      jump\t// in\n    tag_559:\n        /* \"#utility.yul\":27596:27735   */\n      swap1\n      pop\n        /* \"#utility.yul\":27323:27742   */\n      swap2\n      swap1\n      pop\n      jump\t// out\n        /* \"#utility.yul\":27748:27925   */\n    tag_280:\n        /* \"#utility.yul\":27888:27917   */\n      0x6f776e657273206c656e67746820213d20696473206c656e6774680000000000\n        /* \"#utility.yul\":27884:27885   */\n      0x00\n        /* \"#utility.yul\":27876:27882   */\n      dup3\n        /* \"#utility.yul\":27872:27886   */\n      add\n        /* \"#utility.yul\":27865:27918   */\n      mstore\n        /* \"#utility.yul\":27748:27925   */\n      pop\n      jump\t// out\n        /* \"#utility.yul\":27931:28297   */\n    tag_281:\n        /* \"#utility.yul\":28073:28076   */\n      0x00\n        /* \"#utility.yul\":28094:28161   */\n      tag_562\n        /* \"#utility.yul\":28158:28160   */\n      0x1b\n        /* \"#utility.yul\":28153:28156   */\n      dup4\n        /* \"#utility.yul\":28094:28161   */\n      tag_247\n      jump\t// in\n    tag_562:\n        /* \"#utility.yul\":28087:28161   */\n      swap2\n      pop\n        /* \"#utility.yul\":28170:28263   */\n      tag_563\n        /* \"#utility.yul\":28259:28262   */\n      dup3\n        /* \"#utility.yul\":28170:28263   */\n      tag_280\n      jump\t// in\n    tag_563:\n        /* \"#utility.yul\":28288:28290   */\n      0x20\n        /* \"#utility.yul\":28283:28286   */\n      dup3\n        /* \"#utility.yul\":28279:28291   */\n      add\n        /* \"#utility.yul\":28272:28291   */\n      swap1\n      pop\n        /* \"#utility.yul\":27931:28297   */\n      swap2\n      swap1\n      pop\n      jump\t// out\n        /* \"#utility.yul\":28303:28722   */\n    tag_125:\n        /* \"#utility.yul\":28469:28473   */\n      0x00\n        /* \"#utility.yul\":28507:28509   */\n      0x20\n        /* \"#utility.yul\":28496:28505   */\n      dup3\n        /* \"#utility.yul\":28492:28510   */\n      add\n        /* \"#utility.yul\":28484:28510   */\n      swap1\n      pop\n        /* \"#utility.yul\":28556:28565   */\n      dup2\n        /* \"#utility.yul\":28550:28554   */\n      dup2\n        /* \"#utility.yul\":28546:28566   */\n      sub\n        /* \"#utility.yul\":28542:28543   */\n      0x00\n        /* \"#utility.yul\":28531:28540   */\n      dup4\n        /* \"#utility.yul\":28527:28544   */\n      add\n        /* \"#utility.yul\":28520:28567   */\n      mstore\n        /* \"#utility.yul\":28584:28715   */\n      tag_565\n        /* \"#utility.yul\":28710:28714   */\n      dup2\n        /* \"#utility.yul\":28584:28715   */\n      tag_281\n      jump\t// in\n    tag_565:\n        /* \"#utility.yul\":28576:28715   */\n      swap1\n      pop\n        /* \"#utility.yul\":28303:28722   */\n      swap2\n      swap1\n      pop\n      jump\t// out\n        /* \"#utility.yul\":28728:29057   */\n    tag_136:\n        /* \"#utility.yul\":28787:28793   */\n      0x00\n        /* \"#utility.yul\":28836:28838   */\n      0x20\n        /* \"#utility.yul\":28824:28833   */\n      dup3\n        /* \"#utility.yul\":28815:28822   */\n      dup5\n        /* \"#utility.yul\":28811:28834   */\n      sub\n        /* \"#utility.yul\":28807:28839   */\n      slt\n        /* \"#utility.yul\":28804:28923   */\n      iszero\n      tag_567\n      jumpi\n        /* \"#utility.yul\":28842:28921   */\n      tag_568\n      tag_222\n      jump\t// in\n    tag_568:\n        /* \"#utility.yul\":28804:28923   */\n    tag_567:\n        /* \"#utility.yul\":28962:28963   */\n      0x00\n        /* \"#utility.yul\":28987:29040   */\n      tag_569\n        /* \"#utility.yul\":29032:29039   */\n      dup5\n        /* \"#utility.yul\":29023:29029   */\n      dup3\n        /* \"#utility.yul\":29012:29021   */\n      dup6\n        /* \"#utility.yul\":29008:29030   */\n      add\n        /* \"#utility.yul\":28987:29040   */\n      tag_227\n      jump\t// in\n    tag_569:\n        /* \"#utility.yul\":28977:29040   */\n      swap2\n      pop\n        /* \"#utility.yul\":28933:29050   */\n      pop\n        /* \"#utility.yul\":28728:29057   */\n      swap3\n      swap2\n      pop\n      pop\n      jump\t// out\n        /* \"#utility.yul\":29063:29395   */\n    tag_158:\n        /* \"#utility.yul\":29184:29188   */\n      0x00\n        /* \"#utility.yul\":29222:29224   */\n      0x40\n        /* \"#utility.yul\":29211:29220   */\n      dup3\n        /* \"#utility.yul\":29207:29225   */\n      add\n        /* \"#utility.yul\":29199:29225   */\n      swap1\n      pop\n        /* \"#utility.yul\":29235:29306   */\n      tag_571\n        /* \"#utility.yul\":29303:29304   */\n      0x00\n        /* \"#utility.yul\":29292:29301   */\n      dup4\n        /* \"#utility.yul\":29288:29305   */\n      add\n        /* \"#utility.yul\":29279:29285   */\n      dup6\n        /* \"#utility.yul\":29235:29306   */\n      tag_231\n      jump\t// in\n    tag_571:\n        /* \"#utility.yul\":29316:29388   */\n      tag_572\n        /* \"#utility.yul\":29384:29386   */\n      0x20\n        /* \"#utility.yul\":29373:29382   */\n      dup4\n        /* \"#utility.yul\":29369:29387   */\n      add\n        /* \"#utility.yul\":29360:29366   */\n      dup5\n        /* \"#utility.yul\":29316:29388   */\n      tag_231\n      jump\t// in\n    tag_572:\n        /* \"#utility.yul\":29063:29395   */\n      swap4\n      swap3\n      pop\n      pop\n      pop\n      jump\t// out\n        /* \"#utility.yul\":29401:30172   */\n    tag_161:\n        /* \"#utility.yul\":29634:29638   */\n      0x00\n        /* \"#utility.yul\":29672:29675   */\n      0xa0\n        /* \"#utility.yul\":29661:29670   */\n      dup3\n        /* \"#utility.yul\":29657:29676   */\n      add\n        /* \"#utility.yul\":29649:29676   */\n      swap1\n      pop\n        /* \"#utility.yul\":29686:29757   */\n      tag_574\n        /* \"#utility.yul\":29754:29755   */\n      0x00\n        /* \"#utility.yul\":29743:29752   */\n      dup4\n        /* \"#utility.yul\":29739:29756   */\n      add\n        /* \"#utility.yul\":29730:29736   */\n      dup10\n        /* \"#utility.yul\":29686:29757   */\n      tag_274\n      jump\t// in\n    tag_574:\n        /* \"#utility.yul\":29767:29839   */\n      tag_575\n        /* \"#utility.yul\":29835:29837   */\n      0x20\n        /* \"#utility.yul\":29824:29833   */\n      dup4\n        /* \"#utility.yul\":29820:29838   */\n      add\n        /* \"#utility.yul\":29811:29817   */\n      dup9\n        /* \"#utility.yul\":29767:29839   */\n      tag_274\n      jump\t// in\n    tag_575:\n        /* \"#utility.yul\":29849:29921   */\n      tag_576\n        /* \"#utility.yul\":29917:29919   */\n      0x40\n        /* \"#utility.yul\":29906:29915   */\n      dup4\n        /* \"#utility.yul\":29902:29920   */\n      add\n        /* \"#utility.yul\":29893:29899   */\n      dup8\n        /* \"#utility.yul\":29849:29921   */\n      tag_231\n      jump\t// in\n    tag_576:\n        /* \"#utility.yul\":29931:30003   */\n      tag_577\n        /* \"#utility.yul\":29999:30001   */\n      0x60\n        /* \"#utility.yul\":29988:29997   */\n      dup4\n        /* \"#utility.yul\":29984:30002   */\n      add\n        /* \"#utility.yul\":29975:29981   */\n      dup7\n        /* \"#utility.yul\":29931:30003   */\n      tag_231\n      jump\t// in\n    tag_577:\n        /* \"#utility.yul\":30051:30060   */\n      dup2\n        /* \"#utility.yul\":30045:30049   */\n      dup2\n        /* \"#utility.yul\":30041:30061   */\n      sub\n        /* \"#utility.yul\":30035:30038   */\n      0x80\n        /* \"#utility.yul\":30024:30033   */\n      dup4\n        /* \"#utility.yul\":30020:30039   */\n      add\n        /* \"#utility.yul\":30013:30062   */\n      mstore\n        /* \"#utility.yul\":30079:30165   */\n      tag_578\n        /* \"#utility.yul\":30160:30164   */\n      dup2\n        /* \"#utility.yul\":30151:30157   */\n      dup5\n        /* \"#utility.yul\":30143:30149   */\n      dup7\n        /* \"#utility.yul\":30079:30165   */\n      tag_276\n      jump\t// in\n    tag_578:\n        /* \"#utility.yul\":30071:30165   */\n      swap1\n      pop\n        /* \"#utility.yul\":29401:30172   */\n      swap8\n      swap7\n      pop\n      pop\n      pop\n      pop\n      pop\n      pop\n      pop\n      jump\t// out\n        /* \"#utility.yul\":30178:30276   */\n    tag_282:\n        /* \"#utility.yul\":30229:30235   */\n      0x00\n        /* \"#utility.yul\":30263:30268   */\n      dup2\n        /* \"#utility.yul\":30257:30269   */\n      mload\n        /* \"#utility.yul\":30247:30269   */\n      swap1\n      pop\n        /* \"#utility.yul\":30178:30276   */\n      swap2\n      swap1\n      pop\n      jump\t// out\n        /* \"#utility.yul\":30282:30655   */\n    tag_283:\n        /* \"#utility.yul\":30368:30371   */\n      0x00\n        /* \"#utility.yul\":30396:30434   */\n      tag_581\n        /* \"#utility.yul\":30428:30433   */\n      dup3\n        /* \"#utility.yul\":30396:30434   */\n      tag_282\n      jump\t// in\n    tag_581:\n        /* \"#utility.yul\":30450:30520   */\n      tag_582\n        /* \"#utility.yul\":30513:30519   */\n      dup2\n        /* \"#utility.yul\":30508:30511   */\n      dup6\n        /* \"#utility.yul\":30450:30520   */\n      tag_275\n      jump\t// in\n    tag_582:\n        /* \"#utility.yul\":30443:30520   */\n      swap4\n      pop\n        /* \"#utility.yul\":30529:30594   */\n      tag_583\n        /* \"#utility.yul\":30587:30593   */\n      dup2\n        /* \"#utility.yul\":30582:30585   */\n      dup6\n        /* \"#utility.yul\":30575:30579   */\n      0x20\n        /* \"#utility.yul\":30568:30573   */\n      dup7\n        /* \"#utility.yul\":30564:30580   */\n      add\n        /* \"#utility.yul\":30529:30594   */\n      tag_248\n      jump\t// in\n    tag_583:\n        /* \"#utility.yul\":30619:30648   */\n      tag_584\n        /* \"#utility.yul\":30641:30647   */\n      dup2\n        /* \"#utility.yul\":30619:30648   */\n      tag_239\n      jump\t// in\n    tag_584:\n        /* \"#utility.yul\":30614:30617   */\n      dup5\n        /* \"#utility.yul\":30610:30649   */\n      add\n        /* \"#utility.yul\":30603:30649   */\n      swap2\n      pop\n        /* \"#utility.yul\":30372:30655   */\n      pop\n        /* \"#utility.yul\":30282:30655   */\n      swap3\n      swap2\n      pop\n      pop\n      jump\t// out\n        /* \"#utility.yul\":30661:31412   */\n    tag_174:\n        /* \"#utility.yul\":30884:30888   */\n      0x00\n        /* \"#utility.yul\":30922:30925   */\n      0xa0\n        /* \"#utility.yul\":30911:30920   */\n      dup3\n        /* \"#utility.yul\":30907:30926   */\n      add\n        /* \"#utility.yul\":30899:30926   */\n      swap1\n      pop\n        /* \"#utility.yul\":30936:31007   */\n      tag_586\n        /* \"#utility.yul\":31004:31005   */\n      0x00\n        /* \"#utility.yul\":30993:31002   */\n      dup4\n        /* \"#utility.yul\":30989:31006   */\n      add\n        /* \"#utility.yul\":30980:30986   */\n      dup9\n        /* \"#utility.yul\":30936:31007   */\n      tag_274\n      jump\t// in\n    tag_586:\n        /* \"#utility.yul\":31017:31089   */\n      tag_587\n        /* \"#utility.yul\":31085:31087   */\n      0x20\n        /* \"#utility.yul\":31074:31083   */\n      dup4\n        /* \"#utility.yul\":31070:31088   */\n      add\n        /* \"#utility.yul\":31061:31067   */\n      dup8\n        /* \"#utility.yul\":31017:31089   */\n      tag_274\n      jump\t// in\n    tag_587:\n        /* \"#utility.yul\":31099:31171   */\n      tag_588\n        /* \"#utility.yul\":31167:31169   */\n      0x40\n        /* \"#utility.yul\":31156:31165   */\n      dup4\n        /* \"#utility.yul\":31152:31170   */\n      add\n        /* \"#utility.yul\":31143:31149   */\n      dup7\n        /* \"#utility.yul\":31099:31171   */\n      tag_231\n      jump\t// in\n    tag_588:\n        /* \"#utility.yul\":31181:31253   */\n      tag_589\n        /* \"#utility.yul\":31249:31251   */\n      0x60\n        /* \"#utility.yul\":31238:31247   */\n      dup4\n        /* \"#utility.yul\":31234:31252   */\n      add\n        /* \"#utility.yul\":31225:31231   */\n      dup6\n        /* \"#utility.yul\":31181:31253   */\n      tag_231\n      jump\t// in\n    tag_589:\n        /* \"#utility.yul\":31301:31310   */\n      dup2\n        /* \"#utility.yul\":31295:31299   */\n      dup2\n        /* \"#utility.yul\":31291:31311   */\n      sub\n        /* \"#utility.yul\":31285:31288   */\n      0x80\n        /* \"#utility.yul\":31274:31283   */\n      dup4\n        /* \"#utility.yul\":31270:31289   */\n      add\n        /* \"#utility.yul\":31263:31312   */\n      mstore\n        /* \"#utility.yul\":31329:31405   */\n      tag_590\n        /* \"#utility.yul\":31400:31404   */\n      dup2\n        /* \"#utility.yul\":31391:31397   */\n      dup5\n        /* \"#utility.yul\":31329:31405   */\n      tag_283\n      jump\t// in\n    tag_590:\n        /* \"#utility.yul\":31321:31405   */\n      swap1\n      pop\n        /* \"#utility.yul\":30661:31412   */\n      swap7\n      swap6\n      pop\n      pop\n      pop\n      pop\n      pop\n      pop\n      jump\t// out\n        /* \"#utility.yul\":31418:31584   */\n    tag_284:\n        /* \"#utility.yul\":31558:31576   */\n      0x66726f6d203d2030206164647265737300000000000000000000000000000000\n        /* \"#utility.yul\":31554:31555   */\n      0x00\n        /* \"#utility.yul\":31546:31552   */\n      dup3\n        /* \"#utility.yul\":31542:31556   */\n      add\n        /* \"#utility.yul\":31535:31577   */\n      mstore\n        /* \"#utility.yul\":31418:31584   */\n      pop\n      jump\t// out\n        /* \"#utility.yul\":31590:31956   */\n    tag_285:\n        /* \"#utility.yul\":31732:31735   */\n      0x00\n        /* \"#utility.yul\":31753:31820   */\n      tag_593\n        /* \"#utility.yul\":31817:31819   */\n      0x10\n        /* \"#utility.yul\":31812:31815   */\n      dup4\n        /* \"#utility.yul\":31753:31820   */\n      tag_247\n      jump\t// in\n    tag_593:\n        /* \"#utility.yul\":31746:31820   */\n      swap2\n      pop\n        /* \"#utility.yul\":31829:31922   */\n      tag_594\n        /* \"#utility.yul\":31918:31921   */\n      dup3\n        /* \"#utility.yul\":31829:31922   */\n      tag_284\n      jump\t// in\n    tag_594:\n        /* \"#utility.yul\":31947:31949   */\n      0x20\n        /* \"#utility.yul\":31942:31945   */\n      dup3\n        /* \"#utility.yul\":31938:31950   */\n      add\n        /* \"#utility.yul\":31931:31950   */\n      swap1\n      pop\n        /* \"#utility.yul\":31590:31956   */\n      swap2\n      swap1\n      pop\n      jump\t// out\n        /* \"#utility.yul\":31962:32381   */\n    tag_183:\n        /* \"#utility.yul\":32128:32132   */\n      0x00\n        /* \"#utility.yul\":32166:32168   */\n      0x20\n        /* \"#utility.yul\":32155:32164   */\n      dup3\n        /* \"#utility.yul\":32151:32169   */\n      add\n        /* \"#utility.yul\":32143:32169   */\n      swap1\n      pop\n        /* \"#utility.yul\":32215:32224   */\n      dup2\n        /* \"#utility.yul\":32209:32213   */\n      dup2\n        /* \"#utility.yul\":32205:32225   */\n      sub\n        /* \"#utility.yul\":32201:32202   */\n      0x00\n        /* \"#utility.yul\":32190:32199   */\n      dup4\n        /* \"#utility.yul\":32186:32203   */\n      add\n        /* \"#utility.yul\":32179:32226   */\n      mstore\n        /* \"#utility.yul\":32243:32374   */\n      tag_596\n        /* \"#utility.yul\":32369:32373   */\n      dup2\n        /* \"#utility.yul\":32243:32374   */\n      tag_285\n      jump\t// in\n    tag_596:\n        /* \"#utility.yul\":32235:32374   */\n      swap1\n      pop\n        /* \"#utility.yul\":31962:32381   */\n      swap2\n      swap1\n      pop\n      jump\t// out\n\n    auxdata: 0xa2646970667358221220511ad6cc76b8075bc7e0a37203d35724991b12a9405d387575727e15a567998464736f6c63430008180033\n}\n",
				"bytecode": {
					"linkReferences": {},
					"object": "608060405234801561000f575f80fd5b5061278c8061001d5f395ff3fe608060405234801561000f575f80fd5b50600436106100b1575f3560e01c80634e1273f41161006f5780634e1273f414610199578063a22cb465146101c9578063b390c0ab146101e5578063cf04192e14610201578063e985e9c51461021d578063f242432a1461024d576100b1565b8062fdd58e146100b557806301ffc9a7146100e557806308dc9f42146101155780630e89341c1461013157806320ec271b146101615780632eb2c2d61461017d575b5f80fd5b6100cf60048036038101906100ca91906117e8565b610269565b6040516100dc9190611835565b60405180910390f35b6100ff60048036038101906100fa91906118a3565b610288565b60405161010c91906118e8565b60405180910390f35b61012f600480360381019061012a9190611a3d565b610319565b005b61014b60048036038101906101469190611aa9565b61032a565b6040516101589190611b4e565b60405180910390f35b61017b60048036038101906101769190611bcb565b610331565b005b61019760048036038101906101929190611c9e565b610344565b005b6101b360048036038101906101ae9190611dca565b6107ee565b6040516101c09190611eff565b60405180910390f35b6101e360048036038101906101de9190611f49565b610954565b005b6101ff60048036038101906101fa9190611f87565b610a4c565b005b61021b60048036038101906102169190611fc5565b610a5b565b005b61023760048036038101906102329190612075565b610a72565b60405161024491906118e8565b60405180910390f35b610267600480360381019061026291906120b3565b610a9c565b005b5f602052815f5260405f20602052805f5260405f205f91509150505481565b5f6301ffc9a760e01b827bffffffffffffffffffffffffffffffffffffffffffffffffffffffff191614806102e2575063d9b67a2660e01b827bffffffffffffffffffffffffffffffffffffffffffffffffffffffff1916145b806103125750630e89341c60e01b827bffffffffffffffffffffffffffffffffffffffffffffffffffffffff1916145b9050919050565b61032533848484610e75565b505050565b6060919050565b61033e33858585856110ef565b50505050565b8773ffffffffffffffffffffffffffffffffffffffff163373ffffffffffffffffffffffffffffffffffffffff1614806103ff575060015f8973ffffffffffffffffffffffffffffffffffffffff1673ffffffffffffffffffffffffffffffffffffffff1681526020019081526020015f205f3373ffffffffffffffffffffffffffffffffffffffff1673ffffffffffffffffffffffffffffffffffffffff1681526020019081526020015f205f9054906101000a900460ff165b61043e576040517f08c379a000000000000000000000000000000000000000000000000000000000815260040161043590612193565b60405180910390fd5b5f73ffffffffffffffffffffffffffffffffffffffff168773ffffffffffffffffffffffffffffffffffffffff16036104ac576040517f08c379a00000000000000000000000000000000000000000000000000000000081526004016104a3906121fb565b60405180910390fd5b8383905086869050146104f4576040517f08c379a00000000000000000000000000000000000000000000000000000000081526004016104eb90612263565b60405180910390fd5b5f5b868690508110156106345784848281811061051457610513612281565b5b905060200201355f808b73ffffffffffffffffffffffffffffffffffffffff1673ffffffffffffffffffffffffffffffffffffffff1681526020019081526020015f205f89898581811061056b5761056a612281565b5b9050602002013581526020019081526020015f205f82825461058d91906122db565b925050819055508484828181106105a7576105a6612281565b5b905060200201355f808a73ffffffffffffffffffffffffffffffffffffffff1673ffffffffffffffffffffffffffffffffffffffff1681526020019081526020015f205f8989858181106105fe576105fd612281565b5b9050602002013581526020019081526020015f205f828254610620919061230e565b9250508190555080806001019150506104f6565b508673ffffffffffffffffffffffffffffffffffffffff168873ffffffffffffffffffffffffffffffffffffffff163373ffffffffffffffffffffffffffffffffffffffff167f4a39dc06d4c0dbc64b70af90fd698a233a518aa5d07e595d983b8c0526c8f7fb898989896040516106af94939291906123a9565b60405180910390a45f8773ffffffffffffffffffffffffffffffffffffffff163b11156107e45763bc197c8160e01b7bffffffffffffffffffffffffffffffffffffffffffffffffffffffff19168773ffffffffffffffffffffffffffffffffffffffff1663bc197c81338b8a8a8a8a8a8a6040518963ffffffff1660e01b815260040161074498979695949392919061242d565b6020604051808303815f875af1158015610760573d5f803e3d5ffd5b505050506040513d601f19601f8201168201806040525081019061078491906124ad565b7bffffffffffffffffffffffffffffffffffffffffffffffffffffffff1916146107e3576040517f08c379a00000000000000000000000000000000000000000000000000000000081526004016107da90612522565b60405180910390fd5b5b5050505050505050565b6060828290508585905014610838576040517f08c379a000000000000000000000000000000000000000000000000000000000815260040161082f9061258a565b60405180910390fd5b8484905067ffffffffffffffff81111561085557610854611919565b5b6040519080825280602002602001820160405280156108835781602001602082028036833780820191505090505b5090505f5b8585905081101561094b575f808787848181106108a8576108a7612281565b5b90506020020160208101906108bd91906125a8565b73ffffffffffffffffffffffffffffffffffffffff1673ffffffffffffffffffffffffffffffffffffffff1681526020019081526020015f205f85858481811061090a57610909612281565b5b9050602002013581526020019081526020015f205482828151811061093257610931612281565b5b6020026020010181815250508080600101915050610888565b50949350505050565b8060015f3373ffffffffffffffffffffffffffffffffffffffff1673ffffffffffffffffffffffffffffffffffffffff1681526020019081526020015f205f8473ffffffffffffffffffffffffffffffffffffffff1673ffffffffffffffffffffffffffffffffffffffff1681526020019081526020015f205f6101000a81548160ff0219169083151502179055508173ffffffffffffffffffffffffffffffffffffffff163373ffffffffffffffffffffffffffffffffffffffff167f17307eab39ab6107e8899845ad3d59bd9653f200f220920489ca2b5937696c3183604051610a4091906118e8565b60405180910390a35050565b610a573383836112dc565b5050565b610a6a3387878787878761142e565b505050505050565b6001602052815f5260405f20602052805f5260405f205f915091509054906101000a900460ff1681565b8573ffffffffffffffffffffffffffffffffffffffff163373ffffffffffffffffffffffffffffffffffffffff161480610b57575060015f8773ffffffffffffffffffffffffffffffffffffffff1673ffffffffffffffffffffffffffffffffffffffff1681526020019081526020015f205f3373ffffffffffffffffffffffffffffffffffffffff1673ffffffffffffffffffffffffffffffffffffffff1681526020019081526020015f205f9054906101000a900460ff165b610b96576040517f08c379a0000000000000000000000000000000000000000000000000000000008152600401610b8d90612193565b60405180910390fd5b5f73ffffffffffffffffffffffffffffffffffffffff168573ffffffffffffffffffffffffffffffffffffffff1603610c04576040517f08c379a0000000000000000000000000000000000000000000000000000000008152600401610bfb906121fb565b60405180910390fd5b825f808873ffffffffffffffffffffffffffffffffffffffff1673ffffffffffffffffffffffffffffffffffffffff1681526020019081526020015f205f8681526020019081526020015f205f828254610c5e91906122db565b92505081905550825f808773ffffffffffffffffffffffffffffffffffffffff1673ffffffffffffffffffffffffffffffffffffffff1681526020019081526020015f205f8681526020019081526020015f205f828254610cbf919061230e565b925050819055508473ffffffffffffffffffffffffffffffffffffffff168673ffffffffffffffffffffffffffffffffffffffff163373ffffffffffffffffffffffffffffffffffffffff167fc3d58168c5ae7397731d063d5bbf3d657854427343f4c083240f7aacaa2d0f628787604051610d3c9291906125d3565b60405180910390a45f8573ffffffffffffffffffffffffffffffffffffffff163b1115610e6d5763f23a6e6160e01b7bffffffffffffffffffffffffffffffffffffffffffffffffffffffff19168573ffffffffffffffffffffffffffffffffffffffff1663f23a6e613389888888886040518763ffffffff1660e01b8152600401610dcd969594939291906125fa565b6020604051808303815f875af1158015610de9573d5f803e3d5ffd5b505050506040513d601f19601f82011682018060405250810190610e0d91906124ad565b7bffffffffffffffffffffffffffffffffffffffffffffffffffffffff191614610e6c576040517f08c379a0000000000000000000000000000000000000000000000000000000008152600401610e6390612522565b60405180910390fd5b5b505050505050565b5f73ffffffffffffffffffffffffffffffffffffffff168473ffffffffffffffffffffffffffffffffffffffff1603610ee3576040517f08c379a0000000000000000000000000000000000000000000000000000000008152600401610eda906121fb565b60405180910390fd5b815f808673ffffffffffffffffffffffffffffffffffffffff1673ffffffffffffffffffffffffffffffffffffffff1681526020019081526020015f205f8581526020019081526020015f205f828254610f3d919061230e565b925050819055508373ffffffffffffffffffffffffffffffffffffffff165f73ffffffffffffffffffffffffffffffffffffffff163373ffffffffffffffffffffffffffffffffffffffff167fc3d58168c5ae7397731d063d5bbf3d657854427343f4c083240f7aacaa2d0f628686604051610fba9291906125d3565b60405180910390a45f8473ffffffffffffffffffffffffffffffffffffffff163b11156110e95763f23a6e6160e01b7bffffffffffffffffffffffffffffffffffffffffffffffffffffffff19168473ffffffffffffffffffffffffffffffffffffffff1663f23a6e61335f8787876040518663ffffffff1660e01b8152600401611049959493929190612696565b6020604051808303815f875af1158015611065573d5f803e3d5ffd5b505050506040513d601f19601f8201168201806040525081019061108991906124ad565b7bffffffffffffffffffffffffffffffffffffffffffffffffffffffff1916146110e8576040517f08c379a00000000000000000000000000000000000000000000000000000000081526004016110df90612522565b60405180910390fd5b5b50505050565b5f73ffffffffffffffffffffffffffffffffffffffff168573ffffffffffffffffffffffffffffffffffffffff160361115d576040517f08c379a000000000000000000000000000000000000000000000000000000000815260040161115490612738565b60405180910390fd5b8181905084849050146111a5576040517f08c379a000000000000000000000000000000000000000000000000000000000815260040161119c90612263565b60405180910390fd5b5f5b84849050811015611252578282828181106111c5576111c4612281565b5b905060200201355f808873ffffffffffffffffffffffffffffffffffffffff1673ffffffffffffffffffffffffffffffffffffffff1681526020019081526020015f205f87878581811061121c5761121b612281565b5b9050602002013581526020019081526020015f205f82825461123e91906122db565b9250508190555080806001019150506111a7565b505f73ffffffffffffffffffffffffffffffffffffffff168573ffffffffffffffffffffffffffffffffffffffff163373ffffffffffffffffffffffffffffffffffffffff167f4a39dc06d4c0dbc64b70af90fd698a233a518aa5d07e595d983b8c0526c8f7fb878787876040516112cd94939291906123a9565b60405180910390a45050505050565b5f73ffffffffffffffffffffffffffffffffffffffff168373ffffffffffffffffffffffffffffffffffffffff160361134a576040517f08c379a000000000000000000000000000000000000000000000000000000000815260040161134190612738565b60405180910390fd5b805f808573ffffffffffffffffffffffffffffffffffffffff1673ffffffffffffffffffffffffffffffffffffffff1681526020019081526020015f205f8481526020019081526020015f205f8282546113a491906122db565b925050819055505f73ffffffffffffffffffffffffffffffffffffffff168373ffffffffffffffffffffffffffffffffffffffff163373ffffffffffffffffffffffffffffffffffffffff167fc3d58168c5ae7397731d063d5bbf3d657854427343f4c083240f7aacaa2d0f6285856040516114219291906125d3565b60405180910390a4505050565b5f73ffffffffffffffffffffffffffffffffffffffff168773ffffffffffffffffffffffffffffffffffffffff160361149c576040517f08c379a0000000000000000000000000000000000000000000000000000000008152600401611493906121fb565b60405180910390fd5b8383905086869050146114e4576040517f08c379a00000000000000000000000000000000000000000000000000000000081526004016114db90612263565b60405180910390fd5b5f5b868690508110156115915784848281811061150457611503612281565b5b905060200201355f808a73ffffffffffffffffffffffffffffffffffffffff1673ffffffffffffffffffffffffffffffffffffffff1681526020019081526020015f205f89898581811061155b5761155a612281565b5b9050602002013581526020019081526020015f205f82825461157d919061230e565b9250508190555080806001019150506114e6565b508673ffffffffffffffffffffffffffffffffffffffff165f73ffffffffffffffffffffffffffffffffffffffff163373ffffffffffffffffffffffffffffffffffffffff167f4a39dc06d4c0dbc64b70af90fd698a233a518aa5d07e595d983b8c0526c8f7fb8989898960405161160c94939291906123a9565b60405180910390a45f8773ffffffffffffffffffffffffffffffffffffffff163b11156117415763bc197c8160e01b7bffffffffffffffffffffffffffffffffffffffffffffffffffffffff19168773ffffffffffffffffffffffffffffffffffffffff1663bc197c81335f8a8a8a8a8a8a6040518963ffffffff1660e01b81526004016116a198979695949392919061242d565b6020604051808303815f875af11580156116bd573d5f803e3d5ffd5b505050506040513d601f19601f820116820180604052508101906116e191906124ad565b7bffffffffffffffffffffffffffffffffffffffffffffffffffffffff191614611740576040517f08c379a000000000000000000000000000000000000000000000000000000000815260040161173790612522565b60405180910390fd5b5b50505050505050565b5f604051905090565b5f80fd5b5f80fd5b5f73ffffffffffffffffffffffffffffffffffffffff82169050919050565b5f6117848261175b565b9050919050565b6117948161177a565b811461179e575f80fd5b50565b5f813590506117af8161178b565b92915050565b5f819050919050565b6117c7816117b5565b81146117d1575f80fd5b50565b5f813590506117e2816117be565b92915050565b5f80604083850312156117fe576117fd611753565b5b5f61180b858286016117a1565b925050602061181c858286016117d4565b9150509250929050565b61182f816117b5565b82525050565b5f6020820190506118485f830184611826565b92915050565b5f7fffffffff0000000000000000000000000000000000000000000000000000000082169050919050565b6118828161184e565b811461188c575f80fd5b50565b5f8135905061189d81611879565b92915050565b5f602082840312156118b8576118b7611753565b5b5f6118c58482850161188f565b91505092915050565b5f8115159050919050565b6118e2816118ce565b82525050565b5f6020820190506118fb5f8301846118d9565b92915050565b5f80fd5b5f80fd5b5f601f19601f8301169050919050565b7f4e487b71000000000000000000000000000000000000000000000000000000005f52604160045260245ffd5b61194f82611909565b810181811067ffffffffffffffff8211171561196e5761196d611919565b5b80604052505050565b5f61198061174a565b905061198c8282611946565b919050565b5f67ffffffffffffffff8211156119ab576119aa611919565b5b6119b482611909565b9050602081019050919050565b828183375f83830152505050565b5f6119e16119dc84611991565b611977565b9050828152602081018484840111156119fd576119fc611905565b5b611a088482856119c1565b509392505050565b5f82601f830112611a2457611a23611901565b5b8135611a348482602086016119cf565b91505092915050565b5f805f60608486031215611a5457611a53611753565b5b5f611a61868287016117d4565b9350506020611a72868287016117d4565b925050604084013567ffffffffffffffff811115611a9357611a92611757565b5b611a9f86828701611a10565b9150509250925092565b5f60208284031215611abe57611abd611753565b5b5f611acb848285016117d4565b91505092915050565b5f81519050919050565b5f82825260208201905092915050565b5f5b83811015611b0b578082015181840152602081019050611af0565b5f8484015250505050565b5f611b2082611ad4565b611b2a8185611ade565b9350611b3a818560208601611aee565b611b4381611909565b840191505092915050565b5f6020820190508181035f830152611b668184611b16565b905092915050565b5f80fd5b5f80fd5b5f8083601f840112611b8b57611b8a611901565b5b8235905067ffffffffffffffff811115611ba857611ba7611b6e565b5b602083019150836020820283011115611bc457611bc3611b72565b5b9250929050565b5f805f8060408587031215611be357611be2611753565b5b5f85013567ffffffffffffffff811115611c0057611bff611757565b5b611c0c87828801611b76565b9450945050602085013567ffffffffffffffff811115611c2f57611c2e611757565b5b611c3b87828801611b76565b925092505092959194509250565b5f8083601f840112611c5e57611c5d611901565b5b8235905067ffffffffffffffff811115611c7b57611c7a611b6e565b5b602083019150836001820283011115611c9757611c96611b72565b5b9250929050565b5f805f805f805f8060a0898b031215611cba57611cb9611753565b5b5f611cc78b828c016117a1565b9850506020611cd88b828c016117a1565b975050604089013567ffffffffffffffff811115611cf957611cf8611757565b5b611d058b828c01611b76565b9650965050606089013567ffffffffffffffff811115611d2857611d27611757565b5b611d348b828c01611b76565b9450945050608089013567ffffffffffffffff811115611d5757611d56611757565b5b611d638b828c01611c49565b92509250509295985092959890939650565b5f8083601f840112611d8a57611d89611901565b5b8235905067ffffffffffffffff811115611da757611da6611b6e565b5b602083019150836020820283011115611dc357611dc2611b72565b5b9250929050565b5f805f8060408587031215611de257611de1611753565b5b5f85013567ffffffffffffffff811115611dff57611dfe611757565b5b611e0b87828801611d75565b9450945050602085013567ffffffffffffffff811115611e2e57611e2d611757565b5b611e3a87828801611b76565b925092505092959194509250565b5f81519050919050565b5f82825260208201905092915050565b5f819050602082019050919050565b611e7a816117b5565b82525050565b5f611e8b8383611e71565b60208301905092915050565b5f602082019050919050565b5f611ead82611e48565b611eb78185611e52565b9350611ec283611e62565b805f5b83811015611ef2578151611ed98882611e80565b9750611ee483611e97565b925050600181019050611ec5565b5085935050505092915050565b5f6020820190508181035f830152611f178184611ea3565b905092915050565b611f28816118ce565b8114611f32575f80fd5b50565b5f81359050611f4381611f1f565b92915050565b5f8060408385031215611f5f57611f5e611753565b5b5f611f6c858286016117a1565b9250506020611f7d85828601611f35565b9150509250929050565b5f8060408385031215611f9d57611f9c611753565b5b5f611faa858286016117d4565b9250506020611fbb858286016117d4565b9150509250929050565b5f805f805f8060608789031215611fdf57611fde611753565b5b5f87013567ffffffffffffffff811115611ffc57611ffb611757565b5b61200889828a01611b76565b9650965050602087013567ffffffffffffffff81111561202b5761202a611757565b5b61203789828a01611b76565b9450945050604087013567ffffffffffffffff81111561205a57612059611757565b5b61206689828a01611c49565b92509250509295509295509295565b5f806040838503121561208b5761208a611753565b5b5f612098858286016117a1565b92505060206120a9858286016117a1565b9150509250929050565b5f805f805f8060a087890312156120cd576120cc611753565b5b5f6120da89828a016117a1565b96505060206120eb89828a016117a1565b95505060406120fc89828a016117d4565b945050606061210d89828a016117d4565b935050608087013567ffffffffffffffff81111561212e5761212d611757565b5b61213a89828a01611c49565b92509250509295509295509295565b7f6e6f7420617070726f76656400000000000000000000000000000000000000005f82015250565b5f61217d600c83611ade565b915061218882612149565b602082019050919050565b5f6020820190508181035f8301526121aa81612171565b9050919050565b7f746f203d203020616464726573730000000000000000000000000000000000005f82015250565b5f6121e5600e83611ade565b91506121f0826121b1565b602082019050919050565b5f6020820190508181035f830152612212816121d9565b9050919050565b7f696473206c656e67746820213d2076616c756573206c656e67746800000000005f82015250565b5f61224d601b83611ade565b915061225882612219565b602082019050919050565b5f6020820190508181035f83015261227a81612241565b9050919050565b7f4e487b71000000000000000000000000000000000000000000000000000000005f52603260045260245ffd5b7f4e487b71000000000000000000000000000000000000000000000000000000005f52601160045260245ffd5b5f6122e5826117b5565b91506122f0836117b5565b9250828203905081811115612308576123076122ae565b5b92915050565b5f612318826117b5565b9150612323836117b5565b925082820190508082111561233b5761233a6122ae565b5b92915050565b5f80fd5b82818337505050565b5f6123598385611e52565b93507f07ffffffffffffffffffffffffffffffffffffffffffffffffffffffffffffff83111561238c5761238b612341565b5b60208302925061239d838584612345565b82840190509392505050565b5f6040820190508181035f8301526123c281868861234e565b905081810360208301526123d781848661234e565b905095945050505050565b6123eb8161177a565b82525050565b5f82825260208201905092915050565b5f61240c83856123f1565b93506124198385846119c1565b61242283611909565b840190509392505050565b5f60a0820190506124405f83018b6123e2565b61244d602083018a6123e2565b818103604083015261246081888a61234e565b9050818103606083015261247581868861234e565b9050818103608083015261248a818486612401565b90509998505050505050505050565b5f815190506124a781611879565b92915050565b5f602082840312156124c2576124c1611753565b5b5f6124cf84828501612499565b91505092915050565b7f756e73616665207472616e7366657200000000000000000000000000000000005f82015250565b5f61250c600f83611ade565b9150612517826124d8565b602082019050919050565b5f6020820190508181035f83015261253981612500565b9050919050565b7f6f776e657273206c656e67746820213d20696473206c656e67746800000000005f82015250565b5f612574601b83611ade565b915061257f82612540565b602082019050919050565b5f6020820190508181035f8301526125a181612568565b9050919050565b5f602082840312156125bd576125bc611753565b5b5f6125ca848285016117a1565b91505092915050565b5f6040820190506125e65f830185611826565b6125f36020830184611826565b9392505050565b5f60a08201905061260d5f8301896123e2565b61261a60208301886123e2565b6126276040830187611826565b6126346060830186611826565b8181036080830152612647818486612401565b9050979650505050505050565b5f81519050919050565b5f61266882612654565b61267281856123f1565b9350612682818560208601611aee565b61268b81611909565b840191505092915050565b5f60a0820190506126a95f8301886123e2565b6126b660208301876123e2565b6126c36040830186611826565b6126d06060830185611826565b81810360808301526126e2818461265e565b90509695505050505050565b7f66726f6d203d20302061646472657373000000000000000000000000000000005f82015250565b5f612722601083611ade565b915061272d826126ee565b602082019050919050565b5f6020820190508181035f83015261274f81612716565b905091905056fea2646970667358221220511ad6cc76b8075bc7e0a37203d35724991b12a9405d387575727e15a567998464736f6c63430008180033",
					"opcodes": "PUSH1 0x80 PUSH1 0x40 MSTORE CALLVALUE DUP1 ISZERO PUSH2 0xF JUMPI PUSH0 DUP1 REVERT JUMPDEST POP PUSH2 0x278C DUP1 PUSH2 0x1D PUSH0 CODECOPY PUSH0 RETURN INVALID PUSH1 0x80 PUSH1 0x40 MSTORE CALLVALUE DUP1 ISZERO PUSH2 0xF JUMPI PUSH0 DUP1 REVERT JUMPDEST POP PUSH1 0x4 CALLDATASIZE LT PUSH2 0xB1 JUMPI PUSH0 CALLDATALOAD PUSH1 0xE0 SHR DUP1 PUSH4 0x4E1273F4 GT PUSH2 0x6F JUMPI DUP1 PUSH4 0x4E1273F4 EQ PUSH2 0x199 JUMPI DUP1 PUSH4 0xA22CB465 EQ PUSH2 0x1C9 JUMPI DUP1 PUSH4 0xB390C0AB EQ PUSH2 0x1E5 JUMPI DUP1 PUSH4 0xCF04192E EQ PUSH2 0x201 JUMPI DUP1 PUSH4 0xE985E9C5 EQ PUSH2 0x21D JUMPI DUP1 PUSH4 0xF242432A EQ PUSH2 0x24D JUMPI PUSH2 0xB1 JUMP JUMPDEST DUP1 PUSH3 0xFDD58E EQ PUSH2 0xB5 JUMPI DUP1 PUSH4 0x1FFC9A7 EQ PUSH2 0xE5 JUMPI DUP1 PUSH4 0x8DC9F42 EQ PUSH2 0x115 JUMPI DUP1 PUSH4 0xE89341C EQ PUSH2 0x131 JUMPI DUP1 PUSH4 0x20EC271B EQ PUSH2 0x161 JUMPI DUP1 PUSH4 0x2EB2C2D6 EQ PUSH2 0x17D JUMPI JUMPDEST PUSH0 DUP1 REVERT JUMPDEST PUSH2 0xCF PUSH1 0x4 DUP1 CALLDATASIZE SUB DUP2 ADD SWAP1 PUSH2 0xCA SWAP2 SWAP1 PUSH2 0x17E8 JUMP JUMPDEST PUSH2 0x269 JUMP JUMPDEST PUSH1 0x40 MLOAD PUSH2 0xDC SWAP2 SWAP1 PUSH2 0x1835 JUMP JUMPDEST PUSH1 0x40 MLOAD DUP1 SWAP2 SUB SWAP1 RETURN JUMPDEST PUSH2 0xFF PUSH1 0x4 DUP1 CALLDATASIZE SUB DUP2 ADD SWAP1 PUSH2 0xFA SWAP2 SWAP1 PUSH2 0x18A3 JUMP JUMPDEST PUSH2 0x288 JUMP JUMPDEST PUSH1 0x40 MLOAD PUSH2 0x10C SWAP2 SWAP1 PUSH2 0x18E8 JUMP JUMPDEST PUSH1 0x40 MLOAD DUP1 SWAP2 SUB SWAP1 RETURN JUMPDEST PUSH2 0x12F PUSH1 0x4 DUP1 CALLDATASIZE SUB DUP2 ADD SWAP1 PUSH2 0x12A SWAP2 SWAP1 PUSH2 0x1A3D JUMP JUMPDEST PUSH2 0x319 JUMP JUMPDEST STOP JUMPDEST PUSH2 0x14B PUSH1 0x4 DUP1 CALLDATASIZE SUB DUP2 ADD SWAP1 PUSH2 0x146 SWAP2 SWAP1 PUSH2 0x1AA9 JUMP JUMPDEST PUSH2 0x32A JUMP JUMPDEST PUSH1 0x40 MLOAD PUSH2 0x158 SWAP2 SWAP1 PUSH2 0x1B4E JUMP JUMPDEST PUSH1 0x40 MLOAD DUP1 SWAP2 SUB SWAP1 RETURN JUMPDEST PUSH2 0x17B PUSH1 0x4 DUP1 CALLDATASIZE SUB DUP2 ADD SWAP1 PUSH2 0x176 SWAP2 SWAP1 PUSH2 0x1BCB JUMP JUMPDEST PUSH2 0x331 JUMP JUMPDEST STOP JUMPDEST PUSH2 0x197 PUSH1 0x4 DUP1 CALLDATASIZE SUB DUP2 ADD SWAP1 PUSH2 0x192 SWAP2 SWAP1 PUSH2 0x1C9E JUMP JUMPDEST PUSH2 0x344 JUMP JUMPDEST STOP JUMPDEST PUSH2 0x1B3 PUSH1 0x4 DUP1 CALLDATASIZE SUB DUP2 ADD SWAP1 PUSH2 0x1AE SWAP2 SWAP1 PUSH2 0x1DCA JUMP JUMPDEST PUSH2 0x7EE JUMP JUMPDEST PUSH1 0x40 MLOAD PUSH2 0x1C0 SWAP2 SWAP1 PUSH2 0x1EFF JUMP JUMPDEST PUSH1 0x40 MLOAD DUP1 SWAP2 SUB SWAP1 RETURN JUMPDEST PUSH2 0x1E3 PUSH1 0x4 DUP1 CALLDATASIZE SUB DUP2 ADD SWAP1 PUSH2 0x1DE SWAP2 SWAP1 PUSH2 0x1F49 JUMP JUMPDEST PUSH2 0x954 JUMP JUMPDEST STOP JUMPDEST PUSH2 0x1FF PUSH1 0x4 DUP1 CALLDATASIZE SUB DUP2 ADD SWAP1 PUSH2 0x1FA SWAP2 SWAP1 PUSH2 0x1F87 JUMP JUMPDEST PUSH2 0xA4C JUMP JUMPDEST STOP JUMPDEST PUSH2 0x21B PUSH1 0x4 DUP1 CALLDATASIZE SUB DUP2 ADD SWAP1 PUSH2 0x216 SWAP2 SWAP1 PUSH2 0x1FC5 JUMP JUMPDEST PUSH2 0xA5B JUMP JUMPDEST STOP JUMPDEST PUSH2 0x237 PUSH1 0x4 DUP1 CALLDATASIZE SUB DUP2 ADD SWAP1 PUSH2 0x232 SWAP2 SWAP1 PUSH2 0x2075 JUMP JUMPDEST PUSH2 0xA72 JUMP JUMPDEST PUSH1 0x40 MLOAD PUSH2 0x244 SWAP2 SWAP1 PUSH2 0x18E8 JUMP JUMPDEST PUSH1 0x40 MLOAD DUP1 SWAP2 SUB SWAP1 RETURN JUMPDEST PUSH2 0x267 PUSH1 0x4 DUP1 CALLDATASIZE SUB DUP2 ADD SWAP1 PUSH2 0x262 SWAP2 SWAP1 PUSH2 0x20B3 JUMP JUMPDEST PUSH2 0xA9C JUMP JUMPDEST STOP JUMPDEST PUSH0 PUSH1 0x20 MSTORE DUP2 PUSH0 MSTORE PUSH1 0x40 PUSH0 KECCAK256 PUSH1 0x20 MSTORE DUP1 PUSH0 MSTORE PUSH1 0x40 PUSH0 KECCAK256 PUSH0 SWAP2 POP SWAP2 POP POP SLOAD DUP2 JUMP JUMPDEST PUSH0 PUSH4 0x1FFC9A7 PUSH1 0xE0 SHL DUP3 PUSH28 0xFFFFFFFFFFFFFFFFFFFFFFFFFFFFFFFFFFFFFFFFFFFFFFFFFFFFFFFF NOT AND EQ DUP1 PUSH2 0x2E2 JUMPI POP PUSH4 0xD9B67A26 PUSH1 0xE0 SHL DUP3 PUSH28 0xFFFFFFFFFFFFFFFFFFFFFFFFFFFFFFFFFFFFFFFFFFFFFFFFFFFFFFFF NOT AND EQ JUMPDEST DUP1 PUSH2 0x312 JUMPI POP PUSH4 0xE89341C PUSH1 0xE0 SHL DUP3 PUSH28 0xFFFFFFFFFFFFFFFFFFFFFFFFFFFFFFFFFFFFFFFFFFFFFFFFFFFFFFFF NOT AND EQ JUMPDEST SWAP1 POP SWAP2 SWAP1 POP JUMP JUMPDEST PUSH2 0x325 CALLER DUP5 DUP5 DUP5 PUSH2 0xE75 JUMP JUMPDEST POP POP POP JUMP JUMPDEST PUSH1 0x60 SWAP2 SWAP1 POP JUMP JUMPDEST PUSH2 0x33E CALLER DUP6 DUP6 DUP6 DUP6 PUSH2 0x10EF JUMP JUMPDEST POP POP POP POP JUMP JUMPDEST DUP8 PUSH20 0xFFFFFFFFFFFFFFFFFFFFFFFFFFFFFFFFFFFFFFFF AND CALLER PUSH20 0xFFFFFFFFFFFFFFFFFFFFFFFFFFFFFFFFFFFFFFFF AND EQ DUP1 PUSH2 0x3FF JUMPI POP PUSH1 0x1 PUSH0 DUP10 PUSH20 0xFFFFFFFFFFFFFFFFFFFFFFFFFFFFFFFFFFFFFFFF AND PUSH20 0xFFFFFFFFFFFFFFFFFFFFFFFFFFFFFFFFFFFFFFFF AND DUP2 MSTORE PUSH1 0x20 ADD SWAP1 DUP2 MSTORE PUSH1 0x20 ADD PUSH0 KECCAK256 PUSH0 CALLER PUSH20 0xFFFFFFFFFFFFFFFFFFFFFFFFFFFFFFFFFFFFFFFF AND PUSH20 0xFFFFFFFFFFFFFFFFFFFFFFFFFFFFFFFFFFFFFFFF AND DUP2 MSTORE PUSH1 0x20 ADD SWAP1 DUP2 MSTORE PUSH1 0x20 ADD PUSH0 KECCAK256 PUSH0 SWAP1 SLOAD SWAP1 PUSH2 0x100 EXP SWAP1 DIV PUSH1 0xFF AND JUMPDEST PUSH2 0x43E JUMPI PUSH1 0x40 MLOAD PUSH32 0x8C379A000000000000000000000000000000000000000000000000000000000 DUP2 MSTORE PUSH1 0x4 ADD PUSH2 0x435 SWAP1 PUSH2 0x2193 JUMP JUMPDEST PUSH1 0x40 MLOAD DUP1 SWAP2 SUB SWAP1 REVERT JUMPDEST PUSH0 PUSH20 0xFFFFFFFFFFFFFFFFFFFFFFFFFFFFFFFFFFFFFFFF AND DUP8 PUSH20 0xFFFFFFFFFFFFFFFFFFFFFFFFFFFFFFFFFFFFFFFF AND SUB PUSH2 0x4AC JUMPI PUSH1 0x40 MLOAD PUSH32 0x8C379A000000000000000000000000000000000000000000000000000000000 DUP2 MSTORE PUSH1 0x4 ADD PUSH2 0x4A3 SWAP1 PUSH2 0x21FB JUMP JUMPDEST PUSH1 0x40 MLOAD DUP1 SWAP2 SUB SWAP1 REVERT JUMPDEST DUP4 DUP4 SWAP1 POP DUP7 DUP7 SWAP1 POP EQ PUSH2 0x4F4 JUMPI PUSH1 0x40 MLOAD PUSH32 0x8C379A000000000000000000000000000000000000000000000000000000000 DUP2 MSTORE PUSH1 0x4 ADD PUSH2 0x4EB SWAP1 PUSH2 0x2263 JUMP JUMPDEST PUSH1 0x40 MLOAD DUP1 SWAP2 SUB SWAP1 REVERT JUMPDEST PUSH0 JUMPDEST DUP7 DUP7 SWAP1 POP DUP2 LT ISZERO PUSH2 0x634 JUMPI DUP5 DUP5 DUP3 DUP2 DUP2 LT PUSH2 0x514 JUMPI PUSH2 0x513 PUSH2 0x2281 JUMP JUMPDEST JUMPDEST SWAP1 POP PUSH1 0x20 MUL ADD CALLDATALOAD PUSH0 DUP1 DUP12 PUSH20 0xFFFFFFFFFFFFFFFFFFFFFFFFFFFFFFFFFFFFFFFF AND PUSH20 0xFFFFFFFFFFFFFFFFFFFFFFFFFFFFFFFFFFFFFFFF AND DUP2 MSTORE PUSH1 0x20 ADD SWAP1 DUP2 MSTORE PUSH1 0x20 ADD PUSH0 KECCAK256 PUSH0 DUP10 DUP10 DUP6 DUP2 DUP2 LT PUSH2 0x56B JUMPI PUSH2 0x56A PUSH2 0x2281 JUMP JUMPDEST JUMPDEST SWAP1 POP PUSH1 0x20 MUL ADD CALLDATALOAD DUP2 MSTORE PUSH1 0x20 ADD SWAP1 DUP2 MSTORE PUSH1 0x20 ADD PUSH0 KECCAK256 PUSH0 DUP3 DUP3 SLOAD PUSH2 0x58D SWAP2 SWAP1 PUSH2 0x22DB JUMP JUMPDEST SWAP3 POP POP DUP2 SWAP1 SSTORE POP DUP5 DUP5 DUP3 DUP2 DUP2 LT PUSH2 0x5A7 JUMPI PUSH2 0x5A6 PUSH2 0x2281 JUMP JUMPDEST JUMPDEST SWAP1 POP PUSH1 0x20 MUL ADD CALLDATALOAD PUSH0 DUP1 DUP11 PUSH20 0xFFFFFFFFFFFFFFFFFFFFFFFFFFFFFFFFFFFFFFFF AND PUSH20 0xFFFFFFFFFFFFFFFFFFFFFFFFFFFFFFFFFFFFFFFF AND DUP2 MSTORE PUSH1 0x20 ADD SWAP1 DUP2 MSTORE PUSH1 0x20 ADD PUSH0 KECCAK256 PUSH0 DUP10 DUP10 DUP6 DUP2 DUP2 LT PUSH2 0x5FE JUMPI PUSH2 0x5FD PUSH2 0x2281 JUMP JUMPDEST JUMPDEST SWAP1 POP PUSH1 0x20 MUL ADD CALLDATALOAD DUP2 MSTORE PUSH1 0x20 ADD SWAP1 DUP2 MSTORE PUSH1 0x20 ADD PUSH0 KECCAK256 PUSH0 DUP3 DUP3 SLOAD PUSH2 0x620 SWAP2 SWAP1 PUSH2 0x230E JUMP JUMPDEST SWAP3 POP POP DUP2 SWAP1 SSTORE POP DUP1 DUP1 PUSH1 0x1 ADD SWAP2 POP POP PUSH2 0x4F6 JUMP JUMPDEST POP DUP7 PUSH20 0xFFFFFFFFFFFFFFFFFFFFFFFFFFFFFFFFFFFFFFFF AND DUP9 PUSH20 0xFFFFFFFFFFFFFFFFFFFFFFFFFFFFFFFFFFFFFFFF AND CALLER PUSH20 0xFFFFFFFFFFFFFFFFFFFFFFFFFFFFFFFFFFFFFFFF AND PUSH32 0x4A39DC06D4C0DBC64B70AF90FD698A233A518AA5D07E595D983B8C0526C8F7FB DUP10 DUP10 DUP10 DUP10 PUSH1 0x40 MLOAD PUSH2 0x6AF SWAP5 SWAP4 SWAP3 SWAP2 SWAP1 PUSH2 0x23A9 JUMP JUMPDEST PUSH1 0x40 MLOAD DUP1 SWAP2 SUB SWAP1 LOG4 PUSH0 DUP8 PUSH20 0xFFFFFFFFFFFFFFFFFFFFFFFFFFFFFFFFFFFFFFFF AND EXTCODESIZE GT ISZERO PUSH2 0x7E4 JUMPI PUSH4 0xBC197C81 PUSH1 0xE0 SHL PUSH28 0xFFFFFFFFFFFFFFFFFFFFFFFFFFFFFFFFFFFFFFFFFFFFFFFFFFFFFFFF NOT AND DUP8 PUSH20 0xFFFFFFFFFFFFFFFFFFFFFFFFFFFFFFFFFFFFFFFF AND PUSH4 0xBC197C81 CALLER DUP12 DUP11 DUP11 DUP11 DUP11 DUP11 DUP11 PUSH1 0x40 MLOAD DUP10 PUSH4 0xFFFFFFFF AND PUSH1 0xE0 SHL DUP2 MSTORE PUSH1 0x4 ADD PUSH2 0x744 SWAP9 SWAP8 SWAP7 SWAP6 SWAP5 SWAP4 SWAP3 SWAP2 SWAP1 PUSH2 0x242D JUMP JUMPDEST PUSH1 0x20 PUSH1 0x40 MLOAD DUP1 DUP4 SUB DUP2 PUSH0 DUP8 GAS CALL ISZERO DUP1 ISZERO PUSH2 0x760 JUMPI RETURNDATASIZE PUSH0 DUP1 RETURNDATACOPY RETURNDATASIZE PUSH0 REVERT JUMPDEST POP POP POP POP PUSH1 0x40 MLOAD RETURNDATASIZE PUSH1 0x1F NOT PUSH1 0x1F DUP3 ADD AND DUP3 ADD DUP1 PUSH1 0x40 MSTORE POP DUP2 ADD SWAP1 PUSH2 0x784 SWAP2 SWAP1 PUSH2 0x24AD JUMP JUMPDEST PUSH28 0xFFFFFFFFFFFFFFFFFFFFFFFFFFFFFFFFFFFFFFFFFFFFFFFFFFFFFFFF NOT AND EQ PUSH2 0x7E3 JUMPI PUSH1 0x40 MLOAD PUSH32 0x8C379A000000000000000000000000000000000000000000000000000000000 DUP2 MSTORE PUSH1 0x4 ADD PUSH2 0x7DA SWAP1 PUSH2 0x2522 JUMP JUMPDEST PUSH1 0x40 MLOAD DUP1 SWAP2 SUB SWAP1 REVERT JUMPDEST JUMPDEST POP POP POP POP POP POP POP POP JUMP JUMPDEST PUSH1 0x60 DUP3 DUP3 SWAP1 POP DUP6 DUP6 SWAP1 POP EQ PUSH2 0x838 JUMPI PUSH1 0x40 MLOAD PUSH32 0x8C379A000000000000000000000000000000000000000000000000000000000 DUP2 MSTORE PUSH1 0x4 ADD PUSH2 0x82F SWAP1 PUSH2 0x258A JUMP JUMPDEST PUSH1 0x40 MLOAD DUP1 SWAP2 SUB SWAP1 REVERT JUMPDEST DUP5 DUP5 SWAP1 POP PUSH8 0xFFFFFFFFFFFFFFFF DUP2 GT ISZERO PUSH2 0x855 JUMPI PUSH2 0x854 PUSH2 0x1919 JUMP JUMPDEST JUMPDEST PUSH1 0x40 MLOAD SWAP1 DUP1 DUP3 MSTORE DUP1 PUSH1 0x20 MUL PUSH1 0x20 ADD DUP3 ADD PUSH1 0x40 MSTORE DUP1 ISZERO PUSH2 0x883 JUMPI DUP2 PUSH1 0x20 ADD PUSH1 0x20 DUP3 MUL DUP1 CALLDATASIZE DUP4 CALLDATACOPY DUP1 DUP3 ADD SWAP2 POP POP SWAP1 POP JUMPDEST POP SWAP1 POP PUSH0 JUMPDEST DUP6 DUP6 SWAP1 POP DUP2 LT ISZERO PUSH2 0x94B JUMPI PUSH0 DUP1 DUP8 DUP8 DUP5 DUP2 DUP2 LT PUSH2 0x8A8 JUMPI PUSH2 0x8A7 PUSH2 0x2281 JUMP JUMPDEST JUMPDEST SWAP1 POP PUSH1 0x20 MUL ADD PUSH1 0x20 DUP2 ADD SWAP1 PUSH2 0x8BD SWAP2 SWAP1 PUSH2 0x25A8 JUMP JUMPDEST PUSH20 0xFFFFFFFFFFFFFFFFFFFFFFFFFFFFFFFFFFFFFFFF AND PUSH20 0xFFFFFFFFFFFFFFFFFFFFFFFFFFFFFFFFFFFFFFFF AND DUP2 MSTORE PUSH1 0x20 ADD SWAP1 DUP2 MSTORE PUSH1 0x20 ADD PUSH0 KECCAK256 PUSH0 DUP6 DUP6 DUP5 DUP2 DUP2 LT PUSH2 0x90A JUMPI PUSH2 0x909 PUSH2 0x2281 JUMP JUMPDEST JUMPDEST SWAP1 POP PUSH1 0x20 MUL ADD CALLDATALOAD DUP2 MSTORE PUSH1 0x20 ADD SWAP1 DUP2 MSTORE PUSH1 0x20 ADD PUSH0 KECCAK256 SLOAD DUP3 DUP3 DUP2 MLOAD DUP2 LT PUSH2 0x932 JUMPI PUSH2 0x931 PUSH2 0x2281 JUMP JUMPDEST JUMPDEST PUSH1 0x20 MUL PUSH1 0x20 ADD ADD DUP2 DUP2 MSTORE POP POP DUP1 DUP1 PUSH1 0x1 ADD SWAP2 POP POP PUSH2 0x888 JUMP JUMPDEST POP SWAP5 SWAP4 POP POP POP POP JUMP JUMPDEST DUP1 PUSH1 0x1 PUSH0 CALLER PUSH20 0xFFFFFFFFFFFFFFFFFFFFFFFFFFFFFFFFFFFFFFFF AND PUSH20 0xFFFFFFFFFFFFFFFFFFFFFFFFFFFFFFFFFFFFFFFF AND DUP2 MSTORE PUSH1 0x20 ADD SWAP1 DUP2 MSTORE PUSH1 0x20 ADD PUSH0 KECCAK256 PUSH0 DUP5 PUSH20 0xFFFFFFFFFFFFFFFFFFFFFFFFFFFFFFFFFFFFFFFF AND PUSH20 0xFFFFFFFFFFFFFFFFFFFFFFFFFFFFFFFFFFFFFFFF AND DUP2 MSTORE PUSH1 0x20 ADD SWAP1 DUP2 MSTORE PUSH1 0x20 ADD PUSH0 KECCAK256 PUSH0 PUSH2 0x100 EXP DUP2 SLOAD DUP2 PUSH1 0xFF MUL NOT AND SWAP1 DUP4 ISZERO ISZERO MUL OR SWAP1 SSTORE POP DUP2 PUSH20 0xFFFFFFFFFFFFFFFFFFFFFFFFFFFFFFFFFFFFFFFF AND CALLER PUSH20 0xFFFFFFFFFFFFFFFFFFFFFFFFFFFFFFFFFFFFFFFF AND PUSH32 0x17307EAB39AB6107E8899845AD3D59BD9653F200F220920489CA2B5937696C31 DUP4 PUSH1 0x40 MLOAD PUSH2 0xA40 SWAP2 SWAP1 PUSH2 0x18E8 JUMP JUMPDEST PUSH1 0x40 MLOAD DUP1 SWAP2 SUB SWAP1 LOG3 POP POP JUMP JUMPDEST PUSH2 0xA57 CALLER DUP4 DUP4 PUSH2 0x12DC JUMP JUMPDEST POP POP JUMP JUMPDEST PUSH2 0xA6A CALLER DUP8 DUP8 DUP8 DUP8 DUP8 DUP8 PUSH2 0x142E JUMP JUMPDEST POP POP POP POP POP POP JUMP JUMPDEST PUSH1 0x1 PUSH1 0x20 MSTORE DUP2 PUSH0 MSTORE PUSH1 0x40 PUSH0 KECCAK256 PUSH1 0x20 MSTORE DUP1 PUSH0 MSTORE PUSH1 0x40 PUSH0 KECCAK256 PUSH0 SWAP2 POP SWAP2 POP SWAP1 SLOAD SWAP1 PUSH2 0x100 EXP SWAP1 DIV PUSH1 0xFF AND DUP2 JUMP JUMPDEST DUP6 PUSH20 0xFFFFFFFFFFFFFFFFFFFFFFFFFFFFFFFFFFFFFFFF AND CALLER PUSH20 0xFFFFFFFFFFFFFFFFFFFFFFFFFFFFFFFFFFFFFFFF AND EQ DUP1 PUSH2 0xB57 JUMPI POP PUSH1 0x1 PUSH0 DUP8 PUSH20 0xFFFFFFFFFFFFFFFFFFFFFFFFFFFFFFFFFFFFFFFF AND PUSH20 0xFFFFFFFFFFFFFFFFFFFFFFFFFFFFFFFFFFFFFFFF AND DUP2 MSTORE PUSH1 0x20 ADD SWAP1 DUP2 MSTORE PUSH1 0x20 ADD PUSH0 KECCAK256 PUSH0 CALLER PUSH20 0xFFFFFFFFFFFFFFFFFFFFFFFFFFFFFFFFFFFFFFFF AND PUSH20 0xFFFFFFFFFFFFFFFFFFFFFFFFFFFFFFFFFFFFFFFF AND DUP2 MSTORE PUSH1 0x20 ADD SWAP1 DUP2 MSTORE PUSH1 0x20 ADD PUSH0 KECCAK256 PUSH0 SWAP1 SLOAD SWAP1 PUSH2 0x100 EXP SWAP1 DIV PUSH1 0xFF AND JUMPDEST PUSH2 0xB96 JUMPI PUSH1 0x40 MLOAD PUSH32 0x8C379A000000000000000000000000000000000000000000000000000000000 DUP2 MSTORE PUSH1 0x4 ADD PUSH2 0xB8D SWAP1 PUSH2 0x2193 JUMP JUMPDEST PUSH1 0x40 MLOAD DUP1 SWAP2 SUB SWAP1 REVERT JUMPDEST PUSH0 PUSH20 0xFFFFFFFFFFFFFFFFFFFFFFFFFFFFFFFFFFFFFFFF AND DUP6 PUSH20 0xFFFFFFFFFFFFFFFFFFFFFFFFFFFFFFFFFFFFFFFF AND SUB PUSH2 0xC04 JUMPI PUSH1 0x40 MLOAD PUSH32 0x8C379A000000000000000000000000000000000000000000000000000000000 DUP2 MSTORE PUSH1 0x4 ADD PUSH2 0xBFB SWAP1 PUSH2 0x21FB JUMP JUMPDEST PUSH1 0x40 MLOAD DUP1 SWAP2 SUB SWAP1 REVERT JUMPDEST DUP3 PUSH0 DUP1 DUP9 PUSH20 0xFFFFFFFFFFFFFFFFFFFFFFFFFFFFFFFFFFFFFFFF AND PUSH20 0xFFFFFFFFFFFFFFFFFFFFFFFFFFFFFFFFFFFFFFFF AND DUP2 MSTORE PUSH1 0x20 ADD SWAP1 DUP2 MSTORE PUSH1 0x20 ADD PUSH0 KECCAK256 PUSH0 DUP7 DUP2 MSTORE PUSH1 0x20 ADD SWAP1 DUP2 MSTORE PUSH1 0x20 ADD PUSH0 KECCAK256 PUSH0 DUP3 DUP3 SLOAD PUSH2 0xC5E SWAP2 SWAP1 PUSH2 0x22DB JUMP JUMPDEST SWAP3 POP POP DUP2 SWAP1 SSTORE POP DUP3 PUSH0 DUP1 DUP8 PUSH20 0xFFFFFFFFFFFFFFFFFFFFFFFFFFFFFFFFFFFFFFFF AND PUSH20 0xFFFFFFFFFFFFFFFFFFFFFFFFFFFFFFFFFFFFFFFF AND DUP2 MSTORE PUSH1 0x20 ADD SWAP1 DUP2 MSTORE PUSH1 0x20 ADD PUSH0 KECCAK256 PUSH0 DUP7 DUP2 MSTORE PUSH1 0x20 ADD SWAP1 DUP2 MSTORE PUSH1 0x20 ADD PUSH0 KECCAK256 PUSH0 DUP3 DUP3 SLOAD PUSH2 0xCBF SWAP2 SWAP1 PUSH2 0x230E JUMP JUMPDEST SWAP3 POP POP DUP2 SWAP1 SSTORE POP DUP5 PUSH20 0xFFFFFFFFFFFFFFFFFFFFFFFFFFFFFFFFFFFFFFFF AND DUP7 PUSH20 0xFFFFFFFFFFFFFFFFFFFFFFFFFFFFFFFFFFFFFFFF AND CALLER PUSH20 0xFFFFFFFFFFFFFFFFFFFFFFFFFFFFFFFFFFFFFFFF AND PUSH32 0xC3D58168C5AE7397731D063D5BBF3D657854427343F4C083240F7AACAA2D0F62 DUP8 DUP8 PUSH1 0x40 MLOAD PUSH2 0xD3C SWAP3 SWAP2 SWAP1 PUSH2 0x25D3 JUMP JUMPDEST PUSH1 0x40 MLOAD DUP1 SWAP2 SUB SWAP1 LOG4 PUSH0 DUP6 PUSH20 0xFFFFFFFFFFFFFFFFFFFFFFFFFFFFFFFFFFFFFFFF AND EXTCODESIZE GT ISZERO PUSH2 0xE6D JUMPI PUSH4 0xF23A6E61 PUSH1 0xE0 SHL PUSH28 0xFFFFFFFFFFFFFFFFFFFFFFFFFFFFFFFFFFFFFFFFFFFFFFFFFFFFFFFF NOT AND DUP6 PUSH20 0xFFFFFFFFFFFFFFFFFFFFFFFFFFFFFFFFFFFFFFFF AND PUSH4 0xF23A6E61 CALLER DUP10 DUP9 DUP9 DUP9 DUP9 PUSH1 0x40 MLOAD DUP8 PUSH4 0xFFFFFFFF AND PUSH1 0xE0 SHL DUP2 MSTORE PUSH1 0x4 ADD PUSH2 0xDCD SWAP7 SWAP6 SWAP5 SWAP4 SWAP3 SWAP2 SWAP1 PUSH2 0x25FA JUMP JUMPDEST PUSH1 0x20 PUSH1 0x40 MLOAD DUP1 DUP4 SUB DUP2 PUSH0 DUP8 GAS CALL ISZERO DUP1 ISZERO PUSH2 0xDE9 JUMPI RETURNDATASIZE PUSH0 DUP1 RETURNDATACOPY RETURNDATASIZE PUSH0 REVERT JUMPDEST POP POP POP POP PUSH1 0x40 MLOAD RETURNDATASIZE PUSH1 0x1F NOT PUSH1 0x1F DUP3 ADD AND DUP3 ADD DUP1 PUSH1 0x40 MSTORE POP DUP2 ADD SWAP1 PUSH2 0xE0D SWAP2 SWAP1 PUSH2 0x24AD JUMP JUMPDEST PUSH28 0xFFFFFFFFFFFFFFFFFFFFFFFFFFFFFFFFFFFFFFFFFFFFFFFFFFFFFFFF NOT AND EQ PUSH2 0xE6C JUMPI PUSH1 0x40 MLOAD PUSH32 0x8C379A000000000000000000000000000000000000000000000000000000000 DUP2 MSTORE PUSH1 0x4 ADD PUSH2 0xE63 SWAP1 PUSH2 0x2522 JUMP JUMPDEST PUSH1 0x40 MLOAD DUP1 SWAP2 SUB SWAP1 REVERT JUMPDEST JUMPDEST POP POP POP POP POP POP JUMP JUMPDEST PUSH0 PUSH20 0xFFFFFFFFFFFFFFFFFFFFFFFFFFFFFFFFFFFFFFFF AND DUP5 PUSH20 0xFFFFFFFFFFFFFFFFFFFFFFFFFFFFFFFFFFFFFFFF AND SUB PUSH2 0xEE3 JUMPI PUSH1 0x40 MLOAD PUSH32 0x8C379A000000000000000000000000000000000000000000000000000000000 DUP2 MSTORE PUSH1 0x4 ADD PUSH2 0xEDA SWAP1 PUSH2 0x21FB JUMP JUMPDEST PUSH1 0x40 MLOAD DUP1 SWAP2 SUB SWAP1 REVERT JUMPDEST DUP2 PUSH0 DUP1 DUP7 PUSH20 0xFFFFFFFFFFFFFFFFFFFFFFFFFFFFFFFFFFFFFFFF AND PUSH20 0xFFFFFFFFFFFFFFFFFFFFFFFFFFFFFFFFFFFFFFFF AND DUP2 MSTORE PUSH1 0x20 ADD SWAP1 DUP2 MSTORE PUSH1 0x20 ADD PUSH0 KECCAK256 PUSH0 DUP6 DUP2 MSTORE PUSH1 0x20 ADD SWAP1 DUP2 MSTORE PUSH1 0x20 ADD PUSH0 KECCAK256 PUSH0 DUP3 DUP3 SLOAD PUSH2 0xF3D SWAP2 SWAP1 PUSH2 0x230E JUMP JUMPDEST SWAP3 POP POP DUP2 SWAP1 SSTORE POP DUP4 PUSH20 0xFFFFFFFFFFFFFFFFFFFFFFFFFFFFFFFFFFFFFFFF AND PUSH0 PUSH20 0xFFFFFFFFFFFFFFFFFFFFFFFFFFFFFFFFFFFFFFFF AND CALLER PUSH20 0xFFFFFFFFFFFFFFFFFFFFFFFFFFFFFFFFFFFFFFFF AND PUSH32 0xC3D58168C5AE7397731D063D5BBF3D657854427343F4C083240F7AACAA2D0F62 DUP7 DUP7 PUSH1 0x40 MLOAD PUSH2 0xFBA SWAP3 SWAP2 SWAP1 PUSH2 0x25D3 JUMP JUMPDEST PUSH1 0x40 MLOAD DUP1 SWAP2 SUB SWAP1 LOG4 PUSH0 DUP5 PUSH20 0xFFFFFFFFFFFFFFFFFFFFFFFFFFFFFFFFFFFFFFFF AND EXTCODESIZE GT ISZERO PUSH2 0x10E9 JUMPI PUSH4 0xF23A6E61 PUSH1 0xE0 SHL PUSH28 0xFFFFFFFFFFFFFFFFFFFFFFFFFFFFFFFFFFFFFFFFFFFFFFFFFFFFFFFF NOT AND DUP5 PUSH20 0xFFFFFFFFFFFFFFFFFFFFFFFFFFFFFFFFFFFFFFFF AND PUSH4 0xF23A6E61 CALLER PUSH0 DUP8 DUP8 DUP8 PUSH1 0x40 MLOAD DUP7 PUSH4 0xFFFFFFFF AND PUSH1 0xE0 SHL DUP2 MSTORE PUSH1 0x4 ADD PUSH2 0x1049 SWAP6 SWAP5 SWAP4 SWAP3 SWAP2 SWAP1 PUSH2 0x2696 JUMP JUMPDEST PUSH1 0x20 PUSH1 0x40 MLOAD DUP1 DUP4 SUB DUP2 PUSH0 DUP8 GAS CALL ISZERO DUP1 ISZERO PUSH2 0x1065 JUMPI RETURNDATASIZE PUSH0 DUP1 RETURNDATACOPY RETURNDATASIZE PUSH0 REVERT JUMPDEST POP POP POP POP PUSH1 0x40 MLOAD RETURNDATASIZE PUSH1 0x1F NOT PUSH1 0x1F DUP3 ADD AND DUP3 ADD DUP1 PUSH1 0x40 MSTORE POP DUP2 ADD SWAP1 PUSH2 0x1089 SWAP2 SWAP1 PUSH2 0x24AD JUMP JUMPDEST PUSH28 0xFFFFFFFFFFFFFFFFFFFFFFFFFFFFFFFFFFFFFFFFFFFFFFFFFFFFFFFF NOT AND EQ PUSH2 0x10E8 JUMPI PUSH1 0x40 MLOAD PUSH32 0x8C379A000000000000000000000000000000000000000000000000000000000 DUP2 MSTORE PUSH1 0x4 ADD PUSH2 0x10DF SWAP1 PUSH2 0x2522 JUMP JUMPDEST PUSH1 0x40 MLOAD DUP1 SWAP2 SUB SWAP1 REVERT JUMPDEST JUMPDEST POP POP POP POP JUMP JUMPDEST PUSH0 PUSH20 0xFFFFFFFFFFFFFFFFFFFFFFFFFFFFFFFFFFFFFFFF AND DUP6 PUSH20 0xFFFFFFFFFFFFFFFFFFFFFFFFFFFFFFFFFFFFFFFF AND SUB PUSH2 0x115D JUMPI PUSH1 0x40 MLOAD PUSH32 0x8C379A000000000000000000000000000000000000000000000000000000000 DUP2 MSTORE PUSH1 0x4 ADD PUSH2 0x1154 SWAP1 PUSH2 0x2738 JUMP JUMPDEST PUSH1 0x40 MLOAD DUP1 SWAP2 SUB SWAP1 REVERT JUMPDEST DUP2 DUP2 SWAP1 POP DUP5 DUP5 SWAP1 POP EQ PUSH2 0x11A5 JUMPI PUSH1 0x40 MLOAD PUSH32 0x8C379A000000000000000000000000000000000000000000000000000000000 DUP2 MSTORE PUSH1 0x4 ADD PUSH2 0x119C SWAP1 PUSH2 0x2263 JUMP JUMPDEST PUSH1 0x40 MLOAD DUP1 SWAP2 SUB SWAP1 REVERT JUMPDEST PUSH0 JUMPDEST DUP5 DUP5 SWAP1 POP DUP2 LT ISZERO PUSH2 0x1252 JUMPI DUP3 DUP3 DUP3 DUP2 DUP2 LT PUSH2 0x11C5 JUMPI PUSH2 0x11C4 PUSH2 0x2281 JUMP JUMPDEST JUMPDEST SWAP1 POP PUSH1 0x20 MUL ADD CALLDATALOAD PUSH0 DUP1 DUP9 PUSH20 0xFFFFFFFFFFFFFFFFFFFFFFFFFFFFFFFFFFFFFFFF AND PUSH20 0xFFFFFFFFFFFFFFFFFFFFFFFFFFFFFFFFFFFFFFFF AND DUP2 MSTORE PUSH1 0x20 ADD SWAP1 DUP2 MSTORE PUSH1 0x20 ADD PUSH0 KECCAK256 PUSH0 DUP8 DUP8 DUP6 DUP2 DUP2 LT PUSH2 0x121C JUMPI PUSH2 0x121B PUSH2 0x2281 JUMP JUMPDEST JUMPDEST SWAP1 POP PUSH1 0x20 MUL ADD CALLDATALOAD DUP2 MSTORE PUSH1 0x20 ADD SWAP1 DUP2 MSTORE PUSH1 0x20 ADD PUSH0 KECCAK256 PUSH0 DUP3 DUP3 SLOAD PUSH2 0x123E SWAP2 SWAP1 PUSH2 0x22DB JUMP JUMPDEST SWAP3 POP POP DUP2 SWAP1 SSTORE POP DUP1 DUP1 PUSH1 0x1 ADD SWAP2 POP POP PUSH2 0x11A7 JUMP JUMPDEST POP PUSH0 PUSH20 0xFFFFFFFFFFFFFFFFFFFFFFFFFFFFFFFFFFFFFFFF AND DUP6 PUSH20 0xFFFFFFFFFFFFFFFFFFFFFFFFFFFFFFFFFFFFFFFF AND CALLER PUSH20 0xFFFFFFFFFFFFFFFFFFFFFFFFFFFFFFFFFFFFFFFF AND PUSH32 0x4A39DC06D4C0DBC64B70AF90FD698A233A518AA5D07E595D983B8C0526C8F7FB DUP8 DUP8 DUP8 DUP8 PUSH1 0x40 MLOAD PUSH2 0x12CD SWAP5 SWAP4 SWAP3 SWAP2 SWAP1 PUSH2 0x23A9 JUMP JUMPDEST PUSH1 0x40 MLOAD DUP1 SWAP2 SUB SWAP1 LOG4 POP POP POP POP POP JUMP JUMPDEST PUSH0 PUSH20 0xFFFFFFFFFFFFFFFFFFFFFFFFFFFFFFFFFFFFFFFF AND DUP4 PUSH20 0xFFFFFFFFFFFFFFFFFFFFFFFFFFFFFFFFFFFFFFFF AND SUB PUSH2 0x134A JUMPI PUSH1 0x40 MLOAD PUSH32 0x8C379A000000000000000000000000000000000000000000000000000000000 DUP2 MSTORE PUSH1 0x4 ADD PUSH2 0x1341 SWAP1 PUSH2 0x2738 JUMP JUMPDEST PUSH1 0x40 MLOAD DUP1 SWAP2 SUB SWAP1 REVERT JUMPDEST DUP1 PUSH0 DUP1 DUP6 PUSH20 0xFFFFFFFFFFFFFFFFFFFFFFFFFFFFFFFFFFFFFFFF AND PUSH20 0xFFFFFFFFFFFFFFFFFFFFFFFFFFFFFFFFFFFFFFFF AND DUP2 MSTORE PUSH1 0x20 ADD SWAP1 DUP2 MSTORE PUSH1 0x20 ADD PUSH0 KECCAK256 PUSH0 DUP5 DUP2 MSTORE PUSH1 0x20 ADD SWAP1 DUP2 MSTORE PUSH1 0x20 ADD PUSH0 KECCAK256 PUSH0 DUP3 DUP3 SLOAD PUSH2 0x13A4 SWAP2 SWAP1 PUSH2 0x22DB JUMP JUMPDEST SWAP3 POP POP DUP2 SWAP1 SSTORE POP PUSH0 PUSH20 0xFFFFFFFFFFFFFFFFFFFFFFFFFFFFFFFFFFFFFFFF AND DUP4 PUSH20 0xFFFFFFFFFFFFFFFFFFFFFFFFFFFFFFFFFFFFFFFF AND CALLER PUSH20 0xFFFFFFFFFFFFFFFFFFFFFFFFFFFFFFFFFFFFFFFF AND PUSH32 0xC3D58168C5AE7397731D063D5BBF3D657854427343F4C083240F7AACAA2D0F62 DUP6 DUP6 PUSH1 0x40 MLOAD PUSH2 0x1421 SWAP3 SWAP2 SWAP1 PUSH2 0x25D3 JUMP JUMPDEST PUSH1 0x40 MLOAD DUP1 SWAP2 SUB SWAP1 LOG4 POP POP POP JUMP JUMPDEST PUSH0 PUSH20 0xFFFFFFFFFFFFFFFFFFFFFFFFFFFFFFFFFFFFFFFF AND DUP8 PUSH20 0xFFFFFFFFFFFFFFFFFFFFFFFFFFFFFFFFFFFFFFFF AND SUB PUSH2 0x149C JUMPI PUSH1 0x40 MLOAD PUSH32 0x8C379A000000000000000000000000000000000000000000000000000000000 DUP2 MSTORE PUSH1 0x4 ADD PUSH2 0x1493 SWAP1 PUSH2 0x21FB JUMP JUMPDEST PUSH1 0x40 MLOAD DUP1 SWAP2 SUB SWAP1 REVERT JUMPDEST DUP4 DUP4 SWAP1 POP DUP7 DUP7 SWAP1 POP EQ PUSH2 0x14E4 JUMPI PUSH1 0x40 MLOAD PUSH32 0x8C379A000000000000000000000000000000000000000000000000000000000 DUP2 MSTORE PUSH1 0x4 ADD PUSH2 0x14DB SWAP1 PUSH2 0x2263 JUMP JUMPDEST PUSH1 0x40 MLOAD DUP1 SWAP2 SUB SWAP1 REVERT JUMPDEST PUSH0 JUMPDEST DUP7 DUP7 SWAP1 POP DUP2 LT ISZERO PUSH2 0x1591 JUMPI DUP5 DUP5 DUP3 DUP2 DUP2 LT PUSH2 0x1504 JUMPI PUSH2 0x1503 PUSH2 0x2281 JUMP JUMPDEST JUMPDEST SWAP1 POP PUSH1 0x20 MUL ADD CALLDATALOAD PUSH0 DUP1 DUP11 PUSH20 0xFFFFFFFFFFFFFFFFFFFFFFFFFFFFFFFFFFFFFFFF AND PUSH20 0xFFFFFFFFFFFFFFFFFFFFFFFFFFFFFFFFFFFFFFFF AND DUP2 MSTORE PUSH1 0x20 ADD SWAP1 DUP2 MSTORE PUSH1 0x20 ADD PUSH0 KECCAK256 PUSH0 DUP10 DUP10 DUP6 DUP2 DUP2 LT PUSH2 0x155B JUMPI PUSH2 0x155A PUSH2 0x2281 JUMP JUMPDEST JUMPDEST SWAP1 POP PUSH1 0x20 MUL ADD CALLDATALOAD DUP2 MSTORE PUSH1 0x20 ADD SWAP1 DUP2 MSTORE PUSH1 0x20 ADD PUSH0 KECCAK256 PUSH0 DUP3 DUP3 SLOAD PUSH2 0x157D SWAP2 SWAP1 PUSH2 0x230E JUMP JUMPDEST SWAP3 POP POP DUP2 SWAP1 SSTORE POP DUP1 DUP1 PUSH1 0x1 ADD SWAP2 POP POP PUSH2 0x14E6 JUMP JUMPDEST POP DUP7 PUSH20 0xFFFFFFFFFFFFFFFFFFFFFFFFFFFFFFFFFFFFFFFF AND PUSH0 PUSH20 0xFFFFFFFFFFFFFFFFFFFFFFFFFFFFFFFFFFFFFFFF AND CALLER PUSH20 0xFFFFFFFFFFFFFFFFFFFFFFFFFFFFFFFFFFFFFFFF AND PUSH32 0x4A39DC06D4C0DBC64B70AF90FD698A233A518AA5D07E595D983B8C0526C8F7FB DUP10 DUP10 DUP10 DUP10 PUSH1 0x40 MLOAD PUSH2 0x160C SWAP5 SWAP4 SWAP3 SWAP2 SWAP1 PUSH2 0x23A9 JUMP JUMPDEST PUSH1 0x40 MLOAD DUP1 SWAP2 SUB SWAP1 LOG4 PUSH0 DUP8 PUSH20 0xFFFFFFFFFFFFFFFFFFFFFFFFFFFFFFFFFFFFFFFF AND EXTCODESIZE GT ISZERO PUSH2 0x1741 JUMPI PUSH4 0xBC197C81 PUSH1 0xE0 SHL PUSH28 0xFFFFFFFFFFFFFFFFFFFFFFFFFFFFFFFFFFFFFFFFFFFFFFFFFFFFFFFF NOT AND DUP8 PUSH20 0xFFFFFFFFFFFFFFFFFFFFFFFFFFFFFFFFFFFFFFFF AND PUSH4 0xBC197C81 CALLER PUSH0 DUP11 DUP11 DUP11 DUP11 DUP11 DUP11 PUSH1 0x40 MLOAD DUP10 PUSH4 0xFFFFFFFF AND PUSH1 0xE0 SHL DUP2 MSTORE PUSH1 0x4 ADD PUSH2 0x16A1 SWAP9 SWAP8 SWAP7 SWAP6 SWAP5 SWAP4 SWAP3 SWAP2 SWAP1 PUSH2 0x242D JUMP JUMPDEST PUSH1 0x20 PUSH1 0x40 MLOAD DUP1 DUP4 SUB DUP2 PUSH0 DUP8 GAS CALL ISZERO DUP1 ISZERO PUSH2 0x16BD JUMPI RETURNDATASIZE PUSH0 DUP1 RETURNDATACOPY RETURNDATASIZE PUSH0 REVERT JUMPDEST POP POP POP POP PUSH1 0x40 MLOAD RETURNDATASIZE PUSH1 0x1F NOT PUSH1 0x1F DUP3 ADD AND DUP3 ADD DUP1 PUSH1 0x40 MSTORE POP DUP2 ADD SWAP1 PUSH2 0x16E1 SWAP2 SWAP1 PUSH2 0x24AD JUMP JUMPDEST PUSH28 0xFFFFFFFFFFFFFFFFFFFFFFFFFFFFFFFFFFFFFFFFFFFFFFFFFFFFFFFF NOT AND EQ PUSH2 0x1740 JUMPI PUSH1 0x40 MLOAD PUSH32 0x8C379A000000000000000000000000000000000000000000000000000000000 DUP2 MSTORE PUSH1 0x4 ADD PUSH2 0x1737 SWAP1 PUSH2 0x2522 JUMP JUMPDEST PUSH1 0x40 MLOAD DUP1 SWAP2 SUB SWAP1 REVERT JUMPDEST JUMPDEST POP POP POP POP POP POP POP JUMP JUMPDEST PUSH0 PUSH1 0x40 MLOAD SWAP1 POP SWAP1 JUMP JUMPDEST PUSH0 DUP1 REVERT JUMPDEST PUSH0 DUP1 REVERT JUMPDEST PUSH0 PUSH20 0xFFFFFFFFFFFFFFFFFFFFFFFFFFFFFFFFFFFFFFFF DUP3 AND SWAP1 POP SWAP2 SWAP1 POP JUMP JUMPDEST PUSH0 PUSH2 0x1784 DUP3 PUSH2 0x175B JUMP JUMPDEST SWAP1 POP SWAP2 SWAP1 POP JUMP JUMPDEST PUSH2 0x1794 DUP2 PUSH2 0x177A JUMP JUMPDEST DUP2 EQ PUSH2 0x179E JUMPI PUSH0 DUP1 REVERT JUMPDEST POP JUMP JUMPDEST PUSH0 DUP2 CALLDATALOAD SWAP1 POP PUSH2 0x17AF DUP2 PUSH2 0x178B JUMP JUMPDEST SWAP3 SWAP2 POP POP JUMP JUMPDEST PUSH0 DUP2 SWAP1 POP SWAP2 SWAP1 POP JUMP JUMPDEST PUSH2 0x17C7 DUP2 PUSH2 0x17B5 JUMP JUMPDEST DUP2 EQ PUSH2 0x17D1 JUMPI PUSH0 DUP1 REVERT JUMPDEST POP JUMP JUMPDEST PUSH0 DUP2 CALLDATALOAD SWAP1 POP PUSH2 0x17E2 DUP2 PUSH2 0x17BE JUMP JUMPDEST SWAP3 SWAP2 POP POP JUMP JUMPDEST PUSH0 DUP1 PUSH1 0x40 DUP4 DUP6 SUB SLT ISZERO PUSH2 0x17FE JUMPI PUSH2 0x17FD PUSH2 0x1753 JUMP JUMPDEST JUMPDEST PUSH0 PUSH2 0x180B DUP6 DUP3 DUP7 ADD PUSH2 0x17A1 JUMP JUMPDEST SWAP3 POP POP PUSH1 0x20 PUSH2 0x181C DUP6 DUP3 DUP7 ADD PUSH2 0x17D4 JUMP JUMPDEST SWAP2 POP POP SWAP3 POP SWAP3 SWAP1 POP JUMP JUMPDEST PUSH2 0x182F DUP2 PUSH2 0x17B5 JUMP JUMPDEST DUP3 MSTORE POP POP JUMP JUMPDEST PUSH0 PUSH1 0x20 DUP3 ADD SWAP1 POP PUSH2 0x1848 PUSH0 DUP4 ADD DUP5 PUSH2 0x1826 JUMP JUMPDEST SWAP3 SWAP2 POP POP JUMP JUMPDEST PUSH0 PUSH32 0xFFFFFFFF00000000000000000000000000000000000000000000000000000000 DUP3 AND SWAP1 POP SWAP2 SWAP1 POP JUMP JUMPDEST PUSH2 0x1882 DUP2 PUSH2 0x184E JUMP JUMPDEST DUP2 EQ PUSH2 0x188C JUMPI PUSH0 DUP1 REVERT JUMPDEST POP JUMP JUMPDEST PUSH0 DUP2 CALLDATALOAD SWAP1 POP PUSH2 0x189D DUP2 PUSH2 0x1879 JUMP JUMPDEST SWAP3 SWAP2 POP POP JUMP JUMPDEST PUSH0 PUSH1 0x20 DUP3 DUP5 SUB SLT ISZERO PUSH2 0x18B8 JUMPI PUSH2 0x18B7 PUSH2 0x1753 JUMP JUMPDEST JUMPDEST PUSH0 PUSH2 0x18C5 DUP5 DUP3 DUP6 ADD PUSH2 0x188F JUMP JUMPDEST SWAP2 POP POP SWAP3 SWAP2 POP POP JUMP JUMPDEST PUSH0 DUP2 ISZERO ISZERO SWAP1 POP SWAP2 SWAP1 POP JUMP JUMPDEST PUSH2 0x18E2 DUP2 PUSH2 0x18CE JUMP JUMPDEST DUP3 MSTORE POP POP JUMP JUMPDEST PUSH0 PUSH1 0x20 DUP3 ADD SWAP1 POP PUSH2 0x18FB PUSH0 DUP4 ADD DUP5 PUSH2 0x18D9 JUMP JUMPDEST SWAP3 SWAP2 POP POP JUMP JUMPDEST PUSH0 DUP1 REVERT JUMPDEST PUSH0 DUP1 REVERT JUMPDEST PUSH0 PUSH1 0x1F NOT PUSH1 0x1F DUP4 ADD AND SWAP1 POP SWAP2 SWAP1 POP JUMP JUMPDEST PUSH32 0x4E487B7100000000000000000000000000000000000000000000000000000000 PUSH0 MSTORE PUSH1 0x41 PUSH1 0x4 MSTORE PUSH1 0x24 PUSH0 REVERT JUMPDEST PUSH2 0x194F DUP3 PUSH2 0x1909 JUMP JUMPDEST DUP2 ADD DUP2 DUP2 LT PUSH8 0xFFFFFFFFFFFFFFFF DUP3 GT OR ISZERO PUSH2 0x196E JUMPI PUSH2 0x196D PUSH2 0x1919 JUMP JUMPDEST JUMPDEST DUP1 PUSH1 0x40 MSTORE POP POP POP JUMP JUMPDEST PUSH0 PUSH2 0x1980 PUSH2 0x174A JUMP JUMPDEST SWAP1 POP PUSH2 0x198C DUP3 DUP3 PUSH2 0x1946 JUMP JUMPDEST SWAP2 SWAP1 POP JUMP JUMPDEST PUSH0 PUSH8 0xFFFFFFFFFFFFFFFF DUP3 GT ISZERO PUSH2 0x19AB JUMPI PUSH2 0x19AA PUSH2 0x1919 JUMP JUMPDEST JUMPDEST PUSH2 0x19B4 DUP3 PUSH2 0x1909 JUMP JUMPDEST SWAP1 POP PUSH1 0x20 DUP2 ADD SWAP1 POP SWAP2 SWAP1 POP JUMP JUMPDEST DUP3 DUP2 DUP4 CALLDATACOPY PUSH0 DUP4 DUP4 ADD MSTORE POP POP POP JUMP JUMPDEST PUSH0 PUSH2 0x19E1 PUSH2 0x19DC DUP5 PUSH2 0x1991 JUMP JUMPDEST PUSH2 0x1977 JUMP JUMPDEST SWAP1 POP DUP3 DUP2 MSTORE PUSH1 0x20 DUP2 ADD DUP5 DUP5 DUP5 ADD GT ISZERO PUSH2 0x19FD JUMPI PUSH2 0x19FC PUSH2 0x1905 JUMP JUMPDEST JUMPDEST PUSH2 0x1A08 DUP5 DUP3 DUP6 PUSH2 0x19C1 JUMP JUMPDEST POP SWAP4 SWAP3 POP POP POP JUMP JUMPDEST PUSH0 DUP3 PUSH1 0x1F DUP4 ADD SLT PUSH2 0x1A24 JUMPI PUSH2 0x1A23 PUSH2 0x1901 JUMP JUMPDEST JUMPDEST DUP2 CALLDATALOAD PUSH2 0x1A34 DUP5 DUP3 PUSH1 0x20 DUP7 ADD PUSH2 0x19CF JUMP JUMPDEST SWAP2 POP POP SWAP3 SWAP2 POP POP JUMP JUMPDEST PUSH0 DUP1 PUSH0 PUSH1 0x60 DUP5 DUP7 SUB SLT ISZERO PUSH2 0x1A54 JUMPI PUSH2 0x1A53 PUSH2 0x1753 JUMP JUMPDEST JUMPDEST PUSH0 PUSH2 0x1A61 DUP7 DUP3 DUP8 ADD PUSH2 0x17D4 JUMP JUMPDEST SWAP4 POP POP PUSH1 0x20 PUSH2 0x1A72 DUP7 DUP3 DUP8 ADD PUSH2 0x17D4 JUMP JUMPDEST SWAP3 POP POP PUSH1 0x40 DUP5 ADD CALLDATALOAD PUSH8 0xFFFFFFFFFFFFFFFF DUP2 GT ISZERO PUSH2 0x1A93 JUMPI PUSH2 0x1A92 PUSH2 0x1757 JUMP JUMPDEST JUMPDEST PUSH2 0x1A9F DUP7 DUP3 DUP8 ADD PUSH2 0x1A10 JUMP JUMPDEST SWAP2 POP POP SWAP3 POP SWAP3 POP SWAP3 JUMP JUMPDEST PUSH0 PUSH1 0x20 DUP3 DUP5 SUB SLT ISZERO PUSH2 0x1ABE JUMPI PUSH2 0x1ABD PUSH2 0x1753 JUMP JUMPDEST JUMPDEST PUSH0 PUSH2 0x1ACB DUP5 DUP3 DUP6 ADD PUSH2 0x17D4 JUMP JUMPDEST SWAP2 POP POP SWAP3 SWAP2 POP POP JUMP JUMPDEST PUSH0 DUP2 MLOAD SWAP1 POP SWAP2 SWAP1 POP JUMP JUMPDEST PUSH0 DUP3 DUP3 MSTORE PUSH1 0x20 DUP3 ADD SWAP1 POP SWAP3 SWAP2 POP POP JUMP JUMPDEST PUSH0 JUMPDEST DUP4 DUP2 LT ISZERO PUSH2 0x1B0B JUMPI DUP1 DUP3 ADD MLOAD DUP2 DUP5 ADD MSTORE PUSH1 0x20 DUP2 ADD SWAP1 POP PUSH2 0x1AF0 JUMP JUMPDEST PUSH0 DUP5 DUP5 ADD MSTORE POP POP POP POP JUMP JUMPDEST PUSH0 PUSH2 0x1B20 DUP3 PUSH2 0x1AD4 JUMP JUMPDEST PUSH2 0x1B2A DUP2 DUP6 PUSH2 0x1ADE JUMP JUMPDEST SWAP4 POP PUSH2 0x1B3A DUP2 DUP6 PUSH1 0x20 DUP7 ADD PUSH2 0x1AEE JUMP JUMPDEST PUSH2 0x1B43 DUP2 PUSH2 0x1909 JUMP JUMPDEST DUP5 ADD SWAP2 POP POP SWAP3 SWAP2 POP POP JUMP JUMPDEST PUSH0 PUSH1 0x20 DUP3 ADD SWAP1 POP DUP2 DUP2 SUB PUSH0 DUP4 ADD MSTORE PUSH2 0x1B66 DUP2 DUP5 PUSH2 0x1B16 JUMP JUMPDEST SWAP1 POP SWAP3 SWAP2 POP POP JUMP JUMPDEST PUSH0 DUP1 REVERT JUMPDEST PUSH0 DUP1 REVERT JUMPDEST PUSH0 DUP1 DUP4 PUSH1 0x1F DUP5 ADD SLT PUSH2 0x1B8B JUMPI PUSH2 0x1B8A PUSH2 0x1901 JUMP JUMPDEST JUMPDEST DUP3 CALLDATALOAD SWAP1 POP PUSH8 0xFFFFFFFFFFFFFFFF DUP2 GT ISZERO PUSH2 0x1BA8 JUMPI PUSH2 0x1BA7 PUSH2 0x1B6E JUMP JUMPDEST JUMPDEST PUSH1 0x20 DUP4 ADD SWAP2 POP DUP4 PUSH1 0x20 DUP3 MUL DUP4 ADD GT ISZERO PUSH2 0x1BC4 JUMPI PUSH2 0x1BC3 PUSH2 0x1B72 JUMP JUMPDEST JUMPDEST SWAP3 POP SWAP3 SWAP1 POP JUMP JUMPDEST PUSH0 DUP1 PUSH0 DUP1 PUSH1 0x40 DUP6 DUP8 SUB SLT ISZERO PUSH2 0x1BE3 JUMPI PUSH2 0x1BE2 PUSH2 0x1753 JUMP JUMPDEST JUMPDEST PUSH0 DUP6 ADD CALLDATALOAD PUSH8 0xFFFFFFFFFFFFFFFF DUP2 GT ISZERO PUSH2 0x1C00 JUMPI PUSH2 0x1BFF PUSH2 0x1757 JUMP JUMPDEST JUMPDEST PUSH2 0x1C0C DUP8 DUP3 DUP9 ADD PUSH2 0x1B76 JUMP JUMPDEST SWAP5 POP SWAP5 POP POP PUSH1 0x20 DUP6 ADD CALLDATALOAD PUSH8 0xFFFFFFFFFFFFFFFF DUP2 GT ISZERO PUSH2 0x1C2F JUMPI PUSH2 0x1C2E PUSH2 0x1757 JUMP JUMPDEST JUMPDEST PUSH2 0x1C3B DUP8 DUP3 DUP9 ADD PUSH2 0x1B76 JUMP JUMPDEST SWAP3 POP SWAP3 POP POP SWAP3 SWAP6 SWAP2 SWAP5 POP SWAP3 POP JUMP JUMPDEST PUSH0 DUP1 DUP4 PUSH1 0x1F DUP5 ADD SLT PUSH2 0x1C5E JUMPI PUSH2 0x1C5D PUSH2 0x1901 JUMP JUMPDEST JUMPDEST DUP3 CALLDATALOAD SWAP1 POP PUSH8 0xFFFFFFFFFFFFFFFF DUP2 GT ISZERO PUSH2 0x1C7B JUMPI PUSH2 0x1C7A PUSH2 0x1B6E JUMP JUMPDEST JUMPDEST PUSH1 0x20 DUP4 ADD SWAP2 POP DUP4 PUSH1 0x1 DUP3 MUL DUP4 ADD GT ISZERO PUSH2 0x1C97 JUMPI PUSH2 0x1C96 PUSH2 0x1B72 JUMP JUMPDEST JUMPDEST SWAP3 POP SWAP3 SWAP1 POP JUMP JUMPDEST PUSH0 DUP1 PUSH0 DUP1 PUSH0 DUP1 PUSH0 DUP1 PUSH1 0xA0 DUP10 DUP12 SUB SLT ISZERO PUSH2 0x1CBA JUMPI PUSH2 0x1CB9 PUSH2 0x1753 JUMP JUMPDEST JUMPDEST PUSH0 PUSH2 0x1CC7 DUP12 DUP3 DUP13 ADD PUSH2 0x17A1 JUMP JUMPDEST SWAP9 POP POP PUSH1 0x20 PUSH2 0x1CD8 DUP12 DUP3 DUP13 ADD PUSH2 0x17A1 JUMP JUMPDEST SWAP8 POP POP PUSH1 0x40 DUP10 ADD CALLDATALOAD PUSH8 0xFFFFFFFFFFFFFFFF DUP2 GT ISZERO PUSH2 0x1CF9 JUMPI PUSH2 0x1CF8 PUSH2 0x1757 JUMP JUMPDEST JUMPDEST PUSH2 0x1D05 DUP12 DUP3 DUP13 ADD PUSH2 0x1B76 JUMP JUMPDEST SWAP7 POP SWAP7 POP POP PUSH1 0x60 DUP10 ADD CALLDATALOAD PUSH8 0xFFFFFFFFFFFFFFFF DUP2 GT ISZERO PUSH2 0x1D28 JUMPI PUSH2 0x1D27 PUSH2 0x1757 JUMP JUMPDEST JUMPDEST PUSH2 0x1D34 DUP12 DUP3 DUP13 ADD PUSH2 0x1B76 JUMP JUMPDEST SWAP5 POP SWAP5 POP POP PUSH1 0x80 DUP10 ADD CALLDATALOAD PUSH8 0xFFFFFFFFFFFFFFFF DUP2 GT ISZERO PUSH2 0x1D57 JUMPI PUSH2 0x1D56 PUSH2 0x1757 JUMP JUMPDEST JUMPDEST PUSH2 0x1D63 DUP12 DUP3 DUP13 ADD PUSH2 0x1C49 JUMP JUMPDEST SWAP3 POP SWAP3 POP POP SWAP3 SWAP6 SWAP9 POP SWAP3 SWAP6 SWAP9 SWAP1 SWAP4 SWAP7 POP JUMP JUMPDEST PUSH0 DUP1 DUP4 PUSH1 0x1F DUP5 ADD SLT PUSH2 0x1D8A JUMPI PUSH2 0x1D89 PUSH2 0x1901 JUMP JUMPDEST JUMPDEST DUP3 CALLDATALOAD SWAP1 POP PUSH8 0xFFFFFFFFFFFFFFFF DUP2 GT ISZERO PUSH2 0x1DA7 JUMPI PUSH2 0x1DA6 PUSH2 0x1B6E JUMP JUMPDEST JUMPDEST PUSH1 0x20 DUP4 ADD SWAP2 POP DUP4 PUSH1 0x20 DUP3 MUL DUP4 ADD GT ISZERO PUSH2 0x1DC3 JUMPI PUSH2 0x1DC2 PUSH2 0x1B72 JUMP JUMPDEST JUMPDEST SWAP3 POP SWAP3 SWAP1 POP JUMP JUMPDEST PUSH0 DUP1 PUSH0 DUP1 PUSH1 0x40 DUP6 DUP8 SUB SLT ISZERO PUSH2 0x1DE2 JUMPI PUSH2 0x1DE1 PUSH2 0x1753 JUMP JUMPDEST JUMPDEST PUSH0 DUP6 ADD CALLDATALOAD PUSH8 0xFFFFFFFFFFFFFFFF DUP2 GT ISZERO PUSH2 0x1DFF JUMPI PUSH2 0x1DFE PUSH2 0x1757 JUMP JUMPDEST JUMPDEST PUSH2 0x1E0B DUP8 DUP3 DUP9 ADD PUSH2 0x1D75 JUMP JUMPDEST SWAP5 POP SWAP5 POP POP PUSH1 0x20 DUP6 ADD CALLDATALOAD PUSH8 0xFFFFFFFFFFFFFFFF DUP2 GT ISZERO PUSH2 0x1E2E JUMPI PUSH2 0x1E2D PUSH2 0x1757 JUMP JUMPDEST JUMPDEST PUSH2 0x1E3A DUP8 DUP3 DUP9 ADD PUSH2 0x1B76 JUMP JUMPDEST SWAP3 POP SWAP3 POP POP SWAP3 SWAP6 SWAP2 SWAP5 POP SWAP3 POP JUMP JUMPDEST PUSH0 DUP2 MLOAD SWAP1 POP SWAP2 SWAP1 POP JUMP JUMPDEST PUSH0 DUP3 DUP3 MSTORE PUSH1 0x20 DUP3 ADD SWAP1 POP SWAP3 SWAP2 POP POP JUMP JUMPDEST PUSH0 DUP2 SWAP1 POP PUSH1 0x20 DUP3 ADD SWAP1 POP SWAP2 SWAP1 POP JUMP JUMPDEST PUSH2 0x1E7A DUP2 PUSH2 0x17B5 JUMP JUMPDEST DUP3 MSTORE POP POP JUMP JUMPDEST PUSH0 PUSH2 0x1E8B DUP4 DUP4 PUSH2 0x1E71 JUMP JUMPDEST PUSH1 0x20 DUP4 ADD SWAP1 POP SWAP3 SWAP2 POP POP JUMP JUMPDEST PUSH0 PUSH1 0x20 DUP3 ADD SWAP1 POP SWAP2 SWAP1 POP JUMP JUMPDEST PUSH0 PUSH2 0x1EAD DUP3 PUSH2 0x1E48 JUMP JUMPDEST PUSH2 0x1EB7 DUP2 DUP6 PUSH2 0x1E52 JUMP JUMPDEST SWAP4 POP PUSH2 0x1EC2 DUP4 PUSH2 0x1E62 JUMP JUMPDEST DUP1 PUSH0 JUMPDEST DUP4 DUP2 LT ISZERO PUSH2 0x1EF2 JUMPI DUP2 MLOAD PUSH2 0x1ED9 DUP9 DUP3 PUSH2 0x1E80 JUMP JUMPDEST SWAP8 POP PUSH2 0x1EE4 DUP4 PUSH2 0x1E97 JUMP JUMPDEST SWAP3 POP POP PUSH1 0x1 DUP2 ADD SWAP1 POP PUSH2 0x1EC5 JUMP JUMPDEST POP DUP6 SWAP4 POP POP POP POP SWAP3 SWAP2 POP POP JUMP JUMPDEST PUSH0 PUSH1 0x20 DUP3 ADD SWAP1 POP DUP2 DUP2 SUB PUSH0 DUP4 ADD MSTORE PUSH2 0x1F17 DUP2 DUP5 PUSH2 0x1EA3 JUMP JUMPDEST SWAP1 POP SWAP3 SWAP2 POP POP JUMP JUMPDEST PUSH2 0x1F28 DUP2 PUSH2 0x18CE JUMP JUMPDEST DUP2 EQ PUSH2 0x1F32 JUMPI PUSH0 DUP1 REVERT JUMPDEST POP JUMP JUMPDEST PUSH0 DUP2 CALLDATALOAD SWAP1 POP PUSH2 0x1F43 DUP2 PUSH2 0x1F1F JUMP JUMPDEST SWAP3 SWAP2 POP POP JUMP JUMPDEST PUSH0 DUP1 PUSH1 0x40 DUP4 DUP6 SUB SLT ISZERO PUSH2 0x1F5F JUMPI PUSH2 0x1F5E PUSH2 0x1753 JUMP JUMPDEST JUMPDEST PUSH0 PUSH2 0x1F6C DUP6 DUP3 DUP7 ADD PUSH2 0x17A1 JUMP JUMPDEST SWAP3 POP POP PUSH1 0x20 PUSH2 0x1F7D DUP6 DUP3 DUP7 ADD PUSH2 0x1F35 JUMP JUMPDEST SWAP2 POP POP SWAP3 POP SWAP3 SWAP1 POP JUMP JUMPDEST PUSH0 DUP1 PUSH1 0x40 DUP4 DUP6 SUB SLT ISZERO PUSH2 0x1F9D JUMPI PUSH2 0x1F9C PUSH2 0x1753 JUMP JUMPDEST JUMPDEST PUSH0 PUSH2 0x1FAA DUP6 DUP3 DUP7 ADD PUSH2 0x17D4 JUMP JUMPDEST SWAP3 POP POP PUSH1 0x20 PUSH2 0x1FBB DUP6 DUP3 DUP7 ADD PUSH2 0x17D4 JUMP JUMPDEST SWAP2 POP POP SWAP3 POP SWAP3 SWAP1 POP JUMP JUMPDEST PUSH0 DUP1 PUSH0 DUP1 PUSH0 DUP1 PUSH1 0x60 DUP8 DUP10 SUB SLT ISZERO PUSH2 0x1FDF JUMPI PUSH2 0x1FDE PUSH2 0x1753 JUMP JUMPDEST JUMPDEST PUSH0 DUP8 ADD CALLDATALOAD PUSH8 0xFFFFFFFFFFFFFFFF DUP2 GT ISZERO PUSH2 0x1FFC JUMPI PUSH2 0x1FFB PUSH2 0x1757 JUMP JUMPDEST JUMPDEST PUSH2 0x2008 DUP10 DUP3 DUP11 ADD PUSH2 0x1B76 JUMP JUMPDEST SWAP7 POP SWAP7 POP POP PUSH1 0x20 DUP8 ADD CALLDATALOAD PUSH8 0xFFFFFFFFFFFFFFFF DUP2 GT ISZERO PUSH2 0x202B JUMPI PUSH2 0x202A PUSH2 0x1757 JUMP JUMPDEST JUMPDEST PUSH2 0x2037 DUP10 DUP3 DUP11 ADD PUSH2 0x1B76 JUMP JUMPDEST SWAP5 POP SWAP5 POP POP PUSH1 0x40 DUP8 ADD CALLDATALOAD PUSH8 0xFFFFFFFFFFFFFFFF DUP2 GT ISZERO PUSH2 0x205A JUMPI PUSH2 0x2059 PUSH2 0x1757 JUMP JUMPDEST JUMPDEST PUSH2 0x2066 DUP10 DUP3 DUP11 ADD PUSH2 0x1C49 JUMP JUMPDEST SWAP3 POP SWAP3 POP POP SWAP3 SWAP6 POP SWAP3 SWAP6 POP SWAP3 SWAP6 JUMP JUMPDEST PUSH0 DUP1 PUSH1 0x40 DUP4 DUP6 SUB SLT ISZERO PUSH2 0x208B JUMPI PUSH2 0x208A PUSH2 0x1753 JUMP JUMPDEST JUMPDEST PUSH0 PUSH2 0x2098 DUP6 DUP3 DUP7 ADD PUSH2 0x17A1 JUMP JUMPDEST SWAP3 POP POP PUSH1 0x20 PUSH2 0x20A9 DUP6 DUP3 DUP7 ADD PUSH2 0x17A1 JUMP JUMPDEST SWAP2 POP POP SWAP3 POP SWAP3 SWAP1 POP JUMP JUMPDEST PUSH0 DUP1 PUSH0 DUP1 PUSH0 DUP1 PUSH1 0xA0 DUP8 DUP10 SUB SLT ISZERO PUSH2 0x20CD JUMPI PUSH2 0x20CC PUSH2 0x1753 JUMP JUMPDEST JUMPDEST PUSH0 PUSH2 0x20DA DUP10 DUP3 DUP11 ADD PUSH2 0x17A1 JUMP JUMPDEST SWAP7 POP POP PUSH1 0x20 PUSH2 0x20EB DUP10 DUP3 DUP11 ADD PUSH2 0x17A1 JUMP JUMPDEST SWAP6 POP POP PUSH1 0x40 PUSH2 0x20FC DUP10 DUP3 DUP11 ADD PUSH2 0x17D4 JUMP JUMPDEST SWAP5 POP POP PUSH1 0x60 PUSH2 0x210D DUP10 DUP3 DUP11 ADD PUSH2 0x17D4 JUMP JUMPDEST SWAP4 POP POP PUSH1 0x80 DUP8 ADD CALLDATALOAD PUSH8 0xFFFFFFFFFFFFFFFF DUP2 GT ISZERO PUSH2 0x212E JUMPI PUSH2 0x212D PUSH2 0x1757 JUMP JUMPDEST JUMPDEST PUSH2 0x213A DUP10 DUP3 DUP11 ADD PUSH2 0x1C49 JUMP JUMPDEST SWAP3 POP SWAP3 POP POP SWAP3 SWAP6 POP SWAP3 SWAP6 POP SWAP3 SWAP6 JUMP JUMPDEST PUSH32 0x6E6F7420617070726F7665640000000000000000000000000000000000000000 PUSH0 DUP3 ADD MSTORE POP JUMP JUMPDEST PUSH0 PUSH2 0x217D PUSH1 0xC DUP4 PUSH2 0x1ADE JUMP JUMPDEST SWAP2 POP PUSH2 0x2188 DUP3 PUSH2 0x2149 JUMP JUMPDEST PUSH1 0x20 DUP3 ADD SWAP1 POP SWAP2 SWAP1 POP JUMP JUMPDEST PUSH0 PUSH1 0x20 DUP3 ADD SWAP1 POP DUP2 DUP2 SUB PUSH0 DUP4 ADD MSTORE PUSH2 0x21AA DUP2 PUSH2 0x2171 JUMP JUMPDEST SWAP1 POP SWAP2 SWAP1 POP JUMP JUMPDEST PUSH32 0x746F203D20302061646472657373000000000000000000000000000000000000 PUSH0 DUP3 ADD MSTORE POP JUMP JUMPDEST PUSH0 PUSH2 0x21E5 PUSH1 0xE DUP4 PUSH2 0x1ADE JUMP JUMPDEST SWAP2 POP PUSH2 0x21F0 DUP3 PUSH2 0x21B1 JUMP JUMPDEST PUSH1 0x20 DUP3 ADD SWAP1 POP SWAP2 SWAP1 POP JUMP JUMPDEST PUSH0 PUSH1 0x20 DUP3 ADD SWAP1 POP DUP2 DUP2 SUB PUSH0 DUP4 ADD MSTORE PUSH2 0x2212 DUP2 PUSH2 0x21D9 JUMP JUMPDEST SWAP1 POP SWAP2 SWAP1 POP JUMP JUMPDEST PUSH32 0x696473206C656E67746820213D2076616C756573206C656E6774680000000000 PUSH0 DUP3 ADD MSTORE POP JUMP JUMPDEST PUSH0 PUSH2 0x224D PUSH1 0x1B DUP4 PUSH2 0x1ADE JUMP JUMPDEST SWAP2 POP PUSH2 0x2258 DUP3 PUSH2 0x2219 JUMP JUMPDEST PUSH1 0x20 DUP3 ADD SWAP1 POP SWAP2 SWAP1 POP JUMP JUMPDEST PUSH0 PUSH1 0x20 DUP3 ADD SWAP1 POP DUP2 DUP2 SUB PUSH0 DUP4 ADD MSTORE PUSH2 0x227A DUP2 PUSH2 0x2241 JUMP JUMPDEST SWAP1 POP SWAP2 SWAP1 POP JUMP JUMPDEST PUSH32 0x4E487B7100000000000000000000000000000000000000000000000000000000 PUSH0 MSTORE PUSH1 0x32 PUSH1 0x4 MSTORE PUSH1 0x24 PUSH0 REVERT JUMPDEST PUSH32 0x4E487B7100000000000000000000000000000000000000000000000000000000 PUSH0 MSTORE PUSH1 0x11 PUSH1 0x4 MSTORE PUSH1 0x24 PUSH0 REVERT JUMPDEST PUSH0 PUSH2 0x22E5 DUP3 PUSH2 0x17B5 JUMP JUMPDEST SWAP2 POP PUSH2 0x22F0 DUP4 PUSH2 0x17B5 JUMP JUMPDEST SWAP3 POP DUP3 DUP3 SUB SWAP1 POP DUP2 DUP2 GT ISZERO PUSH2 0x2308 JUMPI PUSH2 0x2307 PUSH2 0x22AE JUMP JUMPDEST JUMPDEST SWAP3 SWAP2 POP POP JUMP JUMPDEST PUSH0 PUSH2 0x2318 DUP3 PUSH2 0x17B5 JUMP JUMPDEST SWAP2 POP PUSH2 0x2323 DUP4 PUSH2 0x17B5 JUMP JUMPDEST SWAP3 POP DUP3 DUP3 ADD SWAP1 POP DUP1 DUP3 GT ISZERO PUSH2 0x233B JUMPI PUSH2 0x233A PUSH2 0x22AE JUMP JUMPDEST JUMPDEST SWAP3 SWAP2 POP POP JUMP JUMPDEST PUSH0 DUP1 REVERT JUMPDEST DUP3 DUP2 DUP4 CALLDATACOPY POP POP POP JUMP JUMPDEST PUSH0 PUSH2 0x2359 DUP4 DUP6 PUSH2 0x1E52 JUMP JUMPDEST SWAP4 POP PUSH32 0x7FFFFFFFFFFFFFFFFFFFFFFFFFFFFFFFFFFFFFFFFFFFFFFFFFFFFFFFFFFFFFF DUP4 GT ISZERO PUSH2 0x238C JUMPI PUSH2 0x238B PUSH2 0x2341 JUMP JUMPDEST JUMPDEST PUSH1 0x20 DUP4 MUL SWAP3 POP PUSH2 0x239D DUP4 DUP6 DUP5 PUSH2 0x2345 JUMP JUMPDEST DUP3 DUP5 ADD SWAP1 POP SWAP4 SWAP3 POP POP POP JUMP JUMPDEST PUSH0 PUSH1 0x40 DUP3 ADD SWAP1 POP DUP2 DUP2 SUB PUSH0 DUP4 ADD MSTORE PUSH2 0x23C2 DUP2 DUP7 DUP9 PUSH2 0x234E JUMP JUMPDEST SWAP1 POP DUP2 DUP2 SUB PUSH1 0x20 DUP4 ADD MSTORE PUSH2 0x23D7 DUP2 DUP5 DUP7 PUSH2 0x234E JUMP JUMPDEST SWAP1 POP SWAP6 SWAP5 POP POP POP POP POP JUMP JUMPDEST PUSH2 0x23EB DUP2 PUSH2 0x177A JUMP JUMPDEST DUP3 MSTORE POP POP JUMP JUMPDEST PUSH0 DUP3 DUP3 MSTORE PUSH1 0x20 DUP3 ADD SWAP1 POP SWAP3 SWAP2 POP POP JUMP JUMPDEST PUSH0 PUSH2 0x240C DUP4 DUP6 PUSH2 0x23F1 JUMP JUMPDEST SWAP4 POP PUSH2 0x2419 DUP4 DUP6 DUP5 PUSH2 0x19C1 JUMP JUMPDEST PUSH2 0x2422 DUP4 PUSH2 0x1909 JUMP JUMPDEST DUP5 ADD SWAP1 POP SWAP4 SWAP3 POP POP POP JUMP JUMPDEST PUSH0 PUSH1 0xA0 DUP3 ADD SWAP1 POP PUSH2 0x2440 PUSH0 DUP4 ADD DUP12 PUSH2 0x23E2 JUMP JUMPDEST PUSH2 0x244D PUSH1 0x20 DUP4 ADD DUP11 PUSH2 0x23E2 JUMP JUMPDEST DUP2 DUP2 SUB PUSH1 0x40 DUP4 ADD MSTORE PUSH2 0x2460 DUP2 DUP9 DUP11 PUSH2 0x234E JUMP JUMPDEST SWAP1 POP DUP2 DUP2 SUB PUSH1 0x60 DUP4 ADD MSTORE PUSH2 0x2475 DUP2 DUP7 DUP9 PUSH2 0x234E JUMP JUMPDEST SWAP1 POP DUP2 DUP2 SUB PUSH1 0x80 DUP4 ADD MSTORE PUSH2 0x248A DUP2 DUP5 DUP7 PUSH2 0x2401 JUMP JUMPDEST SWAP1 POP SWAP10 SWAP9 POP POP POP POP POP POP POP POP POP JUMP JUMPDEST PUSH0 DUP2 MLOAD SWAP1 POP PUSH2 0x24A7 DUP2 PUSH2 0x1879 JUMP JUMPDEST SWAP3 SWAP2 POP POP JUMP JUMPDEST PUSH0 PUSH1 0x20 DUP3 DUP5 SUB SLT ISZERO PUSH2 0x24C2 JUMPI PUSH2 0x24C1 PUSH2 0x1753 JUMP JUMPDEST JUMPDEST PUSH0 PUSH2 0x24CF DUP5 DUP3 DUP6 ADD PUSH2 0x2499 JUMP JUMPDEST SWAP2 POP POP SWAP3 SWAP2 POP POP JUMP JUMPDEST PUSH32 0x756E73616665207472616E736665720000000000000000000000000000000000 PUSH0 DUP3 ADD MSTORE POP JUMP JUMPDEST PUSH0 PUSH2 0x250C PUSH1 0xF DUP4 PUSH2 0x1ADE JUMP JUMPDEST SWAP2 POP PUSH2 0x2517 DUP3 PUSH2 0x24D8 JUMP JUMPDEST PUSH1 0x20 DUP3 ADD SWAP1 POP SWAP2 SWAP1 POP JUMP JUMPDEST PUSH0 PUSH1 0x20 DUP3 ADD SWAP1 POP DUP2 DUP2 SUB PUSH0 DUP4 ADD MSTORE PUSH2 0x2539 DUP2 PUSH2 0x2500 JUMP JUMPDEST SWAP1 POP SWAP2 SWAP1 POP JUMP JUMPDEST PUSH32 0x6F776E657273206C656E67746820213D20696473206C656E6774680000000000 PUSH0 DUP3 ADD MSTORE POP JUMP JUMPDEST PUSH0 PUSH2 0x2574 PUSH1 0x1B DUP4 PUSH2 0x1ADE JUMP JUMPDEST SWAP2 POP PUSH2 0x257F DUP3 PUSH2 0x2540 JUMP JUMPDEST PUSH1 0x20 DUP3 ADD SWAP1 POP SWAP2 SWAP1 POP JUMP JUMPDEST PUSH0 PUSH1 0x20 DUP3 ADD SWAP1 POP DUP2 DUP2 SUB PUSH0 DUP4 ADD MSTORE PUSH2 0x25A1 DUP2 PUSH2 0x2568 JUMP JUMPDEST SWAP1 POP SWAP2 SWAP1 POP JUMP JUMPDEST PUSH0 PUSH1 0x20 DUP3 DUP5 SUB SLT ISZERO PUSH2 0x25BD JUMPI PUSH2 0x25BC PUSH2 0x1753 JUMP JUMPDEST JUMPDEST PUSH0 PUSH2 0x25CA DUP5 DUP3 DUP6 ADD PUSH2 0x17A1 JUMP JUMPDEST SWAP2 POP POP SWAP3 SWAP2 POP POP JUMP JUMPDEST PUSH0 PUSH1 0x40 DUP3 ADD SWAP1 POP PUSH2 0x25E6 PUSH0 DUP4 ADD DUP6 PUSH2 0x1826 JUMP JUMPDEST PUSH2 0x25F3 PUSH1 0x20 DUP4 ADD DUP5 PUSH2 0x1826 JUMP JUMPDEST SWAP4 SWAP3 POP POP POP JUMP JUMPDEST PUSH0 PUSH1 0xA0 DUP3 ADD SWAP1 POP PUSH2 0x260D PUSH0 DUP4 ADD DUP10 PUSH2 0x23E2 JUMP JUMPDEST PUSH2 0x261A PUSH1 0x20 DUP4 ADD DUP9 PUSH2 0x23E2 JUMP JUMPDEST PUSH2 0x2627 PUSH1 0x40 DUP4 ADD DUP8 PUSH2 0x1826 JUMP JUMPDEST PUSH2 0x2634 PUSH1 0x60 DUP4 ADD DUP7 PUSH2 0x1826 JUMP JUMPDEST DUP2 DUP2 SUB PUSH1 0x80 DUP4 ADD MSTORE PUSH2 0x2647 DUP2 DUP5 DUP7 PUSH2 0x2401 JUMP JUMPDEST SWAP1 POP SWAP8 SWAP7 POP POP POP POP POP POP POP JUMP JUMPDEST PUSH0 DUP2 MLOAD SWAP1 POP SWAP2 SWAP1 POP JUMP JUMPDEST PUSH0 PUSH2 0x2668 DUP3 PUSH2 0x2654 JUMP JUMPDEST PUSH2 0x2672 DUP2 DUP6 PUSH2 0x23F1 JUMP JUMPDEST SWAP4 POP PUSH2 0x2682 DUP2 DUP6 PUSH1 0x20 DUP7 ADD PUSH2 0x1AEE JUMP JUMPDEST PUSH2 0x268B DUP2 PUSH2 0x1909 JUMP JUMPDEST DUP5 ADD SWAP2 POP POP SWAP3 SWAP2 POP POP JUMP JUMPDEST PUSH0 PUSH1 0xA0 DUP3 ADD SWAP1 POP PUSH2 0x26A9 PUSH0 DUP4 ADD DUP9 PUSH2 0x23E2 JUMP JUMPDEST PUSH2 0x26B6 PUSH1 0x20 DUP4 ADD DUP8 PUSH2 0x23E2 JUMP JUMPDEST PUSH2 0x26C3 PUSH1 0x40 DUP4 ADD DUP7 PUSH2 0x1826 JUMP JUMPDEST PUSH2 0x26D0 PUSH1 0x60 DUP4 ADD DUP6 PUSH2 0x1826 JUMP JUMPDEST DUP2 DUP2 SUB PUSH1 0x80 DUP4 ADD MSTORE PUSH2 0x26E2 DUP2 DUP5 PUSH2 0x265E JUMP JUMPDEST SWAP1 POP SWAP7 SWAP6 POP POP POP POP POP POP JUMP JUMPDEST PUSH32 0x66726F6D203D2030206164647265737300000000000000000000000000000000 PUSH0 DUP3 ADD MSTORE POP JUMP JUMPDEST PUSH0 PUSH2 0x2722 PUSH1 0x10 DUP4 PUSH2 0x1ADE JUMP JUMPDEST SWAP2 POP PUSH2 0x272D DUP3 PUSH2 0x26EE JUMP JUMPDEST PUSH1 0x20 DUP3 ADD SWAP1 POP SWAP2 SWAP1 POP JUMP JUMPDEST PUSH0 PUSH1 0x20 DUP3 ADD SWAP1 POP DUP2 DUP2 SUB PUSH0 DUP4 ADD MSTORE PUSH2 0x274F DUP2 PUSH2 0x2716 JUMP JUMPDEST SWAP1 POP SWAP2 SWAP1 POP JUMP INVALID LOG2 PUSH5 0x6970667358 0x22 SLT KECCAK256 MLOAD BYTE 0xD6 0xCC PUSH23 0xB8075BC7E0A37203D35724991B12A9405D387575727E15 0xA5 PUSH8 0x998464736F6C6343 STOP ADDMOD XOR STOP CALLER "
				},
				"gasEstimates": {
					"creation": {
						"codeDepositCost": "2024800",
						"executionCost": "2147",
						"totalCost": "2026947"
					},
					"external": {
						"balanceOf(address,uint256)": "infinite",
						"balanceOfBatch(address[],uint256[])": "infinite",
						"batchBurn(uint256[],uint256[])": "infinite",
						"batchMint(uint256[],uint256[],bytes)": "infinite",
						"burn(uint256,uint256)": "infinite",
						"isApprovedForAll(address,address)": "infinite",
						"mint(uint256,uint256,bytes)": "infinite",
						"safeBatchTransferFrom(address,address,uint256[],uint256[],bytes)": "infinite",
						"safeTransferFrom(address,address,uint256,uint256,bytes)": "infinite",
						"setApprovalForAll(address,bool)": "infinite",
						"supportsInterface(bytes4)": "735",
						"uri(uint256)": "infinite"
					}
				},
				"methodIdentifiers": {
					"balanceOf(address,uint256)": "00fdd58e",
					"balanceOfBatch(address[],uint256[])": "4e1273f4",
					"batchBurn(uint256[],uint256[])": "20ec271b",
					"batchMint(uint256[],uint256[],bytes)": "cf04192e",
					"burn(uint256,uint256)": "b390c0ab",
					"isApprovedForAll(address,address)": "e985e9c5",
					"mint(uint256,uint256,bytes)": "08dc9f42",
					"safeBatchTransferFrom(address,address,uint256[],uint256[],bytes)": "2eb2c2d6",
					"safeTransferFrom(address,address,uint256,uint256,bytes)": "f242432a",
					"setApprovalForAll(address,bool)": "a22cb465",
					"supportsInterface(bytes4)": "01ffc9a7",
					"uri(uint256)": "0e89341c"
				}
			},
			"storageLayout": {
				"storage": [
					{
						"astId": 148,
						"contract": "ERC1155.sol:MyMultiToken",
						"label": "balanceOf",
						"offset": 0,
						"slot": "0",
						"type": "t_mapping(t_address,t_mapping(t_uint256,t_uint256))"
					},
					{
						"astId": 154,
						"contract": "ERC1155.sol:MyMultiToken",
						"label": "isApprovedForAll",
						"offset": 0,
						"slot": "1",
						"type": "t_mapping(t_address,t_mapping(t_address,t_bool))"
					}
				],
				"types": {
					"t_address": {
						"encoding": "inplace",
						"label": "address",
						"numberOfBytes": "20"
					},
					"t_bool": {
						"encoding": "inplace",
						"label": "bool",
						"numberOfBytes": "1"
					},
					"t_mapping(t_address,t_bool)": {
						"encoding": "mapping",
						"key": "t_address",
						"label": "mapping(address => bool)",
						"numberOfBytes": "32",
						"value": "t_bool"
					},
					"t_mapping(t_address,t_mapping(t_address,t_bool))": {
						"encoding": "mapping",
						"key": "t_address",
						"label": "mapping(address => mapping(address => bool))",
						"numberOfBytes": "32",
						"value": "t_mapping(t_address,t_bool)"
					},
					"t_mapping(t_address,t_mapping(t_uint256,t_uint256))": {
						"encoding": "mapping",
						"key": "t_address",
						"label": "mapping(address => mapping(uint256 => uint256))",
						"numberOfBytes": "32",
						"value": "t_mapping(t_uint256,t_uint256)"
					},
					"t_mapping(t_uint256,t_uint256)": {
						"encoding": "mapping",
						"key": "t_uint256",
						"label": "mapping(uint256 => uint256)",
						"numberOfBytes": "32",
						"value": "t_uint256"
					},
					"t_uint256": {
						"encoding": "inplace",
						"label": "uint256",
						"numberOfBytes": "32"
					}
				}
			},
			"userdoc": {
				"kind": "user",
				"methods": {},
				"version": 1
			}
		}
	}
}