{
	"data": {
		"bytecode": {
			"linkReferences": {},
			"object": "608060405234801561000f575f80fd5b506101a08061001d5f395ff3fe608060405234801561000f575f80fd5b5060043610610029575f3560e01c8063b8bd717f1461002d575b5f80fd5b610047600480360381019061004291906100c7565b610049565b005b600a81111561008d576040517f08c379a00000000000000000000000000000000000000000000000000000000081526004016100849061014c565b60405180910390fd5b50565b5f80fd5b5f819050919050565b6100a681610094565b81146100b0575f80fd5b50565b5f813590506100c18161009d565b92915050565b5f602082840312156100dc576100db610090565b5b5f6100e9848285016100b3565b91505092915050565b5f82825260208201905092915050565b7f69203e20313000000000000000000000000000000000000000000000000000005f82015250565b5f6101366006836100f2565b915061014182610102565b602082019050919050565b5f6020820190508181035f8301526101638161012a565b905091905056fea2646970667358221220ac379c2067a513827765fcb53812fdcb94f581268e87d7160ddec48709d67d2864736f6c63430008180033",
			"opcodes": "PUSH1 0x80 PUSH1 0x40 MSTORE CALLVALUE DUP1 ISZERO PUSH2 0xF JUMPI PUSH0 DUP1 REVERT JUMPDEST POP PUSH2 0x1A0 DUP1 PUSH2 0x1D PUSH0 CODECOPY PUSH0 RETURN INVALID PUSH1 0x80 PUSH1 0x40 MSTORE CALLVALUE DUP1 ISZERO PUSH2 0xF JUMPI PUSH0 DUP1 REVERT JUMPDEST POP PUSH1 0x4 CALLDATASIZE LT PUSH2 0x29 JUMPI PUSH0 CALLDATALOAD PUSH1 0xE0 SHR DUP1 PUSH4 0xB8BD717F EQ PUSH2 0x2D JUMPI JUMPDEST PUSH0 DUP1 REVERT JUMPDEST PUSH2 0x47 PUSH1 0x4 DUP1 CALLDATASIZE SUB DUP2 ADD SWAP1 PUSH2 0x42 SWAP2 SWAP1 PUSH2 0xC7 JUMP JUMPDEST PUSH2 0x49 JUMP JUMPDEST STOP JUMPDEST PUSH1 0xA DUP2 GT ISZERO PUSH2 0x8D JUMPI PUSH1 0x40 MLOAD PUSH32 0x8C379A000000000000000000000000000000000000000000000000000000000 DUP2 MSTORE PUSH1 0x4 ADD PUSH2 0x84 SWAP1 PUSH2 0x14C JUMP JUMPDEST PUSH1 0x40 MLOAD DUP1 SWAP2 SUB SWAP1 REVERT JUMPDEST POP JUMP JUMPDEST PUSH0 DUP1 REVERT JUMPDEST PUSH0 DUP2 SWAP1 POP SWAP2 SWAP1 POP JUMP JUMPDEST PUSH2 0xA6 DUP2 PUSH2 0x94 JUMP JUMPDEST DUP2 EQ PUSH2 0xB0 JUMPI PUSH0 DUP1 REVERT JUMPDEST POP JUMP JUMPDEST PUSH0 DUP2 CALLDATALOAD SWAP1 POP PUSH2 0xC1 DUP2 PUSH2 0x9D JUMP JUMPDEST SWAP3 SWAP2 POP POP JUMP JUMPDEST PUSH0 PUSH1 0x20 DUP3 DUP5 SUB SLT ISZERO PUSH2 0xDC JUMPI PUSH2 0xDB PUSH2 0x90 JUMP JUMPDEST JUMPDEST PUSH0 PUSH2 0xE9 DUP5 DUP3 DUP6 ADD PUSH2 0xB3 JUMP JUMPDEST SWAP2 POP POP SWAP3 SWAP2 POP POP JUMP JUMPDEST PUSH0 DUP3 DUP3 MSTORE PUSH1 0x20 DUP3 ADD SWAP1 POP SWAP3 SWAP2 POP POP JUMP JUMPDEST PUSH32 0x69203E2031300000000000000000000000000000000000000000000000000000 PUSH0 DUP3 ADD MSTORE POP JUMP JUMPDEST PUSH0 PUSH2 0x136 PUSH1 0x6 DUP4 PUSH2 0xF2 JUMP JUMPDEST SWAP2 POP PUSH2 0x141 DUP3 PUSH2 0x102 JUMP JUMPDEST PUSH1 0x20 DUP3 ADD SWAP1 POP SWAP2 SWAP1 POP JUMP JUMPDEST PUSH0 PUSH1 0x20 DUP3 ADD SWAP1 POP DUP2 DUP2 SUB PUSH0 DUP4 ADD MSTORE PUSH2 0x163 DUP2 PUSH2 0x12A JUMP JUMPDEST SWAP1 POP SWAP2 SWAP1 POP JUMP INVALID LOG2 PUSH5 0x6970667358 0x22 SLT KECCAK256 0xAC CALLDATACOPY SWAP13 KECCAK256 PUSH8 0xA513827765FCB538 SLT REVERT 0xCB SWAP5 CREATE2 DUP2 0x26 DUP15 DUP8 0xD7 AND 0xD 0xDE 0xC4 DUP8 MULMOD 0xD6 PUSH30 0x2864736F6C63430008180033000000000000000000000000000000000000 "
		},
		"gasEstimates": {
			"creation": {
				"codeDepositCost": "83200",
				"executionCost": "127",
				"totalCost": "83327"
			},
			"external": {
				"testRequire(uint256)": "687"
			}
		},
		"methodIdentifiers": {
			"testRequire(uint256)": "b8bd717f"
		}
	},
	"abi": [
		{
			"inputs": [
				{
					"internalType": "uint256",
					"name": "_i",
					"type": "uint256"
				}
			],
			"name": "testRequire",
			"outputs": [],
			"stateMutability": "pure",
			"type": "function"
		}
	]
}