{
	"data": {
		"bytecode": {
			"linkReferences": {},
			"object": "608060405234801561000f575f80fd5b506104db8061001d5f395ff3fe608060405234801561000f575f80fd5b5060043610610029575f3560e01c806321fb335c1461002d575b5f80fd5b610047600480360381019061004291906102ed565b61005d565b6040516100549190610387565b60405180910390f35b5f808390505f5b8651811015610117575f878281518110610081576100806103a0565b5b602002602001015190505f60028661009991906103fa565b036100ce5782816040516020016100b192919061044a565b6040516020818303038152906040528051906020012092506100fa565b80836040516020016100e192919061044a565b6040516020818303038152906040528051906020012092505b6002856101079190610475565b9450508080600101915050610064565b50848114915050949350505050565b5f604051905090565b5f80fd5b5f80fd5b5f80fd5b5f601f19601f8301169050919050565b7f4e487b71000000000000000000000000000000000000000000000000000000005f52604160045260245ffd5b6101818261013b565b810181811067ffffffffffffffff821117156101a05761019f61014b565b5b80604052505050565b5f6101b2610126565b90506101be8282610178565b919050565b5f67ffffffffffffffff8211156101dd576101dc61014b565b5b602082029050602081019050919050565b5f80fd5b5f819050919050565b610204816101f2565b811461020e575f80fd5b50565b5f8135905061021f816101fb565b92915050565b5f610237610232846101c3565b6101a9565b9050808382526020820190506020840283018581111561025a576102596101ee565b5b835b81811015610283578061026f8882610211565b84526020840193505060208101905061025c565b5050509392505050565b5f82601f8301126102a1576102a0610137565b5b81356102b1848260208601610225565b91505092915050565b5f819050919050565b6102cc816102ba565b81146102d6575f80fd5b50565b5f813590506102e7816102c3565b92915050565b5f805f80608085870312156103055761030461012f565b5b5f85013567ffffffffffffffff81111561032257610321610133565b5b61032e8782880161028d565b945050602061033f87828801610211565b935050604061035087828801610211565b9250506060610361878288016102d9565b91505092959194509250565b5f8115159050919050565b6103818161036d565b82525050565b5f60208201905061039a5f830184610378565b92915050565b7f4e487b71000000000000000000000000000000000000000000000000000000005f52603260045260245ffd5b7f4e487b71000000000000000000000000000000000000000000000000000000005f52601260045260245ffd5b5f610404826102ba565b915061040f836102ba565b92508261041f5761041e6103cd565b5b828206905092915050565b5f819050919050565b61044461043f826101f2565b61042a565b82525050565b5f6104558285610433565b6020820191506104658284610433565b6020820191508190509392505050565b5f61047f826102ba565b915061048a836102ba565b92508261049a576104996103cd565b5b82820490509291505056fea2646970667358221220cf6c288fd2b9c636906b89dfebe16224f202417ae2917ecd126b380de392f74c64736f6c63430008180033",
			"opcodes": "PUSH1 0x80 PUSH1 0x40 MSTORE CALLVALUE DUP1 ISZERO PUSH2 0xF JUMPI PUSH0 DUP1 REVERT JUMPDEST POP PUSH2 0x4DB DUP1 PUSH2 0x1D PUSH0 CODECOPY PUSH0 RETURN INVALID PUSH1 0x80 PUSH1 0x40 MSTORE CALLVALUE DUP1 ISZERO PUSH2 0xF JUMPI PUSH0 DUP1 REVERT JUMPDEST POP PUSH1 0x4 CALLDATASIZE LT PUSH2 0x29 JUMPI PUSH0 CALLDATALOAD PUSH1 0xE0 SHR DUP1 PUSH4 0x21FB335C EQ PUSH2 0x2D JUMPI JUMPDEST PUSH0 DUP1 REVERT JUMPDEST PUSH2 0x47 PUSH1 0x4 DUP1 CALLDATASIZE SUB DUP2 ADD SWAP1 PUSH2 0x42 SWAP2 SWAP1 PUSH2 0x2ED JUMP JUMPDEST PUSH2 0x5D JUMP JUMPDEST PUSH1 0x40 MLOAD PUSH2 0x54 SWAP2 SWAP1 PUSH2 0x387 JUMP JUMPDEST PUSH1 0x40 MLOAD DUP1 SWAP2 SUB SWAP1 RETURN JUMPDEST PUSH0 DUP1 DUP4 SWAP1 POP PUSH0 JUMPDEST DUP7 MLOAD DUP2 LT ISZERO PUSH2 0x117 JUMPI PUSH0 DUP8 DUP3 DUP2 MLOAD DUP2 LT PUSH2 0x81 JUMPI PUSH2 0x80 PUSH2 0x3A0 JUMP JUMPDEST JUMPDEST PUSH1 0x20 MUL PUSH1 0x20 ADD ADD MLOAD SWAP1 POP PUSH0 PUSH1 0x2 DUP7 PUSH2 0x99 SWAP2 SWAP1 PUSH2 0x3FA JUMP JUMPDEST SUB PUSH2 0xCE JUMPI DUP3 DUP2 PUSH1 0x40 MLOAD PUSH1 0x20 ADD PUSH2 0xB1 SWAP3 SWAP2 SWAP1 PUSH2 0x44A JUMP JUMPDEST PUSH1 0x40 MLOAD PUSH1 0x20 DUP2 DUP4 SUB SUB DUP2 MSTORE SWAP1 PUSH1 0x40 MSTORE DUP1 MLOAD SWAP1 PUSH1 0x20 ADD KECCAK256 SWAP3 POP PUSH2 0xFA JUMP JUMPDEST DUP1 DUP4 PUSH1 0x40 MLOAD PUSH1 0x20 ADD PUSH2 0xE1 SWAP3 SWAP2 SWAP1 PUSH2 0x44A JUMP JUMPDEST PUSH1 0x40 MLOAD PUSH1 0x20 DUP2 DUP4 SUB SUB DUP2 MSTORE SWAP1 PUSH1 0x40 MSTORE DUP1 MLOAD SWAP1 PUSH1 0x20 ADD KECCAK256 SWAP3 POP JUMPDEST PUSH1 0x2 DUP6 PUSH2 0x107 SWAP2 SWAP1 PUSH2 0x475 JUMP JUMPDEST SWAP5 POP POP DUP1 DUP1 PUSH1 0x1 ADD SWAP2 POP POP PUSH2 0x64 JUMP JUMPDEST POP DUP5 DUP2 EQ SWAP2 POP POP SWAP5 SWAP4 POP POP POP POP JUMP JUMPDEST PUSH0 PUSH1 0x40 MLOAD SWAP1 POP SWAP1 JUMP JUMPDEST PUSH0 DUP1 REVERT JUMPDEST PUSH0 DUP1 REVERT JUMPDEST PUSH0 DUP1 REVERT JUMPDEST PUSH0 PUSH1 0x1F NOT PUSH1 0x1F DUP4 ADD AND SWAP1 POP SWAP2 SWAP1 POP JUMP JUMPDEST PUSH32 0x4E487B7100000000000000000000000000000000000000000000000000000000 PUSH0 MSTORE PUSH1 0x41 PUSH1 0x4 MSTORE PUSH1 0x24 PUSH0 REVERT JUMPDEST PUSH2 0x181 DUP3 PUSH2 0x13B JUMP JUMPDEST DUP2 ADD DUP2 DUP2 LT PUSH8 0xFFFFFFFFFFFFFFFF DUP3 GT OR ISZERO PUSH2 0x1A0 JUMPI PUSH2 0x19F PUSH2 0x14B JUMP JUMPDEST JUMPDEST DUP1 PUSH1 0x40 MSTORE POP POP POP JUMP JUMPDEST PUSH0 PUSH2 0x1B2 PUSH2 0x126 JUMP JUMPDEST SWAP1 POP PUSH2 0x1BE DUP3 DUP3 PUSH2 0x178 JUMP JUMPDEST SWAP2 SWAP1 POP JUMP JUMPDEST PUSH0 PUSH8 0xFFFFFFFFFFFFFFFF DUP3 GT ISZERO PUSH2 0x1DD JUMPI PUSH2 0x1DC PUSH2 0x14B JUMP JUMPDEST JUMPDEST PUSH1 0x20 DUP3 MUL SWAP1 POP PUSH1 0x20 DUP2 ADD SWAP1 POP SWAP2 SWAP1 POP JUMP JUMPDEST PUSH0 DUP1 REVERT JUMPDEST PUSH0 DUP2 SWAP1 POP SWAP2 SWAP1 POP JUMP JUMPDEST PUSH2 0x204 DUP2 PUSH2 0x1F2 JUMP JUMPDEST DUP2 EQ PUSH2 0x20E JUMPI PUSH0 DUP1 REVERT JUMPDEST POP JUMP JUMPDEST PUSH0 DUP2 CALLDATALOAD SWAP1 POP PUSH2 0x21F DUP2 PUSH2 0x1FB JUMP JUMPDEST SWAP3 SWAP2 POP POP JUMP JUMPDEST PUSH0 PUSH2 0x237 PUSH2 0x232 DUP5 PUSH2 0x1C3 JUMP JUMPDEST PUSH2 0x1A9 JUMP JUMPDEST SWAP1 POP DUP1 DUP4 DUP3 MSTORE PUSH1 0x20 DUP3 ADD SWAP1 POP PUSH1 0x20 DUP5 MUL DUP4 ADD DUP6 DUP2 GT ISZERO PUSH2 0x25A JUMPI PUSH2 0x259 PUSH2 0x1EE JUMP JUMPDEST JUMPDEST DUP4 JUMPDEST DUP2 DUP2 LT ISZERO PUSH2 0x283 JUMPI DUP1 PUSH2 0x26F DUP9 DUP3 PUSH2 0x211 JUMP JUMPDEST DUP5 MSTORE PUSH1 0x20 DUP5 ADD SWAP4 POP POP PUSH1 0x20 DUP2 ADD SWAP1 POP PUSH2 0x25C JUMP JUMPDEST POP POP POP SWAP4 SWAP3 POP POP POP JUMP JUMPDEST PUSH0 DUP3 PUSH1 0x1F DUP4 ADD SLT PUSH2 0x2A1 JUMPI PUSH2 0x2A0 PUSH2 0x137 JUMP JUMPDEST JUMPDEST DUP2 CALLDATALOAD PUSH2 0x2B1 DUP5 DUP3 PUSH1 0x20 DUP7 ADD PUSH2 0x225 JUMP JUMPDEST SWAP2 POP POP SWAP3 SWAP2 POP POP JUMP JUMPDEST PUSH0 DUP2 SWAP1 POP SWAP2 SWAP1 POP JUMP JUMPDEST PUSH2 0x2CC DUP2 PUSH2 0x2BA JUMP JUMPDEST DUP2 EQ PUSH2 0x2D6 JUMPI PUSH0 DUP1 REVERT JUMPDEST POP JUMP JUMPDEST PUSH0 DUP2 CALLDATALOAD SWAP1 POP PUSH2 0x2E7 DUP2 PUSH2 0x2C3 JUMP JUMPDEST SWAP3 SWAP2 POP POP JUMP JUMPDEST PUSH0 DUP1 PUSH0 DUP1 PUSH1 0x80 DUP6 DUP8 SUB SLT ISZERO PUSH2 0x305 JUMPI PUSH2 0x304 PUSH2 0x12F JUMP JUMPDEST JUMPDEST PUSH0 DUP6 ADD CALLDATALOAD PUSH8 0xFFFFFFFFFFFFFFFF DUP2 GT ISZERO PUSH2 0x322 JUMPI PUSH2 0x321 PUSH2 0x133 JUMP JUMPDEST JUMPDEST PUSH2 0x32E DUP8 DUP3 DUP9 ADD PUSH2 0x28D JUMP JUMPDEST SWAP5 POP POP PUSH1 0x20 PUSH2 0x33F DUP8 DUP3 DUP9 ADD PUSH2 0x211 JUMP JUMPDEST SWAP4 POP POP PUSH1 0x40 PUSH2 0x350 DUP8 DUP3 DUP9 ADD PUSH2 0x211 JUMP JUMPDEST SWAP3 POP POP PUSH1 0x60 PUSH2 0x361 DUP8 DUP3 DUP9 ADD PUSH2 0x2D9 JUMP JUMPDEST SWAP2 POP POP SWAP3 SWAP6 SWAP2 SWAP5 POP SWAP3 POP JUMP JUMPDEST PUSH0 DUP2 ISZERO ISZERO SWAP1 POP SWAP2 SWAP1 POP JUMP JUMPDEST PUSH2 0x381 DUP2 PUSH2 0x36D JUMP JUMPDEST DUP3 MSTORE POP POP JUMP JUMPDEST PUSH0 PUSH1 0x20 DUP3 ADD SWAP1 POP PUSH2 0x39A PUSH0 DUP4 ADD DUP5 PUSH2 0x378 JUMP JUMPDEST SWAP3 SWAP2 POP POP JUMP JUMPDEST PUSH32 0x4E487B7100000000000000000000000000000000000000000000000000000000 PUSH0 MSTORE PUSH1 0x32 PUSH1 0x4 MSTORE PUSH1 0x24 PUSH0 REVERT JUMPDEST PUSH32 0x4E487B7100000000000000000000000000000000000000000000000000000000 PUSH0 MSTORE PUSH1 0x12 PUSH1 0x4 MSTORE PUSH1 0x24 PUSH0 REVERT JUMPDEST PUSH0 PUSH2 0x404 DUP3 PUSH2 0x2BA JUMP JUMPDEST SWAP2 POP PUSH2 0x40F DUP4 PUSH2 0x2BA JUMP JUMPDEST SWAP3 POP DUP3 PUSH2 0x41F JUMPI PUSH2 0x41E PUSH2 0x3CD JUMP JUMPDEST JUMPDEST DUP3 DUP3 MOD SWAP1 POP SWAP3 SWAP2 POP POP JUMP JUMPDEST PUSH0 DUP2 SWAP1 POP SWAP2 SWAP1 POP JUMP JUMPDEST PUSH2 0x444 PUSH2 0x43F DUP3 PUSH2 0x1F2 JUMP JUMPDEST PUSH2 0x42A JUMP JUMPDEST DUP3 MSTORE POP POP JUMP JUMPDEST PUSH0 PUSH2 0x455 DUP3 DUP6 PUSH2 0x433 JUMP JUMPDEST PUSH1 0x20 DUP3 ADD SWAP2 POP PUSH2 0x465 DUP3 DUP5 PUSH2 0x433 JUMP JUMPDEST PUSH1 0x20 DUP3 ADD SWAP2 POP DUP2 SWAP1 POP SWAP4 SWAP3 POP POP POP JUMP JUMPDEST PUSH0 PUSH2 0x47F DUP3 PUSH2 0x2BA JUMP JUMPDEST SWAP2 POP PUSH2 0x48A DUP4 PUSH2 0x2BA JUMP JUMPDEST SWAP3 POP DUP3 PUSH2 0x49A JUMPI PUSH2 0x499 PUSH2 0x3CD JUMP JUMPDEST JUMPDEST DUP3 DUP3 DIV SWAP1 POP SWAP3 SWAP2 POP POP JUMP INVALID LOG2 PUSH5 0x6970667358 0x22 SLT KECCAK256 0xCF PUSH13 0x288FD2B9C636906B89DFEBE162 0x24 CALLCODE MUL COINBASE PUSH27 0xE2917ECD126B380DE392F74C64736F6C6343000818003300000000 "
		},
		"gasEstimates": {
			"creation": {
				"codeDepositCost": "248600",
				"executionCost": "285",
				"totalCost": "248885"
			},
			"external": {
				"verify(bytes32[],bytes32,bytes32,uint256)": "infinite"
			}
		},
		"methodIdentifiers": {
			"verify(bytes32[],bytes32,bytes32,uint256)": "21fb335c"
		}
	},
	"abi": [
		{
			"inputs": [
				{
					"internalType": "bytes32[]",
					"name": "proof",
					"type": "bytes32[]"
				},
				{
					"internalType": "bytes32",
					"name": "root",
					"type": "bytes32"
				},
				{
					"internalType": "bytes32",
					"name": "leaf",
					"type": "bytes32"
				},
				{
					"internalType": "uint256",
					"name": "index",
					"type": "uint256"
				}
			],
			"name": "verify",
			"outputs": [
				{
					"internalType": "bool",
					"name": "",
					"type": "bool"
				}
			],
			"stateMutability": "pure",
			"type": "function"
		}
	]
}